{
  "_format": "hh-sol-artifact-1",
  "contractName": "ElectionBet",
  "sourceName": "contracts/ElectionBet.sol",
  "abi": [
    {
      "inputs": [
        {
          "internalType": "address",
          "name": "_oracle",
          "type": "address"
        },
        {
          "internalType": "string",
          "name": "_jobId",
          "type": "string"
        },
        {
          "internalType": "uint256",
          "name": "_fee",
          "type": "uint256"
        },
        {
          "internalType": "uint256",
          "name": "_serviceFeePercentage",
          "type": "uint256"
        },
        {
          "internalType": "address",
          "name": "_serviceFeeWallet",
          "type": "address"
        },
        {
          "internalType": "uint256",
          "name": "_bettingEndTime",
          "type": "uint256"
        }
      ],
      "stateMutability": "nonpayable",
      "type": "constructor"
    },
    {
      "anonymous": false,
      "inputs": [
        {
          "indexed": true,
          "internalType": "address",
          "name": "bettor",
          "type": "address"
        },
        {
          "indexed": false,
          "internalType": "uint256",
          "name": "amount",
          "type": "uint256"
        },
        {
          "indexed": false,
          "internalType": "string",
          "name": "candidate",
          "type": "string"
        }
      ],
      "name": "BetMade",
      "type": "event"
    },
    {
      "anonymous": false,
      "inputs": [
        {
          "indexed": true,
          "internalType": "address",
          "name": "bettor",
          "type": "address"
        },
        {
          "indexed": false,
          "internalType": "uint256",
          "name": "amount",
          "type": "uint256"
        },
        {
          "indexed": false,
          "internalType": "string",
          "name": "candidate",
          "type": "string"
        }
      ],
      "name": "BetWithdrawn",
      "type": "event"
    },
    {
      "anonymous": false,
      "inputs": [
        {
          "indexed": true,
          "internalType": "bytes32",
          "name": "id",
          "type": "bytes32"
        }
      ],
      "name": "ChainlinkCancelled",
      "type": "event"
    },
    {
      "anonymous": false,
      "inputs": [
        {
          "indexed": true,
          "internalType": "bytes32",
          "name": "id",
          "type": "bytes32"
        }
      ],
      "name": "ChainlinkFulfilled",
      "type": "event"
    },
    {
      "anonymous": false,
      "inputs": [
        {
          "indexed": true,
          "internalType": "bytes32",
          "name": "id",
          "type": "bytes32"
        }
      ],
      "name": "ChainlinkRequested",
      "type": "event"
    },
    {
      "anonymous": false,
      "inputs": [
        {
          "indexed": false,
          "internalType": "string",
          "name": "winner",
          "type": "string"
        }
      ],
      "name": "ElectionResultReceived",
      "type": "event"
    },
    {
      "anonymous": false,
      "inputs": [
        {
          "indexed": true,
          "internalType": "address",
          "name": "previousOwner",
          "type": "address"
        },
        {
          "indexed": true,
          "internalType": "address",
          "name": "newOwner",
          "type": "address"
        }
      ],
      "name": "OwnershipTransferred",
      "type": "event"
    },
    {
      "inputs": [
        {
          "internalType": "uint256",
          "name": "",
          "type": "uint256"
        }
      ],
      "name": "bets",
      "outputs": [
        {
          "internalType": "address",
          "name": "bettor",
          "type": "address"
        },
        {
          "internalType": "uint256",
          "name": "amount",
          "type": "uint256"
        },
        {
          "internalType": "string",
          "name": "candidate",
          "type": "string"
        },
        {
          "internalType": "bool",
          "name": "withdrawn",
          "type": "bool"
        }
      ],
      "stateMutability": "view",
      "type": "function"
    },
    {
      "inputs": [
        {
          "internalType": "uint256",
          "name": "betAmount",
          "type": "uint256"
        },
        {
          "internalType": "string",
          "name": "candidate",
          "type": "string"
        }
      ],
      "name": "calculatePossibleWin",
      "outputs": [
        {
          "internalType": "uint256",
          "name": "",
          "type": "uint256"
        }
      ],
      "stateMutability": "view",
      "type": "function"
    },
    {
      "inputs": [],
      "name": "electionConfirmation",
      "outputs": [
        {
          "internalType": "uint256",
          "name": "count",
          "type": "uint256"
        },
        {
          "internalType": "string",
          "name": "result",
          "type": "string"
        },
        {
          "internalType": "uint256",
          "name": "lastConfirmationTimestamp",
          "type": "uint256"
        }
      ],
      "stateMutability": "view",
      "type": "function"
    },
    {
      "inputs": [
        {
          "internalType": "bytes32",
          "name": "_requestId",
          "type": "bytes32"
        },
        {
          "internalType": "string",
          "name": "_winner",
          "type": "string"
        }
      ],
      "name": "fulfill",
      "outputs": [],
      "stateMutability": "nonpayable",
      "type": "function"
    },
    {
      "inputs": [],
      "name": "getElectionResult",
      "outputs": [
        {
          "internalType": "bytes32",
          "name": "requestId",
          "type": "bytes32"
        }
      ],
      "stateMutability": "nonpayable",
      "type": "function"
    },
    {
      "inputs": [
        {
          "internalType": "string",
          "name": "candidate",
          "type": "string"
        }
      ],
      "name": "makeBet",
      "outputs": [],
      "stateMutability": "payable",
      "type": "function"
    },
    {
      "inputs": [],
      "name": "owner",
      "outputs": [
        {
          "internalType": "address",
          "name": "",
          "type": "address"
        }
      ],
      "stateMutability": "view",
      "type": "function"
    },
    {
      "inputs": [],
      "name": "renounceOwnership",
      "outputs": [],
      "stateMutability": "nonpayable",
      "type": "function"
    },
    {
      "inputs": [
        {
          "internalType": "uint256",
          "name": "_bettingEndTime",
          "type": "uint256"
        }
      ],
      "name": "setBettingEndTime",
      "outputs": [],
      "stateMutability": "nonpayable",
      "type": "function"
    },
    {
      "inputs": [
        {
          "internalType": "uint256",
          "name": "_fee",
          "type": "uint256"
        }
      ],
      "name": "setFee",
      "outputs": [],
      "stateMutability": "nonpayable",
      "type": "function"
    },
    {
      "inputs": [
        {
          "internalType": "bytes32",
          "name": "_jobId",
          "type": "bytes32"
        }
      ],
      "name": "setJobId",
      "outputs": [],
      "stateMutability": "nonpayable",
      "type": "function"
    },
    {
      "inputs": [
        {
          "internalType": "address",
          "name": "_oracle",
          "type": "address"
        }
      ],
      "name": "setOracle",
      "outputs": [],
      "stateMutability": "nonpayable",
      "type": "function"
    },
    {
      "inputs": [
        {
          "internalType": "uint256",
          "name": "_serviceFeePercentage",
          "type": "uint256"
        }
      ],
      "name": "setServiceFeePercentage",
      "outputs": [],
      "stateMutability": "nonpayable",
      "type": "function"
    },
    {
      "inputs": [
        {
          "internalType": "address",
          "name": "_serviceFeeWallet",
          "type": "address"
        }
      ],
      "name": "setServiceFeeWallet",
      "outputs": [],
      "stateMutability": "nonpayable",
      "type": "function"
    },
    {
      "inputs": [
        {
          "internalType": "string",
          "name": "source",
          "type": "string"
        }
      ],
      "name": "stringToBytes32",
      "outputs": [
        {
          "internalType": "bytes32",
          "name": "result",
          "type": "bytes32"
        }
      ],
      "stateMutability": "pure",
      "type": "function"
    },
    {
      "inputs": [
        {
          "internalType": "string",
          "name": "",
          "type": "string"
        }
      ],
      "name": "totalBets",
      "outputs": [
        {
          "internalType": "uint256",
          "name": "",
          "type": "uint256"
        }
      ],
      "stateMutability": "view",
      "type": "function"
    },
    {
      "inputs": [
        {
          "internalType": "address",
          "name": "newOwner",
          "type": "address"
        }
      ],
      "name": "transferOwnership",
      "outputs": [],
      "stateMutability": "nonpayable",
      "type": "function"
    },
    {
      "inputs": [
        {
          "internalType": "string",
          "name": "",
          "type": "string"
        }
      ],
      "name": "winnings",
      "outputs": [
        {
          "internalType": "uint256",
          "name": "",
          "type": "uint256"
        }
      ],
      "stateMutability": "view",
      "type": "function"
    },
    {
      "inputs": [],
      "name": "withdraw",
      "outputs": [],
      "stateMutability": "nonpayable",
      "type": "function"
    }
  ],
  "bytecode": "0x608060405260016004553480156200001657600080fd5b50604051620039203803806200392083398181016040528101906200003c919062000508565b6200005c620000506200019860201b60201c565b620001a060201b60201c565b6200008173a36085f69e2889c224210f603d836748e7dc00886200026660201b60201c565b85600760006101000a81548173ffffffffffffffffffffffffffffffffffffffff021916908373ffffffffffffffffffffffffffffffffffffffff160217905550620000d385620002aa60201b60201c565b6008819055508360098190555082600a8190555081600b60006101000a81548173ffffffffffffffffffffffffffffffffffffffff021916908373ffffffffffffffffffffffffffffffffffffffff16021790555080600c81905550604051806060016040528060008152602001604051806020016040528060008152508152602001600081525060106000820151816000015560208201518160010190816200017e919062000804565b5060408201518160020155905050505050505050620008eb565b600033905090565b6000600660009054906101000a900473ffffffffffffffffffffffffffffffffffffffff16905081600660006101000a81548173ffffffffffffffffffffffffffffffffffffffff021916908373ffffffffffffffffffffffffffffffffffffffff1602179055508173ffffffffffffffffffffffffffffffffffffffff168173ffffffffffffffffffffffffffffffffffffffff167f8be0079c531659141344cd1fd0a4f28419497f9722a3daafe3b4186f6b6457e060405160405180910390a35050565b80600260006101000a81548173ffffffffffffffffffffffffffffffffffffffff021916908373ffffffffffffffffffffffffffffffffffffffff16021790555050565b6000808290506000815103620002c7576000801b915050620002d0565b60208301519150505b919050565b6000604051905090565b600080fd5b600080fd5b600073ffffffffffffffffffffffffffffffffffffffff82169050919050565b60006200031682620002e9565b9050919050565b620003288162000309565b81146200033457600080fd5b50565b60008151905062000348816200031d565b92915050565b600080fd5b600080fd5b6000601f19601f8301169050919050565b7f4e487b7100000000000000000000000000000000000000000000000000000000600052604160045260246000fd5b620003a38262000358565b810181811067ffffffffffffffff82111715620003c557620003c462000369565b5b80604052505050565b6000620003da620002d5565b9050620003e8828262000398565b919050565b600067ffffffffffffffff8211156200040b576200040a62000369565b5b620004168262000358565b9050602081019050919050565b60005b838110156200044357808201518184015260208101905062000426565b60008484015250505050565b6000620004666200046084620003ed565b620003ce565b90508281526020810184848401111562000485576200048462000353565b5b6200049284828562000423565b509392505050565b600082601f830112620004b257620004b16200034e565b5b8151620004c48482602086016200044f565b91505092915050565b6000819050919050565b620004e281620004cd565b8114620004ee57600080fd5b50565b6000815190506200050281620004d7565b92915050565b60008060008060008060c08789031215620005285762000527620002df565b5b60006200053889828a0162000337565b965050602087015167ffffffffffffffff8111156200055c576200055b620002e4565b5b6200056a89828a016200049a565b95505060406200057d89828a01620004f1565b94505060606200059089828a01620004f1565b9350506080620005a389828a0162000337565b92505060a0620005b689828a01620004f1565b9150509295509295509295565b600081519050919050565b7f4e487b7100000000000000000000000000000000000000000000000000000000600052602260045260246000fd5b600060028204905060018216806200061657607f821691505b6020821081036200062c576200062b620005ce565b5b50919050565b60008190508160005260206000209050919050565b60006020601f8301049050919050565b600082821b905092915050565b600060088302620006967fffffffffffffffffffffffffffffffffffffffffffffffffffffffffffffffff8262000657565b620006a2868362000657565b95508019841693508086168417925050509392505050565b6000819050919050565b6000620006e5620006df620006d984620004cd565b620006ba565b620004cd565b9050919050565b6000819050919050565b6200070183620006c4565b620007196200071082620006ec565b84845462000664565b825550505050565b600090565b6200073062000721565b6200073d818484620006f6565b505050565b5b8181101562000765576200075960008262000726565b60018101905062000743565b5050565b601f821115620007b4576200077e8162000632565b620007898462000647565b8101602085101562000799578190505b620007b1620007a88562000647565b83018262000742565b50505b505050565b600082821c905092915050565b6000620007d960001984600802620007b9565b1980831691505092915050565b6000620007f48383620007c6565b9150826002028217905092915050565b6200080f82620005c3565b67ffffffffffffffff8111156200082b576200082a62000369565b5b620008378254620005fd565b6200084482828562000769565b600060209050601f8311600181146200087c576000841562000867578287015190505b620008738582620007e6565b865550620008e3565b601f1984166200088c8662000632565b60005b82811015620008b6578489015182556001820191506020850194506020810190506200088f565b86831015620008d65784890151620008d2601f891682620007c6565b8355505b6001600288020188555050505b505050505050565b61302580620008fb6000396000f3fe6080604052600436106101145760003560e01c80638da5cb5b116100a0578063c38aee3811610064578063c38aee381461037f578063ca3eb443146103a8578063cfb51928146103d3578063e1c186e314610410578063f2fde38b1461043957610114565b80638da5cb5b1461027057806393c700241461029b578063a1192064146102c8578063aef0e4ac14610305578063c316e8e31461034257610114565b806369fe0e2d116100e757806369fe0e2d146101c2578063715018a6146101eb5780637228138614610202578063723750781461022b5780637adbf9731461024757610114565b806322af00fa1461011957806337441996146101595780633ccfd60b14610182578063508954f814610199575b600080fd5b34801561012557600080fd5b50610140600480360381019061013b9190611cba565b610462565b6040516101509493929190611de2565b60405180910390f35b34801561016557600080fd5b50610180600480360381019061017b9190611f99565b610557565b005b34801561018e57600080fd5b5061019761080b565b005b3480156101a557600080fd5b506101c060048036038101906101bb9190611ff5565b610a15565b005b3480156101ce57600080fd5b506101e960048036038101906101e49190611cba565b610a9b565b005b3480156101f757600080fd5b50610200610b21565b005b34801561020e57600080fd5b506102296004803603810190610224919061204e565b610ba9565b005b6102456004803603810190610240919061207b565b610c69565b005b34801561025357600080fd5b5061026e6004803603810190610269919061204e565b610f02565b005b34801561027c57600080fd5b50610285610fc2565b60405161029291906120c4565b60405180910390f35b3480156102a757600080fd5b506102b0610fec565b6040516102bf939291906120df565b60405180910390f35b3480156102d457600080fd5b506102ef60048036038101906102ea919061207b565b61108c565b6040516102fc919061211d565b60405180910390f35b34801561031157600080fd5b5061032c6004803603810190610327919061207b565b6110ba565b604051610339919061211d565b60405180910390f35b34801561034e57600080fd5b5061036960048036038101906103649190612138565b6110e8565b604051610376919061211d565b60405180910390f35b34801561038b57600080fd5b506103a660048036038101906103a19190611cba565b61126c565b005b3480156103b457600080fd5b506103bd6112f2565b6040516103ca91906121a3565b60405180910390f35b3480156103df57600080fd5b506103fa60048036038101906103f5919061207b565b6113bd565b60405161040791906121a3565b60405180910390f35b34801561041c57600080fd5b5061043760048036038101906104329190611cba565b6113e6565b005b34801561044557600080fd5b50610460600480360381019061045b919061204e565b6114b0565b005b600d818154811061047257600080fd5b90600052602060002090600402016000915090508060000160009054906101000a900473ffffffffffffffffffffffffffffffffffffffff16908060010154908060020180546104c1906121ed565b80601f01602080910402602001604051908101604052809291908181526020018280546104ed906121ed565b801561053a5780601f1061050f5761010080835404028352916020019161053a565b820191906000526020600020905b81548152906001019060200180831161051d57829003601f168201915b5050505050908060030160009054906101000a900460ff16905084565b816005600082815260200190815260200160002060009054906101000a900473ffffffffffffffffffffffffffffffffffffffff1673ffffffffffffffffffffffffffffffffffffffff163373ffffffffffffffffffffffffffffffffffffffff16146105f9576040517f08c379a00000000000000000000000000000000000000000000000000000000081526004016105f090612290565b60405180910390fd5b6005600082815260200190815260200160002060006101000a81549073ffffffffffffffffffffffffffffffffffffffff0219169055807f7cc135e0cebb02c3480ae5d74d377283180a2601f8f644edf7987b009316c63a60405160405180910390a27fc93a6fedee8cb8614762d4a2c6a6fac249f043a9d64d1c477c21f2e46b3b61408260405161068b91906122b0565b60405180910390a160106001016040516106a59190612375565b60405180910390208280519060200120146106e757600160106000018190555081601060010190816106d79190612538565b5042601060020181905550610806565b61012c6010600201546106fa9190612639565b421061080557601060000160008154809291906107169061266d565b919050555042601060020181905550600360106000015403610804577fc93a6fedee8cb8614762d4a2c6a6fac249f043a9d64d1c477c21f2e46b3b614060106001016040516107659190612739565b60405180910390a161080360106001018054610780906121ed565b80601f01602080910402602001604051908101604052809291908181526020018280546107ac906121ed565b80156107f95780601f106107ce576101008083540402835291602001916107f9565b820191906000526020600020905b8154815290600101906020018083116107dc57829003601f168201915b50505050506115a7565b5b5b5b505050565b600080600090505b600d80549050811015610939576000600d82815481106108365761083561275b565b5b906000526020600020906004020190503373ffffffffffffffffffffffffffffffffffffffff168160000160009054906101000a900473ffffffffffffffffffffffffffffffffffffffff1673ffffffffffffffffffffffffffffffffffffffff161480156108b457508060030160009054906101000a900460ff16155b15610925578060010154836108c99190612639565b925060018160030160006101000a81548160ff0219169083151502179055508060010154600e826002016040516109009190612818565b9081526020016040518091039020600082825461091d919061282f565b925050819055505b5080806109319061266d565b915050610813565b506000811161097d576040517f08c379a0000000000000000000000000000000000000000000000000000000008152600401610974906128af565b60405180910390fd5b3373ffffffffffffffffffffffffffffffffffffffff166108fc829081150290604051600060405180830381858888f193505050501580156109c3573d6000803e3d6000fd5b503373ffffffffffffffffffffffffffffffffffffffff167f464193b855eb16d5efcea88f1f239b57b2bb2f8877413804c05f825e9e6132c882604051610a0a91906128f5565b60405180910390a250565b610a1d61176f565b73ffffffffffffffffffffffffffffffffffffffff16610a3b610fc2565b73ffffffffffffffffffffffffffffffffffffffff1614610a91576040517f08c379a0000000000000000000000000000000000000000000000000000000008152600401610a889061296f565b60405180910390fd5b8060088190555050565b610aa361176f565b73ffffffffffffffffffffffffffffffffffffffff16610ac1610fc2565b73ffffffffffffffffffffffffffffffffffffffff1614610b17576040517f08c379a0000000000000000000000000000000000000000000000000000000008152600401610b0e9061296f565b60405180910390fd5b8060098190555050565b610b2961176f565b73ffffffffffffffffffffffffffffffffffffffff16610b47610fc2565b73ffffffffffffffffffffffffffffffffffffffff1614610b9d576040517f08c379a0000000000000000000000000000000000000000000000000000000008152600401610b949061296f565b60405180910390fd5b610ba76000611777565b565b610bb161176f565b73ffffffffffffffffffffffffffffffffffffffff16610bcf610fc2565b73ffffffffffffffffffffffffffffffffffffffff1614610c25576040517f08c379a0000000000000000000000000000000000000000000000000000000008152600401610c1c9061296f565b60405180910390fd5b80600b60006101000a81548173ffffffffffffffffffffffffffffffffffffffff021916908373ffffffffffffffffffffffffffffffffffffffff16021790555050565b6040518060400160405280600581526020017f4b656d616c0000000000000000000000000000000000000000000000000000008152508051906020012081805190602001201480610cfc57506040518060400160405280600781526020017f4572646f67616e00000000000000000000000000000000000000000000000000815250805190602001208180519060200120145b610d3b576040517f08c379a0000000000000000000000000000000000000000000000000000000008152600401610d32906129db565b60405180910390fd5b600c54421115610d80576040517f08c379a0000000000000000000000000000000000000000000000000000000008152600401610d7790612a47565b60405180910390fd5b6000349050600060405180608001604052803373ffffffffffffffffffffffffffffffffffffffff168152602001838152602001848152602001600015158152509050600d81908060018154018082558091505060019003906000526020600020906004020160009091909190915060008201518160000160006101000a81548173ffffffffffffffffffffffffffffffffffffffff021916908373ffffffffffffffffffffffffffffffffffffffff160217905550602082015181600101556040820151816002019081610e559190612538565b5060608201518160030160006101000a81548160ff021916908315150217905550505081600e84604051610e899190612a98565b90815260200160405180910390206000828254610ea69190612639565b925050819055503373ffffffffffffffffffffffffffffffffffffffff167fcc6833ded30742d7f7c3b02b2a9144fdd7e899726980e967a0a4d09d6aeb20998385604051610ef5929190612aaf565b60405180910390a2505050565b610f0a61176f565b73ffffffffffffffffffffffffffffffffffffffff16610f28610fc2565b73ffffffffffffffffffffffffffffffffffffffff1614610f7e576040517f08c379a0000000000000000000000000000000000000000000000000000000008152600401610f759061296f565b60405180910390fd5b80600760006101000a81548173ffffffffffffffffffffffffffffffffffffffff021916908373ffffffffffffffffffffffffffffffffffffffff16021790555050565b6000600660009054906101000a900473ffffffffffffffffffffffffffffffffffffffff16905090565b6010806000015490806001018054611003906121ed565b80601f016020809104026020016040519081016040528092919081815260200182805461102f906121ed565b801561107c5780601f106110515761010080835404028352916020019161107c565b820191906000526020600020905b81548152906001019060200180831161105f57829003601f168201915b5050505050908060020154905083565b600f818051602081018201805184825260208301602085012081835280955050505050506000915090505481565b600e818051602081018201805184825260208301602085012081835280955050505050506000915090505481565b60006040518060400160405280600581526020017f4b656d616c000000000000000000000000000000000000000000000000000000815250805190602001208280519060200120148061117d57506040518060400160405280600781526020017f4572646f67616e00000000000000000000000000000000000000000000000000815250805190602001208280519060200120145b6111bc576040517f08c379a00000000000000000000000000000000000000000000000000000000081526004016111b3906129db565b60405180910390fd5b6000600e836040516111ce9190612a98565b9081526020016040518091039020549050600081036111f1576000915050611266565b6000600f846040516112039190612a98565b908152602001604051809103902054905060008282876112239190612adf565b61122d9190612b50565b905060006064600a54836112419190612adf565b61124b9190612b50565b90506000818361125b919061282f565b905080955050505050505b92915050565b61127461176f565b73ffffffffffffffffffffffffffffffffffffffff16611292610fc2565b73ffffffffffffffffffffffffffffffffffffffff16146112e8576040517f08c379a00000000000000000000000000000000000000000000000000000000081526004016112df9061296f565b60405180910390fd5b80600c8190555050565b60006112fc61176f565b73ffffffffffffffffffffffffffffffffffffffff1661131a610fc2565b73ffffffffffffffffffffffffffffffffffffffff1614611370576040517f08c379a00000000000000000000000000000000000000000000000000000000081526004016113679061296f565b60405180910390fd5b600061138660085430633744199660e01b61183d565b90506113b7600760009054906101000a900473ffffffffffffffffffffffffffffffffffffffff168260095461186e565b91505090565b60008082905060008151036113d8576000801b9150506113e1565b60208301519150505b919050565b6113ee61176f565b73ffffffffffffffffffffffffffffffffffffffff1661140c610fc2565b73ffffffffffffffffffffffffffffffffffffffff1614611462576040517f08c379a00000000000000000000000000000000000000000000000000000000081526004016114599061296f565b60405180910390fd5b60058111156114a6576040517f08c379a000000000000000000000000000000000000000000000000000000000815260040161149d90612bf3565b60405180910390fd5b80600a8190555050565b6114b861176f565b73ffffffffffffffffffffffffffffffffffffffff166114d6610fc2565b73ffffffffffffffffffffffffffffffffffffffff161461152c576040517f08c379a00000000000000000000000000000000000000000000000000000000081526004016115239061296f565b60405180910390fd5b600073ffffffffffffffffffffffffffffffffffffffff168173ffffffffffffffffffffffffffffffffffffffff160361159b576040517f08c379a000000000000000000000000000000000000000000000000000000000815260040161159290612c85565b60405180910390fd5b6115a481611777565b50565b6000600e826040516115b99190612a98565b9081526020016040518091039020549050600081036115d8575061176c565b600081905080600f846040516115ee9190612a98565b90815260200160405180910390208190555060005b600d80549050811015611768578380519060200120600d828154811061162c5761162b61275b565b5b906000526020600020906004020160020160405161164a9190612375565b6040518091039020036117555760008383600d848154811061166f5761166e61275b565b5b90600052602060002090600402016001015461168b9190612adf565b6116959190612b50565b905060006064600a54836116a99190612adf565b6116b39190612b50565b9050600081836116c3919061282f565b9050600d84815481106116d9576116d861275b565b5b906000526020600020906004020160000160009054906101000a900473ffffffffffffffffffffffffffffffffffffffff1673ffffffffffffffffffffffffffffffffffffffff166108fc829081150290604051600060405180830381858888f19350505050158015611750573d6000803e3d6000fd5b505050505b80806117609061266d565b915050611603565b5050505b50565b600033905090565b6000600660009054906101000a900473ffffffffffffffffffffffffffffffffffffffff16905081600660006101000a81548173ffffffffffffffffffffffffffffffffffffffff021916908373ffffffffffffffffffffffffffffffffffffffff1602179055508173ffffffffffffffffffffffffffffffffffffffff168173ffffffffffffffffffffffffffffffffffffffff167f8be0079c531659141344cd1fd0a4f28419497f9722a3daafe3b4186f6b6457e060405160405180910390a35050565b611845611be9565b61184d611be9565b6118648585858461193a909392919063ffffffff16565b9150509392505050565b60008060045490506001816118839190612639565b6004819055506000634042994660e01b60008087600001513089604001518760018c60800151600001516040516024016118c4989796959493929190612d35565b604051602081830303815290604052907bffffffffffffffffffffffffffffffffffffffffffffffffffffffff19166020820180517bffffffffffffffffffffffffffffffffffffffffffffffffffffffff8381831617835250505050905061192f868386846119ea565b925050509392505050565b611942611be9565b6119528560800151610100611b7f565b508385600001818152505082856020019073ffffffffffffffffffffffffffffffffffffffff16908173ffffffffffffffffffffffffffffffffffffffff16815250508185604001907bffffffffffffffffffffffffffffffffffffffffffffffffffffffff191690817bffffffffffffffffffffffffffffffffffffffffffffffffffffffff191681525050849050949350505050565b600030846040516020016119ff929190612e69565b604051602081830303815290604052805190602001209050846005600083815260200190815260200160002060006101000a81548173ffffffffffffffffffffffffffffffffffffffff021916908373ffffffffffffffffffffffffffffffffffffffff160217905550807fb5e6e01e79f91267dc17b4e6314d5d4d03593d2ceee0fbb452b750bd70ea5af960405160405180910390a2600260009054906101000a900473ffffffffffffffffffffffffffffffffffffffff1673ffffffffffffffffffffffffffffffffffffffff16634000aea08685856040518463ffffffff1660e01b8152600401611af593929190612e95565b6020604051808303816000875af1158015611b14573d6000803e3d6000fd5b505050506040513d601f19601f82011682018060405250810190611b389190612eff565b611b77576040517f08c379a0000000000000000000000000000000000000000000000000000000008152600401611b6e90612f9e565b60405180910390fd5b949350505050565b611b87611c56565b6000602083611b969190612fbe565b14611bc257602082611ba89190612fbe565b6020611bb4919061282f565b82611bbf9190612639565b91505b81836020018181525050604051808452600081528281016020016040525082905092915050565b6040518060a0016040528060008019168152602001600073ffffffffffffffffffffffffffffffffffffffff16815260200160007bffffffffffffffffffffffffffffffffffffffffffffffffffffffff1916815260200160008152602001611c50611c56565b81525090565b604051806040016040528060608152602001600081525090565b6000604051905090565b600080fd5b600080fd5b6000819050919050565b611c9781611c84565b8114611ca257600080fd5b50565b600081359050611cb481611c8e565b92915050565b600060208284031215611cd057611ccf611c7a565b5b6000611cde84828501611ca5565b91505092915050565b600073ffffffffffffffffffffffffffffffffffffffff82169050919050565b6000611d1282611ce7565b9050919050565b611d2281611d07565b82525050565b611d3181611c84565b82525050565b600081519050919050565b600082825260208201905092915050565b60005b83811015611d71578082015181840152602081019050611d56565b60008484015250505050565b6000601f19601f8301169050919050565b6000611d9982611d37565b611da38185611d42565b9350611db3818560208601611d53565b611dbc81611d7d565b840191505092915050565b60008115159050919050565b611ddc81611dc7565b82525050565b6000608082019050611df76000830187611d19565b611e046020830186611d28565b8181036040830152611e168185611d8e565b9050611e256060830184611dd3565b95945050505050565b6000819050919050565b611e4181611e2e565b8114611e4c57600080fd5b50565b600081359050611e5e81611e38565b92915050565b600080fd5b600080fd5b7f4e487b7100000000000000000000000000000000000000000000000000000000600052604160045260246000fd5b611ea682611d7d565b810181811067ffffffffffffffff82111715611ec557611ec4611e6e565b5b80604052505050565b6000611ed8611c70565b9050611ee48282611e9d565b919050565b600067ffffffffffffffff821115611f0457611f03611e6e565b5b611f0d82611d7d565b9050602081019050919050565b82818337600083830152505050565b6000611f3c611f3784611ee9565b611ece565b905082815260208101848484011115611f5857611f57611e69565b5b611f63848285611f1a565b509392505050565b600082601f830112611f8057611f7f611e64565b5b8135611f90848260208601611f29565b91505092915050565b60008060408385031215611fb057611faf611c7a565b5b6000611fbe85828601611e4f565b925050602083013567ffffffffffffffff811115611fdf57611fde611c7f565b5b611feb85828601611f6b565b9150509250929050565b60006020828403121561200b5761200a611c7a565b5b600061201984828501611e4f565b91505092915050565b61202b81611d07565b811461203657600080fd5b50565b60008135905061204881612022565b92915050565b60006020828403121561206457612063611c7a565b5b600061207284828501612039565b91505092915050565b60006020828403121561209157612090611c7a565b5b600082013567ffffffffffffffff8111156120af576120ae611c7f565b5b6120bb84828501611f6b565b91505092915050565b60006020820190506120d96000830184611d19565b92915050565b60006060820190506120f46000830186611d28565b81810360208301526121068185611d8e565b90506121156040830184611d28565b949350505050565b60006020820190506121326000830184611d28565b92915050565b6000806040838503121561214f5761214e611c7a565b5b600061215d85828601611ca5565b925050602083013567ffffffffffffffff81111561217e5761217d611c7f565b5b61218a85828601611f6b565b9150509250929050565b61219d81611e2e565b82525050565b60006020820190506121b86000830184612194565b92915050565b7f4e487b7100000000000000000000000000000000000000000000000000000000600052602260045260246000fd5b6000600282049050600182168061220557607f821691505b602082108103612218576122176121be565b5b50919050565b7f536f75726365206d75737420626520746865206f7261636c65206f662074686560008201527f2072657175657374000000000000000000000000000000000000000000000000602082015250565b600061227a602883611d42565b91506122858261221e565b604082019050919050565b600060208201905081810360008301526122a98161226d565b9050919050565b600060208201905081810360008301526122ca8184611d8e565b905092915050565b600081905092915050565b60008190508160005260206000209050919050565b600081546122ff816121ed565b61230981866122d2565b9450600182166000811461232457600181146123395761236c565b60ff198316865281151582028601935061236c565b612342856122dd565b60005b8381101561236457815481890152600182019150602081019050612345565b838801955050505b50505092915050565b600061238182846122f2565b915081905092915050565b60008190508160005260206000209050919050565b60006020601f8301049050919050565b600082821b905092915050565b6000600883026123ee7fffffffffffffffffffffffffffffffffffffffffffffffffffffffffffffffff826123b1565b6123f886836123b1565b95508019841693508086168417925050509392505050565b6000819050919050565b600061243561243061242b84611c84565b612410565b611c84565b9050919050565b6000819050919050565b61244f8361241a565b61246361245b8261243c565b8484546123be565b825550505050565b600090565b61247861246b565b612483818484612446565b505050565b5b818110156124a75761249c600082612470565b600181019050612489565b5050565b601f8211156124ec576124bd8161238c565b6124c6846123a1565b810160208510156124d5578190505b6124e96124e1856123a1565b830182612488565b50505b505050565b600082821c905092915050565b600061250f600019846008026124f1565b1980831691505092915050565b600061252883836124fe565b9150826002028217905092915050565b61254182611d37565b67ffffffffffffffff81111561255a57612559611e6e565b5b61256482546121ed565b61256f8282856124ab565b600060209050601f8311600181146125a25760008415612590578287015190505b61259a858261251c565b865550612602565b601f1984166125b08661238c565b60005b828110156125d8578489015182556001820191506020850194506020810190506125b3565b868310156125f557848901516125f1601f8916826124fe565b8355505b6001600288020188555050505b505050505050565b7f4e487b7100000000000000000000000000000000000000000000000000000000600052601160045260246000fd5b600061264482611c84565b915061264f83611c84565b92508282019050808211156126675761266661260a565b5b92915050565b600061267882611c84565b91507fffffffffffffffffffffffffffffffffffffffffffffffffffffffffffffffff82036126aa576126a961260a565b5b600182019050919050565b600081546126c2816121ed565b6126cc8186611d42565b945060018216600081146126e757600181146126fd57612730565b60ff198316865281151560200286019350612730565b6127068561238c565b60005b8381101561272857815481890152600182019150602081019050612709565b808801955050505b50505092915050565b6000602082019050818103600083015261275381846126b5565b905092915050565b7f4e487b7100000000000000000000000000000000000000000000000000000000600052603260045260246000fd5b600081905092915050565b600081546127a2816121ed565b6127ac818661278a565b945060018216600081146127c757600181146127dc5761280f565b60ff198316865281151582028601935061280f565b6127e58561238c565b60005b83811015612807578154818901526001820191506020810190506127e8565b838801955050505b50505092915050565b60006128248284612795565b915081905092915050565b600061283a82611c84565b915061284583611c84565b925082820390508181111561285d5761285c61260a565b5b92915050565b7f4e6f206265747320746f20776974686472617700000000000000000000000000600082015250565b6000612899601383611d42565b91506128a482612863565b602082019050919050565b600060208201905081810360008301526128c88161288c565b9050919050565b50565b60006128df600083611d42565b91506128ea826128cf565b600082019050919050565b600060408201905061290a6000830184611d28565b818103602083015261291b816128d2565b905092915050565b7f4f776e61626c653a2063616c6c6572206973206e6f7420746865206f776e6572600082015250565b6000612959602083611d42565b915061296482612923565b602082019050919050565b600060208201905081810360008301526129888161294c565b9050919050565b7f496e76616c69642063616e646964617465000000000000000000000000000000600082015250565b60006129c5601183611d42565b91506129d08261298f565b602082019050919050565b600060208201905081810360008301526129f4816129b8565b9050919050565b7f42657474696e672068617320656e646564000000000000000000000000000000600082015250565b6000612a31601183611d42565b9150612a3c826129fb565b602082019050919050565b60006020820190508181036000830152612a6081612a24565b9050919050565b6000612a7282611d37565b612a7c818561278a565b9350612a8c818560208601611d53565b80840191505092915050565b6000612aa48284612a67565b915081905092915050565b6000604082019050612ac46000830185611d28565b8181036020830152612ad68184611d8e565b90509392505050565b6000612aea82611c84565b9150612af583611c84565b9250828202612b0381611c84565b91508282048414831517612b1a57612b1961260a565b5b5092915050565b7f4e487b7100000000000000000000000000000000000000000000000000000000600052601260045260246000fd5b6000612b5b82611c84565b9150612b6683611c84565b925082612b7657612b75612b21565b5b828204905092915050565b7f53657276696365206665652070657263656e746167652073686f756c64206e6f60008201527f7420657863656564203500000000000000000000000000000000000000000000602082015250565b6000612bdd602a83611d42565b9150612be882612b81565b604082019050919050565b60006020820190508181036000830152612c0c81612bd0565b9050919050565b7f4f776e61626c653a206e6577206f776e657220697320746865207a65726f206160008201527f6464726573730000000000000000000000000000000000000000000000000000602082015250565b6000612c6f602683611d42565b9150612c7a82612c13565b604082019050919050565b60006020820190508181036000830152612c9e81612c62565b9050919050565b60007fffffffff0000000000000000000000000000000000000000000000000000000082169050919050565b612cda81612ca5565b82525050565b600081519050919050565b600082825260208201905092915050565b6000612d0782612ce0565b612d118185612ceb565b9350612d21818560208601611d53565b612d2a81611d7d565b840191505092915050565b600061010082019050612d4b600083018b611d19565b612d58602083018a611d28565b612d656040830189612194565b612d726060830188611d19565b612d7f6080830187612cd1565b612d8c60a0830186611d28565b612d9960c0830185611d28565b81810360e0830152612dab8184612cfc565b90509998505050505050505050565b6000612dd5612dd0612dcb84611ce7565b612410565b611ce7565b9050919050565b6000612de782612dba565b9050919050565b6000612df982612ddc565b9050919050565b60008160601b9050919050565b6000612e1882612e00565b9050919050565b6000612e2a82612e0d565b9050919050565b612e42612e3d82612dee565b612e1f565b82525050565b6000819050919050565b612e63612e5e82611c84565b612e48565b82525050565b6000612e758285612e31565b601482019150612e858284612e52565b6020820191508190509392505050565b6000606082019050612eaa6000830186611d19565b612eb76020830185611d28565b8181036040830152612ec98184612cfc565b9050949350505050565b612edc81611dc7565b8114612ee757600080fd5b50565b600081519050612ef981612ed3565b92915050565b600060208284031215612f1557612f14611c7a565b5b6000612f2384828501612eea565b91505092915050565b7f756e61626c6520746f207472616e73666572416e6443616c6c20746f206f726160008201527f636c650000000000000000000000000000000000000000000000000000000000602082015250565b6000612f88602383611d42565b9150612f9382612f2c565b604082019050919050565b60006020820190508181036000830152612fb781612f7b565b9050919050565b6000612fc982611c84565b9150612fd483611c84565b925082612fe457612fe3612b21565b5b82820690509291505056fea264697066735822122032fdcc5f3c070ceb6a9b483e338245327d41925503a338c9d1eda61638e6958964736f6c63430008130033",
  "linkReferences": {},
  "deployedLinkReferences": {}
}