{
  "_format": "hh-sol-artifact-1",
  "contractName": "ElectionBet",
  "sourceName": "contracts/ElectionBet.sol",
  "abi": [
    {
      "inputs": [
        {
          "internalType": "address",
          "name": "_oracle",
          "type": "address"
        },
        {
          "internalType": "string",
          "name": "_jobId",
          "type": "string"
        },
        {
          "internalType": "uint256",
          "name": "_fee",
          "type": "uint256"
        },
        {
          "internalType": "uint256",
          "name": "_serviceFeePercentage",
          "type": "uint256"
        },
        {
          "internalType": "address",
          "name": "_serviceFeeWallet",
          "type": "address"
        },
        {
          "internalType": "uint256",
          "name": "_bettingEndTime",
          "type": "uint256"
        }
      ],
      "stateMutability": "nonpayable",
      "type": "constructor"
    },
    {
      "anonymous": false,
      "inputs": [
        {
          "indexed": true,
          "internalType": "address",
          "name": "bettor",
          "type": "address"
        },
        {
          "indexed": false,
          "internalType": "uint256",
          "name": "amount",
          "type": "uint256"
        },
        {
          "indexed": false,
          "internalType": "string",
          "name": "candidate",
          "type": "string"
        }
      ],
      "name": "BetMade",
      "type": "event"
    },
    {
      "anonymous": false,
      "inputs": [
        {
          "indexed": true,
          "internalType": "address",
          "name": "bettor",
          "type": "address"
        },
        {
          "indexed": false,
          "internalType": "uint256",
          "name": "amount",
          "type": "uint256"
        },
        {
          "indexed": false,
          "internalType": "string",
          "name": "candidate",
          "type": "string"
        }
      ],
      "name": "BetWithdrawn",
      "type": "event"
    },
    {
      "anonymous": false,
      "inputs": [
        {
          "indexed": true,
          "internalType": "bytes32",
          "name": "id",
          "type": "bytes32"
        }
      ],
      "name": "ChainlinkCancelled",
      "type": "event"
    },
    {
      "anonymous": false,
      "inputs": [
        {
          "indexed": true,
          "internalType": "bytes32",
          "name": "id",
          "type": "bytes32"
        }
      ],
      "name": "ChainlinkFulfilled",
      "type": "event"
    },
    {
      "anonymous": false,
      "inputs": [
        {
          "indexed": true,
          "internalType": "bytes32",
          "name": "id",
          "type": "bytes32"
        }
      ],
      "name": "ChainlinkRequested",
      "type": "event"
    },
    {
      "anonymous": false,
      "inputs": [
        {
          "indexed": false,
          "internalType": "string",
          "name": "winner",
          "type": "string"
        }
      ],
      "name": "ElectionResultReceived",
      "type": "event"
    },
    {
      "anonymous": false,
      "inputs": [
        {
          "indexed": true,
          "internalType": "address",
          "name": "previousOwner",
          "type": "address"
        },
        {
          "indexed": true,
          "internalType": "address",
          "name": "newOwner",
          "type": "address"
        }
      ],
      "name": "OwnershipTransferred",
      "type": "event"
    },
    {
      "inputs": [
        {
          "internalType": "uint256",
          "name": "",
          "type": "uint256"
        }
      ],
      "name": "bets",
      "outputs": [
        {
          "internalType": "address",
          "name": "bettor",
          "type": "address"
        },
        {
          "internalType": "uint256",
          "name": "amount",
          "type": "uint256"
        },
        {
          "internalType": "string",
          "name": "candidate",
          "type": "string"
        },
        {
          "internalType": "bool",
          "name": "withdrawn",
          "type": "bool"
        }
      ],
      "stateMutability": "view",
      "type": "function"
    },
    {
      "inputs": [],
      "name": "bettingEndTime",
      "outputs": [
        {
          "internalType": "uint256",
          "name": "",
          "type": "uint256"
        }
      ],
      "stateMutability": "view",
      "type": "function"
    },
    {
      "inputs": [
        {
          "internalType": "address",
          "name": "user",
          "type": "address"
        },
        {
          "internalType": "string",
          "name": "candidate",
          "type": "string"
        }
      ],
      "name": "calculateUserBet",
      "outputs": [
        {
          "internalType": "uint256",
          "name": "",
          "type": "uint256"
        }
      ],
      "stateMutability": "view",
      "type": "function"
    },
    {
      "inputs": [],
      "name": "electionConfirmation",
      "outputs": [
        {
          "internalType": "uint256",
          "name": "count",
          "type": "uint256"
        },
        {
          "internalType": "string",
          "name": "result",
          "type": "string"
        },
        {
          "internalType": "uint256",
          "name": "lastConfirmationTimestamp",
          "type": "uint256"
        }
      ],
      "stateMutability": "view",
      "type": "function"
    },
    {
      "inputs": [],
      "name": "fee",
      "outputs": [
        {
          "internalType": "uint256",
          "name": "",
          "type": "uint256"
        }
      ],
      "stateMutability": "view",
      "type": "function"
    },
    {
      "inputs": [
        {
          "internalType": "bytes32",
          "name": "_requestId",
          "type": "bytes32"
        },
        {
          "internalType": "string",
          "name": "_winner",
          "type": "string"
        }
      ],
      "name": "fulfill",
      "outputs": [],
      "stateMutability": "nonpayable",
      "type": "function"
    },
    {
      "inputs": [],
      "name": "getElectionResult",
      "outputs": [
        {
          "internalType": "bytes32",
          "name": "requestId",
          "type": "bytes32"
        }
      ],
      "stateMutability": "nonpayable",
      "type": "function"
    },
    {
      "inputs": [
        {
          "internalType": "string",
          "name": "candidate",
          "type": "string"
        }
      ],
      "name": "makeBet",
      "outputs": [],
      "stateMutability": "payable",
      "type": "function"
    },
    {
      "inputs": [],
      "name": "owner",
      "outputs": [
        {
          "internalType": "address",
          "name": "",
          "type": "address"
        }
      ],
      "stateMutability": "view",
      "type": "function"
    },
    {
      "inputs": [],
      "name": "renounceOwnership",
      "outputs": [],
      "stateMutability": "nonpayable",
      "type": "function"
    },
    {
      "inputs": [],
      "name": "serviceFeePercentage",
      "outputs": [
        {
          "internalType": "uint256",
          "name": "",
          "type": "uint256"
        }
      ],
      "stateMutability": "view",
      "type": "function"
    },
    {
      "inputs": [],
      "name": "serviceFeeWallet",
      "outputs": [
        {
          "internalType": "address",
          "name": "",
          "type": "address"
        }
      ],
      "stateMutability": "view",
      "type": "function"
    },
    {
      "inputs": [
        {
          "internalType": "uint256",
          "name": "_bettingEndTime",
          "type": "uint256"
        }
      ],
      "name": "setBettingEndTime",
      "outputs": [],
      "stateMutability": "nonpayable",
      "type": "function"
    },
    {
      "inputs": [
        {
          "internalType": "uint256",
          "name": "_fee",
          "type": "uint256"
        }
      ],
      "name": "setFee",
      "outputs": [],
      "stateMutability": "nonpayable",
      "type": "function"
    },
    {
      "inputs": [
        {
          "internalType": "bytes32",
          "name": "_jobId",
          "type": "bytes32"
        }
      ],
      "name": "setJobId",
      "outputs": [],
      "stateMutability": "nonpayable",
      "type": "function"
    },
    {
      "inputs": [
        {
          "internalType": "address",
          "name": "_oracle",
          "type": "address"
        }
      ],
      "name": "setOracle",
      "outputs": [],
      "stateMutability": "nonpayable",
      "type": "function"
    },
    {
      "inputs": [
        {
          "internalType": "uint256",
          "name": "_serviceFeePercentage",
          "type": "uint256"
        }
      ],
      "name": "setServiceFeePercentage",
      "outputs": [],
      "stateMutability": "nonpayable",
      "type": "function"
    },
    {
      "inputs": [
        {
          "internalType": "address",
          "name": "_serviceFeeWallet",
          "type": "address"
        }
      ],
      "name": "setServiceFeeWallet",
      "outputs": [],
      "stateMutability": "nonpayable",
      "type": "function"
    },
    {
      "inputs": [
        {
          "internalType": "string",
          "name": "source",
          "type": "string"
        }
      ],
      "name": "stringToBytes32",
      "outputs": [
        {
          "internalType": "bytes32",
          "name": "result",
          "type": "bytes32"
        }
      ],
      "stateMutability": "pure",
      "type": "function"
    },
    {
      "inputs": [
        {
          "internalType": "string",
          "name": "",
          "type": "string"
        }
      ],
      "name": "totalBets",
      "outputs": [
        {
          "internalType": "uint256",
          "name": "",
          "type": "uint256"
        }
      ],
      "stateMutability": "view",
      "type": "function"
    },
    {
      "inputs": [
        {
          "internalType": "address",
          "name": "newOwner",
          "type": "address"
        }
      ],
      "name": "transferOwnership",
      "outputs": [],
      "stateMutability": "nonpayable",
      "type": "function"
    },
    {
      "inputs": [
        {
          "internalType": "string",
          "name": "",
          "type": "string"
        }
      ],
      "name": "winnings",
      "outputs": [
        {
          "internalType": "uint256",
          "name": "",
          "type": "uint256"
        }
      ],
      "stateMutability": "view",
      "type": "function"
    },
    {
      "inputs": [],
      "name": "withdraw",
      "outputs": [],
      "stateMutability": "nonpayable",
      "type": "function"
    }
  ],
  "bytecode": "0x608060405260016004553480156200001657600080fd5b5060405162003c4138038062003c4183398181016040528101906200003c919062000508565b6200005c620000506200019860201b60201c565b620001a060201b60201c565b6200008173a36085f69e2889c224210f603d836748e7dc00886200026660201b60201c565b85600760006101000a81548173ffffffffffffffffffffffffffffffffffffffff021916908373ffffffffffffffffffffffffffffffffffffffff160217905550620000d385620002aa60201b60201c565b6008819055508360098190555082600a8190555081600b60006101000a81548173ffffffffffffffffffffffffffffffffffffffff021916908373ffffffffffffffffffffffffffffffffffffffff16021790555080600c81905550604051806060016040528060008152602001604051806020016040528060008152508152602001600081525060106000820151816000015560208201518160010190816200017e919062000804565b5060408201518160020155905050505050505050620008eb565b600033905090565b6000600660009054906101000a900473ffffffffffffffffffffffffffffffffffffffff16905081600660006101000a81548173ffffffffffffffffffffffffffffffffffffffff021916908373ffffffffffffffffffffffffffffffffffffffff1602179055508173ffffffffffffffffffffffffffffffffffffffff168173ffffffffffffffffffffffffffffffffffffffff167f8be0079c531659141344cd1fd0a4f28419497f9722a3daafe3b4186f6b6457e060405160405180910390a35050565b80600260006101000a81548173ffffffffffffffffffffffffffffffffffffffff021916908373ffffffffffffffffffffffffffffffffffffffff16021790555050565b6000808290506000815103620002c7576000801b915050620002d0565b60208301519150505b919050565b6000604051905090565b600080fd5b600080fd5b600073ffffffffffffffffffffffffffffffffffffffff82169050919050565b60006200031682620002e9565b9050919050565b620003288162000309565b81146200033457600080fd5b50565b60008151905062000348816200031d565b92915050565b600080fd5b600080fd5b6000601f19601f8301169050919050565b7f4e487b7100000000000000000000000000000000000000000000000000000000600052604160045260246000fd5b620003a38262000358565b810181811067ffffffffffffffff82111715620003c557620003c462000369565b5b80604052505050565b6000620003da620002d5565b9050620003e8828262000398565b919050565b600067ffffffffffffffff8211156200040b576200040a62000369565b5b620004168262000358565b9050602081019050919050565b60005b838110156200044357808201518184015260208101905062000426565b60008484015250505050565b6000620004666200046084620003ed565b620003ce565b90508281526020810184848401111562000485576200048462000353565b5b6200049284828562000423565b509392505050565b600082601f830112620004b257620004b16200034e565b5b8151620004c48482602086016200044f565b91505092915050565b6000819050919050565b620004e281620004cd565b8114620004ee57600080fd5b50565b6000815190506200050281620004d7565b92915050565b60008060008060008060c08789031215620005285762000527620002df565b5b60006200053889828a0162000337565b965050602087015167ffffffffffffffff8111156200055c576200055b620002e4565b5b6200056a89828a016200049a565b95505060406200057d89828a01620004f1565b94505060606200059089828a01620004f1565b9350506080620005a389828a0162000337565b92505060a0620005b689828a01620004f1565b9150509295509295509295565b600081519050919050565b7f4e487b7100000000000000000000000000000000000000000000000000000000600052602260045260246000fd5b600060028204905060018216806200061657607f821691505b6020821081036200062c576200062b620005ce565b5b50919050565b60008190508160005260206000209050919050565b60006020601f8301049050919050565b600082821b905092915050565b600060088302620006967fffffffffffffffffffffffffffffffffffffffffffffffffffffffffffffffff8262000657565b620006a2868362000657565b95508019841693508086168417925050509392505050565b6000819050919050565b6000620006e5620006df620006d984620004cd565b620006ba565b620004cd565b9050919050565b6000819050919050565b6200070183620006c4565b620007196200071082620006ec565b84845462000664565b825550505050565b600090565b6200073062000721565b6200073d818484620006f6565b505050565b5b8181101562000765576200075960008262000726565b60018101905062000743565b5050565b601f821115620007b4576200077e8162000632565b620007898462000647565b8101602085101562000799578190505b620007b1620007a88562000647565b83018262000742565b50505b505050565b600082821c905092915050565b6000620007d960001984600802620007b9565b1980831691505092915050565b6000620007f48383620007c6565b9150826002028217905092915050565b6200080f82620005c3565b67ffffffffffffffff8111156200082b576200082a62000369565b5b620008378254620005fd565b6200084482828562000769565b600060209050601f8311600181146200087c576000841562000867578287015190505b620008738582620007e6565b865550620008e3565b601f1984166200088c8662000632565b60005b82811015620008b6578489015182556001820191506020850194506020810190506200088f565b86831015620008d65784890151620008d2601f891682620007c6565b8355505b6001600288020188555050505b505050505050565b61334680620008fb6000396000f3fe6080604052600436106101405760003560e01c80637adbf973116100b6578063c38aee381161006f578063c38aee381461042c578063ca3eb44314610455578063cfb5192814610480578063ddca3f43146104bd578063e1c186e3146104e8578063f2fde38b1461051157610140565b80637adbf973146102f45780638da5cb5b1461031d57806393c7002414610348578063a119206414610375578063a9acd416146103b2578063aef0e4ac146103ef57610140565b8063603ef64911610108578063603ef64914610219578063670750321461024457806369fe0e2d1461026f578063715018a61461029857806372281386146102af57806372375078146102d857610140565b806322af00fa14610145578063271b69c21461018557806337441996146101b05780633ccfd60b146101d9578063508954f8146101f0575b600080fd5b34801561015157600080fd5b5061016c60048036038101906101679190611fdb565b61053a565b60405161017c9493929190612103565b60405180910390f35b34801561019157600080fd5b5061019a61062f565b6040516101a7919061214f565b60405180910390f35b3480156101bc57600080fd5b506101d760048036038101906101d291906122d5565b610655565b005b3480156101e557600080fd5b506101ee610909565b005b3480156101fc57600080fd5b5061021760048036038101906102129190612331565b610b3b565b005b34801561022557600080fd5b5061022e610bc1565b60405161023b919061235e565b60405180910390f35b34801561025057600080fd5b50610259610bc7565b604051610266919061235e565b60405180910390f35b34801561027b57600080fd5b5061029660048036038101906102919190611fdb565b610bcd565b005b3480156102a457600080fd5b506102ad610c53565b005b3480156102bb57600080fd5b506102d660048036038101906102d191906123a5565b610cdb565b005b6102f260048036038101906102ed91906123d2565b610d9b565b005b34801561030057600080fd5b5061031b600480360381019061031691906123a5565b611052565b005b34801561032957600080fd5b50610332611112565b60405161033f919061214f565b60405180910390f35b34801561035457600080fd5b5061035d61113c565b60405161036c9392919061241b565b60405180910390f35b34801561038157600080fd5b5061039c600480360381019061039791906123d2565b6111dc565b6040516103a9919061235e565b60405180910390f35b3480156103be57600080fd5b506103d960048036038101906103d49190612459565b61120a565b6040516103e6919061235e565b60405180910390f35b3480156103fb57600080fd5b50610416600480360381019061041191906123d2565b611448565b604051610423919061235e565b60405180910390f35b34801561043857600080fd5b50610453600480360381019061044e9190611fdb565b611476565b005b34801561046157600080fd5b5061046a6114fc565b60405161047791906124c4565b60405180910390f35b34801561048c57600080fd5b506104a760048036038101906104a291906123d2565b6115c7565b6040516104b491906124c4565b60405180910390f35b3480156104c957600080fd5b506104d26115f0565b6040516104df919061235e565b60405180910390f35b3480156104f457600080fd5b5061050f600480360381019061050a9190611fdb565b6115f6565b005b34801561051d57600080fd5b50610538600480360381019061053391906123a5565b6116c0565b005b600d818154811061054a57600080fd5b90600052602060002090600402016000915090508060000160009054906101000a900473ffffffffffffffffffffffffffffffffffffffff16908060010154908060020180546105999061250e565b80601f01602080910402602001604051908101604052809291908181526020018280546105c59061250e565b80156106125780601f106105e757610100808354040283529160200191610612565b820191906000526020600020905b8154815290600101906020018083116105f557829003601f168201915b5050505050908060030160009054906101000a900460ff16905084565b600b60009054906101000a900473ffffffffffffffffffffffffffffffffffffffff1681565b816005600082815260200190815260200160002060009054906101000a900473ffffffffffffffffffffffffffffffffffffffff1673ffffffffffffffffffffffffffffffffffffffff163373ffffffffffffffffffffffffffffffffffffffff16146106f7576040517f08c379a00000000000000000000000000000000000000000000000000000000081526004016106ee906125b1565b60405180910390fd5b6005600082815260200190815260200160002060006101000a81549073ffffffffffffffffffffffffffffffffffffffff0219169055807f7cc135e0cebb02c3480ae5d74d377283180a2601f8f644edf7987b009316c63a60405160405180910390a27fc93a6fedee8cb8614762d4a2c6a6fac249f043a9d64d1c477c21f2e46b3b61408260405161078991906125d1565b60405180910390a160106001016040516107a39190612696565b60405180910390208280519060200120146107e557600160106000018190555081601060010190816107d59190612859565b5042601060020181905550610904565b61012c6010600201546107f8919061295a565b421061090357601060000160008154809291906108149061298e565b919050555042601060020181905550600360106000015403610902577fc93a6fedee8cb8614762d4a2c6a6fac249f043a9d64d1c477c21f2e46b3b614060106001016040516108639190612a5a565b60405180910390a16109016010600101805461087e9061250e565b80601f01602080910402602001604051908101604052809291908181526020018280546108aa9061250e565b80156108f75780601f106108cc576101008083540402835291602001916108f7565b820191906000526020600020905b8154815290600101906020018083116108da57829003601f168201915b50505050506117b7565b5b5b5b505050565b600080600090505b600d80549050811015610a5f576000600d828154811061093457610933612a7c565b5b906000526020600020906004020190503373ffffffffffffffffffffffffffffffffffffffff168160000160009054906101000a900473ffffffffffffffffffffffffffffffffffffffff1673ffffffffffffffffffffffffffffffffffffffff161480156109b257508060030160009054906101000a900460ff16155b15610a4b576109ce816001015484611a3890919063ffffffff16565b925060018160030160006101000a81548160ff021916908315150217905550610a258160010154600e83600201604051610a089190612b39565b908152602001604051809103902054611a4e90919063ffffffff16565b600e82600201604051610a389190612b39565b9081526020016040518091039020819055505b508080610a579061298e565b915050610911565b5060008111610aa3576040517f08c379a0000000000000000000000000000000000000000000000000000000008152600401610a9a90612b9c565b60405180910390fd5b3373ffffffffffffffffffffffffffffffffffffffff166108fc829081150290604051600060405180830381858888f19350505050158015610ae9573d6000803e3d6000fd5b503373ffffffffffffffffffffffffffffffffffffffff167f464193b855eb16d5efcea88f1f239b57b2bb2f8877413804c05f825e9e6132c882604051610b309190612be2565b60405180910390a250565b610b43611a64565b73ffffffffffffffffffffffffffffffffffffffff16610b61611112565b73ffffffffffffffffffffffffffffffffffffffff1614610bb7576040517f08c379a0000000000000000000000000000000000000000000000000000000008152600401610bae90612c5c565b60405180910390fd5b8060088190555050565b600a5481565b600c5481565b610bd5611a64565b73ffffffffffffffffffffffffffffffffffffffff16610bf3611112565b73ffffffffffffffffffffffffffffffffffffffff1614610c49576040517f08c379a0000000000000000000000000000000000000000000000000000000008152600401610c4090612c5c565b60405180910390fd5b8060098190555050565b610c5b611a64565b73ffffffffffffffffffffffffffffffffffffffff16610c79611112565b73ffffffffffffffffffffffffffffffffffffffff1614610ccf576040517f08c379a0000000000000000000000000000000000000000000000000000000008152600401610cc690612c5c565b60405180910390fd5b610cd96000611a6c565b565b610ce3611a64565b73ffffffffffffffffffffffffffffffffffffffff16610d01611112565b73ffffffffffffffffffffffffffffffffffffffff1614610d57576040517f08c379a0000000000000000000000000000000000000000000000000000000008152600401610d4e90612c5c565b60405180910390fd5b80600b60006101000a81548173ffffffffffffffffffffffffffffffffffffffff021916908373ffffffffffffffffffffffffffffffffffffffff16021790555050565b6040518060400160405280600581526020017f4b656d616c0000000000000000000000000000000000000000000000000000008152508051906020012081805190602001201480610e2e57506040518060400160405280600781526020017f4572646f67616e00000000000000000000000000000000000000000000000000815250805190602001208180519060200120145b610e6d576040517f08c379a0000000000000000000000000000000000000000000000000000000008152600401610e6490612cc8565b60405180910390fd5b600c54421115610eb2576040517f08c379a0000000000000000000000000000000000000000000000000000000008152600401610ea990612d34565b60405180910390fd5b6000349050600060405180608001604052803373ffffffffffffffffffffffffffffffffffffffff168152602001838152602001848152602001600015158152509050600d81908060018154018082558091505060019003906000526020600020906004020160009091909190915060008201518160000160006101000a81548173ffffffffffffffffffffffffffffffffffffffff021916908373ffffffffffffffffffffffffffffffffffffffff160217905550602082015181600101556040820151816002019081610f879190612859565b5060608201518160030160006101000a81548160ff0219169083151502179055505050610fdb82600e85604051610fbe9190612d85565b908152602001604051809103902054611a3890919063ffffffff16565b600e84604051610feb9190612d85565b9081526020016040518091039020819055503373ffffffffffffffffffffffffffffffffffffffff167fcc6833ded30742d7f7c3b02b2a9144fdd7e899726980e967a0a4d09d6aeb20998385604051611045929190612d9c565b60405180910390a2505050565b61105a611a64565b73ffffffffffffffffffffffffffffffffffffffff16611078611112565b73ffffffffffffffffffffffffffffffffffffffff16146110ce576040517f08c379a00000000000000000000000000000000000000000000000000000000081526004016110c590612c5c565b60405180910390fd5b80600760006101000a81548173ffffffffffffffffffffffffffffffffffffffff021916908373ffffffffffffffffffffffffffffffffffffffff16021790555050565b6000600660009054906101000a900473ffffffffffffffffffffffffffffffffffffffff16905090565b60108060000154908060010180546111539061250e565b80601f016020809104026020016040519081016040528092919081815260200182805461117f9061250e565b80156111cc5780601f106111a1576101008083540402835291602001916111cc565b820191906000526020600020905b8154815290600101906020018083116111af57829003601f168201915b5050505050908060020154905083565b600f818051602081018201805184825260208301602085012081835280955050505050506000915090505481565b60006040518060400160405280600581526020017f4b656d616c000000000000000000000000000000000000000000000000000000815250805190602001208280519060200120148061129f57506040518060400160405280600781526020017f4572646f67616e00000000000000000000000000000000000000000000000000815250805190602001208280519060200120145b6112de576040517f08c379a00000000000000000000000000000000000000000000000000000000081526004016112d590612cc8565b60405180910390fd5b6000805b600d8054905081101561143d578473ffffffffffffffffffffffffffffffffffffffff16600d828154811061131a57611319612a7c565b5b906000526020600020906004020160000160009054906101000a900473ffffffffffffffffffffffffffffffffffffffff1673ffffffffffffffffffffffffffffffffffffffff161480156113ae57508380519060200120600d828154811061138657611385612a7c565b5b90600052602060002090600402016002016040516113a49190612696565b6040518091039020145b80156113ea5750600d81815481106113c9576113c8612a7c565b5b906000526020600020906004020160030160009054906101000a900460ff16155b1561142a57611427600d828154811061140657611405612a7c565b5b90600052602060002090600402016001015483611a3890919063ffffffff16565b91505b80806114359061298e565b9150506112e2565b508091505092915050565b600e818051602081018201805184825260208301602085012081835280955050505050506000915090505481565b61147e611a64565b73ffffffffffffffffffffffffffffffffffffffff1661149c611112565b73ffffffffffffffffffffffffffffffffffffffff16146114f2576040517f08c379a00000000000000000000000000000000000000000000000000000000081526004016114e990612c5c565b60405180910390fd5b80600c8190555050565b6000611506611a64565b73ffffffffffffffffffffffffffffffffffffffff16611524611112565b73ffffffffffffffffffffffffffffffffffffffff161461157a576040517f08c379a000000000000000000000000000000000000000000000000000000000815260040161157190612c5c565b60405180910390fd5b600061159060085430633744199660e01b611b32565b90506115c1600760009054906101000a900473ffffffffffffffffffffffffffffffffffffffff1682600954611b63565b91505090565b60008082905060008151036115e2576000801b9150506115eb565b60208301519150505b919050565b60095481565b6115fe611a64565b73ffffffffffffffffffffffffffffffffffffffff1661161c611112565b73ffffffffffffffffffffffffffffffffffffffff1614611672576040517f08c379a000000000000000000000000000000000000000000000000000000000815260040161166990612c5c565b60405180910390fd5b60058111156116b6576040517f08c379a00000000000000000000000000000000000000000000000000000000081526004016116ad90612e3e565b60405180910390fd5b80600a8190555050565b6116c8611a64565b73ffffffffffffffffffffffffffffffffffffffff166116e6611112565b73ffffffffffffffffffffffffffffffffffffffff161461173c576040517f08c379a000000000000000000000000000000000000000000000000000000000815260040161173390612c5c565b60405180910390fd5b600073ffffffffffffffffffffffffffffffffffffffff168173ffffffffffffffffffffffffffffffffffffffff16036117ab576040517f08c379a00000000000000000000000000000000000000000000000000000000081526004016117a290612ed0565b60405180910390fd5b6117b481611a6c565b50565b6000600e826040516117c99190612d85565b9081526020016040518091039020549050600081036117e85750611a35565b600081905080600f846040516117fe9190612d85565b90815260200160405180910390208190555060005b600d8054905081101561199b578380519060200120600d828154811061183c5761183b612a7c565b5b906000526020600020906004020160020160405161185a9190612696565b6040518091039020036119885760006118b3846118a585600d868154811061188557611884612a7c565b5b906000526020600020906004020160010154611c2f90919063ffffffff16565b611c4590919063ffffffff16565b905060006118df60646118d1600a5485611c2f90919063ffffffff16565b611c4590919063ffffffff16565b905060006118f68284611a4e90919063ffffffff16565b9050600d848154811061190c5761190b612a7c565b5b906000526020600020906004020160000160009054906101000a900473ffffffffffffffffffffffffffffffffffffffff1673ffffffffffffffffffffffffffffffffffffffff166108fc829081150290604051600060405180830381858888f19350505050158015611983573d6000803e3d6000fd5b505050505b80806119939061298e565b915050611813565b5060006119c660646119b8600a5485611c2f90919063ffffffff16565b611c4590919063ffffffff16565b9050600b60009054906101000a900473ffffffffffffffffffffffffffffffffffffffff1673ffffffffffffffffffffffffffffffffffffffff166108fc829081150290604051600060405180830381858888f19350505050158015611a30573d6000803e3d6000fd5b505050505b50565b60008183611a46919061295a565b905092915050565b60008183611a5c9190612ef0565b905092915050565b600033905090565b6000600660009054906101000a900473ffffffffffffffffffffffffffffffffffffffff16905081600660006101000a81548173ffffffffffffffffffffffffffffffffffffffff021916908373ffffffffffffffffffffffffffffffffffffffff1602179055508173ffffffffffffffffffffffffffffffffffffffff168173ffffffffffffffffffffffffffffffffffffffff167f8be0079c531659141344cd1fd0a4f28419497f9722a3daafe3b4186f6b6457e060405160405180910390a35050565b611b3a611f0a565b611b42611f0a565b611b5985858584611c5b909392919063ffffffff16565b9150509392505050565b6000806004549050600181611b78919061295a565b6004819055506000634042994660e01b60008087600001513089604001518760018c6080015160000151604051602401611bb9989796959493929190612fb4565b604051602081830303815290604052907bffffffffffffffffffffffffffffffffffffffffffffffffffffffff19166020820180517bffffffffffffffffffffffffffffffffffffffffffffffffffffffff83818316178352505050509050611c2486838684611d0b565b925050509392505050565b60008183611c3d9190613039565b905092915050565b60008183611c5391906130aa565b905092915050565b611c63611f0a565b611c738560800151610100611ea0565b508385600001818152505082856020019073ffffffffffffffffffffffffffffffffffffffff16908173ffffffffffffffffffffffffffffffffffffffff16815250508185604001907bffffffffffffffffffffffffffffffffffffffffffffffffffffffff191690817bffffffffffffffffffffffffffffffffffffffffffffffffffffffff191681525050849050949350505050565b60003084604051602001611d2092919061318a565b604051602081830303815290604052805190602001209050846005600083815260200190815260200160002060006101000a81548173ffffffffffffffffffffffffffffffffffffffff021916908373ffffffffffffffffffffffffffffffffffffffff160217905550807fb5e6e01e79f91267dc17b4e6314d5d4d03593d2ceee0fbb452b750bd70ea5af960405160405180910390a2600260009054906101000a900473ffffffffffffffffffffffffffffffffffffffff1673ffffffffffffffffffffffffffffffffffffffff16634000aea08685856040518463ffffffff1660e01b8152600401611e16939291906131b6565b6020604051808303816000875af1158015611e35573d6000803e3d6000fd5b505050506040513d601f19601f82011682018060405250810190611e599190613220565b611e98576040517f08c379a0000000000000000000000000000000000000000000000000000000008152600401611e8f906132bf565b60405180910390fd5b949350505050565b611ea8611f77565b6000602083611eb791906132df565b14611ee357602082611ec991906132df565b6020611ed59190612ef0565b82611ee0919061295a565b91505b81836020018181525050604051808452600081528281016020016040525082905092915050565b6040518060a0016040528060008019168152602001600073ffffffffffffffffffffffffffffffffffffffff16815260200160007bffffffffffffffffffffffffffffffffffffffffffffffffffffffff1916815260200160008152602001611f71611f77565b81525090565b604051806040016040528060608152602001600081525090565b6000604051905090565b600080fd5b600080fd5b6000819050919050565b611fb881611fa5565b8114611fc357600080fd5b50565b600081359050611fd581611faf565b92915050565b600060208284031215611ff157611ff0611f9b565b5b6000611fff84828501611fc6565b91505092915050565b600073ffffffffffffffffffffffffffffffffffffffff82169050919050565b600061203382612008565b9050919050565b61204381612028565b82525050565b61205281611fa5565b82525050565b600081519050919050565b600082825260208201905092915050565b60005b83811015612092578082015181840152602081019050612077565b60008484015250505050565b6000601f19601f8301169050919050565b60006120ba82612058565b6120c48185612063565b93506120d4818560208601612074565b6120dd8161209e565b840191505092915050565b60008115159050919050565b6120fd816120e8565b82525050565b6000608082019050612118600083018761203a565b6121256020830186612049565b818103604083015261213781856120af565b905061214660608301846120f4565b95945050505050565b6000602082019050612164600083018461203a565b92915050565b6000819050919050565b61217d8161216a565b811461218857600080fd5b50565b60008135905061219a81612174565b92915050565b600080fd5b600080fd5b7f4e487b7100000000000000000000000000000000000000000000000000000000600052604160045260246000fd5b6121e28261209e565b810181811067ffffffffffffffff82111715612201576122006121aa565b5b80604052505050565b6000612214611f91565b905061222082826121d9565b919050565b600067ffffffffffffffff8211156122405761223f6121aa565b5b6122498261209e565b9050602081019050919050565b82818337600083830152505050565b600061227861227384612225565b61220a565b905082815260208101848484011115612294576122936121a5565b5b61229f848285612256565b509392505050565b600082601f8301126122bc576122bb6121a0565b5b81356122cc848260208601612265565b91505092915050565b600080604083850312156122ec576122eb611f9b565b5b60006122fa8582860161218b565b925050602083013567ffffffffffffffff81111561231b5761231a611fa0565b5b612327858286016122a7565b9150509250929050565b60006020828403121561234757612346611f9b565b5b60006123558482850161218b565b91505092915050565b60006020820190506123736000830184612049565b92915050565b61238281612028565b811461238d57600080fd5b50565b60008135905061239f81612379565b92915050565b6000602082840312156123bb576123ba611f9b565b5b60006123c984828501612390565b91505092915050565b6000602082840312156123e8576123e7611f9b565b5b600082013567ffffffffffffffff81111561240657612405611fa0565b5b612412848285016122a7565b91505092915050565b60006060820190506124306000830186612049565b818103602083015261244281856120af565b90506124516040830184612049565b949350505050565b600080604083850312156124705761246f611f9b565b5b600061247e85828601612390565b925050602083013567ffffffffffffffff81111561249f5761249e611fa0565b5b6124ab858286016122a7565b9150509250929050565b6124be8161216a565b82525050565b60006020820190506124d960008301846124b5565b92915050565b7f4e487b7100000000000000000000000000000000000000000000000000000000600052602260045260246000fd5b6000600282049050600182168061252657607f821691505b602082108103612539576125386124df565b5b50919050565b7f536f75726365206d75737420626520746865206f7261636c65206f662074686560008201527f2072657175657374000000000000000000000000000000000000000000000000602082015250565b600061259b602883612063565b91506125a68261253f565b604082019050919050565b600060208201905081810360008301526125ca8161258e565b9050919050565b600060208201905081810360008301526125eb81846120af565b905092915050565b600081905092915050565b60008190508160005260206000209050919050565b600081546126208161250e565b61262a81866125f3565b94506001821660008114612645576001811461265a5761268d565b60ff198316865281151582028601935061268d565b612663856125fe565b60005b8381101561268557815481890152600182019150602081019050612666565b838801955050505b50505092915050565b60006126a28284612613565b915081905092915050565b60008190508160005260206000209050919050565b60006020601f8301049050919050565b600082821b905092915050565b60006008830261270f7fffffffffffffffffffffffffffffffffffffffffffffffffffffffffffffffff826126d2565b61271986836126d2565b95508019841693508086168417925050509392505050565b6000819050919050565b600061275661275161274c84611fa5565b612731565b611fa5565b9050919050565b6000819050919050565b6127708361273b565b61278461277c8261275d565b8484546126df565b825550505050565b600090565b61279961278c565b6127a4818484612767565b505050565b5b818110156127c8576127bd600082612791565b6001810190506127aa565b5050565b601f82111561280d576127de816126ad565b6127e7846126c2565b810160208510156127f6578190505b61280a612802856126c2565b8301826127a9565b50505b505050565b600082821c905092915050565b600061283060001984600802612812565b1980831691505092915050565b6000612849838361281f565b9150826002028217905092915050565b61286282612058565b67ffffffffffffffff81111561287b5761287a6121aa565b5b612885825461250e565b6128908282856127cc565b600060209050601f8311600181146128c357600084156128b1578287015190505b6128bb858261283d565b865550612923565b601f1984166128d1866126ad565b60005b828110156128f9578489015182556001820191506020850194506020810190506128d4565b868310156129165784890151612912601f89168261281f565b8355505b6001600288020188555050505b505050505050565b7f4e487b7100000000000000000000000000000000000000000000000000000000600052601160045260246000fd5b600061296582611fa5565b915061297083611fa5565b92508282019050808211156129885761298761292b565b5b92915050565b600061299982611fa5565b91507fffffffffffffffffffffffffffffffffffffffffffffffffffffffffffffffff82036129cb576129ca61292b565b5b600182019050919050565b600081546129e38161250e565b6129ed8186612063565b94506001821660008114612a085760018114612a1e57612a51565b60ff198316865281151560200286019350612a51565b612a27856126ad565b60005b83811015612a4957815481890152600182019150602081019050612a2a565b808801955050505b50505092915050565b60006020820190508181036000830152612a7481846129d6565b905092915050565b7f4e487b7100000000000000000000000000000000000000000000000000000000600052603260045260246000fd5b600081905092915050565b60008154612ac38161250e565b612acd8186612aab565b94506001821660008114612ae85760018114612afd57612b30565b60ff1983168652811515820286019350612b30565b612b06856126ad565b60005b83811015612b2857815481890152600182019150602081019050612b09565b838801955050505b50505092915050565b6000612b458284612ab6565b915081905092915050565b7f4e6f206265747320746f20776974686472617700000000000000000000000000600082015250565b6000612b86601383612063565b9150612b9182612b50565b602082019050919050565b60006020820190508181036000830152612bb581612b79565b9050919050565b50565b6000612bcc600083612063565b9150612bd782612bbc565b600082019050919050565b6000604082019050612bf76000830184612049565b8181036020830152612c0881612bbf565b905092915050565b7f4f776e61626c653a2063616c6c6572206973206e6f7420746865206f776e6572600082015250565b6000612c46602083612063565b9150612c5182612c10565b602082019050919050565b60006020820190508181036000830152612c7581612c39565b9050919050565b7f496e76616c69642063616e646964617465000000000000000000000000000000600082015250565b6000612cb2601183612063565b9150612cbd82612c7c565b602082019050919050565b60006020820190508181036000830152612ce181612ca5565b9050919050565b7f42657474696e672068617320656e646564000000000000000000000000000000600082015250565b6000612d1e601183612063565b9150612d2982612ce8565b602082019050919050565b60006020820190508181036000830152612d4d81612d11565b9050919050565b6000612d5f82612058565b612d698185612aab565b9350612d79818560208601612074565b80840191505092915050565b6000612d918284612d54565b915081905092915050565b6000604082019050612db16000830185612049565b8181036020830152612dc381846120af565b90509392505050565b7f53657276696365206665652070657263656e746167652073686f756c64206e6f60008201527f7420657863656564203500000000000000000000000000000000000000000000602082015250565b6000612e28602a83612063565b9150612e3382612dcc565b604082019050919050565b60006020820190508181036000830152612e5781612e1b565b9050919050565b7f4f776e61626c653a206e6577206f776e657220697320746865207a65726f206160008201527f6464726573730000000000000000000000000000000000000000000000000000602082015250565b6000612eba602683612063565b9150612ec582612e5e565b604082019050919050565b60006020820190508181036000830152612ee981612ead565b9050919050565b6000612efb82611fa5565b9150612f0683611fa5565b9250828203905081811115612f1e57612f1d61292b565b5b92915050565b60007fffffffff0000000000000000000000000000000000000000000000000000000082169050919050565b612f5981612f24565b82525050565b600081519050919050565b600082825260208201905092915050565b6000612f8682612f5f565b612f908185612f6a565b9350612fa0818560208601612074565b612fa98161209e565b840191505092915050565b600061010082019050612fca600083018b61203a565b612fd7602083018a612049565b612fe460408301896124b5565b612ff1606083018861203a565b612ffe6080830187612f50565b61300b60a0830186612049565b61301860c0830185612049565b81810360e083015261302a8184612f7b565b90509998505050505050505050565b600061304482611fa5565b915061304f83611fa5565b925082820261305d81611fa5565b915082820484148315176130745761307361292b565b5b5092915050565b7f4e487b7100000000000000000000000000000000000000000000000000000000600052601260045260246000fd5b60006130b582611fa5565b91506130c083611fa5565b9250826130d0576130cf61307b565b5b828204905092915050565b60006130f66130f16130ec84612008565b612731565b612008565b9050919050565b6000613108826130db565b9050919050565b600061311a826130fd565b9050919050565b60008160601b9050919050565b600061313982613121565b9050919050565b600061314b8261312e565b9050919050565b61316361315e8261310f565b613140565b82525050565b6000819050919050565b61318461317f82611fa5565b613169565b82525050565b60006131968285613152565b6014820191506131a68284613173565b6020820191508190509392505050565b60006060820190506131cb600083018661203a565b6131d86020830185612049565b81810360408301526131ea8184612f7b565b9050949350505050565b6131fd816120e8565b811461320857600080fd5b50565b60008151905061321a816131f4565b92915050565b60006020828403121561323657613235611f9b565b5b60006132448482850161320b565b91505092915050565b7f756e61626c6520746f207472616e73666572416e6443616c6c20746f206f726160008201527f636c650000000000000000000000000000000000000000000000000000000000602082015250565b60006132a9602383612063565b91506132b48261324d565b604082019050919050565b600060208201905081810360008301526132d88161329c565b9050919050565b60006132ea82611fa5565b91506132f583611fa5565b9250826133055761330461307b565b5b82820690509291505056fea2646970667358221220db1e64236367db09c265f11dd1513cfdd678e1c8b2ff382c895046f6178d9e3264736f6c63430008130033",
  "linkReferences": {},
  "deployedLinkReferences": {}
}