{
  "_format": "hh-sol-artifact-1",
  "contractName": "ElectionBetting",
  "sourceName": "contracts/ElectionBetting.sol",
  "abi": [
    {
      "inputs": [
        {
          "internalType": "address",
          "name": "_oracle",
          "type": "address"
        },
        {
          "internalType": "string",
          "name": "_jobId",
          "type": "string"
        },
        {
          "internalType": "uint256",
          "name": "_fee",
          "type": "uint256"
        },
        {
          "internalType": "uint256",
          "name": "_serviceFeePercentage",
          "type": "uint256"
        },
        {
          "internalType": "address",
          "name": "_serviceFeeWallet",
          "type": "address"
        },
        {
          "internalType": "uint256",
          "name": "_bettingEndTime",
          "type": "uint256"
        }
      ],
      "stateMutability": "nonpayable",
      "type": "constructor"
    },
    {
      "anonymous": false,
      "inputs": [
        {
          "indexed": true,
          "internalType": "address",
          "name": "bettor",
          "type": "address"
        },
        {
          "indexed": false,
          "internalType": "uint256",
          "name": "amount",
          "type": "uint256"
        },
        {
          "indexed": false,
          "internalType": "string",
          "name": "candidate",
          "type": "string"
        }
      ],
      "name": "BetMade",
      "type": "event"
    },
    {
      "anonymous": false,
      "inputs": [
        {
          "indexed": true,
          "internalType": "address",
          "name": "bettor",
          "type": "address"
        },
        {
          "indexed": false,
          "internalType": "uint256",
          "name": "amount",
          "type": "uint256"
        },
        {
          "indexed": false,
          "internalType": "string",
          "name": "candidate",
          "type": "string"
        }
      ],
      "name": "BetWithdrawn",
      "type": "event"
    },
    {
      "anonymous": false,
      "inputs": [
        {
          "indexed": true,
          "internalType": "bytes32",
          "name": "id",
          "type": "bytes32"
        }
      ],
      "name": "ChainlinkCancelled",
      "type": "event"
    },
    {
      "anonymous": false,
      "inputs": [
        {
          "indexed": true,
          "internalType": "bytes32",
          "name": "id",
          "type": "bytes32"
        }
      ],
      "name": "ChainlinkFulfilled",
      "type": "event"
    },
    {
      "anonymous": false,
      "inputs": [
        {
          "indexed": true,
          "internalType": "bytes32",
          "name": "id",
          "type": "bytes32"
        }
      ],
      "name": "ChainlinkRequested",
      "type": "event"
    },
    {
      "anonymous": false,
      "inputs": [
        {
          "indexed": false,
          "internalType": "string",
          "name": "winner",
          "type": "string"
        }
      ],
      "name": "ElectionResultReceived",
      "type": "event"
    },
    {
      "anonymous": false,
      "inputs": [
        {
          "indexed": true,
          "internalType": "address",
          "name": "previousOwner",
          "type": "address"
        },
        {
          "indexed": true,
          "internalType": "address",
          "name": "newOwner",
          "type": "address"
        }
      ],
      "name": "OwnershipTransferred",
      "type": "event"
    },
    {
      "inputs": [
        {
          "internalType": "uint256",
          "name": "",
          "type": "uint256"
        }
      ],
      "name": "bets",
      "outputs": [
        {
          "internalType": "address",
          "name": "bettor",
          "type": "address"
        },
        {
          "internalType": "uint256",
          "name": "amount",
          "type": "uint256"
        },
        {
          "internalType": "string",
          "name": "candidate",
          "type": "string"
        },
        {
          "internalType": "bool",
          "name": "withdrawn",
          "type": "bool"
        }
      ],
      "stateMutability": "view",
      "type": "function"
    },
    {
      "inputs": [],
      "name": "bettingEndTime",
      "outputs": [
        {
          "internalType": "uint256",
          "name": "",
          "type": "uint256"
        }
      ],
      "stateMutability": "view",
      "type": "function"
    },
    {
      "inputs": [
        {
          "internalType": "address",
          "name": "user",
          "type": "address"
        },
        {
          "internalType": "string",
          "name": "candidate",
          "type": "string"
        }
      ],
      "name": "calculateUserBet",
      "outputs": [
        {
          "internalType": "uint256",
          "name": "",
          "type": "uint256"
        }
      ],
      "stateMutability": "view",
      "type": "function"
    },
    {
      "inputs": [
        {
          "internalType": "string",
          "name": "",
          "type": "string"
        }
      ],
      "name": "candidateWinnings",
      "outputs": [
        {
          "internalType": "uint256",
          "name": "",
          "type": "uint256"
        }
      ],
      "stateMutability": "view",
      "type": "function"
    },
    {
      "inputs": [],
      "name": "claimWinnings",
      "outputs": [],
      "stateMutability": "nonpayable",
      "type": "function"
    },
    {
      "inputs": [
        {
          "internalType": "string",
          "name": "winner",
          "type": "string"
        }
      ],
      "name": "declareWinner",
      "outputs": [],
      "stateMutability": "nonpayable",
      "type": "function"
    },
    {
      "inputs": [],
      "name": "electionConfirmation",
      "outputs": [
        {
          "internalType": "uint256",
          "name": "count",
          "type": "uint256"
        },
        {
          "internalType": "string",
          "name": "result",
          "type": "string"
        },
        {
          "internalType": "uint256",
          "name": "lastConfirmationTimestamp",
          "type": "uint256"
        }
      ],
      "stateMutability": "view",
      "type": "function"
    },
    {
      "inputs": [],
      "name": "fee",
      "outputs": [
        {
          "internalType": "uint256",
          "name": "",
          "type": "uint256"
        }
      ],
      "stateMutability": "view",
      "type": "function"
    },
    {
      "inputs": [
        {
          "internalType": "bytes32",
          "name": "_requestId",
          "type": "bytes32"
        },
        {
          "internalType": "string",
          "name": "_winner",
          "type": "string"
        }
      ],
      "name": "fulfill",
      "outputs": [],
      "stateMutability": "nonpayable",
      "type": "function"
    },
    {
      "inputs": [],
      "name": "getElectionResult",
      "outputs": [
        {
          "internalType": "bytes32",
          "name": "requestId",
          "type": "bytes32"
        }
      ],
      "stateMutability": "nonpayable",
      "type": "function"
    },
    {
      "inputs": [
        {
          "internalType": "string",
          "name": "candidate",
          "type": "string"
        }
      ],
      "name": "makeBet",
      "outputs": [],
      "stateMutability": "payable",
      "type": "function"
    },
    {
      "inputs": [],
      "name": "owner",
      "outputs": [
        {
          "internalType": "address",
          "name": "",
          "type": "address"
        }
      ],
      "stateMutability": "view",
      "type": "function"
    },
    {
      "inputs": [],
      "name": "renounceOwnership",
      "outputs": [],
      "stateMutability": "nonpayable",
      "type": "function"
    },
    {
      "inputs": [],
      "name": "serviceFeePercentage",
      "outputs": [
        {
          "internalType": "uint256",
          "name": "",
          "type": "uint256"
        }
      ],
      "stateMutability": "view",
      "type": "function"
    },
    {
      "inputs": [],
      "name": "serviceFeeWallet",
      "outputs": [
        {
          "internalType": "address",
          "name": "",
          "type": "address"
        }
      ],
      "stateMutability": "view",
      "type": "function"
    },
    {
      "inputs": [
        {
          "internalType": "uint256",
          "name": "_bettingEndTime",
          "type": "uint256"
        }
      ],
      "name": "setBettingEndTime",
      "outputs": [],
      "stateMutability": "nonpayable",
      "type": "function"
    },
    {
      "inputs": [
        {
          "internalType": "uint256",
          "name": "_fee",
          "type": "uint256"
        }
      ],
      "name": "setFee",
      "outputs": [],
      "stateMutability": "nonpayable",
      "type": "function"
    },
    {
      "inputs": [
        {
          "internalType": "bytes32",
          "name": "_jobId",
          "type": "bytes32"
        }
      ],
      "name": "setJobId",
      "outputs": [],
      "stateMutability": "nonpayable",
      "type": "function"
    },
    {
      "inputs": [
        {
          "internalType": "address",
          "name": "_oracle",
          "type": "address"
        }
      ],
      "name": "setOracle",
      "outputs": [],
      "stateMutability": "nonpayable",
      "type": "function"
    },
    {
      "inputs": [
        {
          "internalType": "uint256",
          "name": "_serviceFeePercentage",
          "type": "uint256"
        }
      ],
      "name": "setServiceFeePercentage",
      "outputs": [],
      "stateMutability": "nonpayable",
      "type": "function"
    },
    {
      "inputs": [
        {
          "internalType": "address",
          "name": "_serviceFeeWallet",
          "type": "address"
        }
      ],
      "name": "setServiceFeeWallet",
      "outputs": [],
      "stateMutability": "nonpayable",
      "type": "function"
    },
    {
      "inputs": [
        {
          "internalType": "string",
          "name": "source",
          "type": "string"
        }
      ],
      "name": "stringToBytes32",
      "outputs": [
        {
          "internalType": "bytes32",
          "name": "result",
          "type": "bytes32"
        }
      ],
      "stateMutability": "pure",
      "type": "function"
    },
    {
      "inputs": [
        {
          "internalType": "string",
          "name": "",
          "type": "string"
        }
      ],
      "name": "totalBets",
      "outputs": [
        {
          "internalType": "uint256",
          "name": "",
          "type": "uint256"
        }
      ],
      "stateMutability": "view",
      "type": "function"
    },
    {
      "inputs": [
        {
          "internalType": "address",
          "name": "newOwner",
          "type": "address"
        }
      ],
      "name": "transferOwnership",
      "outputs": [],
      "stateMutability": "nonpayable",
      "type": "function"
    },
    {
      "inputs": [
        {
          "internalType": "address",
          "name": "",
          "type": "address"
        }
      ],
      "name": "userBet",
      "outputs": [
        {
          "internalType": "address",
          "name": "bettor",
          "type": "address"
        },
        {
          "internalType": "uint256",
          "name": "amount",
          "type": "uint256"
        },
        {
          "internalType": "string",
          "name": "candidate",
          "type": "string"
        },
        {
          "internalType": "bool",
          "name": "withdrawn",
          "type": "bool"
        }
      ],
      "stateMutability": "view",
      "type": "function"
    },
    {
      "inputs": [
        {
          "internalType": "address",
          "name": "",
          "type": "address"
        }
      ],
      "name": "userWinnings",
      "outputs": [
        {
          "internalType": "uint256",
          "name": "",
          "type": "uint256"
        }
      ],
      "stateMutability": "view",
      "type": "function"
    },
    {
      "inputs": [],
      "name": "withdraw",
      "outputs": [],
      "stateMutability": "nonpayable",
      "type": "function"
    }
  ],
  "bytecode": "0x608060405260016004553480156200001657600080fd5b506040516200489c3803806200489c83398181016040528101906200003c919062000510565b6200005c62000050620001a060201b60201c565b620001a860201b60201c565b60016007819055506200008973a36085f69e2889c224210f603d836748e7dc00886200026e60201b60201c565b85600860006101000a81548173ffffffffffffffffffffffffffffffffffffffff021916908373ffffffffffffffffffffffffffffffffffffffff160217905550620000db85620002b260201b60201c565b60098190555083600a8190555082600b8190555081600c60006101000a81548173ffffffffffffffffffffffffffffffffffffffff021916908373ffffffffffffffffffffffffffffffffffffffff16021790555080600d81905550604051806060016040528060008152602001604051806020016040528060008152508152602001600081525060136000820151816000015560208201518160010190816200018691906200080c565b5060408201518160020155905050505050505050620008f3565b600033905090565b6000600660009054906101000a900473ffffffffffffffffffffffffffffffffffffffff16905081600660006101000a81548173ffffffffffffffffffffffffffffffffffffffff021916908373ffffffffffffffffffffffffffffffffffffffff1602179055508173ffffffffffffffffffffffffffffffffffffffff168173ffffffffffffffffffffffffffffffffffffffff167f8be0079c531659141344cd1fd0a4f28419497f9722a3daafe3b4186f6b6457e060405160405180910390a35050565b80600260006101000a81548173ffffffffffffffffffffffffffffffffffffffff021916908373ffffffffffffffffffffffffffffffffffffffff16021790555050565b6000808290506000815103620002cf576000801b915050620002d8565b60208301519150505b919050565b6000604051905090565b600080fd5b600080fd5b600073ffffffffffffffffffffffffffffffffffffffff82169050919050565b60006200031e82620002f1565b9050919050565b620003308162000311565b81146200033c57600080fd5b50565b600081519050620003508162000325565b92915050565b600080fd5b600080fd5b6000601f19601f8301169050919050565b7f4e487b7100000000000000000000000000000000000000000000000000000000600052604160045260246000fd5b620003ab8262000360565b810181811067ffffffffffffffff82111715620003cd57620003cc62000371565b5b80604052505050565b6000620003e2620002dd565b9050620003f08282620003a0565b919050565b600067ffffffffffffffff82111562000413576200041262000371565b5b6200041e8262000360565b9050602081019050919050565b60005b838110156200044b5780820151818401526020810190506200042e565b60008484015250505050565b60006200046e6200046884620003f5565b620003d6565b9050828152602081018484840111156200048d576200048c6200035b565b5b6200049a8482856200042b565b509392505050565b600082601f830112620004ba57620004b962000356565b5b8151620004cc84826020860162000457565b91505092915050565b6000819050919050565b620004ea81620004d5565b8114620004f657600080fd5b50565b6000815190506200050a81620004df565b92915050565b60008060008060008060c0878903121562000530576200052f620002e7565b5b60006200054089828a016200033f565b965050602087015167ffffffffffffffff811115620005645762000563620002ec565b5b6200057289828a01620004a2565b95505060406200058589828a01620004f9565b94505060606200059889828a01620004f9565b9350506080620005ab89828a016200033f565b92505060a0620005be89828a01620004f9565b9150509295509295509295565b600081519050919050565b7f4e487b7100000000000000000000000000000000000000000000000000000000600052602260045260246000fd5b600060028204905060018216806200061e57607f821691505b602082108103620006345762000633620005d6565b5b50919050565b60008190508160005260206000209050919050565b60006020601f8301049050919050565b600082821b905092915050565b6000600883026200069e7fffffffffffffffffffffffffffffffffffffffffffffffffffffffffffffffff826200065f565b620006aa86836200065f565b95508019841693508086168417925050509392505050565b6000819050919050565b6000620006ed620006e7620006e184620004d5565b620006c2565b620004d5565b9050919050565b6000819050919050565b6200070983620006cc565b620007216200071882620006f4565b8484546200066c565b825550505050565b600090565b6200073862000729565b62000745818484620006fe565b505050565b5b818110156200076d57620007616000826200072e565b6001810190506200074b565b5050565b601f821115620007bc5762000786816200063a565b62000791846200064f565b81016020851015620007a1578190505b620007b9620007b0856200064f565b8301826200074a565b50505b505050565b600082821c905092915050565b6000620007e160001984600802620007c1565b1980831691505092915050565b6000620007fc8383620007ce565b9150826002028217905092915050565b6200081782620005cb565b67ffffffffffffffff81111562000833576200083262000371565b5b6200083f825462000605565b6200084c82828562000771565b600060209050601f8311600181146200088457600084156200086f578287015190505b6200087b8582620007ee565b865550620008eb565b601f19841662000894866200063a565b60005b82811015620008be5784890151825560018201915060208501945060208101905062000897565b86831015620008de5784890151620008da601f891682620007ce565b8355505b6001600288020188555050505b505050505050565b613f9980620009036000396000f3fe60806040526004361061019c5760003560e01c80637adbf973116100ec578063c38aee381161008a578063dc462a3e11610064578063dc462a3e14610599578063ddca3f43146105d6578063e1c186e314610601578063f2fde38b1461062a5761019c565b8063c38aee3814610508578063ca3eb44314610531578063cfb519281461055c5761019c565b8063a815a4d4116100c6578063a815a4d41461043a578063a9acd41614610477578063aef0e4ac146104b4578063b401faf1146104f15761019c565b80637adbf973146103b95780638da5cb5b146103e257806393c700241461040d5761019c565b8063603ef6491161015957806369fe0e2d1161013357806369fe0e2d14610334578063715018a61461035d5780637228138614610374578063723750781461039d5761019c565b8063603ef6491461029e57806367075032146102c957806367ad4ec2146102f45761019c565b8063014e9f03146101a157806322af00fa146101ca578063271b69c21461020a57806337441996146102355780633ccfd60b1461025e578063508954f814610275575b600080fd5b3480156101ad57600080fd5b506101c860048036038101906101c39190612a8c565b610653565b005b3480156101d657600080fd5b506101f160048036038101906101ec9190612b0b565b610836565b6040516102019493929190612c22565b60405180910390f35b34801561021657600080fd5b5061021f61092b565b60405161022c9190612c6e565b60405180910390f35b34801561024157600080fd5b5061025c60048036038101906102579190612cbf565b610951565b005b34801561026a57600080fd5b50610273610c05565b005b34801561028157600080fd5b5061029c60048036038101906102979190612d1b565b610e98565b005b3480156102aa57600080fd5b506102b3610f1e565b6040516102c09190612d48565b60405180910390f35b3480156102d557600080fd5b506102de610f24565b6040516102eb9190612d48565b60405180910390f35b34801561030057600080fd5b5061031b60048036038101906103169190612d8f565b610f2a565b60405161032b9493929190612c22565b60405180910390f35b34801561034057600080fd5b5061035b60048036038101906103569190612b0b565b61100f565b005b34801561036957600080fd5b50610372611095565b005b34801561038057600080fd5b5061039b60048036038101906103969190612d8f565b61111d565b005b6103b760048036038101906103b29190612a8c565b6111dd565b005b3480156103c557600080fd5b506103e060048036038101906103db9190612d8f565b61155e565b005b3480156103ee57600080fd5b506103f761161e565b6040516104049190612c6e565b60405180910390f35b34801561041957600080fd5b50610422611648565b60405161043193929190612dbc565b60405180910390f35b34801561044657600080fd5b50610461600480360381019061045c9190612d8f565b6116e8565b60405161046e9190612d48565b60405180910390f35b34801561048357600080fd5b5061049e60048036038101906104999190612dfa565b611700565b6040516104ab9190612d48565b60405180910390f35b3480156104c057600080fd5b506104db60048036038101906104d69190612a8c565b611970565b6040516104e89190612d48565b60405180910390f35b3480156104fd57600080fd5b5061050661199e565b005b34801561051457600080fd5b5061052f600480360381019061052a9190612b0b565b611b09565b005b34801561053d57600080fd5b50610546611b8f565b6040516105539190612e65565b60405180910390f35b34801561056857600080fd5b50610583600480360381019061057e9190612a8c565b611c5a565b6040516105909190612e65565b60405180910390f35b3480156105a557600080fd5b506105c060048036038101906105bb9190612a8c565b611c83565b6040516105cd9190612d48565b60405180910390f35b3480156105e257600080fd5b506105eb611cb1565b6040516105f89190612d48565b60405180910390f35b34801561060d57600080fd5b5061062860048036038101906106239190612b0b565b611cb7565b005b34801561063657600080fd5b50610651600480360381019061064c9190612d8f565b611d81565b005b61065b611e78565b73ffffffffffffffffffffffffffffffffffffffff1661067961161e565b73ffffffffffffffffffffffffffffffffffffffff16146106cf576040517f08c379a00000000000000000000000000000000000000000000000000000000081526004016106c690612ecc565b60405180910390fd5b6040518060400160405280600581526020017f4b656d616c000000000000000000000000000000000000000000000000000000815250805190602001208180519060200120148061076257506040518060400160405280600781526020017f4572646f67616e00000000000000000000000000000000000000000000000000815250805190602001208180519060200120145b6107a1576040517f08c379a000000000000000000000000000000000000000000000000000000000815260040161079890612f38565b60405180910390fd5b62093a80600d546107b29190612f87565b42116107f3576040517f08c379a00000000000000000000000000000000000000000000000000000000081526004016107ea9061302d565b60405180910390fd5b7fc93a6fedee8cb8614762d4a2c6a6fac249f043a9d64d1c477c21f2e46b3b614081604051610822919061304d565b60405180910390a161083381611e80565b50565b600e818154811061084657600080fd5b90600052602060002090600402016000915090508060000160009054906101000a900473ffffffffffffffffffffffffffffffffffffffff16908060010154908060020180546108959061309e565b80601f01602080910402602001604051908101604052809291908181526020018280546108c19061309e565b801561090e5780601f106108e35761010080835404028352916020019161090e565b820191906000526020600020905b8154815290600101906020018083116108f157829003601f168201915b5050505050908060030160009054906101000a900460ff16905084565b600c60009054906101000a900473ffffffffffffffffffffffffffffffffffffffff1681565b816005600082815260200190815260200160002060009054906101000a900473ffffffffffffffffffffffffffffffffffffffff1673ffffffffffffffffffffffffffffffffffffffff163373ffffffffffffffffffffffffffffffffffffffff16146109f3576040517f08c379a00000000000000000000000000000000000000000000000000000000081526004016109ea90613141565b60405180910390fd5b6005600082815260200190815260200160002060006101000a81549073ffffffffffffffffffffffffffffffffffffffff0219169055807f7cc135e0cebb02c3480ae5d74d377283180a2601f8f644edf7987b009316c63a60405160405180910390a27fc93a6fedee8cb8614762d4a2c6a6fac249f043a9d64d1c477c21f2e46b3b614082604051610a85919061304d565b60405180910390a16013600101604051610a9f9190613204565b6040518091039020828051906020012014610ae15760016013600001819055508160136001019081610ad191906133c7565b5042601360020181905550610c00565b61012c601360020154610af49190612f87565b4210610bff5760136000016000815480929190610b1090613499565b919050555042601360020181905550600360136000015403610bfe577fc93a6fedee8cb8614762d4a2c6a6fac249f043a9d64d1c477c21f2e46b3b61406013600101604051610b5f9190613565565b60405180910390a1610bfd60136001018054610b7a9061309e565b80601f0160208091040260200160405190810160405280929190818152602001828054610ba69061309e565b8015610bf35780601f10610bc857610100808354040283529160200191610bf3565b820191906000526020600020905b815481529060010190602001808311610bd657829003601f168201915b5050505050611e80565b5b5b5b505050565b600260075403610c4a576040517f08c379a0000000000000000000000000000000000000000000000000000000008152600401610c41906135d3565b60405180910390fd5b60026007819055506000601160003373ffffffffffffffffffffffffffffffffffffffff1673ffffffffffffffffffffffffffffffffffffffff16815260200190815260200160002090506000816001015411610cdc576040517f08c379a0000000000000000000000000000000000000000000000000000000008152600401610cd39061363f565b60405180910390fd5b8060030160009054906101000a900460ff1615610d2e576040517f08c379a0000000000000000000000000000000000000000000000000000000008152600401610d25906136ab565b60405180910390fd5b600d54421115610d73576040517f08c379a0000000000000000000000000000000000000000000000000000000008152600401610d6a90613717565b60405180910390fd5b60008160010154905060018260030160006101000a81548160ff021916908315150217905550610dcd81600f84600201604051610db091906137c5565b908152602001604051809103902054611f2090919063ffffffff16565b600f83600201604051610de091906137c5565b9081526020016040518091039020819055503373ffffffffffffffffffffffffffffffffffffffff166108fc829081150290604051600060405180830381858888f19350505050158015610e38573d6000803e3d6000fd5b503373ffffffffffffffffffffffffffffffffffffffff167f464193b855eb16d5efcea88f1f239b57b2bb2f8877413804c05f825e9e6132c88284600201604051610e849291906137dc565b60405180910390a250506001600781905550565b610ea0611e78565b73ffffffffffffffffffffffffffffffffffffffff16610ebe61161e565b73ffffffffffffffffffffffffffffffffffffffff1614610f14576040517f08c379a0000000000000000000000000000000000000000000000000000000008152600401610f0b90612ecc565b60405180910390fd5b8060098190555050565b600b5481565b600d5481565b60116020528060005260406000206000915090508060000160009054906101000a900473ffffffffffffffffffffffffffffffffffffffff1690806001015490806002018054610f799061309e565b80601f0160208091040260200160405190810160405280929190818152602001828054610fa59061309e565b8015610ff25780601f10610fc757610100808354040283529160200191610ff2565b820191906000526020600020905b815481529060010190602001808311610fd557829003601f168201915b5050505050908060030160009054906101000a900460ff16905084565b611017611e78565b73ffffffffffffffffffffffffffffffffffffffff1661103561161e565b73ffffffffffffffffffffffffffffffffffffffff161461108b576040517f08c379a000000000000000000000000000000000000000000000000000000000815260040161108290612ecc565b60405180910390fd5b80600a8190555050565b61109d611e78565b73ffffffffffffffffffffffffffffffffffffffff166110bb61161e565b73ffffffffffffffffffffffffffffffffffffffff1614611111576040517f08c379a000000000000000000000000000000000000000000000000000000000815260040161110890612ecc565b60405180910390fd5b61111b6000611f36565b565b611125611e78565b73ffffffffffffffffffffffffffffffffffffffff1661114361161e565b73ffffffffffffffffffffffffffffffffffffffff1614611199576040517f08c379a000000000000000000000000000000000000000000000000000000000815260040161119090612ecc565b60405180910390fd5b80600c60006101000a81548173ffffffffffffffffffffffffffffffffffffffff021916908373ffffffffffffffffffffffffffffffffffffffff16021790555050565b6040518060400160405280600581526020017f4b656d616c000000000000000000000000000000000000000000000000000000815250805190602001208180519060200120148061127057506040518060400160405280600781526020017f4572646f67616e00000000000000000000000000000000000000000000000000815250805190602001208180519060200120145b6112af576040517f08c379a00000000000000000000000000000000000000000000000000000000081526004016112a690612f38565b60405180910390fd5b600d544211156112f4576040517f08c379a00000000000000000000000000000000000000000000000000000000081526004016112eb90613717565b60405180910390fd5b6000349050600060405180608001604052803373ffffffffffffffffffffffffffffffffffffffff168152602001838152602001848152602001600015158152509050600e81908060018154018082558091505060019003906000526020600020906004020160009091909190915060008201518160000160006101000a81548173ffffffffffffffffffffffffffffffffffffffff021916908373ffffffffffffffffffffffffffffffffffffffff1602179055506020820151816001015560408201518160020190816113c991906133c7565b5060608201518160030160006101000a81548160ff021916908315150217905550505061141d82600f85604051611400919061383d565b908152602001604051809103902054611ffc90919063ffffffff16565b600f8460405161142d919061383d565b90815260200160405180910390208190555080601160003373ffffffffffffffffffffffffffffffffffffffff1673ffffffffffffffffffffffffffffffffffffffff16815260200190815260200160002060008201518160000160006101000a81548173ffffffffffffffffffffffffffffffffffffffff021916908373ffffffffffffffffffffffffffffffffffffffff1602179055506020820151816001015560408201518160020190816114e591906133c7565b5060608201518160030160006101000a81548160ff0219169083151502179055509050503373ffffffffffffffffffffffffffffffffffffffff167fcc6833ded30742d7f7c3b02b2a9144fdd7e899726980e967a0a4d09d6aeb20998385604051611551929190613854565b60405180910390a2505050565b611566611e78565b73ffffffffffffffffffffffffffffffffffffffff1661158461161e565b73ffffffffffffffffffffffffffffffffffffffff16146115da576040517f08c379a00000000000000000000000000000000000000000000000000000000081526004016115d190612ecc565b60405180910390fd5b80600860006101000a81548173ffffffffffffffffffffffffffffffffffffffff021916908373ffffffffffffffffffffffffffffffffffffffff16021790555050565b6000600660009054906101000a900473ffffffffffffffffffffffffffffffffffffffff16905090565b601380600001549080600101805461165f9061309e565b80601f016020809104026020016040519081016040528092919081815260200182805461168b9061309e565b80156116d85780601f106116ad576101008083540402835291602001916116d8565b820191906000526020600020905b8154815290600101906020018083116116bb57829003601f168201915b5050505050908060020154905083565b60126020528060005260406000206000915090505481565b60006040518060400160405280600581526020017f4b656d616c000000000000000000000000000000000000000000000000000000815250805190602001208280519060200120148061179557506040518060400160405280600781526020017f4572646f67616e00000000000000000000000000000000000000000000000000815250805190602001208280519060200120145b6117d4576040517f08c379a00000000000000000000000000000000000000000000000000000000081526004016117cb90612f38565b60405180910390fd5b6000601160008573ffffffffffffffffffffffffffffffffffffffff1673ffffffffffffffffffffffffffffffffffffffff1681526020019081526020016000206040518060800160405290816000820160009054906101000a900473ffffffffffffffffffffffffffffffffffffffff1673ffffffffffffffffffffffffffffffffffffffff1673ffffffffffffffffffffffffffffffffffffffff168152602001600182015481526020016002820180546118909061309e565b80601f01602080910402602001604051908101604052809291908181526020018280546118bc9061309e565b80156119095780601f106118de57610100808354040283529160200191611909565b820191906000526020600020905b8154815290600101906020018083116118ec57829003601f168201915b505050505081526020016003820160009054906101000a900460ff1615151515815250509050828051906020012081604001518051906020012014801561195257508060600151155b1561196457806020015191505061196a565b60009150505b92915050565b600f818051602081018201805184825260208301602085012081835280955050505050506000915090505481565b6002600754036119e3576040517f08c379a00000000000000000000000000000000000000000000000000000000081526004016119da906135d3565b60405180910390fd5b60026007819055506000601260003373ffffffffffffffffffffffffffffffffffffffff1673ffffffffffffffffffffffffffffffffffffffff16815260200190815260200160002054905060008111611a72576040517f08c379a0000000000000000000000000000000000000000000000000000000008152600401611a69906138d0565b60405180910390fd5b6000601260003373ffffffffffffffffffffffffffffffffffffffff1673ffffffffffffffffffffffffffffffffffffffff168152602001908152602001600020819055503373ffffffffffffffffffffffffffffffffffffffff166108fc829081150290604051600060405180830381858888f19350505050158015611afd573d6000803e3d6000fd5b50506001600781905550565b611b11611e78565b73ffffffffffffffffffffffffffffffffffffffff16611b2f61161e565b73ffffffffffffffffffffffffffffffffffffffff1614611b85576040517f08c379a0000000000000000000000000000000000000000000000000000000008152600401611b7c90612ecc565b60405180910390fd5b80600d8190555050565b6000611b99611e78565b73ffffffffffffffffffffffffffffffffffffffff16611bb761161e565b73ffffffffffffffffffffffffffffffffffffffff1614611c0d576040517f08c379a0000000000000000000000000000000000000000000000000000000008152600401611c0490612ecc565b60405180910390fd5b6000611c2360095430633744199660e01b612012565b9050611c54600860009054906101000a900473ffffffffffffffffffffffffffffffffffffffff1682600a54612043565b91505090565b6000808290506000815103611c75576000801b915050611c7e565b60208301519150505b919050565b6010818051602081018201805184825260208301602085012081835280955050505050506000915090505481565b600a5481565b611cbf611e78565b73ffffffffffffffffffffffffffffffffffffffff16611cdd61161e565b73ffffffffffffffffffffffffffffffffffffffff1614611d33576040517f08c379a0000000000000000000000000000000000000000000000000000000008152600401611d2a90612ecc565b60405180910390fd5b6005811115611d77576040517f08c379a0000000000000000000000000000000000000000000000000000000008152600401611d6e90613962565b60405180910390fd5b80600b8190555050565b611d89611e78565b73ffffffffffffffffffffffffffffffffffffffff16611da761161e565b73ffffffffffffffffffffffffffffffffffffffff1614611dfd576040517f08c379a0000000000000000000000000000000000000000000000000000000008152600401611df490612ecc565b60405180910390fd5b600073ffffffffffffffffffffffffffffffffffffffff168173ffffffffffffffffffffffffffffffffffffffff1603611e6c576040517f08c379a0000000000000000000000000000000000000000000000000000000008152600401611e63906139f4565b60405180910390fd5b611e7581611f36565b50565b600033905090565b6000600f82604051611e92919061383d565b908152602001604051809103902054905060008103611eb15750611f1d565b600081905080601084604051611ec7919061383d565b908152602001604051809103902081905550600060649050600081600183600e80549050611ef59190612f87565b611eff9190613a14565b611f099190613a77565b9050611f18856000848461210f565b505050505b50565b60008183611f2e9190613a14565b905092915050565b6000600660009054906101000a900473ffffffffffffffffffffffffffffffffffffffff16905081600660006101000a81548173ffffffffffffffffffffffffffffffffffffffff021916908373ffffffffffffffffffffffffffffffffffffffff1602179055508173ffffffffffffffffffffffffffffffffffffffff168173ffffffffffffffffffffffffffffffffffffffff167f8be0079c531659141344cd1fd0a4f28419497f9722a3daafe3b4186f6b6457e060405160405180910390a35050565b6000818361200a9190612f87565b905092915050565b61201a6128ab565b6120226128ab565b612039858585846125d0909392919063ffffffff16565b9150509392505050565b60008060045490506001816120589190612f87565b6004819055506000634042994660e01b60008087600001513089604001518760018c6080015160000151604051602401612099989796959493929190613b38565b604051602081830303815290604052907bffffffffffffffffffffffffffffffffffffffffffffffffffffffff19166020820180517bffffffffffffffffffffffffffffffffffffffffffffffffffffffff8381831617835250505050905061210486838684612680565b925050509392505050565b6000600f85604051612121919061383d565b90815260200160405180910390205490506000601086604051612144919061383d565b9081526020016040518091039020549050600084866121639190613bbd565b9050600085826121739190612f87565b9050600e8054905081111561218b57600e8054905090505b60008290505b818110156123a7578880519060200120600e82815481106121b5576121b4613bff565b5b90600052602060002090600402016002016040516121d39190613204565b60405180910390200361239457600061222c8661221e87600e86815481106121fe576121fd613bff565b5b90600052602060002090600402016001015461281590919063ffffffff16565b61282b90919063ffffffff16565b90506000612258606461224a600b548561281590919063ffffffff16565b61282b90919063ffffffff16565b9050600061226f8284611f2090919063ffffffff16565b90506123088160126000600e888154811061228d5761228c613bff565b5b906000526020600020906004020160000160009054906101000a900473ffffffffffffffffffffffffffffffffffffffff1673ffffffffffffffffffffffffffffffffffffffff1673ffffffffffffffffffffffffffffffffffffffff16815260200190815260200160002054611ffc90919063ffffffff16565b60126000600e87815481106123205761231f613bff565b5b906000526020600020906004020160000160009054906101000a900473ffffffffffffffffffffffffffffffffffffffff1673ffffffffffffffffffffffffffffffffffffffff1673ffffffffffffffffffffffffffffffffffffffff168152602001908152602001600020819055505050505b808061239f90613499565b915050612191565b50846001886123b69190612f87565b101561252f5760006001886123cb9190612f87565b905060006113885a6123dd9190613a14565b905060008a838a8a6040516024016123f89493929190613c2e565b6040516020818303038152906040527f7c657fb7000000000000000000000000000000000000000000000000000000007bffffffffffffffffffffffffffffffffffffffffffffffffffffffff19166020820180517bffffffffffffffffffffffffffffffffffffffffffffffffffffffff8381831617835250505050905060003073ffffffffffffffffffffffffffffffffffffffff16838360405161249f9190613cab565b60006040518083038160008787f1925050503d80600081146124dd576040519150601f19603f3d011682016040523d82523d6000602084013e6124e2565b606091505b5050905080612526576040517f08c379a000000000000000000000000000000000000000000000000000000000815260040161251d90613d0e565b60405180910390fd5b505050506125c6565b6000612559606461254b600b548761281590919063ffffffff16565b61282b90919063ffffffff16565b9050600c60009054906101000a900473ffffffffffffffffffffffffffffffffffffffff1673ffffffffffffffffffffffffffffffffffffffff166108fc829081150290604051600060405180830381858888f193505050501580156125c3573d6000803e3d6000fd5b50505b5050505050505050565b6125d86128ab565b6125e88560800151610100612841565b508385600001818152505082856020019073ffffffffffffffffffffffffffffffffffffffff16908173ffffffffffffffffffffffffffffffffffffffff16815250508185604001907bffffffffffffffffffffffffffffffffffffffffffffffffffffffff191690817bffffffffffffffffffffffffffffffffffffffffffffffffffffffff191681525050849050949350505050565b60003084604051602001612695929190613ddd565b604051602081830303815290604052805190602001209050846005600083815260200190815260200160002060006101000a81548173ffffffffffffffffffffffffffffffffffffffff021916908373ffffffffffffffffffffffffffffffffffffffff160217905550807fb5e6e01e79f91267dc17b4e6314d5d4d03593d2ceee0fbb452b750bd70ea5af960405160405180910390a2600260009054906101000a900473ffffffffffffffffffffffffffffffffffffffff1673ffffffffffffffffffffffffffffffffffffffff16634000aea08685856040518463ffffffff1660e01b815260040161278b93929190613e09565b6020604051808303816000875af11580156127aa573d6000803e3d6000fd5b505050506040513d601f19601f820116820180604052508101906127ce9190613e73565b61280d576040517f08c379a000000000000000000000000000000000000000000000000000000000815260040161280490613f12565b60405180910390fd5b949350505050565b600081836128239190613bbd565b905092915050565b600081836128399190613a77565b905092915050565b612849612918565b60006020836128589190613f32565b146128845760208261286a9190613f32565b60206128769190613a14565b826128819190612f87565b91505b81836020018181525050604051808452600081528281016020016040525082905092915050565b6040518060a0016040528060008019168152602001600073ffffffffffffffffffffffffffffffffffffffff16815260200160007bffffffffffffffffffffffffffffffffffffffffffffffffffffffff1916815260200160008152602001612912612918565b81525090565b604051806040016040528060608152602001600081525090565b6000604051905090565b600080fd5b600080fd5b600080fd5b600080fd5b6000601f19601f8301169050919050565b7f4e487b7100000000000000000000000000000000000000000000000000000000600052604160045260246000fd5b61299982612950565b810181811067ffffffffffffffff821117156129b8576129b7612961565b5b80604052505050565b60006129cb612932565b90506129d78282612990565b919050565b600067ffffffffffffffff8211156129f7576129f6612961565b5b612a0082612950565b9050602081019050919050565b82818337600083830152505050565b6000612a2f612a2a846129dc565b6129c1565b905082815260208101848484011115612a4b57612a4a61294b565b5b612a56848285612a0d565b509392505050565b600082601f830112612a7357612a72612946565b5b8135612a83848260208601612a1c565b91505092915050565b600060208284031215612aa257612aa161293c565b5b600082013567ffffffffffffffff811115612ac057612abf612941565b5b612acc84828501612a5e565b91505092915050565b6000819050919050565b612ae881612ad5565b8114612af357600080fd5b50565b600081359050612b0581612adf565b92915050565b600060208284031215612b2157612b2061293c565b5b6000612b2f84828501612af6565b91505092915050565b600073ffffffffffffffffffffffffffffffffffffffff82169050919050565b6000612b6382612b38565b9050919050565b612b7381612b58565b82525050565b612b8281612ad5565b82525050565b600081519050919050565b600082825260208201905092915050565b60005b83811015612bc2578082015181840152602081019050612ba7565b60008484015250505050565b6000612bd982612b88565b612be38185612b93565b9350612bf3818560208601612ba4565b612bfc81612950565b840191505092915050565b60008115159050919050565b612c1c81612c07565b82525050565b6000608082019050612c376000830187612b6a565b612c446020830186612b79565b8181036040830152612c568185612bce565b9050612c656060830184612c13565b95945050505050565b6000602082019050612c836000830184612b6a565b92915050565b6000819050919050565b612c9c81612c89565b8114612ca757600080fd5b50565b600081359050612cb981612c93565b92915050565b60008060408385031215612cd657612cd561293c565b5b6000612ce485828601612caa565b925050602083013567ffffffffffffffff811115612d0557612d04612941565b5b612d1185828601612a5e565b9150509250929050565b600060208284031215612d3157612d3061293c565b5b6000612d3f84828501612caa565b91505092915050565b6000602082019050612d5d6000830184612b79565b92915050565b612d6c81612b58565b8114612d7757600080fd5b50565b600081359050612d8981612d63565b92915050565b600060208284031215612da557612da461293c565b5b6000612db384828501612d7a565b91505092915050565b6000606082019050612dd16000830186612b79565b8181036020830152612de38185612bce565b9050612df26040830184612b79565b949350505050565b60008060408385031215612e1157612e1061293c565b5b6000612e1f85828601612d7a565b925050602083013567ffffffffffffffff811115612e4057612e3f612941565b5b612e4c85828601612a5e565b9150509250929050565b612e5f81612c89565b82525050565b6000602082019050612e7a6000830184612e56565b92915050565b7f4f776e61626c653a2063616c6c6572206973206e6f7420746865206f776e6572600082015250565b6000612eb6602083612b93565b9150612ec182612e80565b602082019050919050565b60006020820190508181036000830152612ee581612ea9565b9050919050565b7f496e76616c69642063616e646964617465000000000000000000000000000000600082015250565b6000612f22601183612b93565b9150612f2d82612eec565b602082019050919050565b60006020820190508181036000830152612f5181612f15565b9050919050565b7f4e487b7100000000000000000000000000000000000000000000000000000000600052601160045260246000fd5b6000612f9282612ad5565b9150612f9d83612ad5565b9250828201905080821115612fb557612fb4612f58565b5b92915050565b7f43616e6e6f74206465636c6172652077696e6e6572206265666f7265206f6e6560008201527f207765656b2061667465722062657474696e6720656e64000000000000000000602082015250565b6000613017603783612b93565b915061302282612fbb565b604082019050919050565b600060208201905081810360008301526130468161300a565b9050919050565b600060208201905081810360008301526130678184612bce565b905092915050565b7f4e487b7100000000000000000000000000000000000000000000000000000000600052602260045260246000fd5b600060028204905060018216806130b657607f821691505b6020821081036130c9576130c861306f565b5b50919050565b7f536f75726365206d75737420626520746865206f7261636c65206f662074686560008201527f2072657175657374000000000000000000000000000000000000000000000000602082015250565b600061312b602883612b93565b9150613136826130cf565b604082019050919050565b6000602082019050818103600083015261315a8161311e565b9050919050565b600081905092915050565b60008190508160005260206000209050919050565b6000815461318e8161309e565b6131988186613161565b945060018216600081146131b357600181146131c8576131fb565b60ff19831686528115158202860193506131fb565b6131d18561316c565b60005b838110156131f3578154818901526001820191506020810190506131d4565b838801955050505b50505092915050565b60006132108284613181565b915081905092915050565b60008190508160005260206000209050919050565b60006020601f8301049050919050565b600082821b905092915050565b60006008830261327d7fffffffffffffffffffffffffffffffffffffffffffffffffffffffffffffffff82613240565b6132878683613240565b95508019841693508086168417925050509392505050565b6000819050919050565b60006132c46132bf6132ba84612ad5565b61329f565b612ad5565b9050919050565b6000819050919050565b6132de836132a9565b6132f26132ea826132cb565b84845461324d565b825550505050565b600090565b6133076132fa565b6133128184846132d5565b505050565b5b818110156133365761332b6000826132ff565b600181019050613318565b5050565b601f82111561337b5761334c8161321b565b61335584613230565b81016020851015613364578190505b61337861337085613230565b830182613317565b50505b505050565b600082821c905092915050565b600061339e60001984600802613380565b1980831691505092915050565b60006133b7838361338d565b9150826002028217905092915050565b6133d082612b88565b67ffffffffffffffff8111156133e9576133e8612961565b5b6133f3825461309e565b6133fe82828561333a565b600060209050601f831160018114613431576000841561341f578287015190505b61342985826133ab565b865550613491565b601f19841661343f8661321b565b60005b8281101561346757848901518255600182019150602085019450602081019050613442565b868310156134845784890151613480601f89168261338d565b8355505b6001600288020188555050505b505050505050565b60006134a482612ad5565b91507fffffffffffffffffffffffffffffffffffffffffffffffffffffffffffffffff82036134d6576134d5612f58565b5b600182019050919050565b600081546134ee8161309e565b6134f88186612b93565b9450600182166000811461351357600181146135295761355c565b60ff19831686528115156020028601935061355c565b6135328561321b565b60005b8381101561355457815481890152600182019150602081019050613535565b808801955050505b50505092915050565b6000602082019050818103600083015261357f81846134e1565b905092915050565b7f5265656e7472616e637947756172643a207265656e7472616e742063616c6c00600082015250565b60006135bd601f83612b93565b91506135c882613587565b602082019050919050565b600060208201905081810360008301526135ec816135b0565b9050919050565b7f4e6f2062657420746f2077697468647261770000000000000000000000000000600082015250565b6000613629601283612b93565b9150613634826135f3565b602082019050919050565b600060208201905081810360008301526136588161361c565b9050919050565b7f42657420616c72656164792077697468647261776e0000000000000000000000600082015250565b6000613695601583612b93565b91506136a08261365f565b602082019050919050565b600060208201905081810360008301526136c481613688565b9050919050565b7f42657474696e672068617320656e646564000000000000000000000000000000600082015250565b6000613701601183612b93565b915061370c826136cb565b602082019050919050565b60006020820190508181036000830152613730816136f4565b9050919050565b600081905092915050565b6000815461374f8161309e565b6137598186613737565b945060018216600081146137745760018114613789576137bc565b60ff19831686528115158202860193506137bc565b6137928561321b565b60005b838110156137b457815481890152600182019150602081019050613795565b838801955050505b50505092915050565b60006137d18284613742565b915081905092915050565b60006040820190506137f16000830185612b79565b818103602083015261380381846134e1565b90509392505050565b600061381782612b88565b6138218185613737565b9350613831818560208601612ba4565b80840191505092915050565b6000613849828461380c565b915081905092915050565b60006040820190506138696000830185612b79565b818103602083015261387b8184612bce565b90509392505050565b7f4e6f2077696e6e696e677320746f20636c61696d000000000000000000000000600082015250565b60006138ba601483612b93565b91506138c582613884565b602082019050919050565b600060208201905081810360008301526138e9816138ad565b9050919050565b7f53657276696365206665652070657263656e746167652073686f756c64206e6f60008201527f7420657863656564203500000000000000000000000000000000000000000000602082015250565b600061394c602a83612b93565b9150613957826138f0565b604082019050919050565b6000602082019050818103600083015261397b8161393f565b9050919050565b7f4f776e61626c653a206e6577206f776e657220697320746865207a65726f206160008201527f6464726573730000000000000000000000000000000000000000000000000000602082015250565b60006139de602683612b93565b91506139e982613982565b604082019050919050565b60006020820190508181036000830152613a0d816139d1565b9050919050565b6000613a1f82612ad5565b9150613a2a83612ad5565b9250828203905081811115613a4257613a41612f58565b5b92915050565b7f4e487b7100000000000000000000000000000000000000000000000000000000600052601260045260246000fd5b6000613a8282612ad5565b9150613a8d83612ad5565b925082613a9d57613a9c613a48565b5b828204905092915050565b60007fffffffff0000000000000000000000000000000000000000000000000000000082169050919050565b613add81613aa8565b82525050565b600081519050919050565b600082825260208201905092915050565b6000613b0a82613ae3565b613b148185613aee565b9350613b24818560208601612ba4565b613b2d81612950565b840191505092915050565b600061010082019050613b4e600083018b612b6a565b613b5b602083018a612b79565b613b686040830189612e56565b613b756060830188612b6a565b613b826080830187613ad4565b613b8f60a0830186612b79565b613b9c60c0830185612b79565b81810360e0830152613bae8184613aff565b90509998505050505050505050565b6000613bc882612ad5565b9150613bd383612ad5565b9250828202613be181612ad5565b91508282048414831517613bf857613bf7612f58565b5b5092915050565b7f4e487b7100000000000000000000000000000000000000000000000000000000600052603260045260246000fd5b60006080820190508181036000830152613c488187612bce565b9050613c576020830186612b79565b613c646040830185612b79565b613c716060830184612b79565b95945050505050565b6000613c8582613ae3565b613c8f8185613161565b9350613c9f818560208601612ba4565b80840191505092915050565b6000613cb78284613c7a565b915081905092915050565b7f426174636820646973747269627574696f6e206661696c656400000000000000600082015250565b6000613cf8601983612b93565b9150613d0382613cc2565b602082019050919050565b60006020820190508181036000830152613d2781613ceb565b9050919050565b6000613d49613d44613d3f84612b38565b61329f565b612b38565b9050919050565b6000613d5b82613d2e565b9050919050565b6000613d6d82613d50565b9050919050565b60008160601b9050919050565b6000613d8c82613d74565b9050919050565b6000613d9e82613d81565b9050919050565b613db6613db182613d62565b613d93565b82525050565b6000819050919050565b613dd7613dd282612ad5565b613dbc565b82525050565b6000613de98285613da5565b601482019150613df98284613dc6565b6020820191508190509392505050565b6000606082019050613e1e6000830186612b6a565b613e2b6020830185612b79565b8181036040830152613e3d8184613aff565b9050949350505050565b613e5081612c07565b8114613e5b57600080fd5b50565b600081519050613e6d81613e47565b92915050565b600060208284031215613e8957613e8861293c565b5b6000613e9784828501613e5e565b91505092915050565b7f756e61626c6520746f207472616e73666572416e6443616c6c20746f206f726160008201527f636c650000000000000000000000000000000000000000000000000000000000602082015250565b6000613efc602383612b93565b9150613f0782613ea0565b604082019050919050565b60006020820190508181036000830152613f2b81613eef565b9050919050565b6000613f3d82612ad5565b9150613f4883612ad5565b925082613f5857613f57613a48565b5b82820690509291505056fea2646970667358221220845b75d10b89b8abc697b9bc2d506a96fe87d4d4c8192b062de1a016e3f87dd164736f6c63430008130033",
  "linkReferences": {},
  "deployedLinkReferences": {}
}