{
  "_format": "hh-sol-artifact-1",
  "contractName": "ElectionBet",
  "sourceName": "contracts/ElectionBet.sol",
  "abi": [
    {
      "inputs": [
        {
          "internalType": "address",
          "name": "_oracle",
          "type": "address"
        },
        {
          "internalType": "string",
          "name": "_jobId",
          "type": "string"
        },
        {
          "internalType": "uint256",
          "name": "_fee",
          "type": "uint256"
        }
      ],
      "stateMutability": "nonpayable",
      "type": "constructor"
    },
    {
      "anonymous": false,
      "inputs": [
        {
          "indexed": true,
          "internalType": "address",
          "name": "bettor",
          "type": "address"
        },
        {
          "indexed": false,
          "internalType": "uint256",
          "name": "amount",
          "type": "uint256"
        },
        {
          "indexed": false,
          "internalType": "string",
          "name": "candidate",
          "type": "string"
        }
      ],
      "name": "BetMade",
      "type": "event"
    },
    {
      "anonymous": false,
      "inputs": [
        {
          "indexed": true,
          "internalType": "bytes32",
          "name": "id",
          "type": "bytes32"
        }
      ],
      "name": "ChainlinkCancelled",
      "type": "event"
    },
    {
      "anonymous": false,
      "inputs": [
        {
          "indexed": true,
          "internalType": "bytes32",
          "name": "id",
          "type": "bytes32"
        }
      ],
      "name": "ChainlinkFulfilled",
      "type": "event"
    },
    {
      "anonymous": false,
      "inputs": [
        {
          "indexed": true,
          "internalType": "bytes32",
          "name": "id",
          "type": "bytes32"
        }
      ],
      "name": "ChainlinkRequested",
      "type": "event"
    },
    {
      "anonymous": false,
      "inputs": [
        {
          "indexed": false,
          "internalType": "string",
          "name": "winner",
          "type": "string"
        }
      ],
      "name": "ElectionResultReceived",
      "type": "event"
    },
    {
      "inputs": [
        {
          "internalType": "uint256",
          "name": "",
          "type": "uint256"
        }
      ],
      "name": "bets",
      "outputs": [
        {
          "internalType": "address",
          "name": "bettor",
          "type": "address"
        },
        {
          "internalType": "uint256",
          "name": "amount",
          "type": "uint256"
        },
        {
          "internalType": "string",
          "name": "candidate",
          "type": "string"
        }
      ],
      "stateMutability": "view",
      "type": "function"
    },
    {
      "inputs": [
        {
          "internalType": "bytes32",
          "name": "_requestId",
          "type": "bytes32"
        },
        {
          "internalType": "string",
          "name": "_winner",
          "type": "string"
        }
      ],
      "name": "fulfill",
      "outputs": [],
      "stateMutability": "nonpayable",
      "type": "function"
    },
    {
      "inputs": [],
      "name": "getElectionResult",
      "outputs": [
        {
          "internalType": "bytes32",
          "name": "requestId",
          "type": "bytes32"
        }
      ],
      "stateMutability": "nonpayable",
      "type": "function"
    },
    {
      "inputs": [
        {
          "internalType": "string",
          "name": "candidate",
          "type": "string"
        }
      ],
      "name": "makeBet",
      "outputs": [],
      "stateMutability": "payable",
      "type": "function"
    },
    {
      "inputs": [],
      "name": "payout",
      "outputs": [],
      "stateMutability": "nonpayable",
      "type": "function"
    },
    {
      "inputs": [
        {
          "internalType": "string",
          "name": "source",
          "type": "string"
        }
      ],
      "name": "stringToBytes32",
      "outputs": [
        {
          "internalType": "bytes32",
          "name": "result",
          "type": "bytes32"
        }
      ],
      "stateMutability": "pure",
      "type": "function"
    },
    {
      "inputs": [
        {
          "internalType": "string",
          "name": "",
          "type": "string"
        }
      ],
      "name": "totalBets",
      "outputs": [
        {
          "internalType": "uint256",
          "name": "",
          "type": "uint256"
        }
      ],
      "stateMutability": "view",
      "type": "function"
    },
    {
      "inputs": [
        {
          "internalType": "address",
          "name": "",
          "type": "address"
        }
      ],
      "name": "winnings",
      "outputs": [
        {
          "internalType": "uint256",
          "name": "",
          "type": "uint256"
        }
      ],
      "stateMutability": "view",
      "type": "function"
    }
  ],
  "bytecode": "0x608060405260016004553480156200001657600080fd5b50604051620020e1380380620020e183398181016040528101906200003c91906200036b565b6200006173a36085f69e2889c224210f603d836748e7dc0088620000c960201b60201c565b82600660006101000a81548173ffffffffffffffffffffffffffffffffffffffff021916908373ffffffffffffffffffffffffffffffffffffffff160217905550620000b3826200010d60201b60201c565b60078190555080600881905550505050620003e6565b80600260006101000a81548173ffffffffffffffffffffffffffffffffffffffff021916908373ffffffffffffffffffffffffffffffffffffffff16021790555050565b60008082905060008151036200012a576000801b91505062000133565b60208301519150505b919050565b6000604051905090565b600080fd5b600080fd5b600073ffffffffffffffffffffffffffffffffffffffff82169050919050565b600062000179826200014c565b9050919050565b6200018b816200016c565b81146200019757600080fd5b50565b600081519050620001ab8162000180565b92915050565b600080fd5b600080fd5b6000601f19601f8301169050919050565b7f4e487b7100000000000000000000000000000000000000000000000000000000600052604160045260246000fd5b6200020682620001bb565b810181811067ffffffffffffffff82111715620002285762000227620001cc565b5b80604052505050565b60006200023d62000138565b90506200024b8282620001fb565b919050565b600067ffffffffffffffff8211156200026e576200026d620001cc565b5b6200027982620001bb565b9050602081019050919050565b60005b83811015620002a657808201518184015260208101905062000289565b60008484015250505050565b6000620002c9620002c38462000250565b62000231565b905082815260208101848484011115620002e857620002e7620001b6565b5b620002f584828562000286565b509392505050565b600082601f830112620003155762000314620001b1565b5b815162000327848260208601620002b2565b91505092915050565b6000819050919050565b620003458162000330565b81146200035157600080fd5b50565b60008151905062000365816200033a565b92915050565b60008060006060848603121562000387576200038662000142565b5b600062000397868287016200019a565b935050602084015167ffffffffffffffff811115620003bb57620003ba62000147565b5b620003c986828701620002fd565b9250506040620003dc8682870162000354565b9150509250925092565b611ceb80620003f66000396000f3fe60806040526004361061007b5760003560e01c8063aef0e4ac1161004e578063aef0e4ac1461011b578063ca3eb44314610158578063cfb5192814610183578063ea3a1499146101c05761007b565b806322af00fa1461008057806337441996146100bf57806363bd1d4a146100e857806372375078146100ff575b600080fd5b34801561008c57600080fd5b506100a760048036038101906100a29190610dd4565b6101fd565b6040516100b693929190610ee1565b60405180910390f35b3480156100cb57600080fd5b506100e660048036038101906100e1919061108a565b6102df565b005b3480156100f457600080fd5b506100fd61058c565b005b610119600480360381019061011491906110e6565b610747565b005b34801561012757600080fd5b50610142600480360381019061013d91906110e6565b61089a565b60405161014f919061112f565b60405180910390f35b34801561016457600080fd5b5061016d6108c8565b60405161017a9190611159565b60405180910390f35b34801561018f57600080fd5b506101aa60048036038101906101a591906110e6565b610916565b6040516101b79190611159565b60405180910390f35b3480156101cc57600080fd5b506101e760048036038101906101e291906111a0565b61093f565b6040516101f4919061112f565b60405180910390f35b6009818154811061020d57600080fd5b90600052602060002090600302016000915090508060000160009054906101000a900473ffffffffffffffffffffffffffffffffffffffff169080600101549080600201805461025c906111fc565b80601f0160208091040260200160405190810160405280929190818152602001828054610288906111fc565b80156102d55780601f106102aa576101008083540402835291602001916102d5565b820191906000526020600020905b8154815290600101906020018083116102b857829003601f168201915b5050505050905083565b816005600082815260200190815260200160002060009054906101000a900473ffffffffffffffffffffffffffffffffffffffff1673ffffffffffffffffffffffffffffffffffffffff163373ffffffffffffffffffffffffffffffffffffffff1614610381576040517f08c379a00000000000000000000000000000000000000000000000000000000081526004016103789061129f565b60405180910390fd5b6005600082815260200190815260200160002060006101000a81549073ffffffffffffffffffffffffffffffffffffffff0219169055807f7cc135e0cebb02c3480ae5d74d377283180a2601f8f644edf7987b009316c63a60405160405180910390a27fc93a6fedee8cb8614762d4a2c6a6fac249f043a9d64d1c477c21f2e46b3b61408260405161041391906112bf565b60405180910390a160004790506000600a84604051610432919061131d565b908152602001604051809103902054905060005b6009805490508110156105845784805190602001206009828154811061046f5761046e611334565b5b906000526020600020906003020160020160405161048d9190611406565b604051809103902003610571578282600983815481106104b0576104af611334565b5b9060005260206000209060030201600101546104cc919061147b565b6104d691906114ac565b600b6000600984815481106104ee576104ed611334565b5b906000526020600020906003020160000160009054906101000a900473ffffffffffffffffffffffffffffffffffffffff1673ffffffffffffffffffffffffffffffffffffffff1673ffffffffffffffffffffffffffffffffffffffff168152602001908152602001600020600082825461056991906114ee565b925050819055505b808061057c90611522565b915050610446565b505050505050565b6000600b60003373ffffffffffffffffffffffffffffffffffffffff1673ffffffffffffffffffffffffffffffffffffffff168152602001908152602001600020541161060e576040517f08c379a0000000000000000000000000000000000000000000000000000000008152600401610605906115b6565b60405180910390fd5b6000600b60003373ffffffffffffffffffffffffffffffffffffffff1673ffffffffffffffffffffffffffffffffffffffff1681526020019081526020016000205490506000600b60003373ffffffffffffffffffffffffffffffffffffffff1673ffffffffffffffffffffffffffffffffffffffff1681526020019081526020016000208190555060003373ffffffffffffffffffffffffffffffffffffffff16826040516106bd906115fc565b60006040518083038185875af1925050503d80600081146106fa576040519150601f19603f3d011682016040523d82523d6000602084013e6106ff565b606091505b5050905080610743576040517f08c379a000000000000000000000000000000000000000000000000000000000815260040161073a9061165d565b60405180910390fd5b5050565b600060405180606001604052803373ffffffffffffffffffffffffffffffffffffffff168152602001348152602001838152509050600981908060018154018082558091505060019003906000526020600020906003020160009091909190915060008201518160000160006101000a81548173ffffffffffffffffffffffffffffffffffffffff021916908373ffffffffffffffffffffffffffffffffffffffff16021790555060208201518160010155604082015181600201908161080e9190611829565b50505034600a83604051610822919061131d565b9081526020016040518091039020600082825461083f91906114ee565b925050819055503373ffffffffffffffffffffffffffffffffffffffff167fcc6833ded30742d7f7c3b02b2a9144fdd7e899726980e967a0a4d09d6aeb2099348460405161088e9291906118fb565b60405180910390a25050565b600a818051602081018201805184825260208301602085012081835280955050505050506000915090505481565b6000806108df60075430633744199660e01b610957565b9050610910600660009054906101000a900473ffffffffffffffffffffffffffffffffffffffff1682600854610988565b91505090565b6000808290506000815103610931576000801b91505061093a565b60208301519150505b919050565b600b6020528060005260406000206000915090505481565b61095f610d03565b610967610d03565b61097e85858584610a54909392919063ffffffff16565b9150509392505050565b600080600454905060018161099d91906114ee565b6004819055506000634042994660e01b60008087600001513089604001518760018c60800151600001516040516024016109de9897969594939291906119bb565b604051602081830303815290604052907bffffffffffffffffffffffffffffffffffffffffffffffffffffffff19166020820180517bffffffffffffffffffffffffffffffffffffffffffffffffffffffff83818316178352505050509050610a4986838684610b04565b925050509392505050565b610a5c610d03565b610a6c8560800151610100610c99565b508385600001818152505082856020019073ffffffffffffffffffffffffffffffffffffffff16908173ffffffffffffffffffffffffffffffffffffffff16815250508185604001907bffffffffffffffffffffffffffffffffffffffffffffffffffffffff191690817bffffffffffffffffffffffffffffffffffffffffffffffffffffffff191681525050849050949350505050565b60003084604051602001610b19929190611aef565b604051602081830303815290604052805190602001209050846005600083815260200190815260200160002060006101000a81548173ffffffffffffffffffffffffffffffffffffffff021916908373ffffffffffffffffffffffffffffffffffffffff160217905550807fb5e6e01e79f91267dc17b4e6314d5d4d03593d2ceee0fbb452b750bd70ea5af960405160405180910390a2600260009054906101000a900473ffffffffffffffffffffffffffffffffffffffff1673ffffffffffffffffffffffffffffffffffffffff16634000aea08685856040518463ffffffff1660e01b8152600401610c0f93929190611b1b565b6020604051808303816000875af1158015610c2e573d6000803e3d6000fd5b505050506040513d601f19601f82011682018060405250810190610c529190611b91565b610c91576040517f08c379a0000000000000000000000000000000000000000000000000000000008152600401610c8890611c30565b60405180910390fd5b949350505050565b610ca1610d70565b6000602083610cb09190611c50565b14610cdc57602082610cc29190611c50565b6020610cce9190611c81565b82610cd991906114ee565b91505b81836020018181525050604051808452600081528281016020016040525082905092915050565b6040518060a0016040528060008019168152602001600073ffffffffffffffffffffffffffffffffffffffff16815260200160007bffffffffffffffffffffffffffffffffffffffffffffffffffffffff1916815260200160008152602001610d6a610d70565b81525090565b604051806040016040528060608152602001600081525090565b6000604051905090565b600080fd5b600080fd5b6000819050919050565b610db181610d9e565b8114610dbc57600080fd5b50565b600081359050610dce81610da8565b92915050565b600060208284031215610dea57610de9610d94565b5b6000610df884828501610dbf565b91505092915050565b600073ffffffffffffffffffffffffffffffffffffffff82169050919050565b6000610e2c82610e01565b9050919050565b610e3c81610e21565b82525050565b610e4b81610d9e565b82525050565b600081519050919050565b600082825260208201905092915050565b60005b83811015610e8b578082015181840152602081019050610e70565b60008484015250505050565b6000601f19601f8301169050919050565b6000610eb382610e51565b610ebd8185610e5c565b9350610ecd818560208601610e6d565b610ed681610e97565b840191505092915050565b6000606082019050610ef66000830186610e33565b610f036020830185610e42565b8181036040830152610f158184610ea8565b9050949350505050565b6000819050919050565b610f3281610f1f565b8114610f3d57600080fd5b50565b600081359050610f4f81610f29565b92915050565b600080fd5b600080fd5b7f4e487b7100000000000000000000000000000000000000000000000000000000600052604160045260246000fd5b610f9782610e97565b810181811067ffffffffffffffff82111715610fb657610fb5610f5f565b5b80604052505050565b6000610fc9610d8a565b9050610fd58282610f8e565b919050565b600067ffffffffffffffff821115610ff557610ff4610f5f565b5b610ffe82610e97565b9050602081019050919050565b82818337600083830152505050565b600061102d61102884610fda565b610fbf565b90508281526020810184848401111561104957611048610f5a565b5b61105484828561100b565b509392505050565b600082601f83011261107157611070610f55565b5b813561108184826020860161101a565b91505092915050565b600080604083850312156110a1576110a0610d94565b5b60006110af85828601610f40565b925050602083013567ffffffffffffffff8111156110d0576110cf610d99565b5b6110dc8582860161105c565b9150509250929050565b6000602082840312156110fc576110fb610d94565b5b600082013567ffffffffffffffff81111561111a57611119610d99565b5b6111268482850161105c565b91505092915050565b60006020820190506111446000830184610e42565b92915050565b61115381610f1f565b82525050565b600060208201905061116e600083018461114a565b92915050565b61117d81610e21565b811461118857600080fd5b50565b60008135905061119a81611174565b92915050565b6000602082840312156111b6576111b5610d94565b5b60006111c48482850161118b565b91505092915050565b7f4e487b7100000000000000000000000000000000000000000000000000000000600052602260045260246000fd5b6000600282049050600182168061121457607f821691505b602082108103611227576112266111cd565b5b50919050565b7f536f75726365206d75737420626520746865206f7261636c65206f662074686560008201527f2072657175657374000000000000000000000000000000000000000000000000602082015250565b6000611289602883610e5c565b91506112948261122d565b604082019050919050565b600060208201905081810360008301526112b88161127c565b9050919050565b600060208201905081810360008301526112d98184610ea8565b905092915050565b600081905092915050565b60006112f782610e51565b61130181856112e1565b9350611311818560208601610e6d565b80840191505092915050565b600061132982846112ec565b915081905092915050565b7f4e487b7100000000000000000000000000000000000000000000000000000000600052603260045260246000fd5b600081905092915050565b60008190508160005260206000209050919050565b60008154611390816111fc565b61139a8186611363565b945060018216600081146113b557600181146113ca576113fd565b60ff19831686528115158202860193506113fd565b6113d38561136e565b60005b838110156113f5578154818901526001820191506020810190506113d6565b838801955050505b50505092915050565b60006114128284611383565b915081905092915050565b7f4e487b7100000000000000000000000000000000000000000000000000000000600052601260045260246000fd5b7f4e487b7100000000000000000000000000000000000000000000000000000000600052601160045260246000fd5b600061148682610d9e565b915061149183610d9e565b9250826114a1576114a061141d565b5b828204905092915050565b60006114b782610d9e565b91506114c283610d9e565b92508282026114d081610d9e565b915082820484148315176114e7576114e661144c565b5b5092915050565b60006114f982610d9e565b915061150483610d9e565b925082820190508082111561151c5761151b61144c565b5b92915050565b600061152d82610d9e565b91507fffffffffffffffffffffffffffffffffffffffffffffffffffffffffffffffff820361155f5761155e61144c565b5b600182019050919050565b7f4e6f2077696e6e696e677320746f207061796f75740000000000000000000000600082015250565b60006115a0601583610e5c565b91506115ab8261156a565b602082019050919050565b600060208201905081810360008301526115cf81611593565b9050919050565b50565b60006115e6600083611363565b91506115f1826115d6565b600082019050919050565b6000611607826115d9565b9150819050919050565b7f4661696c656420746f2073656e64204574686572000000000000000000000000600082015250565b6000611647601483610e5c565b915061165282611611565b602082019050919050565b600060208201905081810360008301526116768161163a565b9050919050565b60008190508160005260206000209050919050565b60006020601f8301049050919050565b600082821b905092915050565b6000600883026116df7fffffffffffffffffffffffffffffffffffffffffffffffffffffffffffffffff826116a2565b6116e986836116a2565b95508019841693508086168417925050509392505050565b6000819050919050565b600061172661172161171c84610d9e565b611701565b610d9e565b9050919050565b6000819050919050565b6117408361170b565b61175461174c8261172d565b8484546116af565b825550505050565b600090565b61176961175c565b611774818484611737565b505050565b5b818110156117985761178d600082611761565b60018101905061177a565b5050565b601f8211156117dd576117ae8161167d565b6117b784611692565b810160208510156117c6578190505b6117da6117d285611692565b830182611779565b50505b505050565b600082821c905092915050565b6000611800600019846008026117e2565b1980831691505092915050565b600061181983836117ef565b9150826002028217905092915050565b61183282610e51565b67ffffffffffffffff81111561184b5761184a610f5f565b5b61185582546111fc565b61186082828561179c565b600060209050601f8311600181146118935760008415611881578287015190505b61188b858261180d565b8655506118f3565b601f1984166118a18661167d565b60005b828110156118c9578489015182556001820191506020850194506020810190506118a4565b868310156118e657848901516118e2601f8916826117ef565b8355505b6001600288020188555050505b505050505050565b60006040820190506119106000830185610e42565b81810360208301526119228184610ea8565b90509392505050565b60007fffffffff0000000000000000000000000000000000000000000000000000000082169050919050565b6119608161192b565b82525050565b600081519050919050565b600082825260208201905092915050565b600061198d82611966565b6119978185611971565b93506119a7818560208601610e6d565b6119b081610e97565b840191505092915050565b6000610100820190506119d1600083018b610e33565b6119de602083018a610e42565b6119eb604083018961114a565b6119f86060830188610e33565b611a056080830187611957565b611a1260a0830186610e42565b611a1f60c0830185610e42565b81810360e0830152611a318184611982565b90509998505050505050505050565b6000611a5b611a56611a5184610e01565b611701565b610e01565b9050919050565b6000611a6d82611a40565b9050919050565b6000611a7f82611a62565b9050919050565b60008160601b9050919050565b6000611a9e82611a86565b9050919050565b6000611ab082611a93565b9050919050565b611ac8611ac382611a74565b611aa5565b82525050565b6000819050919050565b611ae9611ae482610d9e565b611ace565b82525050565b6000611afb8285611ab7565b601482019150611b0b8284611ad8565b6020820191508190509392505050565b6000606082019050611b306000830186610e33565b611b3d6020830185610e42565b8181036040830152611b4f8184611982565b9050949350505050565b60008115159050919050565b611b6e81611b59565b8114611b7957600080fd5b50565b600081519050611b8b81611b65565b92915050565b600060208284031215611ba757611ba6610d94565b5b6000611bb584828501611b7c565b91505092915050565b7f756e61626c6520746f207472616e73666572416e6443616c6c20746f206f726160008201527f636c650000000000000000000000000000000000000000000000000000000000602082015250565b6000611c1a602383610e5c565b9150611c2582611bbe565b604082019050919050565b60006020820190508181036000830152611c4981611c0d565b9050919050565b6000611c5b82610d9e565b9150611c6683610d9e565b925082611c7657611c7561141d565b5b828206905092915050565b6000611c8c82610d9e565b9150611c9783610d9e565b9250828203905081811115611caf57611cae61144c565b5b9291505056fea264697066735822122002aebcba5b01819387343b5368ee535b38ecf9e425b5f6bafe4efdbd15c5443764736f6c63430008130033",
  "linkReferences": {},
  "deployedLinkReferences": {}
}