{
  "_format": "hh-sol-artifact-1",
  "contractName": "ElectionBetting",
  "sourceName": "contracts/ElectionBetting.sol",
  "abi": [
    {
      "inputs": [
        {
          "internalType": "address",
          "name": "_oracle",
          "type": "address"
        },
        {
          "internalType": "string",
          "name": "_jobId",
          "type": "string"
        },
        {
          "internalType": "uint256",
          "name": "_fee",
          "type": "uint256"
        },
        {
          "internalType": "uint256",
          "name": "_serviceFeePercentage",
          "type": "uint256"
        },
        {
          "internalType": "address",
          "name": "_serviceFeeWallet",
          "type": "address"
        },
        {
          "internalType": "uint256",
          "name": "_bettingEndTime",
          "type": "uint256"
        }
      ],
      "stateMutability": "nonpayable",
      "type": "constructor"
    },
    {
      "anonymous": false,
      "inputs": [
        {
          "indexed": true,
          "internalType": "address",
          "name": "bettor",
          "type": "address"
        },
        {
          "indexed": false,
          "internalType": "uint256",
          "name": "amount",
          "type": "uint256"
        },
        {
          "indexed": false,
          "internalType": "string",
          "name": "candidate",
          "type": "string"
        }
      ],
      "name": "BetMade",
      "type": "event"
    },
    {
      "anonymous": false,
      "inputs": [
        {
          "indexed": true,
          "internalType": "address",
          "name": "bettor",
          "type": "address"
        },
        {
          "indexed": false,
          "internalType": "uint256",
          "name": "amount",
          "type": "uint256"
        },
        {
          "indexed": false,
          "internalType": "string",
          "name": "candidate",
          "type": "string"
        }
      ],
      "name": "BetWithdrawn",
      "type": "event"
    },
    {
      "anonymous": false,
      "inputs": [
        {
          "indexed": true,
          "internalType": "bytes32",
          "name": "id",
          "type": "bytes32"
        }
      ],
      "name": "ChainlinkCancelled",
      "type": "event"
    },
    {
      "anonymous": false,
      "inputs": [
        {
          "indexed": true,
          "internalType": "bytes32",
          "name": "id",
          "type": "bytes32"
        }
      ],
      "name": "ChainlinkFulfilled",
      "type": "event"
    },
    {
      "anonymous": false,
      "inputs": [
        {
          "indexed": true,
          "internalType": "bytes32",
          "name": "id",
          "type": "bytes32"
        }
      ],
      "name": "ChainlinkRequested",
      "type": "event"
    },
    {
      "anonymous": false,
      "inputs": [
        {
          "indexed": false,
          "internalType": "string",
          "name": "winner",
          "type": "string"
        }
      ],
      "name": "ElectionResultReceived",
      "type": "event"
    },
    {
      "anonymous": false,
      "inputs": [
        {
          "indexed": true,
          "internalType": "address",
          "name": "previousOwner",
          "type": "address"
        },
        {
          "indexed": true,
          "internalType": "address",
          "name": "newOwner",
          "type": "address"
        }
      ],
      "name": "OwnershipTransferred",
      "type": "event"
    },
    {
      "inputs": [
        {
          "internalType": "uint256",
          "name": "",
          "type": "uint256"
        }
      ],
      "name": "bets",
      "outputs": [
        {
          "internalType": "address",
          "name": "bettor",
          "type": "address"
        },
        {
          "internalType": "uint256",
          "name": "amount",
          "type": "uint256"
        },
        {
          "internalType": "string",
          "name": "candidate",
          "type": "string"
        },
        {
          "internalType": "bool",
          "name": "withdrawn",
          "type": "bool"
        }
      ],
      "stateMutability": "view",
      "type": "function"
    },
    {
      "inputs": [],
      "name": "bettingEndTime",
      "outputs": [
        {
          "internalType": "uint256",
          "name": "",
          "type": "uint256"
        }
      ],
      "stateMutability": "view",
      "type": "function"
    },
    {
      "inputs": [
        {
          "internalType": "address",
          "name": "user",
          "type": "address"
        },
        {
          "internalType": "string",
          "name": "candidate",
          "type": "string"
        }
      ],
      "name": "calculateUserBet",
      "outputs": [
        {
          "internalType": "uint256",
          "name": "",
          "type": "uint256"
        }
      ],
      "stateMutability": "view",
      "type": "function"
    },
    {
      "inputs": [
        {
          "internalType": "string",
          "name": "",
          "type": "string"
        }
      ],
      "name": "candidateWinnings",
      "outputs": [
        {
          "internalType": "uint256",
          "name": "",
          "type": "uint256"
        }
      ],
      "stateMutability": "view",
      "type": "function"
    },
    {
      "inputs": [],
      "name": "claimWinnings",
      "outputs": [],
      "stateMutability": "nonpayable",
      "type": "function"
    },
    {
      "inputs": [
        {
          "internalType": "string",
          "name": "winner",
          "type": "string"
        }
      ],
      "name": "declareWinner",
      "outputs": [],
      "stateMutability": "nonpayable",
      "type": "function"
    },
    {
      "inputs": [],
      "name": "electionConfirmation",
      "outputs": [
        {
          "internalType": "uint256",
          "name": "count",
          "type": "uint256"
        },
        {
          "internalType": "string",
          "name": "result",
          "type": "string"
        },
        {
          "internalType": "uint256",
          "name": "lastConfirmationTimestamp",
          "type": "uint256"
        }
      ],
      "stateMutability": "view",
      "type": "function"
    },
    {
      "inputs": [],
      "name": "fee",
      "outputs": [
        {
          "internalType": "uint256",
          "name": "",
          "type": "uint256"
        }
      ],
      "stateMutability": "view",
      "type": "function"
    },
    {
      "inputs": [
        {
          "internalType": "bytes32",
          "name": "_requestId",
          "type": "bytes32"
        },
        {
          "internalType": "string",
          "name": "_winner",
          "type": "string"
        }
      ],
      "name": "fulfill",
      "outputs": [],
      "stateMutability": "nonpayable",
      "type": "function"
    },
    {
      "inputs": [],
      "name": "getElectionResult",
      "outputs": [
        {
          "internalType": "bytes32",
          "name": "requestId",
          "type": "bytes32"
        }
      ],
      "stateMutability": "nonpayable",
      "type": "function"
    },
    {
      "inputs": [
        {
          "internalType": "string",
          "name": "candidate",
          "type": "string"
        }
      ],
      "name": "makeBet",
      "outputs": [],
      "stateMutability": "payable",
      "type": "function"
    },
    {
      "inputs": [],
      "name": "owner",
      "outputs": [
        {
          "internalType": "address",
          "name": "",
          "type": "address"
        }
      ],
      "stateMutability": "view",
      "type": "function"
    },
    {
      "inputs": [],
      "name": "renounceOwnership",
      "outputs": [],
      "stateMutability": "nonpayable",
      "type": "function"
    },
    {
      "inputs": [],
      "name": "serviceFeePercentage",
      "outputs": [
        {
          "internalType": "uint256",
          "name": "",
          "type": "uint256"
        }
      ],
      "stateMutability": "view",
      "type": "function"
    },
    {
      "inputs": [],
      "name": "serviceFeeWallet",
      "outputs": [
        {
          "internalType": "address",
          "name": "",
          "type": "address"
        }
      ],
      "stateMutability": "view",
      "type": "function"
    },
    {
      "inputs": [
        {
          "internalType": "address",
          "name": "_tokenAddress",
          "type": "address"
        }
      ],
      "name": "setChainlinkTokenAddress",
      "outputs": [],
      "stateMutability": "nonpayable",
      "type": "function"
    },
    {
      "inputs": [
        {
          "internalType": "uint256",
          "name": "_fee",
          "type": "uint256"
        }
      ],
      "name": "setFee",
      "outputs": [],
      "stateMutability": "nonpayable",
      "type": "function"
    },
    {
      "inputs": [
        {
          "internalType": "bytes32",
          "name": "_jobId",
          "type": "bytes32"
        }
      ],
      "name": "setJobId",
      "outputs": [],
      "stateMutability": "nonpayable",
      "type": "function"
    },
    {
      "inputs": [
        {
          "internalType": "address",
          "name": "_oracle",
          "type": "address"
        }
      ],
      "name": "setOracle",
      "outputs": [],
      "stateMutability": "nonpayable",
      "type": "function"
    },
    {
      "inputs": [
        {
          "internalType": "uint256",
          "name": "_serviceFeePercentage",
          "type": "uint256"
        }
      ],
      "name": "setServiceFeePercentage",
      "outputs": [],
      "stateMutability": "nonpayable",
      "type": "function"
    },
    {
      "inputs": [
        {
          "internalType": "address",
          "name": "_serviceFeeWallet",
          "type": "address"
        }
      ],
      "name": "setServiceFeeWallet",
      "outputs": [],
      "stateMutability": "nonpayable",
      "type": "function"
    },
    {
      "inputs": [
        {
          "internalType": "string",
          "name": "source",
          "type": "string"
        }
      ],
      "name": "stringToBytes32",
      "outputs": [
        {
          "internalType": "bytes32",
          "name": "result",
          "type": "bytes32"
        }
      ],
      "stateMutability": "pure",
      "type": "function"
    },
    {
      "inputs": [
        {
          "internalType": "string",
          "name": "",
          "type": "string"
        }
      ],
      "name": "totalBets",
      "outputs": [
        {
          "internalType": "uint256",
          "name": "",
          "type": "uint256"
        }
      ],
      "stateMutability": "view",
      "type": "function"
    },
    {
      "inputs": [
        {
          "internalType": "address",
          "name": "newOwner",
          "type": "address"
        }
      ],
      "name": "transferOwnership",
      "outputs": [],
      "stateMutability": "nonpayable",
      "type": "function"
    },
    {
      "inputs": [
        {
          "internalType": "address",
          "name": "",
          "type": "address"
        }
      ],
      "name": "userBet",
      "outputs": [
        {
          "internalType": "address",
          "name": "bettor",
          "type": "address"
        },
        {
          "internalType": "uint256",
          "name": "amount",
          "type": "uint256"
        },
        {
          "internalType": "string",
          "name": "candidate",
          "type": "string"
        },
        {
          "internalType": "bool",
          "name": "withdrawn",
          "type": "bool"
        }
      ],
      "stateMutability": "view",
      "type": "function"
    },
    {
      "inputs": [
        {
          "internalType": "address",
          "name": "",
          "type": "address"
        }
      ],
      "name": "userWinnings",
      "outputs": [
        {
          "internalType": "uint256",
          "name": "",
          "type": "uint256"
        }
      ],
      "stateMutability": "view",
      "type": "function"
    },
    {
      "inputs": [],
      "name": "withdraw",
      "outputs": [],
      "stateMutability": "nonpayable",
      "type": "function"
    }
  ],
  "bytecode": "0x608060405260016004553480156200001657600080fd5b50604051620050c2380380620050c283398181016040528101906200003c919062000510565b6200005c62000050620001a060201b60201c565b620001a860201b60201c565b600160078190555062000089730b9d5d9136855f6fec3c0993fee6e9ce8a2978466200026e60201b60201c565b85600860006101000a81548173ffffffffffffffffffffffffffffffffffffffff021916908373ffffffffffffffffffffffffffffffffffffffff160217905550620000db85620002b260201b60201c565b60098190555083600a8190555082600b8190555081600c60006101000a81548173ffffffffffffffffffffffffffffffffffffffff021916908373ffffffffffffffffffffffffffffffffffffffff16021790555080600d81905550604051806060016040528060008152602001604051806020016040528060008152508152602001600081525060136000820151816000015560208201518160010190816200018691906200080c565b5060408201518160020155905050505050505050620008f3565b600033905090565b6000600660009054906101000a900473ffffffffffffffffffffffffffffffffffffffff16905081600660006101000a81548173ffffffffffffffffffffffffffffffffffffffff021916908373ffffffffffffffffffffffffffffffffffffffff1602179055508173ffffffffffffffffffffffffffffffffffffffff168173ffffffffffffffffffffffffffffffffffffffff167f8be0079c531659141344cd1fd0a4f28419497f9722a3daafe3b4186f6b6457e060405160405180910390a35050565b80600260006101000a81548173ffffffffffffffffffffffffffffffffffffffff021916908373ffffffffffffffffffffffffffffffffffffffff16021790555050565b6000808290506000815103620002cf576000801b915050620002d8565b60208301519150505b919050565b6000604051905090565b600080fd5b600080fd5b600073ffffffffffffffffffffffffffffffffffffffff82169050919050565b60006200031e82620002f1565b9050919050565b620003308162000311565b81146200033c57600080fd5b50565b600081519050620003508162000325565b92915050565b600080fd5b600080fd5b6000601f19601f8301169050919050565b7f4e487b7100000000000000000000000000000000000000000000000000000000600052604160045260246000fd5b620003ab8262000360565b810181811067ffffffffffffffff82111715620003cd57620003cc62000371565b5b80604052505050565b6000620003e2620002dd565b9050620003f08282620003a0565b919050565b600067ffffffffffffffff82111562000413576200041262000371565b5b6200041e8262000360565b9050602081019050919050565b60005b838110156200044b5780820151818401526020810190506200042e565b60008484015250505050565b60006200046e6200046884620003f5565b620003d6565b9050828152602081018484840111156200048d576200048c6200035b565b5b6200049a8482856200042b565b509392505050565b600082601f830112620004ba57620004b962000356565b5b8151620004cc84826020860162000457565b91505092915050565b6000819050919050565b620004ea81620004d5565b8114620004f657600080fd5b50565b6000815190506200050a81620004df565b92915050565b60008060008060008060c0878903121562000530576200052f620002e7565b5b60006200054089828a016200033f565b965050602087015167ffffffffffffffff811115620005645762000563620002ec565b5b6200057289828a01620004a2565b95505060406200058589828a01620004f9565b94505060606200059889828a01620004f9565b9350506080620005ab89828a016200033f565b92505060a0620005be89828a01620004f9565b9150509295509295509295565b600081519050919050565b7f4e487b7100000000000000000000000000000000000000000000000000000000600052602260045260246000fd5b600060028204905060018216806200061e57607f821691505b602082108103620006345762000633620005d6565b5b50919050565b60008190508160005260206000209050919050565b60006020601f8301049050919050565b600082821b905092915050565b6000600883026200069e7fffffffffffffffffffffffffffffffffffffffffffffffffffffffffffffffff826200065f565b620006aa86836200065f565b95508019841693508086168417925050509392505050565b6000819050919050565b6000620006ed620006e7620006e184620004d5565b620006c2565b620004d5565b9050919050565b6000819050919050565b6200070983620006cc565b620007216200071882620006f4565b8484546200066c565b825550505050565b600090565b6200073862000729565b62000745818484620006fe565b505050565b5b818110156200076d57620007616000826200072e565b6001810190506200074b565b5050565b601f821115620007bc5762000786816200063a565b62000791846200064f565b81016020851015620007a1578190505b620007b9620007b0856200064f565b8301826200074a565b50505b505050565b600082821c905092915050565b6000620007e160001984600802620007c1565b1980831691505092915050565b6000620007fc8383620007ce565b9150826002028217905092915050565b6200081782620005cb565b67ffffffffffffffff81111562000833576200083262000371565b5b6200083f825462000605565b6200084c82828562000771565b600060209050601f8311600181146200088457600084156200086f578287015190505b6200087b8582620007ee565b865550620008eb565b601f19841662000894866200063a565b60005b82811015620008be5784890151825560018201915060208501945060208101905062000897565b86831015620008de5784890151620008da601f891682620007ce565b8355505b6001600288020188555050505b505050505050565b6147bf80620009036000396000f3fe60806040526004361061019c5760003560e01c806372375078116100ec578063b401faf11161008a578063dc462a3e11610064578063dc462a3e14610599578063ddca3f43146105d6578063e1c186e314610601578063f2fde38b1461062a5761019c565b8063b401faf11461051a578063ca3eb44314610531578063cfb519281461055c5761019c565b806393c70024116100c657806393c7002414610436578063a815a4d414610463578063a9acd416146104a0578063aef0e4ac146104dd5761019c565b806372375078146103c65780637adbf973146103e25780638da5cb5b1461040b5761019c565b8063508954f81161015957806367ad4ec21161013357806367ad4ec21461031d57806369fe0e2d1461035d578063715018a614610386578063722813861461039d5761019c565b8063508954f81461029e578063603ef649146102c757806367075032146102f25761019c565b8063014e9f03146101a157806322af00fa146101ca578063230e6d231461020a578063271b69c214610233578063374419961461025e5780633ccfd60b14610287575b600080fd5b3480156101ad57600080fd5b506101c860048036038101906101c39190613098565b610653565b005b3480156101d657600080fd5b506101f160048036038101906101ec9190613117565b6107e4565b604051610201949392919061322e565b60405180910390f35b34801561021657600080fd5b50610231600480360381019061022c91906132a6565b6108d9565b005b34801561023f57600080fd5b50610248610961565b60405161025591906132d3565b60405180910390f35b34801561026a57600080fd5b5061028560048036038101906102809190613324565b610987565b005b34801561029357600080fd5b5061029c610c7f565b005b3480156102aa57600080fd5b506102c560048036038101906102c09190613380565b610f12565b005b3480156102d357600080fd5b506102dc610f98565b6040516102e991906133ad565b60405180910390f35b3480156102fe57600080fd5b50610307610f9e565b60405161031491906133ad565b60405180910390f35b34801561032957600080fd5b50610344600480360381019061033f91906132a6565b610fa4565b604051610354949392919061322e565b60405180910390f35b34801561036957600080fd5b50610384600480360381019061037f9190613117565b611089565b005b34801561039257600080fd5b5061039b61110f565b005b3480156103a957600080fd5b506103c460048036038101906103bf91906132a6565b611197565b005b6103e060048036038101906103db9190613098565b611257565b005b3480156103ee57600080fd5b50610409600480360381019061040491906132a6565b6115d8565b005b34801561041757600080fd5b50610420611698565b60405161042d91906132d3565b60405180910390f35b34801561044257600080fd5b5061044b6116c2565b60405161045a939291906133c8565b60405180910390f35b34801561046f57600080fd5b5061048a600480360381019061048591906132a6565b611762565b60405161049791906133ad565b60405180910390f35b3480156104ac57600080fd5b506104c760048036038101906104c29190613406565b61177a565b6040516104d491906133ad565b60405180910390f35b3480156104e957600080fd5b5061050460048036038101906104ff9190613098565b6119ea565b60405161051191906133ad565b60405180910390f35b34801561052657600080fd5b5061052f611a18565b005b34801561053d57600080fd5b50610546611b83565b6040516105539190613471565b60405180910390f35b34801561056857600080fd5b50610583600480360381019061057e9190613098565b611d90565b6040516105909190613471565b60405180910390f35b3480156105a557600080fd5b506105c060048036038101906105bb9190613098565b611db9565b6040516105cd91906133ad565b60405180910390f35b3480156105e257600080fd5b506105eb611de7565b6040516105f891906133ad565b60405180910390f35b34801561060d57600080fd5b5061062860048036038101906106239190613117565b611ded565b005b34801561063657600080fd5b50610651600480360381019061064c91906132a6565b611eb7565b005b61065b611fae565b73ffffffffffffffffffffffffffffffffffffffff16610679611698565b73ffffffffffffffffffffffffffffffffffffffff16146106cf576040517f08c379a00000000000000000000000000000000000000000000000000000000081526004016106c6906134d8565b60405180910390fd5b6040518060400160405280600581526020017f4b656d616c000000000000000000000000000000000000000000000000000000815250805190602001208180519060200120148061076257506040518060400160405280600781526020017f4572646f67616e00000000000000000000000000000000000000000000000000815250805190602001208180519060200120145b6107a1576040517f08c379a000000000000000000000000000000000000000000000000000000000815260040161079890613544565b60405180910390fd5b7fc93a6fedee8cb8614762d4a2c6a6fac249f043a9d64d1c477c21f2e46b3b6140816040516107d09190613564565b60405180910390a16107e181611fb6565b50565b600e81815481106107f457600080fd5b90600052602060002090600402016000915090508060000160009054906101000a900473ffffffffffffffffffffffffffffffffffffffff1690806001015490806002018054610843906135b5565b80601f016020809104026020016040519081016040528092919081815260200182805461086f906135b5565b80156108bc5780601f10610891576101008083540402835291602001916108bc565b820191906000526020600020905b81548152906001019060200180831161089f57829003601f168201915b5050505050908060030160009054906101000a900460ff16905084565b6108e1611fae565b73ffffffffffffffffffffffffffffffffffffffff166108ff611698565b73ffffffffffffffffffffffffffffffffffffffff1614610955576040517f08c379a000000000000000000000000000000000000000000000000000000000815260040161094c906134d8565b60405180910390fd5b61095e81612056565b50565b600c60009054906101000a900473ffffffffffffffffffffffffffffffffffffffff1681565b816005600082815260200190815260200160002060009054906101000a900473ffffffffffffffffffffffffffffffffffffffff1673ffffffffffffffffffffffffffffffffffffffff163373ffffffffffffffffffffffffffffffffffffffff1614610a29576040517f08c379a0000000000000000000000000000000000000000000000000000000008152600401610a2090613658565b60405180910390fd5b6005600082815260200190815260200160002060006101000a81549073ffffffffffffffffffffffffffffffffffffffff0219169055807f7cc135e0cebb02c3480ae5d74d377283180a2601f8f644edf7987b009316c63a60405160405180910390a2600d544211610ad0576040517f08c379a0000000000000000000000000000000000000000000000000000000008152600401610ac7906136c4565b60405180910390fd5b7fc93a6fedee8cb8614762d4a2c6a6fac249f043a9d64d1c477c21f2e46b3b614082604051610aff9190613564565b60405180910390a16013600101604051610b199190613787565b6040518091039020828051906020012014610b5b5760016013600001819055508160136001019081610b4b919061394a565b5042601360020181905550610c7a565b61012c601360020154610b6e9190613a4b565b4210610c795760136000016000815480929190610b8a90613a7f565b919050555042601360020181905550600360136000015403610c78577fc93a6fedee8cb8614762d4a2c6a6fac249f043a9d64d1c477c21f2e46b3b61406013600101604051610bd99190613b4b565b60405180910390a1610c7760136001018054610bf4906135b5565b80601f0160208091040260200160405190810160405280929190818152602001828054610c20906135b5565b8015610c6d5780601f10610c4257610100808354040283529160200191610c6d565b820191906000526020600020905b815481529060010190602001808311610c5057829003601f168201915b5050505050611fb6565b5b5b5b505050565b600260075403610cc4576040517f08c379a0000000000000000000000000000000000000000000000000000000008152600401610cbb90613bb9565b60405180910390fd5b60026007819055506000601160003373ffffffffffffffffffffffffffffffffffffffff1673ffffffffffffffffffffffffffffffffffffffff16815260200190815260200160002090506000816001015411610d56576040517f08c379a0000000000000000000000000000000000000000000000000000000008152600401610d4d90613c25565b60405180910390fd5b8060030160009054906101000a900460ff1615610da8576040517f08c379a0000000000000000000000000000000000000000000000000000000008152600401610d9f90613c91565b60405180910390fd5b600d54421115610ded576040517f08c379a0000000000000000000000000000000000000000000000000000000008152600401610de490613cfd565b60405180910390fd5b60008160010154905060018260030160006101000a81548160ff021916908315150217905550610e4781600f84600201604051610e2a9190613dab565b90815260200160405180910390205461209a90919063ffffffff16565b600f83600201604051610e5a9190613dab565b9081526020016040518091039020819055503373ffffffffffffffffffffffffffffffffffffffff166108fc829081150290604051600060405180830381858888f19350505050158015610eb2573d6000803e3d6000fd5b503373ffffffffffffffffffffffffffffffffffffffff167f464193b855eb16d5efcea88f1f239b57b2bb2f8877413804c05f825e9e6132c88284600201604051610efe929190613dc2565b60405180910390a250506001600781905550565b610f1a611fae565b73ffffffffffffffffffffffffffffffffffffffff16610f38611698565b73ffffffffffffffffffffffffffffffffffffffff1614610f8e576040517f08c379a0000000000000000000000000000000000000000000000000000000008152600401610f85906134d8565b60405180910390fd5b8060098190555050565b600b5481565b600d5481565b60116020528060005260406000206000915090508060000160009054906101000a900473ffffffffffffffffffffffffffffffffffffffff1690806001015490806002018054610ff3906135b5565b80601f016020809104026020016040519081016040528092919081815260200182805461101f906135b5565b801561106c5780601f106110415761010080835404028352916020019161106c565b820191906000526020600020905b81548152906001019060200180831161104f57829003601f168201915b5050505050908060030160009054906101000a900460ff16905084565b611091611fae565b73ffffffffffffffffffffffffffffffffffffffff166110af611698565b73ffffffffffffffffffffffffffffffffffffffff1614611105576040517f08c379a00000000000000000000000000000000000000000000000000000000081526004016110fc906134d8565b60405180910390fd5b80600a8190555050565b611117611fae565b73ffffffffffffffffffffffffffffffffffffffff16611135611698565b73ffffffffffffffffffffffffffffffffffffffff161461118b576040517f08c379a0000000000000000000000000000000000000000000000000000000008152600401611182906134d8565b60405180910390fd5b61119560006120b0565b565b61119f611fae565b73ffffffffffffffffffffffffffffffffffffffff166111bd611698565b73ffffffffffffffffffffffffffffffffffffffff1614611213576040517f08c379a000000000000000000000000000000000000000000000000000000000815260040161120a906134d8565b60405180910390fd5b80600c60006101000a81548173ffffffffffffffffffffffffffffffffffffffff021916908373ffffffffffffffffffffffffffffffffffffffff16021790555050565b6040518060400160405280600581526020017f4b656d616c00000000000000000000000000000000000000000000000000000081525080519060200120818051906020012014806112ea57506040518060400160405280600781526020017f4572646f67616e00000000000000000000000000000000000000000000000000815250805190602001208180519060200120145b611329576040517f08c379a000000000000000000000000000000000000000000000000000000000815260040161132090613544565b60405180910390fd5b600d5442111561136e576040517f08c379a000000000000000000000000000000000000000000000000000000000815260040161136590613cfd565b60405180910390fd5b6000349050600060405180608001604052803373ffffffffffffffffffffffffffffffffffffffff168152602001838152602001848152602001600015158152509050600e81908060018154018082558091505060019003906000526020600020906004020160009091909190915060008201518160000160006101000a81548173ffffffffffffffffffffffffffffffffffffffff021916908373ffffffffffffffffffffffffffffffffffffffff160217905550602082015181600101556040820151816002019081611443919061394a565b5060608201518160030160006101000a81548160ff021916908315150217905550505061149782600f8560405161147a9190613e23565b90815260200160405180910390205461217690919063ffffffff16565b600f846040516114a79190613e23565b90815260200160405180910390208190555080601160003373ffffffffffffffffffffffffffffffffffffffff1673ffffffffffffffffffffffffffffffffffffffff16815260200190815260200160002060008201518160000160006101000a81548173ffffffffffffffffffffffffffffffffffffffff021916908373ffffffffffffffffffffffffffffffffffffffff16021790555060208201518160010155604082015181600201908161155f919061394a565b5060608201518160030160006101000a81548160ff0219169083151502179055509050503373ffffffffffffffffffffffffffffffffffffffff167fcc6833ded30742d7f7c3b02b2a9144fdd7e899726980e967a0a4d09d6aeb209983856040516115cb929190613e3a565b60405180910390a2505050565b6115e0611fae565b73ffffffffffffffffffffffffffffffffffffffff166115fe611698565b73ffffffffffffffffffffffffffffffffffffffff1614611654576040517f08c379a000000000000000000000000000000000000000000000000000000000815260040161164b906134d8565b60405180910390fd5b80600860006101000a81548173ffffffffffffffffffffffffffffffffffffffff021916908373ffffffffffffffffffffffffffffffffffffffff16021790555050565b6000600660009054906101000a900473ffffffffffffffffffffffffffffffffffffffff16905090565b60138060000154908060010180546116d9906135b5565b80601f0160208091040260200160405190810160405280929190818152602001828054611705906135b5565b80156117525780601f1061172757610100808354040283529160200191611752565b820191906000526020600020905b81548152906001019060200180831161173557829003601f168201915b5050505050908060020154905083565b60126020528060005260406000206000915090505481565b60006040518060400160405280600581526020017f4b656d616c000000000000000000000000000000000000000000000000000000815250805190602001208280519060200120148061180f57506040518060400160405280600781526020017f4572646f67616e00000000000000000000000000000000000000000000000000815250805190602001208280519060200120145b61184e576040517f08c379a000000000000000000000000000000000000000000000000000000000815260040161184590613544565b60405180910390fd5b6000601160008573ffffffffffffffffffffffffffffffffffffffff1673ffffffffffffffffffffffffffffffffffffffff1681526020019081526020016000206040518060800160405290816000820160009054906101000a900473ffffffffffffffffffffffffffffffffffffffff1673ffffffffffffffffffffffffffffffffffffffff1673ffffffffffffffffffffffffffffffffffffffff1681526020016001820154815260200160028201805461190a906135b5565b80601f0160208091040260200160405190810160405280929190818152602001828054611936906135b5565b80156119835780601f1061195857610100808354040283529160200191611983565b820191906000526020600020905b81548152906001019060200180831161196657829003601f168201915b505050505081526020016003820160009054906101000a900460ff161515151581525050905082805190602001208160400151805190602001201480156119cc57508060600151155b156119de5780602001519150506119e4565b60009150505b92915050565b600f818051602081018201805184825260208301602085012081835280955050505050506000915090505481565b600260075403611a5d576040517f08c379a0000000000000000000000000000000000000000000000000000000008152600401611a5490613bb9565b60405180910390fd5b60026007819055506000601260003373ffffffffffffffffffffffffffffffffffffffff1673ffffffffffffffffffffffffffffffffffffffff16815260200190815260200160002054905060008111611aec576040517f08c379a0000000000000000000000000000000000000000000000000000000008152600401611ae390613eb6565b60405180910390fd5b6000601260003373ffffffffffffffffffffffffffffffffffffffff1673ffffffffffffffffffffffffffffffffffffffff168152602001908152602001600020819055503373ffffffffffffffffffffffffffffffffffffffff166108fc829081150290604051600060405180830381858888f19350505050158015611b77573d6000803e3d6000fd5b50506001600781905550565b6000611b8d611fae565b73ffffffffffffffffffffffffffffffffffffffff16611bab611698565b73ffffffffffffffffffffffffffffffffffffffff1614611c01576040517f08c379a0000000000000000000000000000000000000000000000000000000008152600401611bf8906134d8565b60405180910390fd5b600d544211611c45576040517f08c379a0000000000000000000000000000000000000000000000000000000008152600401611c3c906136c4565b60405180910390fd5b6000611c5b60095430633744199660e01b61218c565b9050611cdc6040518060400160405280600381526020017f67657400000000000000000000000000000000000000000000000000000000008152506040518060400160405280601e81526020017f68747470733a2f2f6170692e7468656261792e6d652f7475726b323032330000815250836121bd9092919063ffffffff16565b611d5b6040518060400160405280600481526020017f70617468000000000000000000000000000000000000000000000000000000008152506040518060400160405280600681526020017f726573756c740000000000000000000000000000000000000000000000000000815250836121bd9092919063ffffffff16565b611d8a600860009054906101000a900473ffffffffffffffffffffffffffffffffffffffff1682600a546121f0565b91505090565b6000808290506000815103611dab576000801b915050611db4565b60208301519150505b919050565b6010818051602081018201805184825260208301602085012081835280955050505050506000915090505481565b600a5481565b611df5611fae565b73ffffffffffffffffffffffffffffffffffffffff16611e13611698565b73ffffffffffffffffffffffffffffffffffffffff1614611e69576040517f08c379a0000000000000000000000000000000000000000000000000000000008152600401611e60906134d8565b60405180910390fd5b6005811115611ead576040517f08c379a0000000000000000000000000000000000000000000000000000000008152600401611ea490613f48565b60405180910390fd5b80600b8190555050565b611ebf611fae565b73ffffffffffffffffffffffffffffffffffffffff16611edd611698565b73ffffffffffffffffffffffffffffffffffffffff1614611f33576040517f08c379a0000000000000000000000000000000000000000000000000000000008152600401611f2a906134d8565b60405180910390fd5b600073ffffffffffffffffffffffffffffffffffffffff168173ffffffffffffffffffffffffffffffffffffffff1603611fa2576040517f08c379a0000000000000000000000000000000000000000000000000000000008152600401611f9990613fda565b60405180910390fd5b611fab816120b0565b50565b600033905090565b6000600f82604051611fc89190613e23565b908152602001604051809103902054905060008103611fe75750612053565b600081905080601084604051611ffd9190613e23565b908152602001604051809103902081905550600060649050600081600183600e8054905061202b9190613a4b565b6120359190613ffa565b61203f919061405d565b905061204e85600084846122bc565b505050505b50565b80600260006101000a81548173ffffffffffffffffffffffffffffffffffffffff021916908373ffffffffffffffffffffffffffffffffffffffff16021790555050565b600081836120a89190613ffa565b905092915050565b6000600660009054906101000a900473ffffffffffffffffffffffffffffffffffffffff16905081600660006101000a81548173ffffffffffffffffffffffffffffffffffffffff021916908373ffffffffffffffffffffffffffffffffffffffff1602179055508173ffffffffffffffffffffffffffffffffffffffff168173ffffffffffffffffffffffffffffffffffffffff167f8be0079c531659141344cd1fd0a4f28419497f9722a3daafe3b4186f6b6457e060405160405180910390a35050565b600081836121849190613a4b565b905092915050565b612194612eb7565b61219c612eb7565b6121b3858585846127bb909392919063ffffffff16565b9150509392505050565b6121d482846080015161286b90919063ffffffff16565b6121eb81846080015161286b90919063ffffffff16565b505050565b60008060045490506001816122059190613a4b565b6004819055506000634042994660e01b60008087600001513089604001518760018c608001516000015160405160240161224698979695949392919061411e565b604051602081830303815290604052907bffffffffffffffffffffffffffffffffffffffffffffffffffffffff19166020820180517bffffffffffffffffffffffffffffffffffffffffffffffffffffffff838183161783525050505090506122b186838684612890565b925050509392505050565b6000600f856040516122ce9190613e23565b9081526020016040518091039020549050600061232c600f6040516122f2906141ef565b908152602001604051809103902054600f60405161230f90614250565b90815260200160405180910390205461217690919063ffffffff16565b90506000848661233c9190614265565b90506000858261234c9190613a4b565b9050600e8054905081111561236457600e8054905090505b6000808390505b82811015612596578980519060200120600e828154811061238f5761238e6142a7565b5b90600052602060002090600402016002016040516123ad9190613787565b604051809103902003612583576000612406876123f888600e86815481106123d8576123d76142a7565b5b906000526020600020906004020160010154612a2590919063ffffffff16565b612a3b90919063ffffffff16565b905060006124326064612424600b5485612a2590919063ffffffff16565b612a3b90919063ffffffff16565b90506000612449828461209a90919063ffffffff16565b90506124e28160126000600e8881548110612467576124666142a7565b5b906000526020600020906004020160000160009054906101000a900473ffffffffffffffffffffffffffffffffffffffff1673ffffffffffffffffffffffffffffffffffffffff1673ffffffffffffffffffffffffffffffffffffffff1681526020019081526020016000205461217690919063ffffffff16565b60126000600e87815481106124fa576124f96142a7565b5b906000526020600020906004020160000160009054906101000a900473ffffffffffffffffffffffffffffffffffffffff1673ffffffffffffffffffffffffffffffffffffffff1673ffffffffffffffffffffffffffffffffffffffff1681526020019081526020016000208190555061257d818661217690919063ffffffff16565b94505050505b808061258e90613a7f565b91505061236b565b5060006125c160646125b3600b5485612a2590919063ffffffff16565b612a3b90919063ffffffff16565b9050600c60009054906101000a900473ffffffffffffffffffffffffffffffffffffffff1673ffffffffffffffffffffffffffffffffffffffff166108fc829081150290604051600060405180830381858888f1935050505015801561262b573d6000803e3d6000fd5b508660018a61263a9190613a4b565b10156127af57600060018a61264f9190613a4b565b905060006113885a6126619190613ffa565b905060008c838c8c60405160240161267c94939291906142d6565b6040516020818303038152906040527f7c657fb7000000000000000000000000000000000000000000000000000000007bffffffffffffffffffffffffffffffffffffffffffffffffffffffff19166020820180517bffffffffffffffffffffffffffffffffffffffffffffffffffffffff8381831617835250505050905060003073ffffffffffffffffffffffffffffffffffffffff1683836040516127239190614353565b60006040518083038160008787f1925050503d8060008114612761576040519150601f19603f3d011682016040523d82523d6000602084013e612766565b606091505b50509050806127aa576040517f08c379a00000000000000000000000000000000000000000000000000000000081526004016127a1906143b6565b60405180910390fd5b505050505b50505050505050505050565b6127c3612eb7565b6127d38560800151610100612a51565b508385600001818152505082856020019073ffffffffffffffffffffffffffffffffffffffff16908173ffffffffffffffffffffffffffffffffffffffff16815250508185604001907bffffffffffffffffffffffffffffffffffffffffffffffffffffffff191690817bffffffffffffffffffffffffffffffffffffffffffffffffffffffff191681525050849050949350505050565b6128788260038351612abb565b61288b8183612c4090919063ffffffff16565b505050565b600030846040516020016128a5929190614485565b604051602081830303815290604052805190602001209050846005600083815260200190815260200160002060006101000a81548173ffffffffffffffffffffffffffffffffffffffff021916908373ffffffffffffffffffffffffffffffffffffffff160217905550807fb5e6e01e79f91267dc17b4e6314d5d4d03593d2ceee0fbb452b750bd70ea5af960405160405180910390a2600260009054906101000a900473ffffffffffffffffffffffffffffffffffffffff1673ffffffffffffffffffffffffffffffffffffffff16634000aea08685856040518463ffffffff1660e01b815260040161299b939291906144b1565b6020604051808303816000875af11580156129ba573d6000803e3d6000fd5b505050506040513d601f19601f820116820180604052508101906129de919061451b565b612a1d576040517f08c379a0000000000000000000000000000000000000000000000000000000008152600401612a14906145ba565b60405180910390fd5b949350505050565b60008183612a339190614265565b905092915050565b60008183612a49919061405d565b905092915050565b612a59612f24565b6000602083612a6891906145da565b14612a9457602082612a7a91906145da565b6020612a869190613ffa565b82612a919190613a4b565b91505b81836020018181525050604051808452600081528281016020016040525082905092915050565b60178167ffffffffffffffff1611612af257612aec8160058460ff16901b60ff161784612c6290919063ffffffff16565b50612c3b565b60ff8167ffffffffffffffff1611612b4857612b21601860058460ff16901b1784612c6290919063ffffffff16565b50612b428167ffffffffffffffff16600185612c829092919063ffffffff16565b50612c3a565b61ffff8167ffffffffffffffff1611612b9f57612b78601960058460ff16901b1784612c6290919063ffffffff16565b50612b998167ffffffffffffffff16600285612c829092919063ffffffff16565b50612c39565b63ffffffff8167ffffffffffffffff1611612bf857612bd1601a60058460ff16901b1784612c6290919063ffffffff16565b50612bf28167ffffffffffffffff16600485612c829092919063ffffffff16565b50612c38565b612c15601b60058460ff16901b1784612c6290919063ffffffff16565b50612c368167ffffffffffffffff16600885612c829092919063ffffffff16565b505b5b5b5b505050565b612c48612f24565b612c5a83846000015151848551612ca4565b905092915050565b612c6a612f24565b612c7a8384600001515184612d93565b905092915050565b612c8a612f24565b612c9b848560000151518585612de9565b90509392505050565b612cac612f24565b8251821115612cba57600080fd5b84602001518285612ccb9190613a4b565b1115612d0057612cff856002612cf088602001518887612ceb9190613a4b565b612e77565b612cfa9190614265565b612e93565b5b600080865180518760208301019350808887011115612d1f5787860182525b60208701925050505b60208410612d665780518252602082612d419190613a4b565b9150602081612d509190613a4b565b9050602084612d5f9190613ffa565b9350612d28565b60006001856020036101000a03905080198251168184511681811785525050508692505050949350505050565b612d9b612f24565b83602001518310612dc157612dc08460028660200151612dbb9190614265565b612e93565b5b83518051602085830101848153818603612ddc576001820183525b5050508390509392505050565b612df1612f24565b84602001518483612e029190613a4b565b1115612e2a57612e298560028685612e1a9190613a4b565b612e249190614265565b612e93565b5b6000600183610100612e3c919061473e565b612e469190613ffa565b90508551838682010185831982511617815281518588011115612e695784870182525b505085915050949350505050565b600081831115612e8957829050612e8d565b8190505b92915050565b600082600001519050612ea68383612a51565b50612eb18382612c40565b50505050565b6040518060a0016040528060008019168152602001600073ffffffffffffffffffffffffffffffffffffffff16815260200160007bffffffffffffffffffffffffffffffffffffffffffffffffffffffff1916815260200160008152602001612f1e612f24565b81525090565b604051806040016040528060608152602001600081525090565b6000604051905090565b600080fd5b600080fd5b600080fd5b600080fd5b6000601f19601f8301169050919050565b7f4e487b7100000000000000000000000000000000000000000000000000000000600052604160045260246000fd5b612fa582612f5c565b810181811067ffffffffffffffff82111715612fc457612fc3612f6d565b5b80604052505050565b6000612fd7612f3e565b9050612fe38282612f9c565b919050565b600067ffffffffffffffff82111561300357613002612f6d565b5b61300c82612f5c565b9050602081019050919050565b82818337600083830152505050565b600061303b61303684612fe8565b612fcd565b90508281526020810184848401111561305757613056612f57565b5b613062848285613019565b509392505050565b600082601f83011261307f5761307e612f52565b5b813561308f848260208601613028565b91505092915050565b6000602082840312156130ae576130ad612f48565b5b600082013567ffffffffffffffff8111156130cc576130cb612f4d565b5b6130d88482850161306a565b91505092915050565b6000819050919050565b6130f4816130e1565b81146130ff57600080fd5b50565b600081359050613111816130eb565b92915050565b60006020828403121561312d5761312c612f48565b5b600061313b84828501613102565b91505092915050565b600073ffffffffffffffffffffffffffffffffffffffff82169050919050565b600061316f82613144565b9050919050565b61317f81613164565b82525050565b61318e816130e1565b82525050565b600081519050919050565b600082825260208201905092915050565b60005b838110156131ce5780820151818401526020810190506131b3565b60008484015250505050565b60006131e582613194565b6131ef818561319f565b93506131ff8185602086016131b0565b61320881612f5c565b840191505092915050565b60008115159050919050565b61322881613213565b82525050565b60006080820190506132436000830187613176565b6132506020830186613185565b818103604083015261326281856131da565b9050613271606083018461321f565b95945050505050565b61328381613164565b811461328e57600080fd5b50565b6000813590506132a08161327a565b92915050565b6000602082840312156132bc576132bb612f48565b5b60006132ca84828501613291565b91505092915050565b60006020820190506132e86000830184613176565b92915050565b6000819050919050565b613301816132ee565b811461330c57600080fd5b50565b60008135905061331e816132f8565b92915050565b6000806040838503121561333b5761333a612f48565b5b60006133498582860161330f565b925050602083013567ffffffffffffffff81111561336a57613369612f4d565b5b6133768582860161306a565b9150509250929050565b60006020828403121561339657613395612f48565b5b60006133a48482850161330f565b91505092915050565b60006020820190506133c26000830184613185565b92915050565b60006060820190506133dd6000830186613185565b81810360208301526133ef81856131da565b90506133fe6040830184613185565b949350505050565b6000806040838503121561341d5761341c612f48565b5b600061342b85828601613291565b925050602083013567ffffffffffffffff81111561344c5761344b612f4d565b5b6134588582860161306a565b9150509250929050565b61346b816132ee565b82525050565b60006020820190506134866000830184613462565b92915050565b7f4f776e61626c653a2063616c6c6572206973206e6f7420746865206f776e6572600082015250565b60006134c260208361319f565b91506134cd8261348c565b602082019050919050565b600060208201905081810360008301526134f1816134b5565b9050919050565b7f496e76616c69642063616e646964617465000000000000000000000000000000600082015250565b600061352e60118361319f565b9150613539826134f8565b602082019050919050565b6000602082019050818103600083015261355d81613521565b9050919050565b6000602082019050818103600083015261357e81846131da565b905092915050565b7f4e487b7100000000000000000000000000000000000000000000000000000000600052602260045260246000fd5b600060028204905060018216806135cd57607f821691505b6020821081036135e0576135df613586565b5b50919050565b7f536f75726365206d75737420626520746865206f7261636c65206f662074686560008201527f2072657175657374000000000000000000000000000000000000000000000000602082015250565b600061364260288361319f565b915061364d826135e6565b604082019050919050565b6000602082019050818103600083015261367181613635565b9050919050565b7f42657474696e67206973207374696c6c20696e2070726f677265737300000000600082015250565b60006136ae601c8361319f565b91506136b982613678565b602082019050919050565b600060208201905081810360008301526136dd816136a1565b9050919050565b600081905092915050565b60008190508160005260206000209050919050565b60008154613711816135b5565b61371b81866136e4565b94506001821660008114613736576001811461374b5761377e565b60ff198316865281151582028601935061377e565b613754856136ef565b60005b8381101561377657815481890152600182019150602081019050613757565b838801955050505b50505092915050565b60006137938284613704565b915081905092915050565b60008190508160005260206000209050919050565b60006020601f8301049050919050565b600082821b905092915050565b6000600883026138007fffffffffffffffffffffffffffffffffffffffffffffffffffffffffffffffff826137c3565b61380a86836137c3565b95508019841693508086168417925050509392505050565b6000819050919050565b600061384761384261383d846130e1565b613822565b6130e1565b9050919050565b6000819050919050565b6138618361382c565b61387561386d8261384e565b8484546137d0565b825550505050565b600090565b61388a61387d565b613895818484613858565b505050565b5b818110156138b9576138ae600082613882565b60018101905061389b565b5050565b601f8211156138fe576138cf8161379e565b6138d8846137b3565b810160208510156138e7578190505b6138fb6138f3856137b3565b83018261389a565b50505b505050565b600082821c905092915050565b600061392160001984600802613903565b1980831691505092915050565b600061393a8383613910565b9150826002028217905092915050565b61395382613194565b67ffffffffffffffff81111561396c5761396b612f6d565b5b61397682546135b5565b6139818282856138bd565b600060209050601f8311600181146139b457600084156139a2578287015190505b6139ac858261392e565b865550613a14565b601f1984166139c28661379e565b60005b828110156139ea578489015182556001820191506020850194506020810190506139c5565b86831015613a075784890151613a03601f891682613910565b8355505b6001600288020188555050505b505050505050565b7f4e487b7100000000000000000000000000000000000000000000000000000000600052601160045260246000fd5b6000613a56826130e1565b9150613a61836130e1565b9250828201905080821115613a7957613a78613a1c565b5b92915050565b6000613a8a826130e1565b91507fffffffffffffffffffffffffffffffffffffffffffffffffffffffffffffffff8203613abc57613abb613a1c565b5b600182019050919050565b60008154613ad4816135b5565b613ade818661319f565b94506001821660008114613af95760018114613b0f57613b42565b60ff198316865281151560200286019350613b42565b613b188561379e565b60005b83811015613b3a57815481890152600182019150602081019050613b1b565b808801955050505b50505092915050565b60006020820190508181036000830152613b658184613ac7565b905092915050565b7f5265656e7472616e637947756172643a207265656e7472616e742063616c6c00600082015250565b6000613ba3601f8361319f565b9150613bae82613b6d565b602082019050919050565b60006020820190508181036000830152613bd281613b96565b9050919050565b7f4e6f2062657420746f2077697468647261770000000000000000000000000000600082015250565b6000613c0f60128361319f565b9150613c1a82613bd9565b602082019050919050565b60006020820190508181036000830152613c3e81613c02565b9050919050565b7f42657420616c72656164792077697468647261776e0000000000000000000000600082015250565b6000613c7b60158361319f565b9150613c8682613c45565b602082019050919050565b60006020820190508181036000830152613caa81613c6e565b9050919050565b7f42657474696e672068617320656e646564000000000000000000000000000000600082015250565b6000613ce760118361319f565b9150613cf282613cb1565b602082019050919050565b60006020820190508181036000830152613d1681613cda565b9050919050565b600081905092915050565b60008154613d35816135b5565b613d3f8186613d1d565b94506001821660008114613d5a5760018114613d6f57613da2565b60ff1983168652811515820286019350613da2565b613d788561379e565b60005b83811015613d9a57815481890152600182019150602081019050613d7b565b838801955050505b50505092915050565b6000613db78284613d28565b915081905092915050565b6000604082019050613dd76000830185613185565b8181036020830152613de98184613ac7565b90509392505050565b6000613dfd82613194565b613e078185613d1d565b9350613e178185602086016131b0565b80840191505092915050565b6000613e2f8284613df2565b915081905092915050565b6000604082019050613e4f6000830185613185565b8181036020830152613e6181846131da565b90509392505050565b7f4e6f2077696e6e696e677320746f20636c61696d000000000000000000000000600082015250565b6000613ea060148361319f565b9150613eab82613e6a565b602082019050919050565b60006020820190508181036000830152613ecf81613e93565b9050919050565b7f53657276696365206665652070657263656e746167652073686f756c64206e6f60008201527f7420657863656564203500000000000000000000000000000000000000000000602082015250565b6000613f32602a8361319f565b9150613f3d82613ed6565b604082019050919050565b60006020820190508181036000830152613f6181613f25565b9050919050565b7f4f776e61626c653a206e6577206f776e657220697320746865207a65726f206160008201527f6464726573730000000000000000000000000000000000000000000000000000602082015250565b6000613fc460268361319f565b9150613fcf82613f68565b604082019050919050565b60006020820190508181036000830152613ff381613fb7565b9050919050565b6000614005826130e1565b9150614010836130e1565b925082820390508181111561402857614027613a1c565b5b92915050565b7f4e487b7100000000000000000000000000000000000000000000000000000000600052601260045260246000fd5b6000614068826130e1565b9150614073836130e1565b9250826140835761408261402e565b5b828204905092915050565b60007fffffffff0000000000000000000000000000000000000000000000000000000082169050919050565b6140c38161408e565b82525050565b600081519050919050565b600082825260208201905092915050565b60006140f0826140c9565b6140fa81856140d4565b935061410a8185602086016131b0565b61411381612f5c565b840191505092915050565b600061010082019050614134600083018b613176565b614141602083018a613185565b61414e6040830189613462565b61415b6060830188613176565b61416860808301876140ba565b61417560a0830186613185565b61418260c0830185613185565b81810360e083015261419481846140e5565b90509998505050505050505050565b7f4572646f67616e00000000000000000000000000000000000000000000000000600082015250565b60006141d9600783613d1d565b91506141e4826141a3565b600782019050919050565b60006141fa826141cc565b9150819050919050565b7f4b656d616c000000000000000000000000000000000000000000000000000000600082015250565b600061423a600583613d1d565b915061424582614204565b600582019050919050565b600061425b8261422d565b9150819050919050565b6000614270826130e1565b915061427b836130e1565b9250828202614289816130e1565b915082820484148315176142a05761429f613a1c565b5b5092915050565b7f4e487b7100000000000000000000000000000000000000000000000000000000600052603260045260246000fd5b600060808201905081810360008301526142f081876131da565b90506142ff6020830186613185565b61430c6040830185613185565b6143196060830184613185565b95945050505050565b600061432d826140c9565b61433781856136e4565b93506143478185602086016131b0565b80840191505092915050565b600061435f8284614322565b915081905092915050565b7f426174636820646973747269627574696f6e206661696c656400000000000000600082015250565b60006143a060198361319f565b91506143ab8261436a565b602082019050919050565b600060208201905081810360008301526143cf81614393565b9050919050565b60006143f16143ec6143e784613144565b613822565b613144565b9050919050565b6000614403826143d6565b9050919050565b6000614415826143f8565b9050919050565b60008160601b9050919050565b60006144348261441c565b9050919050565b600061444682614429565b9050919050565b61445e6144598261440a565b61443b565b82525050565b6000819050919050565b61447f61447a826130e1565b614464565b82525050565b6000614491828561444d565b6014820191506144a1828461446e565b6020820191508190509392505050565b60006060820190506144c66000830186613176565b6144d36020830185613185565b81810360408301526144e581846140e5565b9050949350505050565b6144f881613213565b811461450357600080fd5b50565b600081519050614515816144ef565b92915050565b60006020828403121561453157614530612f48565b5b600061453f84828501614506565b91505092915050565b7f756e61626c6520746f207472616e73666572416e6443616c6c20746f206f726160008201527f636c650000000000000000000000000000000000000000000000000000000000602082015250565b60006145a460238361319f565b91506145af82614548565b604082019050919050565b600060208201905081810360008301526145d381614597565b9050919050565b60006145e5826130e1565b91506145f0836130e1565b925082614600576145ff61402e565b5b828206905092915050565b60008160011c9050919050565b6000808291508390505b60018511156146625780860481111561463e5761463d613a1c565b5b600185161561464d5780820291505b808102905061465b8561460b565b9450614622565b94509492505050565b60008261467b5760019050614737565b816146895760009050614737565b816001811461469f57600281146146a9576146d8565b6001915050614737565b60ff8411156146bb576146ba613a1c565b5b8360020a9150848211156146d2576146d1613a1c565b5b50614737565b5060208310610133831016604e8410600b841016171561470d5782820a90508381111561470857614707613a1c565b5b614737565b61471a8484846001614618565b9250905081840481111561473157614730613a1c565b5b81810290505b9392505050565b6000614749826130e1565b9150614754836130e1565b92506147817fffffffffffffffffffffffffffffffffffffffffffffffffffffffffffffffff848461466b565b90509291505056fea264697066735822122013d1909fa7b3b7d5a58d47c15e9ae3eec635f04f6c1f8de1813b660b6819c4be64736f6c63430008130033",
  "linkReferences": {},
  "deployedLinkReferences": {}
}