{
  "_format": "hh-sol-artifact-1",
  "contractName": "ElectionBetting",
  "sourceName": "contracts/ElectionBetting.sol",
  "abi": [
    {
      "inputs": [
        {
          "internalType": "address",
          "name": "_oracle",
          "type": "address"
        },
        {
          "internalType": "string",
          "name": "_jobId",
          "type": "string"
        },
        {
          "internalType": "uint256",
          "name": "_fee",
          "type": "uint256"
        },
        {
          "internalType": "uint256",
          "name": "_serviceFeePercentage",
          "type": "uint256"
        },
        {
          "internalType": "address",
          "name": "_serviceFeeWallet",
          "type": "address"
        },
        {
          "internalType": "uint256",
          "name": "_bettingEndTime",
          "type": "uint256"
        }
      ],
      "stateMutability": "nonpayable",
      "type": "constructor"
    },
    {
      "anonymous": false,
      "inputs": [
        {
          "indexed": true,
          "internalType": "address",
          "name": "bettor",
          "type": "address"
        },
        {
          "indexed": false,
          "internalType": "uint256",
          "name": "amount",
          "type": "uint256"
        },
        {
          "indexed": false,
          "internalType": "string",
          "name": "candidate",
          "type": "string"
        }
      ],
      "name": "BetMade",
      "type": "event"
    },
    {
      "anonymous": false,
      "inputs": [
        {
          "indexed": true,
          "internalType": "address",
          "name": "bettor",
          "type": "address"
        },
        {
          "indexed": false,
          "internalType": "uint256",
          "name": "amount",
          "type": "uint256"
        },
        {
          "indexed": false,
          "internalType": "string",
          "name": "candidate",
          "type": "string"
        }
      ],
      "name": "BetWithdrawn",
      "type": "event"
    },
    {
      "anonymous": false,
      "inputs": [
        {
          "indexed": true,
          "internalType": "bytes32",
          "name": "id",
          "type": "bytes32"
        }
      ],
      "name": "ChainlinkCancelled",
      "type": "event"
    },
    {
      "anonymous": false,
      "inputs": [
        {
          "indexed": true,
          "internalType": "bytes32",
          "name": "id",
          "type": "bytes32"
        }
      ],
      "name": "ChainlinkFulfilled",
      "type": "event"
    },
    {
      "anonymous": false,
      "inputs": [
        {
          "indexed": true,
          "internalType": "bytes32",
          "name": "id",
          "type": "bytes32"
        }
      ],
      "name": "ChainlinkRequested",
      "type": "event"
    },
    {
      "anonymous": false,
      "inputs": [
        {
          "indexed": false,
          "internalType": "string",
          "name": "winner",
          "type": "string"
        }
      ],
      "name": "ElectionResultReceived",
      "type": "event"
    },
    {
      "anonymous": false,
      "inputs": [
        {
          "indexed": true,
          "internalType": "address",
          "name": "previousOwner",
          "type": "address"
        },
        {
          "indexed": true,
          "internalType": "address",
          "name": "newOwner",
          "type": "address"
        }
      ],
      "name": "OwnershipTransferred",
      "type": "event"
    },
    {
      "inputs": [
        {
          "internalType": "uint256",
          "name": "",
          "type": "uint256"
        }
      ],
      "name": "bets",
      "outputs": [
        {
          "internalType": "address",
          "name": "bettor",
          "type": "address"
        },
        {
          "internalType": "uint256",
          "name": "amount",
          "type": "uint256"
        },
        {
          "internalType": "string",
          "name": "candidate",
          "type": "string"
        },
        {
          "internalType": "bool",
          "name": "withdrawn",
          "type": "bool"
        }
      ],
      "stateMutability": "view",
      "type": "function"
    },
    {
      "inputs": [],
      "name": "bettingEndTime",
      "outputs": [
        {
          "internalType": "uint256",
          "name": "",
          "type": "uint256"
        }
      ],
      "stateMutability": "view",
      "type": "function"
    },
    {
      "inputs": [
        {
          "internalType": "address",
          "name": "user",
          "type": "address"
        },
        {
          "internalType": "string",
          "name": "candidate",
          "type": "string"
        }
      ],
      "name": "calculateUserBet",
      "outputs": [
        {
          "internalType": "uint256",
          "name": "",
          "type": "uint256"
        }
      ],
      "stateMutability": "view",
      "type": "function"
    },
    {
      "inputs": [
        {
          "internalType": "string",
          "name": "",
          "type": "string"
        }
      ],
      "name": "candidateWinnings",
      "outputs": [
        {
          "internalType": "uint256",
          "name": "",
          "type": "uint256"
        }
      ],
      "stateMutability": "view",
      "type": "function"
    },
    {
      "inputs": [],
      "name": "claimWinnings",
      "outputs": [],
      "stateMutability": "nonpayable",
      "type": "function"
    },
    {
      "inputs": [
        {
          "internalType": "string",
          "name": "winner",
          "type": "string"
        }
      ],
      "name": "declareWinner",
      "outputs": [],
      "stateMutability": "nonpayable",
      "type": "function"
    },
    {
      "inputs": [],
      "name": "electionConfirmation",
      "outputs": [
        {
          "internalType": "uint256",
          "name": "count",
          "type": "uint256"
        },
        {
          "internalType": "string",
          "name": "result",
          "type": "string"
        },
        {
          "internalType": "uint256",
          "name": "lastConfirmationTimestamp",
          "type": "uint256"
        }
      ],
      "stateMutability": "view",
      "type": "function"
    },
    {
      "inputs": [],
      "name": "fee",
      "outputs": [
        {
          "internalType": "uint256",
          "name": "",
          "type": "uint256"
        }
      ],
      "stateMutability": "view",
      "type": "function"
    },
    {
      "inputs": [
        {
          "internalType": "bytes32",
          "name": "_requestId",
          "type": "bytes32"
        },
        {
          "internalType": "string",
          "name": "_winner",
          "type": "string"
        }
      ],
      "name": "fulfill",
      "outputs": [],
      "stateMutability": "nonpayable",
      "type": "function"
    },
    {
      "inputs": [],
      "name": "getElectionResult",
      "outputs": [
        {
          "internalType": "bytes32",
          "name": "requestId",
          "type": "bytes32"
        }
      ],
      "stateMutability": "nonpayable",
      "type": "function"
    },
    {
      "inputs": [
        {
          "internalType": "string",
          "name": "candidate",
          "type": "string"
        }
      ],
      "name": "makeBet",
      "outputs": [],
      "stateMutability": "payable",
      "type": "function"
    },
    {
      "inputs": [],
      "name": "owner",
      "outputs": [
        {
          "internalType": "address",
          "name": "",
          "type": "address"
        }
      ],
      "stateMutability": "view",
      "type": "function"
    },
    {
      "inputs": [],
      "name": "renounceOwnership",
      "outputs": [],
      "stateMutability": "nonpayable",
      "type": "function"
    },
    {
      "inputs": [],
      "name": "serviceFeePercentage",
      "outputs": [
        {
          "internalType": "uint256",
          "name": "",
          "type": "uint256"
        }
      ],
      "stateMutability": "view",
      "type": "function"
    },
    {
      "inputs": [],
      "name": "serviceFeeWallet",
      "outputs": [
        {
          "internalType": "address",
          "name": "",
          "type": "address"
        }
      ],
      "stateMutability": "view",
      "type": "function"
    },
    {
      "inputs": [
        {
          "internalType": "uint256",
          "name": "_bettingEndTime",
          "type": "uint256"
        }
      ],
      "name": "setBettingEndTime",
      "outputs": [],
      "stateMutability": "nonpayable",
      "type": "function"
    },
    {
      "inputs": [
        {
          "internalType": "uint256",
          "name": "_fee",
          "type": "uint256"
        }
      ],
      "name": "setFee",
      "outputs": [],
      "stateMutability": "nonpayable",
      "type": "function"
    },
    {
      "inputs": [
        {
          "internalType": "bytes32",
          "name": "_jobId",
          "type": "bytes32"
        }
      ],
      "name": "setJobId",
      "outputs": [],
      "stateMutability": "nonpayable",
      "type": "function"
    },
    {
      "inputs": [
        {
          "internalType": "address",
          "name": "_oracle",
          "type": "address"
        }
      ],
      "name": "setOracle",
      "outputs": [],
      "stateMutability": "nonpayable",
      "type": "function"
    },
    {
      "inputs": [
        {
          "internalType": "uint256",
          "name": "_serviceFeePercentage",
          "type": "uint256"
        }
      ],
      "name": "setServiceFeePercentage",
      "outputs": [],
      "stateMutability": "nonpayable",
      "type": "function"
    },
    {
      "inputs": [
        {
          "internalType": "address",
          "name": "_serviceFeeWallet",
          "type": "address"
        }
      ],
      "name": "setServiceFeeWallet",
      "outputs": [],
      "stateMutability": "nonpayable",
      "type": "function"
    },
    {
      "inputs": [
        {
          "internalType": "string",
          "name": "source",
          "type": "string"
        }
      ],
      "name": "stringToBytes32",
      "outputs": [
        {
          "internalType": "bytes32",
          "name": "result",
          "type": "bytes32"
        }
      ],
      "stateMutability": "pure",
      "type": "function"
    },
    {
      "inputs": [
        {
          "internalType": "string",
          "name": "",
          "type": "string"
        }
      ],
      "name": "totalBets",
      "outputs": [
        {
          "internalType": "uint256",
          "name": "",
          "type": "uint256"
        }
      ],
      "stateMutability": "view",
      "type": "function"
    },
    {
      "inputs": [
        {
          "internalType": "address",
          "name": "newOwner",
          "type": "address"
        }
      ],
      "name": "transferOwnership",
      "outputs": [],
      "stateMutability": "nonpayable",
      "type": "function"
    },
    {
      "inputs": [
        {
          "internalType": "address",
          "name": "",
          "type": "address"
        }
      ],
      "name": "userBet",
      "outputs": [
        {
          "internalType": "address",
          "name": "bettor",
          "type": "address"
        },
        {
          "internalType": "uint256",
          "name": "amount",
          "type": "uint256"
        },
        {
          "internalType": "string",
          "name": "candidate",
          "type": "string"
        },
        {
          "internalType": "bool",
          "name": "withdrawn",
          "type": "bool"
        }
      ],
      "stateMutability": "view",
      "type": "function"
    },
    {
      "inputs": [
        {
          "internalType": "address",
          "name": "",
          "type": "address"
        }
      ],
      "name": "userWinnings",
      "outputs": [
        {
          "internalType": "uint256",
          "name": "",
          "type": "uint256"
        }
      ],
      "stateMutability": "view",
      "type": "function"
    },
    {
      "inputs": [],
      "name": "withdraw",
      "outputs": [],
      "stateMutability": "nonpayable",
      "type": "function"
    }
  ],
  "bytecode": "0x608060405260016004553480156200001657600080fd5b50604051620047b8380380620047b883398181016040528101906200003c919062000510565b6200005c62000050620001a060201b60201c565b620001a860201b60201c565b60016007819055506200008973a36085f69e2889c224210f603d836748e7dc00886200026e60201b60201c565b85600860006101000a81548173ffffffffffffffffffffffffffffffffffffffff021916908373ffffffffffffffffffffffffffffffffffffffff160217905550620000db85620002b260201b60201c565b60098190555083600a8190555082600b8190555081600c60006101000a81548173ffffffffffffffffffffffffffffffffffffffff021916908373ffffffffffffffffffffffffffffffffffffffff16021790555080600d81905550604051806060016040528060008152602001604051806020016040528060008152508152602001600081525060136000820151816000015560208201518160010190816200018691906200080c565b5060408201518160020155905050505050505050620008f3565b600033905090565b6000600660009054906101000a900473ffffffffffffffffffffffffffffffffffffffff16905081600660006101000a81548173ffffffffffffffffffffffffffffffffffffffff021916908373ffffffffffffffffffffffffffffffffffffffff1602179055508173ffffffffffffffffffffffffffffffffffffffff168173ffffffffffffffffffffffffffffffffffffffff167f8be0079c531659141344cd1fd0a4f28419497f9722a3daafe3b4186f6b6457e060405160405180910390a35050565b80600260006101000a81548173ffffffffffffffffffffffffffffffffffffffff021916908373ffffffffffffffffffffffffffffffffffffffff16021790555050565b6000808290506000815103620002cf576000801b915050620002d8565b60208301519150505b919050565b6000604051905090565b600080fd5b600080fd5b600073ffffffffffffffffffffffffffffffffffffffff82169050919050565b60006200031e82620002f1565b9050919050565b620003308162000311565b81146200033c57600080fd5b50565b600081519050620003508162000325565b92915050565b600080fd5b600080fd5b6000601f19601f8301169050919050565b7f4e487b7100000000000000000000000000000000000000000000000000000000600052604160045260246000fd5b620003ab8262000360565b810181811067ffffffffffffffff82111715620003cd57620003cc62000371565b5b80604052505050565b6000620003e2620002dd565b9050620003f08282620003a0565b919050565b600067ffffffffffffffff82111562000413576200041262000371565b5b6200041e8262000360565b9050602081019050919050565b60005b838110156200044b5780820151818401526020810190506200042e565b60008484015250505050565b60006200046e6200046884620003f5565b620003d6565b9050828152602081018484840111156200048d576200048c6200035b565b5b6200049a8482856200042b565b509392505050565b600082601f830112620004ba57620004b962000356565b5b8151620004cc84826020860162000457565b91505092915050565b6000819050919050565b620004ea81620004d5565b8114620004f657600080fd5b50565b6000815190506200050a81620004df565b92915050565b60008060008060008060c0878903121562000530576200052f620002e7565b5b60006200054089828a016200033f565b965050602087015167ffffffffffffffff811115620005645762000563620002ec565b5b6200057289828a01620004a2565b95505060406200058589828a01620004f9565b94505060606200059889828a01620004f9565b9350506080620005ab89828a016200033f565b92505060a0620005be89828a01620004f9565b9150509295509295509295565b600081519050919050565b7f4e487b7100000000000000000000000000000000000000000000000000000000600052602260045260246000fd5b600060028204905060018216806200061e57607f821691505b602082108103620006345762000633620005d6565b5b50919050565b60008190508160005260206000209050919050565b60006020601f8301049050919050565b600082821b905092915050565b6000600883026200069e7fffffffffffffffffffffffffffffffffffffffffffffffffffffffffffffffff826200065f565b620006aa86836200065f565b95508019841693508086168417925050509392505050565b6000819050919050565b6000620006ed620006e7620006e184620004d5565b620006c2565b620004d5565b9050919050565b6000819050919050565b6200070983620006cc565b620007216200071882620006f4565b8484546200066c565b825550505050565b600090565b6200073862000729565b62000745818484620006fe565b505050565b5b818110156200076d57620007616000826200072e565b6001810190506200074b565b5050565b601f821115620007bc5762000786816200063a565b62000791846200064f565b81016020851015620007a1578190505b620007b9620007b0856200064f565b8301826200074a565b50505b505050565b600082821c905092915050565b6000620007e160001984600802620007c1565b1980831691505092915050565b6000620007fc8383620007ce565b9150826002028217905092915050565b6200081782620005cb565b67ffffffffffffffff81111562000833576200083262000371565b5b6200083f825462000605565b6200084c82828562000771565b600060209050601f8311600181146200088457600084156200086f578287015190505b6200087b8582620007ee565b865550620008eb565b601f19841662000894866200063a565b60005b82811015620008be5784890151825560018201915060208501945060208101905062000897565b86831015620008de5784890151620008da601f891682620007ce565b8355505b6001600288020188555050505b505050505050565b613eb580620009036000396000f3fe60806040526004361061019c5760003560e01c80637adbf973116100ec578063c38aee381161008a578063dc462a3e11610064578063dc462a3e14610599578063ddca3f43146105d6578063e1c186e314610601578063f2fde38b1461062a5761019c565b8063c38aee3814610508578063ca3eb44314610531578063cfb519281461055c5761019c565b8063a815a4d4116100c6578063a815a4d41461043a578063a9acd41614610477578063aef0e4ac146104b4578063b401faf1146104f15761019c565b80637adbf973146103b95780638da5cb5b146103e257806393c700241461040d5761019c565b8063603ef6491161015957806369fe0e2d1161013357806369fe0e2d14610334578063715018a61461035d5780637228138614610374578063723750781461039d5761019c565b8063603ef6491461029e57806367075032146102c957806367ad4ec2146102f45761019c565b8063014e9f03146101a157806322af00fa146101ca578063271b69c21461020a57806337441996146102355780633ccfd60b1461025e578063508954f814610275575b600080fd5b3480156101ad57600080fd5b506101c860048036038101906101c39190612a3a565b610653565b005b3480156101d657600080fd5b506101f160048036038101906101ec9190612ab9565b6107e4565b6040516102019493929190612bd0565b60405180910390f35b34801561021657600080fd5b5061021f6108d9565b60405161022c9190612c1c565b60405180910390f35b34801561024157600080fd5b5061025c60048036038101906102579190612c6d565b6108ff565b005b34801561026a57600080fd5b50610273610bb3565b005b34801561028157600080fd5b5061029c60048036038101906102979190612cc9565b610e46565b005b3480156102aa57600080fd5b506102b3610ecc565b6040516102c09190612cf6565b60405180910390f35b3480156102d557600080fd5b506102de610ed2565b6040516102eb9190612cf6565b60405180910390f35b34801561030057600080fd5b5061031b60048036038101906103169190612d3d565b610ed8565b60405161032b9493929190612bd0565b60405180910390f35b34801561034057600080fd5b5061035b60048036038101906103569190612ab9565b610fbd565b005b34801561036957600080fd5b50610372611043565b005b34801561038057600080fd5b5061039b60048036038101906103969190612d3d565b6110cb565b005b6103b760048036038101906103b29190612a3a565b61118b565b005b3480156103c557600080fd5b506103e060048036038101906103db9190612d3d565b61150c565b005b3480156103ee57600080fd5b506103f76115cc565b6040516104049190612c1c565b60405180910390f35b34801561041957600080fd5b506104226115f6565b60405161043193929190612d6a565b60405180910390f35b34801561044657600080fd5b50610461600480360381019061045c9190612d3d565b611696565b60405161046e9190612cf6565b60405180910390f35b34801561048357600080fd5b5061049e60048036038101906104999190612da8565b6116ae565b6040516104ab9190612cf6565b60405180910390f35b3480156104c057600080fd5b506104db60048036038101906104d69190612a3a565b61191e565b6040516104e89190612cf6565b60405180910390f35b3480156104fd57600080fd5b5061050661194c565b005b34801561051457600080fd5b5061052f600480360381019061052a9190612ab9565b611ab7565b005b34801561053d57600080fd5b50610546611b3d565b6040516105539190612e13565b60405180910390f35b34801561056857600080fd5b50610583600480360381019061057e9190612a3a565b611c08565b6040516105909190612e13565b60405180910390f35b3480156105a557600080fd5b506105c060048036038101906105bb9190612a3a565b611c31565b6040516105cd9190612cf6565b60405180910390f35b3480156105e257600080fd5b506105eb611c5f565b6040516105f89190612cf6565b60405180910390f35b34801561060d57600080fd5b5061062860048036038101906106239190612ab9565b611c65565b005b34801561063657600080fd5b50610651600480360381019061064c9190612d3d565b611d2f565b005b61065b611e26565b73ffffffffffffffffffffffffffffffffffffffff166106796115cc565b73ffffffffffffffffffffffffffffffffffffffff16146106cf576040517f08c379a00000000000000000000000000000000000000000000000000000000081526004016106c690612e7a565b60405180910390fd5b6040518060400160405280600581526020017f4b656d616c000000000000000000000000000000000000000000000000000000815250805190602001208180519060200120148061076257506040518060400160405280600781526020017f4572646f67616e00000000000000000000000000000000000000000000000000815250805190602001208180519060200120145b6107a1576040517f08c379a000000000000000000000000000000000000000000000000000000000815260040161079890612ee6565b60405180910390fd5b7fc93a6fedee8cb8614762d4a2c6a6fac249f043a9d64d1c477c21f2e46b3b6140816040516107d09190612f06565b60405180910390a16107e181611e2e565b50565b600e81815481106107f457600080fd5b90600052602060002090600402016000915090508060000160009054906101000a900473ffffffffffffffffffffffffffffffffffffffff169080600101549080600201805461084390612f57565b80601f016020809104026020016040519081016040528092919081815260200182805461086f90612f57565b80156108bc5780601f10610891576101008083540402835291602001916108bc565b820191906000526020600020905b81548152906001019060200180831161089f57829003601f168201915b5050505050908060030160009054906101000a900460ff16905084565b600c60009054906101000a900473ffffffffffffffffffffffffffffffffffffffff1681565b816005600082815260200190815260200160002060009054906101000a900473ffffffffffffffffffffffffffffffffffffffff1673ffffffffffffffffffffffffffffffffffffffff163373ffffffffffffffffffffffffffffffffffffffff16146109a1576040517f08c379a000000000000000000000000000000000000000000000000000000000815260040161099890612ffa565b60405180910390fd5b6005600082815260200190815260200160002060006101000a81549073ffffffffffffffffffffffffffffffffffffffff0219169055807f7cc135e0cebb02c3480ae5d74d377283180a2601f8f644edf7987b009316c63a60405160405180910390a27fc93a6fedee8cb8614762d4a2c6a6fac249f043a9d64d1c477c21f2e46b3b614082604051610a339190612f06565b60405180910390a16013600101604051610a4d91906130bd565b6040518091039020828051906020012014610a8f5760016013600001819055508160136001019081610a7f9190613280565b5042601360020181905550610bae565b61012c601360020154610aa29190613381565b4210610bad5760136000016000815480929190610abe906133b5565b919050555042601360020181905550600360136000015403610bac577fc93a6fedee8cb8614762d4a2c6a6fac249f043a9d64d1c477c21f2e46b3b61406013600101604051610b0d9190613481565b60405180910390a1610bab60136001018054610b2890612f57565b80601f0160208091040260200160405190810160405280929190818152602001828054610b5490612f57565b8015610ba15780601f10610b7657610100808354040283529160200191610ba1565b820191906000526020600020905b815481529060010190602001808311610b8457829003601f168201915b5050505050611e2e565b5b5b5b505050565b600260075403610bf8576040517f08c379a0000000000000000000000000000000000000000000000000000000008152600401610bef906134ef565b60405180910390fd5b60026007819055506000601160003373ffffffffffffffffffffffffffffffffffffffff1673ffffffffffffffffffffffffffffffffffffffff16815260200190815260200160002090506000816001015411610c8a576040517f08c379a0000000000000000000000000000000000000000000000000000000008152600401610c819061355b565b60405180910390fd5b8060030160009054906101000a900460ff1615610cdc576040517f08c379a0000000000000000000000000000000000000000000000000000000008152600401610cd3906135c7565b60405180910390fd5b600d54421115610d21576040517f08c379a0000000000000000000000000000000000000000000000000000000008152600401610d1890613633565b60405180910390fd5b60008160010154905060018260030160006101000a81548160ff021916908315150217905550610d7b81600f84600201604051610d5e91906136e1565b908152602001604051809103902054611ece90919063ffffffff16565b600f83600201604051610d8e91906136e1565b9081526020016040518091039020819055503373ffffffffffffffffffffffffffffffffffffffff166108fc829081150290604051600060405180830381858888f19350505050158015610de6573d6000803e3d6000fd5b503373ffffffffffffffffffffffffffffffffffffffff167f464193b855eb16d5efcea88f1f239b57b2bb2f8877413804c05f825e9e6132c88284600201604051610e329291906136f8565b60405180910390a250506001600781905550565b610e4e611e26565b73ffffffffffffffffffffffffffffffffffffffff16610e6c6115cc565b73ffffffffffffffffffffffffffffffffffffffff1614610ec2576040517f08c379a0000000000000000000000000000000000000000000000000000000008152600401610eb990612e7a565b60405180910390fd5b8060098190555050565b600b5481565b600d5481565b60116020528060005260406000206000915090508060000160009054906101000a900473ffffffffffffffffffffffffffffffffffffffff1690806001015490806002018054610f2790612f57565b80601f0160208091040260200160405190810160405280929190818152602001828054610f5390612f57565b8015610fa05780601f10610f7557610100808354040283529160200191610fa0565b820191906000526020600020905b815481529060010190602001808311610f8357829003601f168201915b5050505050908060030160009054906101000a900460ff16905084565b610fc5611e26565b73ffffffffffffffffffffffffffffffffffffffff16610fe36115cc565b73ffffffffffffffffffffffffffffffffffffffff1614611039576040517f08c379a000000000000000000000000000000000000000000000000000000000815260040161103090612e7a565b60405180910390fd5b80600a8190555050565b61104b611e26565b73ffffffffffffffffffffffffffffffffffffffff166110696115cc565b73ffffffffffffffffffffffffffffffffffffffff16146110bf576040517f08c379a00000000000000000000000000000000000000000000000000000000081526004016110b690612e7a565b60405180910390fd5b6110c96000611ee4565b565b6110d3611e26565b73ffffffffffffffffffffffffffffffffffffffff166110f16115cc565b73ffffffffffffffffffffffffffffffffffffffff1614611147576040517f08c379a000000000000000000000000000000000000000000000000000000000815260040161113e90612e7a565b60405180910390fd5b80600c60006101000a81548173ffffffffffffffffffffffffffffffffffffffff021916908373ffffffffffffffffffffffffffffffffffffffff16021790555050565b6040518060400160405280600581526020017f4b656d616c000000000000000000000000000000000000000000000000000000815250805190602001208180519060200120148061121e57506040518060400160405280600781526020017f4572646f67616e00000000000000000000000000000000000000000000000000815250805190602001208180519060200120145b61125d576040517f08c379a000000000000000000000000000000000000000000000000000000000815260040161125490612ee6565b60405180910390fd5b600d544211156112a2576040517f08c379a000000000000000000000000000000000000000000000000000000000815260040161129990613633565b60405180910390fd5b6000349050600060405180608001604052803373ffffffffffffffffffffffffffffffffffffffff168152602001838152602001848152602001600015158152509050600e81908060018154018082558091505060019003906000526020600020906004020160009091909190915060008201518160000160006101000a81548173ffffffffffffffffffffffffffffffffffffffff021916908373ffffffffffffffffffffffffffffffffffffffff1602179055506020820151816001015560408201518160020190816113779190613280565b5060608201518160030160006101000a81548160ff02191690831515021790555050506113cb82600f856040516113ae9190613759565b908152602001604051809103902054611faa90919063ffffffff16565b600f846040516113db9190613759565b90815260200160405180910390208190555080601160003373ffffffffffffffffffffffffffffffffffffffff1673ffffffffffffffffffffffffffffffffffffffff16815260200190815260200160002060008201518160000160006101000a81548173ffffffffffffffffffffffffffffffffffffffff021916908373ffffffffffffffffffffffffffffffffffffffff1602179055506020820151816001015560408201518160020190816114939190613280565b5060608201518160030160006101000a81548160ff0219169083151502179055509050503373ffffffffffffffffffffffffffffffffffffffff167fcc6833ded30742d7f7c3b02b2a9144fdd7e899726980e967a0a4d09d6aeb209983856040516114ff929190613770565b60405180910390a2505050565b611514611e26565b73ffffffffffffffffffffffffffffffffffffffff166115326115cc565b73ffffffffffffffffffffffffffffffffffffffff1614611588576040517f08c379a000000000000000000000000000000000000000000000000000000000815260040161157f90612e7a565b60405180910390fd5b80600860006101000a81548173ffffffffffffffffffffffffffffffffffffffff021916908373ffffffffffffffffffffffffffffffffffffffff16021790555050565b6000600660009054906101000a900473ffffffffffffffffffffffffffffffffffffffff16905090565b601380600001549080600101805461160d90612f57565b80601f016020809104026020016040519081016040528092919081815260200182805461163990612f57565b80156116865780601f1061165b57610100808354040283529160200191611686565b820191906000526020600020905b81548152906001019060200180831161166957829003601f168201915b5050505050908060020154905083565b60126020528060005260406000206000915090505481565b60006040518060400160405280600581526020017f4b656d616c000000000000000000000000000000000000000000000000000000815250805190602001208280519060200120148061174357506040518060400160405280600781526020017f4572646f67616e00000000000000000000000000000000000000000000000000815250805190602001208280519060200120145b611782576040517f08c379a000000000000000000000000000000000000000000000000000000000815260040161177990612ee6565b60405180910390fd5b6000601160008573ffffffffffffffffffffffffffffffffffffffff1673ffffffffffffffffffffffffffffffffffffffff1681526020019081526020016000206040518060800160405290816000820160009054906101000a900473ffffffffffffffffffffffffffffffffffffffff1673ffffffffffffffffffffffffffffffffffffffff1673ffffffffffffffffffffffffffffffffffffffff1681526020016001820154815260200160028201805461183e90612f57565b80601f016020809104026020016040519081016040528092919081815260200182805461186a90612f57565b80156118b75780601f1061188c576101008083540402835291602001916118b7565b820191906000526020600020905b81548152906001019060200180831161189a57829003601f168201915b505050505081526020016003820160009054906101000a900460ff1615151515815250509050828051906020012081604001518051906020012014801561190057508060600151155b15611912578060200151915050611918565b60009150505b92915050565b600f818051602081018201805184825260208301602085012081835280955050505050506000915090505481565b600260075403611991576040517f08c379a0000000000000000000000000000000000000000000000000000000008152600401611988906134ef565b60405180910390fd5b60026007819055506000601260003373ffffffffffffffffffffffffffffffffffffffff1673ffffffffffffffffffffffffffffffffffffffff16815260200190815260200160002054905060008111611a20576040517f08c379a0000000000000000000000000000000000000000000000000000000008152600401611a17906137ec565b60405180910390fd5b6000601260003373ffffffffffffffffffffffffffffffffffffffff1673ffffffffffffffffffffffffffffffffffffffff168152602001908152602001600020819055503373ffffffffffffffffffffffffffffffffffffffff166108fc829081150290604051600060405180830381858888f19350505050158015611aab573d6000803e3d6000fd5b50506001600781905550565b611abf611e26565b73ffffffffffffffffffffffffffffffffffffffff16611add6115cc565b73ffffffffffffffffffffffffffffffffffffffff1614611b33576040517f08c379a0000000000000000000000000000000000000000000000000000000008152600401611b2a90612e7a565b60405180910390fd5b80600d8190555050565b6000611b47611e26565b73ffffffffffffffffffffffffffffffffffffffff16611b656115cc565b73ffffffffffffffffffffffffffffffffffffffff1614611bbb576040517f08c379a0000000000000000000000000000000000000000000000000000000008152600401611bb290612e7a565b60405180910390fd5b6000611bd160095430633744199660e01b611fc0565b9050611c02600860009054906101000a900473ffffffffffffffffffffffffffffffffffffffff1682600a54611ff1565b91505090565b6000808290506000815103611c23576000801b915050611c2c565b60208301519150505b919050565b6010818051602081018201805184825260208301602085012081835280955050505050506000915090505481565b600a5481565b611c6d611e26565b73ffffffffffffffffffffffffffffffffffffffff16611c8b6115cc565b73ffffffffffffffffffffffffffffffffffffffff1614611ce1576040517f08c379a0000000000000000000000000000000000000000000000000000000008152600401611cd890612e7a565b60405180910390fd5b6005811115611d25576040517f08c379a0000000000000000000000000000000000000000000000000000000008152600401611d1c9061387e565b60405180910390fd5b80600b8190555050565b611d37611e26565b73ffffffffffffffffffffffffffffffffffffffff16611d556115cc565b73ffffffffffffffffffffffffffffffffffffffff1614611dab576040517f08c379a0000000000000000000000000000000000000000000000000000000008152600401611da290612e7a565b60405180910390fd5b600073ffffffffffffffffffffffffffffffffffffffff168173ffffffffffffffffffffffffffffffffffffffff1603611e1a576040517f08c379a0000000000000000000000000000000000000000000000000000000008152600401611e1190613910565b60405180910390fd5b611e2381611ee4565b50565b600033905090565b6000600f82604051611e409190613759565b908152602001604051809103902054905060008103611e5f5750611ecb565b600081905080601084604051611e759190613759565b908152602001604051809103902081905550600060649050600081600183600e80549050611ea39190613381565b611ead9190613930565b611eb79190613993565b9050611ec685600084846120bd565b505050505b50565b60008183611edc9190613930565b905092915050565b6000600660009054906101000a900473ffffffffffffffffffffffffffffffffffffffff16905081600660006101000a81548173ffffffffffffffffffffffffffffffffffffffff021916908373ffffffffffffffffffffffffffffffffffffffff1602179055508173ffffffffffffffffffffffffffffffffffffffff168173ffffffffffffffffffffffffffffffffffffffff167f8be0079c531659141344cd1fd0a4f28419497f9722a3daafe3b4186f6b6457e060405160405180910390a35050565b60008183611fb89190613381565b905092915050565b611fc8612859565b611fd0612859565b611fe78585858461257e909392919063ffffffff16565b9150509392505050565b60008060045490506001816120069190613381565b6004819055506000634042994660e01b60008087600001513089604001518760018c6080015160000151604051602401612047989796959493929190613a54565b604051602081830303815290604052907bffffffffffffffffffffffffffffffffffffffffffffffffffffffff19166020820180517bffffffffffffffffffffffffffffffffffffffffffffffffffffffff838183161783525050505090506120b28683868461262e565b925050509392505050565b6000600f856040516120cf9190613759565b908152602001604051809103902054905060006010866040516120f29190613759565b9081526020016040518091039020549050600084866121119190613ad9565b9050600085826121219190613381565b9050600e8054905081111561213957600e8054905090505b60008290505b81811015612355578880519060200120600e828154811061216357612162613b1b565b5b906000526020600020906004020160020160405161218191906130bd565b6040518091039020036123425760006121da866121cc87600e86815481106121ac576121ab613b1b565b5b9060005260206000209060040201600101546127c390919063ffffffff16565b6127d990919063ffffffff16565b9050600061220660646121f8600b54856127c390919063ffffffff16565b6127d990919063ffffffff16565b9050600061221d8284611ece90919063ffffffff16565b90506122b68160126000600e888154811061223b5761223a613b1b565b5b906000526020600020906004020160000160009054906101000a900473ffffffffffffffffffffffffffffffffffffffff1673ffffffffffffffffffffffffffffffffffffffff1673ffffffffffffffffffffffffffffffffffffffff16815260200190815260200160002054611faa90919063ffffffff16565b60126000600e87815481106122ce576122cd613b1b565b5b906000526020600020906004020160000160009054906101000a900473ffffffffffffffffffffffffffffffffffffffff1673ffffffffffffffffffffffffffffffffffffffff1673ffffffffffffffffffffffffffffffffffffffff168152602001908152602001600020819055505050505b808061234d906133b5565b91505061213f565b50846001886123649190613381565b10156124dd5760006001886123799190613381565b905060006113885a61238b9190613930565b905060008a838a8a6040516024016123a69493929190613b4a565b6040516020818303038152906040527f7c657fb7000000000000000000000000000000000000000000000000000000007bffffffffffffffffffffffffffffffffffffffffffffffffffffffff19166020820180517bffffffffffffffffffffffffffffffffffffffffffffffffffffffff8381831617835250505050905060003073ffffffffffffffffffffffffffffffffffffffff16838360405161244d9190613bc7565b60006040518083038160008787f1925050503d806000811461248b576040519150601f19603f3d011682016040523d82523d6000602084013e612490565b606091505b50509050806124d4576040517f08c379a00000000000000000000000000000000000000000000000000000000081526004016124cb90613c2a565b60405180910390fd5b50505050612574565b600061250760646124f9600b54876127c390919063ffffffff16565b6127d990919063ffffffff16565b9050600c60009054906101000a900473ffffffffffffffffffffffffffffffffffffffff1673ffffffffffffffffffffffffffffffffffffffff166108fc829081150290604051600060405180830381858888f19350505050158015612571573d6000803e3d6000fd5b50505b5050505050505050565b612586612859565b61259685608001516101006127ef565b508385600001818152505082856020019073ffffffffffffffffffffffffffffffffffffffff16908173ffffffffffffffffffffffffffffffffffffffff16815250508185604001907bffffffffffffffffffffffffffffffffffffffffffffffffffffffff191690817bffffffffffffffffffffffffffffffffffffffffffffffffffffffff191681525050849050949350505050565b60003084604051602001612643929190613cf9565b604051602081830303815290604052805190602001209050846005600083815260200190815260200160002060006101000a81548173ffffffffffffffffffffffffffffffffffffffff021916908373ffffffffffffffffffffffffffffffffffffffff160217905550807fb5e6e01e79f91267dc17b4e6314d5d4d03593d2ceee0fbb452b750bd70ea5af960405160405180910390a2600260009054906101000a900473ffffffffffffffffffffffffffffffffffffffff1673ffffffffffffffffffffffffffffffffffffffff16634000aea08685856040518463ffffffff1660e01b815260040161273993929190613d25565b6020604051808303816000875af1158015612758573d6000803e3d6000fd5b505050506040513d601f19601f8201168201806040525081019061277c9190613d8f565b6127bb576040517f08c379a00000000000000000000000000000000000000000000000000000000081526004016127b290613e2e565b60405180910390fd5b949350505050565b600081836127d19190613ad9565b905092915050565b600081836127e79190613993565b905092915050565b6127f76128c6565b60006020836128069190613e4e565b14612832576020826128189190613e4e565b60206128249190613930565b8261282f9190613381565b91505b81836020018181525050604051808452600081528281016020016040525082905092915050565b6040518060a0016040528060008019168152602001600073ffffffffffffffffffffffffffffffffffffffff16815260200160007bffffffffffffffffffffffffffffffffffffffffffffffffffffffff19168152602001600081526020016128c06128c6565b81525090565b604051806040016040528060608152602001600081525090565b6000604051905090565b600080fd5b600080fd5b600080fd5b600080fd5b6000601f19601f8301169050919050565b7f4e487b7100000000000000000000000000000000000000000000000000000000600052604160045260246000fd5b612947826128fe565b810181811067ffffffffffffffff821117156129665761296561290f565b5b80604052505050565b60006129796128e0565b9050612985828261293e565b919050565b600067ffffffffffffffff8211156129a5576129a461290f565b5b6129ae826128fe565b9050602081019050919050565b82818337600083830152505050565b60006129dd6129d88461298a565b61296f565b9050828152602081018484840111156129f9576129f86128f9565b5b612a048482856129bb565b509392505050565b600082601f830112612a2157612a206128f4565b5b8135612a318482602086016129ca565b91505092915050565b600060208284031215612a5057612a4f6128ea565b5b600082013567ffffffffffffffff811115612a6e57612a6d6128ef565b5b612a7a84828501612a0c565b91505092915050565b6000819050919050565b612a9681612a83565b8114612aa157600080fd5b50565b600081359050612ab381612a8d565b92915050565b600060208284031215612acf57612ace6128ea565b5b6000612add84828501612aa4565b91505092915050565b600073ffffffffffffffffffffffffffffffffffffffff82169050919050565b6000612b1182612ae6565b9050919050565b612b2181612b06565b82525050565b612b3081612a83565b82525050565b600081519050919050565b600082825260208201905092915050565b60005b83811015612b70578082015181840152602081019050612b55565b60008484015250505050565b6000612b8782612b36565b612b918185612b41565b9350612ba1818560208601612b52565b612baa816128fe565b840191505092915050565b60008115159050919050565b612bca81612bb5565b82525050565b6000608082019050612be56000830187612b18565b612bf26020830186612b27565b8181036040830152612c048185612b7c565b9050612c136060830184612bc1565b95945050505050565b6000602082019050612c316000830184612b18565b92915050565b6000819050919050565b612c4a81612c37565b8114612c5557600080fd5b50565b600081359050612c6781612c41565b92915050565b60008060408385031215612c8457612c836128ea565b5b6000612c9285828601612c58565b925050602083013567ffffffffffffffff811115612cb357612cb26128ef565b5b612cbf85828601612a0c565b9150509250929050565b600060208284031215612cdf57612cde6128ea565b5b6000612ced84828501612c58565b91505092915050565b6000602082019050612d0b6000830184612b27565b92915050565b612d1a81612b06565b8114612d2557600080fd5b50565b600081359050612d3781612d11565b92915050565b600060208284031215612d5357612d526128ea565b5b6000612d6184828501612d28565b91505092915050565b6000606082019050612d7f6000830186612b27565b8181036020830152612d918185612b7c565b9050612da06040830184612b27565b949350505050565b60008060408385031215612dbf57612dbe6128ea565b5b6000612dcd85828601612d28565b925050602083013567ffffffffffffffff811115612dee57612ded6128ef565b5b612dfa85828601612a0c565b9150509250929050565b612e0d81612c37565b82525050565b6000602082019050612e286000830184612e04565b92915050565b7f4f776e61626c653a2063616c6c6572206973206e6f7420746865206f776e6572600082015250565b6000612e64602083612b41565b9150612e6f82612e2e565b602082019050919050565b60006020820190508181036000830152612e9381612e57565b9050919050565b7f496e76616c69642063616e646964617465000000000000000000000000000000600082015250565b6000612ed0601183612b41565b9150612edb82612e9a565b602082019050919050565b60006020820190508181036000830152612eff81612ec3565b9050919050565b60006020820190508181036000830152612f208184612b7c565b905092915050565b7f4e487b7100000000000000000000000000000000000000000000000000000000600052602260045260246000fd5b60006002820490506001821680612f6f57607f821691505b602082108103612f8257612f81612f28565b5b50919050565b7f536f75726365206d75737420626520746865206f7261636c65206f662074686560008201527f2072657175657374000000000000000000000000000000000000000000000000602082015250565b6000612fe4602883612b41565b9150612fef82612f88565b604082019050919050565b6000602082019050818103600083015261301381612fd7565b9050919050565b600081905092915050565b60008190508160005260206000209050919050565b6000815461304781612f57565b613051818661301a565b9450600182166000811461306c5760018114613081576130b4565b60ff19831686528115158202860193506130b4565b61308a85613025565b60005b838110156130ac5781548189015260018201915060208101905061308d565b838801955050505b50505092915050565b60006130c9828461303a565b915081905092915050565b60008190508160005260206000209050919050565b60006020601f8301049050919050565b600082821b905092915050565b6000600883026131367fffffffffffffffffffffffffffffffffffffffffffffffffffffffffffffffff826130f9565b61314086836130f9565b95508019841693508086168417925050509392505050565b6000819050919050565b600061317d61317861317384612a83565b613158565b612a83565b9050919050565b6000819050919050565b61319783613162565b6131ab6131a382613184565b848454613106565b825550505050565b600090565b6131c06131b3565b6131cb81848461318e565b505050565b5b818110156131ef576131e46000826131b8565b6001810190506131d1565b5050565b601f82111561323457613205816130d4565b61320e846130e9565b8101602085101561321d578190505b613231613229856130e9565b8301826131d0565b50505b505050565b600082821c905092915050565b600061325760001984600802613239565b1980831691505092915050565b60006132708383613246565b9150826002028217905092915050565b61328982612b36565b67ffffffffffffffff8111156132a2576132a161290f565b5b6132ac8254612f57565b6132b78282856131f3565b600060209050601f8311600181146132ea57600084156132d8578287015190505b6132e28582613264565b86555061334a565b601f1984166132f8866130d4565b60005b82811015613320578489015182556001820191506020850194506020810190506132fb565b8683101561333d5784890151613339601f891682613246565b8355505b6001600288020188555050505b505050505050565b7f4e487b7100000000000000000000000000000000000000000000000000000000600052601160045260246000fd5b600061338c82612a83565b915061339783612a83565b92508282019050808211156133af576133ae613352565b5b92915050565b60006133c082612a83565b91507fffffffffffffffffffffffffffffffffffffffffffffffffffffffffffffffff82036133f2576133f1613352565b5b600182019050919050565b6000815461340a81612f57565b6134148186612b41565b9450600182166000811461342f576001811461344557613478565b60ff198316865281151560200286019350613478565b61344e856130d4565b60005b8381101561347057815481890152600182019150602081019050613451565b808801955050505b50505092915050565b6000602082019050818103600083015261349b81846133fd565b905092915050565b7f5265656e7472616e637947756172643a207265656e7472616e742063616c6c00600082015250565b60006134d9601f83612b41565b91506134e4826134a3565b602082019050919050565b60006020820190508181036000830152613508816134cc565b9050919050565b7f4e6f2062657420746f2077697468647261770000000000000000000000000000600082015250565b6000613545601283612b41565b91506135508261350f565b602082019050919050565b6000602082019050818103600083015261357481613538565b9050919050565b7f42657420616c72656164792077697468647261776e0000000000000000000000600082015250565b60006135b1601583612b41565b91506135bc8261357b565b602082019050919050565b600060208201905081810360008301526135e0816135a4565b9050919050565b7f42657474696e672068617320656e646564000000000000000000000000000000600082015250565b600061361d601183612b41565b9150613628826135e7565b602082019050919050565b6000602082019050818103600083015261364c81613610565b9050919050565b600081905092915050565b6000815461366b81612f57565b6136758186613653565b9450600182166000811461369057600181146136a5576136d8565b60ff19831686528115158202860193506136d8565b6136ae856130d4565b60005b838110156136d0578154818901526001820191506020810190506136b1565b838801955050505b50505092915050565b60006136ed828461365e565b915081905092915050565b600060408201905061370d6000830185612b27565b818103602083015261371f81846133fd565b90509392505050565b600061373382612b36565b61373d8185613653565b935061374d818560208601612b52565b80840191505092915050565b60006137658284613728565b915081905092915050565b60006040820190506137856000830185612b27565b81810360208301526137978184612b7c565b90509392505050565b7f4e6f2077696e6e696e677320746f20636c61696d000000000000000000000000600082015250565b60006137d6601483612b41565b91506137e1826137a0565b602082019050919050565b60006020820190508181036000830152613805816137c9565b9050919050565b7f53657276696365206665652070657263656e746167652073686f756c64206e6f60008201527f7420657863656564203500000000000000000000000000000000000000000000602082015250565b6000613868602a83612b41565b91506138738261380c565b604082019050919050565b600060208201905081810360008301526138978161385b565b9050919050565b7f4f776e61626c653a206e6577206f776e657220697320746865207a65726f206160008201527f6464726573730000000000000000000000000000000000000000000000000000602082015250565b60006138fa602683612b41565b91506139058261389e565b604082019050919050565b60006020820190508181036000830152613929816138ed565b9050919050565b600061393b82612a83565b915061394683612a83565b925082820390508181111561395e5761395d613352565b5b92915050565b7f4e487b7100000000000000000000000000000000000000000000000000000000600052601260045260246000fd5b600061399e82612a83565b91506139a983612a83565b9250826139b9576139b8613964565b5b828204905092915050565b60007fffffffff0000000000000000000000000000000000000000000000000000000082169050919050565b6139f9816139c4565b82525050565b600081519050919050565b600082825260208201905092915050565b6000613a26826139ff565b613a308185613a0a565b9350613a40818560208601612b52565b613a49816128fe565b840191505092915050565b600061010082019050613a6a600083018b612b18565b613a77602083018a612b27565b613a846040830189612e04565b613a916060830188612b18565b613a9e60808301876139f0565b613aab60a0830186612b27565b613ab860c0830185612b27565b81810360e0830152613aca8184613a1b565b90509998505050505050505050565b6000613ae482612a83565b9150613aef83612a83565b9250828202613afd81612a83565b91508282048414831517613b1457613b13613352565b5b5092915050565b7f4e487b7100000000000000000000000000000000000000000000000000000000600052603260045260246000fd5b60006080820190508181036000830152613b648187612b7c565b9050613b736020830186612b27565b613b806040830185612b27565b613b8d6060830184612b27565b95945050505050565b6000613ba1826139ff565b613bab818561301a565b9350613bbb818560208601612b52565b80840191505092915050565b6000613bd38284613b96565b915081905092915050565b7f426174636820646973747269627574696f6e206661696c656400000000000000600082015250565b6000613c14601983612b41565b9150613c1f82613bde565b602082019050919050565b60006020820190508181036000830152613c4381613c07565b9050919050565b6000613c65613c60613c5b84612ae6565b613158565b612ae6565b9050919050565b6000613c7782613c4a565b9050919050565b6000613c8982613c6c565b9050919050565b60008160601b9050919050565b6000613ca882613c90565b9050919050565b6000613cba82613c9d565b9050919050565b613cd2613ccd82613c7e565b613caf565b82525050565b6000819050919050565b613cf3613cee82612a83565b613cd8565b82525050565b6000613d058285613cc1565b601482019150613d158284613ce2565b6020820191508190509392505050565b6000606082019050613d3a6000830186612b18565b613d476020830185612b27565b8181036040830152613d598184613a1b565b9050949350505050565b613d6c81612bb5565b8114613d7757600080fd5b50565b600081519050613d8981613d63565b92915050565b600060208284031215613da557613da46128ea565b5b6000613db384828501613d7a565b91505092915050565b7f756e61626c6520746f207472616e73666572416e6443616c6c20746f206f726160008201527f636c650000000000000000000000000000000000000000000000000000000000602082015250565b6000613e18602383612b41565b9150613e2382613dbc565b604082019050919050565b60006020820190508181036000830152613e4781613e0b565b9050919050565b6000613e5982612a83565b9150613e6483612a83565b925082613e7457613e73613964565b5b82820690509291505056fea26469706673582212204df267e801abae3b3e78928a4766ca25fcae14752103b6462e23a6082956dc2f64736f6c63430008130033",
  "linkReferences": {},
  "deployedLinkReferences": {}
}