{
  "_format": "hh-sol-artifact-1",
  "contractName": "ElectionBet",
  "sourceName": "contracts/ElectionBet.sol",
  "abi": [
    {
      "inputs": [
        {
          "internalType": "address",
          "name": "_oracle",
          "type": "address"
        },
        {
          "internalType": "string",
          "name": "_jobId",
          "type": "string"
        },
        {
          "internalType": "uint256",
          "name": "_fee",
          "type": "uint256"
        },
        {
          "internalType": "uint256",
          "name": "_serviceFeePercentage",
          "type": "uint256"
        },
        {
          "internalType": "address",
          "name": "_serviceFeeWallet",
          "type": "address"
        },
        {
          "internalType": "uint256",
          "name": "_bettingEndTime",
          "type": "uint256"
        }
      ],
      "stateMutability": "nonpayable",
      "type": "constructor"
    },
    {
      "anonymous": false,
      "inputs": [
        {
          "indexed": true,
          "internalType": "address",
          "name": "bettor",
          "type": "address"
        },
        {
          "indexed": false,
          "internalType": "uint256",
          "name": "amount",
          "type": "uint256"
        },
        {
          "indexed": false,
          "internalType": "string",
          "name": "candidate",
          "type": "string"
        }
      ],
      "name": "BetMade",
      "type": "event"
    },
    {
      "anonymous": false,
      "inputs": [
        {
          "indexed": true,
          "internalType": "address",
          "name": "bettor",
          "type": "address"
        },
        {
          "indexed": false,
          "internalType": "uint256",
          "name": "amount",
          "type": "uint256"
        },
        {
          "indexed": false,
          "internalType": "string",
          "name": "candidate",
          "type": "string"
        }
      ],
      "name": "BetWithdrawn",
      "type": "event"
    },
    {
      "anonymous": false,
      "inputs": [
        {
          "indexed": true,
          "internalType": "bytes32",
          "name": "id",
          "type": "bytes32"
        }
      ],
      "name": "ChainlinkCancelled",
      "type": "event"
    },
    {
      "anonymous": false,
      "inputs": [
        {
          "indexed": true,
          "internalType": "bytes32",
          "name": "id",
          "type": "bytes32"
        }
      ],
      "name": "ChainlinkFulfilled",
      "type": "event"
    },
    {
      "anonymous": false,
      "inputs": [
        {
          "indexed": true,
          "internalType": "bytes32",
          "name": "id",
          "type": "bytes32"
        }
      ],
      "name": "ChainlinkRequested",
      "type": "event"
    },
    {
      "anonymous": false,
      "inputs": [
        {
          "indexed": false,
          "internalType": "string",
          "name": "winner",
          "type": "string"
        }
      ],
      "name": "ElectionResultReceived",
      "type": "event"
    },
    {
      "anonymous": false,
      "inputs": [
        {
          "indexed": true,
          "internalType": "address",
          "name": "previousOwner",
          "type": "address"
        },
        {
          "indexed": true,
          "internalType": "address",
          "name": "newOwner",
          "type": "address"
        }
      ],
      "name": "OwnershipTransferred",
      "type": "event"
    },
    {
      "inputs": [
        {
          "internalType": "uint256",
          "name": "",
          "type": "uint256"
        }
      ],
      "name": "bets",
      "outputs": [
        {
          "internalType": "address",
          "name": "bettor",
          "type": "address"
        },
        {
          "internalType": "uint256",
          "name": "amount",
          "type": "uint256"
        },
        {
          "internalType": "string",
          "name": "candidate",
          "type": "string"
        },
        {
          "internalType": "bool",
          "name": "withdrawn",
          "type": "bool"
        }
      ],
      "stateMutability": "view",
      "type": "function"
    },
    {
      "inputs": [],
      "name": "bettingEndTime",
      "outputs": [
        {
          "internalType": "uint256",
          "name": "",
          "type": "uint256"
        }
      ],
      "stateMutability": "view",
      "type": "function"
    },
    {
      "inputs": [
        {
          "internalType": "address",
          "name": "user",
          "type": "address"
        },
        {
          "internalType": "string",
          "name": "candidate",
          "type": "string"
        }
      ],
      "name": "calculateUserBet",
      "outputs": [
        {
          "internalType": "uint256",
          "name": "",
          "type": "uint256"
        }
      ],
      "stateMutability": "view",
      "type": "function"
    },
    {
      "inputs": [],
      "name": "electionConfirmation",
      "outputs": [
        {
          "internalType": "uint256",
          "name": "count",
          "type": "uint256"
        },
        {
          "internalType": "string",
          "name": "result",
          "type": "string"
        },
        {
          "internalType": "uint256",
          "name": "lastConfirmationTimestamp",
          "type": "uint256"
        }
      ],
      "stateMutability": "view",
      "type": "function"
    },
    {
      "inputs": [],
      "name": "fee",
      "outputs": [
        {
          "internalType": "uint256",
          "name": "",
          "type": "uint256"
        }
      ],
      "stateMutability": "view",
      "type": "function"
    },
    {
      "inputs": [
        {
          "internalType": "bytes32",
          "name": "_requestId",
          "type": "bytes32"
        },
        {
          "internalType": "string",
          "name": "_winner",
          "type": "string"
        }
      ],
      "name": "fulfill",
      "outputs": [],
      "stateMutability": "nonpayable",
      "type": "function"
    },
    {
      "inputs": [],
      "name": "getElectionResult",
      "outputs": [
        {
          "internalType": "bytes32",
          "name": "requestId",
          "type": "bytes32"
        }
      ],
      "stateMutability": "nonpayable",
      "type": "function"
    },
    {
      "inputs": [
        {
          "internalType": "string",
          "name": "candidate",
          "type": "string"
        }
      ],
      "name": "makeBet",
      "outputs": [],
      "stateMutability": "payable",
      "type": "function"
    },
    {
      "inputs": [],
      "name": "owner",
      "outputs": [
        {
          "internalType": "address",
          "name": "",
          "type": "address"
        }
      ],
      "stateMutability": "view",
      "type": "function"
    },
    {
      "inputs": [],
      "name": "renounceOwnership",
      "outputs": [],
      "stateMutability": "nonpayable",
      "type": "function"
    },
    {
      "inputs": [],
      "name": "serviceFeePercentage",
      "outputs": [
        {
          "internalType": "uint256",
          "name": "",
          "type": "uint256"
        }
      ],
      "stateMutability": "view",
      "type": "function"
    },
    {
      "inputs": [],
      "name": "serviceFeeWallet",
      "outputs": [
        {
          "internalType": "address",
          "name": "",
          "type": "address"
        }
      ],
      "stateMutability": "view",
      "type": "function"
    },
    {
      "inputs": [
        {
          "internalType": "uint256",
          "name": "_bettingEndTime",
          "type": "uint256"
        }
      ],
      "name": "setBettingEndTime",
      "outputs": [],
      "stateMutability": "nonpayable",
      "type": "function"
    },
    {
      "inputs": [
        {
          "internalType": "uint256",
          "name": "_fee",
          "type": "uint256"
        }
      ],
      "name": "setFee",
      "outputs": [],
      "stateMutability": "nonpayable",
      "type": "function"
    },
    {
      "inputs": [
        {
          "internalType": "bytes32",
          "name": "_jobId",
          "type": "bytes32"
        }
      ],
      "name": "setJobId",
      "outputs": [],
      "stateMutability": "nonpayable",
      "type": "function"
    },
    {
      "inputs": [
        {
          "internalType": "address",
          "name": "_oracle",
          "type": "address"
        }
      ],
      "name": "setOracle",
      "outputs": [],
      "stateMutability": "nonpayable",
      "type": "function"
    },
    {
      "inputs": [
        {
          "internalType": "uint256",
          "name": "_serviceFeePercentage",
          "type": "uint256"
        }
      ],
      "name": "setServiceFeePercentage",
      "outputs": [],
      "stateMutability": "nonpayable",
      "type": "function"
    },
    {
      "inputs": [
        {
          "internalType": "address",
          "name": "_serviceFeeWallet",
          "type": "address"
        }
      ],
      "name": "setServiceFeeWallet",
      "outputs": [],
      "stateMutability": "nonpayable",
      "type": "function"
    },
    {
      "inputs": [
        {
          "internalType": "string",
          "name": "source",
          "type": "string"
        }
      ],
      "name": "stringToBytes32",
      "outputs": [
        {
          "internalType": "bytes32",
          "name": "result",
          "type": "bytes32"
        }
      ],
      "stateMutability": "pure",
      "type": "function"
    },
    {
      "inputs": [
        {
          "internalType": "string",
          "name": "",
          "type": "string"
        }
      ],
      "name": "totalBets",
      "outputs": [
        {
          "internalType": "uint256",
          "name": "",
          "type": "uint256"
        }
      ],
      "stateMutability": "view",
      "type": "function"
    },
    {
      "inputs": [
        {
          "internalType": "address",
          "name": "newOwner",
          "type": "address"
        }
      ],
      "name": "transferOwnership",
      "outputs": [],
      "stateMutability": "nonpayable",
      "type": "function"
    },
    {
      "inputs": [
        {
          "internalType": "string",
          "name": "",
          "type": "string"
        }
      ],
      "name": "winnings",
      "outputs": [
        {
          "internalType": "uint256",
          "name": "",
          "type": "uint256"
        }
      ],
      "stateMutability": "view",
      "type": "function"
    },
    {
      "inputs": [],
      "name": "withdraw",
      "outputs": [],
      "stateMutability": "nonpayable",
      "type": "function"
    }
  ],
  "bytecode": "0x608060405260016004553480156200001657600080fd5b5060405162003c0538038062003c0583398181016040528101906200003c919062000508565b6200005c620000506200019860201b60201c565b620001a060201b60201c565b6200008173a36085f69e2889c224210f603d836748e7dc00886200026660201b60201c565b85600760006101000a81548173ffffffffffffffffffffffffffffffffffffffff021916908373ffffffffffffffffffffffffffffffffffffffff160217905550620000d385620002aa60201b60201c565b6008819055508360098190555082600a8190555081600b60006101000a81548173ffffffffffffffffffffffffffffffffffffffff021916908373ffffffffffffffffffffffffffffffffffffffff16021790555080600c81905550604051806060016040528060008152602001604051806020016040528060008152508152602001600081525060106000820151816000015560208201518160010190816200017e919062000804565b5060408201518160020155905050505050505050620008eb565b600033905090565b6000600660009054906101000a900473ffffffffffffffffffffffffffffffffffffffff16905081600660006101000a81548173ffffffffffffffffffffffffffffffffffffffff021916908373ffffffffffffffffffffffffffffffffffffffff1602179055508173ffffffffffffffffffffffffffffffffffffffff168173ffffffffffffffffffffffffffffffffffffffff167f8be0079c531659141344cd1fd0a4f28419497f9722a3daafe3b4186f6b6457e060405160405180910390a35050565b80600260006101000a81548173ffffffffffffffffffffffffffffffffffffffff021916908373ffffffffffffffffffffffffffffffffffffffff16021790555050565b6000808290506000815103620002c7576000801b915050620002d0565b60208301519150505b919050565b6000604051905090565b600080fd5b600080fd5b600073ffffffffffffffffffffffffffffffffffffffff82169050919050565b60006200031682620002e9565b9050919050565b620003288162000309565b81146200033457600080fd5b50565b60008151905062000348816200031d565b92915050565b600080fd5b600080fd5b6000601f19601f8301169050919050565b7f4e487b7100000000000000000000000000000000000000000000000000000000600052604160045260246000fd5b620003a38262000358565b810181811067ffffffffffffffff82111715620003c557620003c462000369565b5b80604052505050565b6000620003da620002d5565b9050620003e8828262000398565b919050565b600067ffffffffffffffff8211156200040b576200040a62000369565b5b620004168262000358565b9050602081019050919050565b60005b838110156200044357808201518184015260208101905062000426565b60008484015250505050565b6000620004666200046084620003ed565b620003ce565b90508281526020810184848401111562000485576200048462000353565b5b6200049284828562000423565b509392505050565b600082601f830112620004b257620004b16200034e565b5b8151620004c48482602086016200044f565b91505092915050565b6000819050919050565b620004e281620004cd565b8114620004ee57600080fd5b50565b6000815190506200050281620004d7565b92915050565b60008060008060008060c08789031215620005285762000527620002df565b5b60006200053889828a0162000337565b965050602087015167ffffffffffffffff8111156200055c576200055b620002e4565b5b6200056a89828a016200049a565b95505060406200057d89828a01620004f1565b94505060606200059089828a01620004f1565b9350506080620005a389828a0162000337565b92505060a0620005b689828a01620004f1565b9150509295509295509295565b600081519050919050565b7f4e487b7100000000000000000000000000000000000000000000000000000000600052602260045260246000fd5b600060028204905060018216806200061657607f821691505b6020821081036200062c576200062b620005ce565b5b50919050565b60008190508160005260206000209050919050565b60006020601f8301049050919050565b600082821b905092915050565b600060088302620006967fffffffffffffffffffffffffffffffffffffffffffffffffffffffffffffffff8262000657565b620006a2868362000657565b95508019841693508086168417925050509392505050565b6000819050919050565b6000620006e5620006df620006d984620004cd565b620006ba565b620004cd565b9050919050565b6000819050919050565b6200070183620006c4565b620007196200071082620006ec565b84845462000664565b825550505050565b600090565b6200073062000721565b6200073d818484620006f6565b505050565b5b8181101562000765576200075960008262000726565b60018101905062000743565b5050565b601f821115620007b4576200077e8162000632565b620007898462000647565b8101602085101562000799578190505b620007b1620007a88562000647565b83018262000742565b50505b505050565b600082821c905092915050565b6000620007d960001984600802620007b9565b1980831691505092915050565b6000620007f48383620007c6565b9150826002028217905092915050565b6200080f82620005c3565b67ffffffffffffffff8111156200082b576200082a62000369565b5b620008378254620005fd565b6200084482828562000769565b600060209050601f8311600181146200087c576000841562000867578287015190505b620008738582620007e6565b865550620008e3565b601f1984166200088c8662000632565b60005b82811015620008b6578489015182556001820191506020850194506020810190506200088f565b86831015620008d65784890151620008d2601f891682620007c6565b8355505b6001600288020188555050505b505050505050565b61330a80620008fb6000396000f3fe6080604052600436106101405760003560e01c80637adbf973116100b6578063c38aee381161006f578063c38aee381461042c578063ca3eb44314610455578063cfb5192814610480578063ddca3f43146104bd578063e1c186e3146104e8578063f2fde38b1461051157610140565b80637adbf973146102f45780638da5cb5b1461031d57806393c7002414610348578063a119206414610375578063a9acd416146103b2578063aef0e4ac146103ef57610140565b8063603ef64911610108578063603ef64914610219578063670750321461024457806369fe0e2d1461026f578063715018a61461029857806372281386146102af57806372375078146102d857610140565b806322af00fa14610145578063271b69c21461018557806337441996146101b05780633ccfd60b146101d9578063508954f8146101f0575b600080fd5b34801561015157600080fd5b5061016c60048036038101906101679190611f9f565b61053a565b60405161017c94939291906120c7565b60405180910390f35b34801561019157600080fd5b5061019a61062f565b6040516101a79190612113565b60405180910390f35b3480156101bc57600080fd5b506101d760048036038101906101d29190612299565b610655565b005b3480156101e557600080fd5b506101ee610909565b005b3480156101fc57600080fd5b50610217600480360381019061021291906122f5565b610b3b565b005b34801561022557600080fd5b5061022e610bc1565b60405161023b9190612322565b60405180910390f35b34801561025057600080fd5b50610259610bc7565b6040516102669190612322565b60405180910390f35b34801561027b57600080fd5b5061029660048036038101906102919190611f9f565b610bcd565b005b3480156102a457600080fd5b506102ad610c53565b005b3480156102bb57600080fd5b506102d660048036038101906102d19190612369565b610cdb565b005b6102f260048036038101906102ed9190612396565b610d9b565b005b34801561030057600080fd5b5061031b60048036038101906103169190612369565b611052565b005b34801561032957600080fd5b50610332611112565b60405161033f9190612113565b60405180910390f35b34801561035457600080fd5b5061035d61113c565b60405161036c939291906123df565b60405180910390f35b34801561038157600080fd5b5061039c60048036038101906103979190612396565b6111dc565b6040516103a99190612322565b60405180910390f35b3480156103be57600080fd5b506103d960048036038101906103d4919061241d565b61120a565b6040516103e69190612322565b60405180910390f35b3480156103fb57600080fd5b5061041660048036038101906104119190612396565b61140c565b6040516104239190612322565b60405180910390f35b34801561043857600080fd5b50610453600480360381019061044e9190611f9f565b61143a565b005b34801561046157600080fd5b5061046a6114c0565b6040516104779190612488565b60405180910390f35b34801561048c57600080fd5b506104a760048036038101906104a29190612396565b61158b565b6040516104b49190612488565b60405180910390f35b3480156104c957600080fd5b506104d26115b4565b6040516104df9190612322565b60405180910390f35b3480156104f457600080fd5b5061050f600480360381019061050a9190611f9f565b6115ba565b005b34801561051d57600080fd5b5061053860048036038101906105339190612369565b611684565b005b600d818154811061054a57600080fd5b90600052602060002090600402016000915090508060000160009054906101000a900473ffffffffffffffffffffffffffffffffffffffff1690806001015490806002018054610599906124d2565b80601f01602080910402602001604051908101604052809291908181526020018280546105c5906124d2565b80156106125780601f106105e757610100808354040283529160200191610612565b820191906000526020600020905b8154815290600101906020018083116105f557829003601f168201915b5050505050908060030160009054906101000a900460ff16905084565b600b60009054906101000a900473ffffffffffffffffffffffffffffffffffffffff1681565b816005600082815260200190815260200160002060009054906101000a900473ffffffffffffffffffffffffffffffffffffffff1673ffffffffffffffffffffffffffffffffffffffff163373ffffffffffffffffffffffffffffffffffffffff16146106f7576040517f08c379a00000000000000000000000000000000000000000000000000000000081526004016106ee90612575565b60405180910390fd5b6005600082815260200190815260200160002060006101000a81549073ffffffffffffffffffffffffffffffffffffffff0219169055807f7cc135e0cebb02c3480ae5d74d377283180a2601f8f644edf7987b009316c63a60405160405180910390a27fc93a6fedee8cb8614762d4a2c6a6fac249f043a9d64d1c477c21f2e46b3b6140826040516107899190612595565b60405180910390a160106001016040516107a3919061265a565b60405180910390208280519060200120146107e557600160106000018190555081601060010190816107d5919061281d565b5042601060020181905550610904565b61012c6010600201546107f8919061291e565b4210610903576010600001600081548092919061081490612952565b919050555042601060020181905550600360106000015403610902577fc93a6fedee8cb8614762d4a2c6a6fac249f043a9d64d1c477c21f2e46b3b614060106001016040516108639190612a1e565b60405180910390a16109016010600101805461087e906124d2565b80601f01602080910402602001604051908101604052809291908181526020018280546108aa906124d2565b80156108f75780601f106108cc576101008083540402835291602001916108f7565b820191906000526020600020905b8154815290600101906020018083116108da57829003601f168201915b505050505061177b565b5b5b5b505050565b600080600090505b600d80549050811015610a5f576000600d828154811061093457610933612a40565b5b906000526020600020906004020190503373ffffffffffffffffffffffffffffffffffffffff168160000160009054906101000a900473ffffffffffffffffffffffffffffffffffffffff1673ffffffffffffffffffffffffffffffffffffffff161480156109b257508060030160009054906101000a900460ff16155b15610a4b576109ce8160010154846119fc90919063ffffffff16565b925060018160030160006101000a81548160ff021916908315150217905550610a258160010154600e83600201604051610a089190612afd565b908152602001604051809103902054611a1290919063ffffffff16565b600e82600201604051610a389190612afd565b9081526020016040518091039020819055505b508080610a5790612952565b915050610911565b5060008111610aa3576040517f08c379a0000000000000000000000000000000000000000000000000000000008152600401610a9a90612b60565b60405180910390fd5b3373ffffffffffffffffffffffffffffffffffffffff166108fc829081150290604051600060405180830381858888f19350505050158015610ae9573d6000803e3d6000fd5b503373ffffffffffffffffffffffffffffffffffffffff167f464193b855eb16d5efcea88f1f239b57b2bb2f8877413804c05f825e9e6132c882604051610b309190612ba6565b60405180910390a250565b610b43611a28565b73ffffffffffffffffffffffffffffffffffffffff16610b61611112565b73ffffffffffffffffffffffffffffffffffffffff1614610bb7576040517f08c379a0000000000000000000000000000000000000000000000000000000008152600401610bae90612c20565b60405180910390fd5b8060088190555050565b600a5481565b600c5481565b610bd5611a28565b73ffffffffffffffffffffffffffffffffffffffff16610bf3611112565b73ffffffffffffffffffffffffffffffffffffffff1614610c49576040517f08c379a0000000000000000000000000000000000000000000000000000000008152600401610c4090612c20565b60405180910390fd5b8060098190555050565b610c5b611a28565b73ffffffffffffffffffffffffffffffffffffffff16610c79611112565b73ffffffffffffffffffffffffffffffffffffffff1614610ccf576040517f08c379a0000000000000000000000000000000000000000000000000000000008152600401610cc690612c20565b60405180910390fd5b610cd96000611a30565b565b610ce3611a28565b73ffffffffffffffffffffffffffffffffffffffff16610d01611112565b73ffffffffffffffffffffffffffffffffffffffff1614610d57576040517f08c379a0000000000000000000000000000000000000000000000000000000008152600401610d4e90612c20565b60405180910390fd5b80600b60006101000a81548173ffffffffffffffffffffffffffffffffffffffff021916908373ffffffffffffffffffffffffffffffffffffffff16021790555050565b6040518060400160405280600581526020017f4b656d616c0000000000000000000000000000000000000000000000000000008152508051906020012081805190602001201480610e2e57506040518060400160405280600781526020017f4572646f67616e00000000000000000000000000000000000000000000000000815250805190602001208180519060200120145b610e6d576040517f08c379a0000000000000000000000000000000000000000000000000000000008152600401610e6490612c8c565b60405180910390fd5b600c54421115610eb2576040517f08c379a0000000000000000000000000000000000000000000000000000000008152600401610ea990612cf8565b60405180910390fd5b6000349050600060405180608001604052803373ffffffffffffffffffffffffffffffffffffffff168152602001838152602001848152602001600015158152509050600d81908060018154018082558091505060019003906000526020600020906004020160009091909190915060008201518160000160006101000a81548173ffffffffffffffffffffffffffffffffffffffff021916908373ffffffffffffffffffffffffffffffffffffffff160217905550602082015181600101556040820151816002019081610f87919061281d565b5060608201518160030160006101000a81548160ff0219169083151502179055505050610fdb82600e85604051610fbe9190612d49565b9081526020016040518091039020546119fc90919063ffffffff16565b600e84604051610feb9190612d49565b9081526020016040518091039020819055503373ffffffffffffffffffffffffffffffffffffffff167fcc6833ded30742d7f7c3b02b2a9144fdd7e899726980e967a0a4d09d6aeb20998385604051611045929190612d60565b60405180910390a2505050565b61105a611a28565b73ffffffffffffffffffffffffffffffffffffffff16611078611112565b73ffffffffffffffffffffffffffffffffffffffff16146110ce576040517f08c379a00000000000000000000000000000000000000000000000000000000081526004016110c590612c20565b60405180910390fd5b80600760006101000a81548173ffffffffffffffffffffffffffffffffffffffff021916908373ffffffffffffffffffffffffffffffffffffffff16021790555050565b6000600660009054906101000a900473ffffffffffffffffffffffffffffffffffffffff16905090565b6010806000015490806001018054611153906124d2565b80601f016020809104026020016040519081016040528092919081815260200182805461117f906124d2565b80156111cc5780601f106111a1576101008083540402835291602001916111cc565b820191906000526020600020905b8154815290600101906020018083116111af57829003601f168201915b5050505050908060020154905083565b600f818051602081018201805184825260208301602085012081835280955050505050506000915090505481565b60006040518060400160405280600581526020017f4b656d616c000000000000000000000000000000000000000000000000000000815250805190602001208280519060200120148061129f57506040518060400160405280600781526020017f4572646f67616e00000000000000000000000000000000000000000000000000815250805190602001208280519060200120145b6112de576040517f08c379a00000000000000000000000000000000000000000000000000000000081526004016112d590612c8c565b60405180910390fd5b6000805b600d80549050811015611401578473ffffffffffffffffffffffffffffffffffffffff16600d828154811061131a57611319612a40565b5b906000526020600020906004020160000160009054906101000a900473ffffffffffffffffffffffffffffffffffffffff1673ffffffffffffffffffffffffffffffffffffffff161480156113ae57508380519060200120600d828154811061138657611385612a40565b5b90600052602060002090600402016002016040516113a4919061265a565b6040518091039020145b156113ee576113eb600d82815481106113ca576113c9612a40565b5b906000526020600020906004020160010154836119fc90919063ffffffff16565b91505b80806113f990612952565b9150506112e2565b508091505092915050565b600e818051602081018201805184825260208301602085012081835280955050505050506000915090505481565b611442611a28565b73ffffffffffffffffffffffffffffffffffffffff16611460611112565b73ffffffffffffffffffffffffffffffffffffffff16146114b6576040517f08c379a00000000000000000000000000000000000000000000000000000000081526004016114ad90612c20565b60405180910390fd5b80600c8190555050565b60006114ca611a28565b73ffffffffffffffffffffffffffffffffffffffff166114e8611112565b73ffffffffffffffffffffffffffffffffffffffff161461153e576040517f08c379a000000000000000000000000000000000000000000000000000000000815260040161153590612c20565b60405180910390fd5b600061155460085430633744199660e01b611af6565b9050611585600760009054906101000a900473ffffffffffffffffffffffffffffffffffffffff1682600954611b27565b91505090565b60008082905060008151036115a6576000801b9150506115af565b60208301519150505b919050565b60095481565b6115c2611a28565b73ffffffffffffffffffffffffffffffffffffffff166115e0611112565b73ffffffffffffffffffffffffffffffffffffffff1614611636576040517f08c379a000000000000000000000000000000000000000000000000000000000815260040161162d90612c20565b60405180910390fd5b600581111561167a576040517f08c379a000000000000000000000000000000000000000000000000000000000815260040161167190612e02565b60405180910390fd5b80600a8190555050565b61168c611a28565b73ffffffffffffffffffffffffffffffffffffffff166116aa611112565b73ffffffffffffffffffffffffffffffffffffffff1614611700576040517f08c379a00000000000000000000000000000000000000000000000000000000081526004016116f790612c20565b60405180910390fd5b600073ffffffffffffffffffffffffffffffffffffffff168173ffffffffffffffffffffffffffffffffffffffff160361176f576040517f08c379a000000000000000000000000000000000000000000000000000000000815260040161176690612e94565b60405180910390fd5b61177881611a30565b50565b6000600e8260405161178d9190612d49565b9081526020016040518091039020549050600081036117ac57506119f9565b600081905080600f846040516117c29190612d49565b90815260200160405180910390208190555060005b600d8054905081101561195f578380519060200120600d8281548110611800576117ff612a40565b5b906000526020600020906004020160020160405161181e919061265a565b60405180910390200361194c5760006118778461186985600d868154811061184957611848612a40565b5b906000526020600020906004020160010154611bf390919063ffffffff16565b611c0990919063ffffffff16565b905060006118a36064611895600a5485611bf390919063ffffffff16565b611c0990919063ffffffff16565b905060006118ba8284611a1290919063ffffffff16565b9050600d84815481106118d0576118cf612a40565b5b906000526020600020906004020160000160009054906101000a900473ffffffffffffffffffffffffffffffffffffffff1673ffffffffffffffffffffffffffffffffffffffff166108fc829081150290604051600060405180830381858888f19350505050158015611947573d6000803e3d6000fd5b505050505b808061195790612952565b9150506117d7565b50600061198a606461197c600a5485611bf390919063ffffffff16565b611c0990919063ffffffff16565b9050600b60009054906101000a900473ffffffffffffffffffffffffffffffffffffffff1673ffffffffffffffffffffffffffffffffffffffff166108fc829081150290604051600060405180830381858888f193505050501580156119f4573d6000803e3d6000fd5b505050505b50565b60008183611a0a919061291e565b905092915050565b60008183611a209190612eb4565b905092915050565b600033905090565b6000600660009054906101000a900473ffffffffffffffffffffffffffffffffffffffff16905081600660006101000a81548173ffffffffffffffffffffffffffffffffffffffff021916908373ffffffffffffffffffffffffffffffffffffffff1602179055508173ffffffffffffffffffffffffffffffffffffffff168173ffffffffffffffffffffffffffffffffffffffff167f8be0079c531659141344cd1fd0a4f28419497f9722a3daafe3b4186f6b6457e060405160405180910390a35050565b611afe611ece565b611b06611ece565b611b1d85858584611c1f909392919063ffffffff16565b9150509392505050565b6000806004549050600181611b3c919061291e565b6004819055506000634042994660e01b60008087600001513089604001518760018c6080015160000151604051602401611b7d989796959493929190612f78565b604051602081830303815290604052907bffffffffffffffffffffffffffffffffffffffffffffffffffffffff19166020820180517bffffffffffffffffffffffffffffffffffffffffffffffffffffffff83818316178352505050509050611be886838684611ccf565b925050509392505050565b60008183611c019190612ffd565b905092915050565b60008183611c17919061306e565b905092915050565b611c27611ece565b611c378560800151610100611e64565b508385600001818152505082856020019073ffffffffffffffffffffffffffffffffffffffff16908173ffffffffffffffffffffffffffffffffffffffff16815250508185604001907bffffffffffffffffffffffffffffffffffffffffffffffffffffffff191690817bffffffffffffffffffffffffffffffffffffffffffffffffffffffff191681525050849050949350505050565b60003084604051602001611ce492919061314e565b604051602081830303815290604052805190602001209050846005600083815260200190815260200160002060006101000a81548173ffffffffffffffffffffffffffffffffffffffff021916908373ffffffffffffffffffffffffffffffffffffffff160217905550807fb5e6e01e79f91267dc17b4e6314d5d4d03593d2ceee0fbb452b750bd70ea5af960405160405180910390a2600260009054906101000a900473ffffffffffffffffffffffffffffffffffffffff1673ffffffffffffffffffffffffffffffffffffffff16634000aea08685856040518463ffffffff1660e01b8152600401611dda9392919061317a565b6020604051808303816000875af1158015611df9573d6000803e3d6000fd5b505050506040513d601f19601f82011682018060405250810190611e1d91906131e4565b611e5c576040517f08c379a0000000000000000000000000000000000000000000000000000000008152600401611e5390613283565b60405180910390fd5b949350505050565b611e6c611f3b565b6000602083611e7b91906132a3565b14611ea757602082611e8d91906132a3565b6020611e999190612eb4565b82611ea4919061291e565b91505b81836020018181525050604051808452600081528281016020016040525082905092915050565b6040518060a0016040528060008019168152602001600073ffffffffffffffffffffffffffffffffffffffff16815260200160007bffffffffffffffffffffffffffffffffffffffffffffffffffffffff1916815260200160008152602001611f35611f3b565b81525090565b604051806040016040528060608152602001600081525090565b6000604051905090565b600080fd5b600080fd5b6000819050919050565b611f7c81611f69565b8114611f8757600080fd5b50565b600081359050611f9981611f73565b92915050565b600060208284031215611fb557611fb4611f5f565b5b6000611fc384828501611f8a565b91505092915050565b600073ffffffffffffffffffffffffffffffffffffffff82169050919050565b6000611ff782611fcc565b9050919050565b61200781611fec565b82525050565b61201681611f69565b82525050565b600081519050919050565b600082825260208201905092915050565b60005b8381101561205657808201518184015260208101905061203b565b60008484015250505050565b6000601f19601f8301169050919050565b600061207e8261201c565b6120888185612027565b9350612098818560208601612038565b6120a181612062565b840191505092915050565b60008115159050919050565b6120c1816120ac565b82525050565b60006080820190506120dc6000830187611ffe565b6120e9602083018661200d565b81810360408301526120fb8185612073565b905061210a60608301846120b8565b95945050505050565b60006020820190506121286000830184611ffe565b92915050565b6000819050919050565b6121418161212e565b811461214c57600080fd5b50565b60008135905061215e81612138565b92915050565b600080fd5b600080fd5b7f4e487b7100000000000000000000000000000000000000000000000000000000600052604160045260246000fd5b6121a682612062565b810181811067ffffffffffffffff821117156121c5576121c461216e565b5b80604052505050565b60006121d8611f55565b90506121e4828261219d565b919050565b600067ffffffffffffffff8211156122045761220361216e565b5b61220d82612062565b9050602081019050919050565b82818337600083830152505050565b600061223c612237846121e9565b6121ce565b90508281526020810184848401111561225857612257612169565b5b61226384828561221a565b509392505050565b600082601f8301126122805761227f612164565b5b8135612290848260208601612229565b91505092915050565b600080604083850312156122b0576122af611f5f565b5b60006122be8582860161214f565b925050602083013567ffffffffffffffff8111156122df576122de611f64565b5b6122eb8582860161226b565b9150509250929050565b60006020828403121561230b5761230a611f5f565b5b60006123198482850161214f565b91505092915050565b6000602082019050612337600083018461200d565b92915050565b61234681611fec565b811461235157600080fd5b50565b6000813590506123638161233d565b92915050565b60006020828403121561237f5761237e611f5f565b5b600061238d84828501612354565b91505092915050565b6000602082840312156123ac576123ab611f5f565b5b600082013567ffffffffffffffff8111156123ca576123c9611f64565b5b6123d68482850161226b565b91505092915050565b60006060820190506123f4600083018661200d565b81810360208301526124068185612073565b9050612415604083018461200d565b949350505050565b6000806040838503121561243457612433611f5f565b5b600061244285828601612354565b925050602083013567ffffffffffffffff81111561246357612462611f64565b5b61246f8582860161226b565b9150509250929050565b6124828161212e565b82525050565b600060208201905061249d6000830184612479565b92915050565b7f4e487b7100000000000000000000000000000000000000000000000000000000600052602260045260246000fd5b600060028204905060018216806124ea57607f821691505b6020821081036124fd576124fc6124a3565b5b50919050565b7f536f75726365206d75737420626520746865206f7261636c65206f662074686560008201527f2072657175657374000000000000000000000000000000000000000000000000602082015250565b600061255f602883612027565b915061256a82612503565b604082019050919050565b6000602082019050818103600083015261258e81612552565b9050919050565b600060208201905081810360008301526125af8184612073565b905092915050565b600081905092915050565b60008190508160005260206000209050919050565b600081546125e4816124d2565b6125ee81866125b7565b94506001821660008114612609576001811461261e57612651565b60ff1983168652811515820286019350612651565b612627856125c2565b60005b838110156126495781548189015260018201915060208101905061262a565b838801955050505b50505092915050565b600061266682846125d7565b915081905092915050565b60008190508160005260206000209050919050565b60006020601f8301049050919050565b600082821b905092915050565b6000600883026126d37fffffffffffffffffffffffffffffffffffffffffffffffffffffffffffffffff82612696565b6126dd8683612696565b95508019841693508086168417925050509392505050565b6000819050919050565b600061271a61271561271084611f69565b6126f5565b611f69565b9050919050565b6000819050919050565b612734836126ff565b61274861274082612721565b8484546126a3565b825550505050565b600090565b61275d612750565b61276881848461272b565b505050565b5b8181101561278c57612781600082612755565b60018101905061276e565b5050565b601f8211156127d1576127a281612671565b6127ab84612686565b810160208510156127ba578190505b6127ce6127c685612686565b83018261276d565b50505b505050565b600082821c905092915050565b60006127f4600019846008026127d6565b1980831691505092915050565b600061280d83836127e3565b9150826002028217905092915050565b6128268261201c565b67ffffffffffffffff81111561283f5761283e61216e565b5b61284982546124d2565b612854828285612790565b600060209050601f8311600181146128875760008415612875578287015190505b61287f8582612801565b8655506128e7565b601f19841661289586612671565b60005b828110156128bd57848901518255600182019150602085019450602081019050612898565b868310156128da57848901516128d6601f8916826127e3565b8355505b6001600288020188555050505b505050505050565b7f4e487b7100000000000000000000000000000000000000000000000000000000600052601160045260246000fd5b600061292982611f69565b915061293483611f69565b925082820190508082111561294c5761294b6128ef565b5b92915050565b600061295d82611f69565b91507fffffffffffffffffffffffffffffffffffffffffffffffffffffffffffffffff820361298f5761298e6128ef565b5b600182019050919050565b600081546129a7816124d2565b6129b18186612027565b945060018216600081146129cc57600181146129e257612a15565b60ff198316865281151560200286019350612a15565b6129eb85612671565b60005b83811015612a0d578154818901526001820191506020810190506129ee565b808801955050505b50505092915050565b60006020820190508181036000830152612a38818461299a565b905092915050565b7f4e487b7100000000000000000000000000000000000000000000000000000000600052603260045260246000fd5b600081905092915050565b60008154612a87816124d2565b612a918186612a6f565b94506001821660008114612aac5760018114612ac157612af4565b60ff1983168652811515820286019350612af4565b612aca85612671565b60005b83811015612aec57815481890152600182019150602081019050612acd565b838801955050505b50505092915050565b6000612b098284612a7a565b915081905092915050565b7f4e6f206265747320746f20776974686472617700000000000000000000000000600082015250565b6000612b4a601383612027565b9150612b5582612b14565b602082019050919050565b60006020820190508181036000830152612b7981612b3d565b9050919050565b50565b6000612b90600083612027565b9150612b9b82612b80565b600082019050919050565b6000604082019050612bbb600083018461200d565b8181036020830152612bcc81612b83565b905092915050565b7f4f776e61626c653a2063616c6c6572206973206e6f7420746865206f776e6572600082015250565b6000612c0a602083612027565b9150612c1582612bd4565b602082019050919050565b60006020820190508181036000830152612c3981612bfd565b9050919050565b7f496e76616c69642063616e646964617465000000000000000000000000000000600082015250565b6000612c76601183612027565b9150612c8182612c40565b602082019050919050565b60006020820190508181036000830152612ca581612c69565b9050919050565b7f42657474696e672068617320656e646564000000000000000000000000000000600082015250565b6000612ce2601183612027565b9150612ced82612cac565b602082019050919050565b60006020820190508181036000830152612d1181612cd5565b9050919050565b6000612d238261201c565b612d2d8185612a6f565b9350612d3d818560208601612038565b80840191505092915050565b6000612d558284612d18565b915081905092915050565b6000604082019050612d75600083018561200d565b8181036020830152612d878184612073565b90509392505050565b7f53657276696365206665652070657263656e746167652073686f756c64206e6f60008201527f7420657863656564203500000000000000000000000000000000000000000000602082015250565b6000612dec602a83612027565b9150612df782612d90565b604082019050919050565b60006020820190508181036000830152612e1b81612ddf565b9050919050565b7f4f776e61626c653a206e6577206f776e657220697320746865207a65726f206160008201527f6464726573730000000000000000000000000000000000000000000000000000602082015250565b6000612e7e602683612027565b9150612e8982612e22565b604082019050919050565b60006020820190508181036000830152612ead81612e71565b9050919050565b6000612ebf82611f69565b9150612eca83611f69565b9250828203905081811115612ee257612ee16128ef565b5b92915050565b60007fffffffff0000000000000000000000000000000000000000000000000000000082169050919050565b612f1d81612ee8565b82525050565b600081519050919050565b600082825260208201905092915050565b6000612f4a82612f23565b612f548185612f2e565b9350612f64818560208601612038565b612f6d81612062565b840191505092915050565b600061010082019050612f8e600083018b611ffe565b612f9b602083018a61200d565b612fa86040830189612479565b612fb56060830188611ffe565b612fc26080830187612f14565b612fcf60a083018661200d565b612fdc60c083018561200d565b81810360e0830152612fee8184612f3f565b90509998505050505050505050565b600061300882611f69565b915061301383611f69565b925082820261302181611f69565b91508282048414831517613038576130376128ef565b5b5092915050565b7f4e487b7100000000000000000000000000000000000000000000000000000000600052601260045260246000fd5b600061307982611f69565b915061308483611f69565b9250826130945761309361303f565b5b828204905092915050565b60006130ba6130b56130b084611fcc565b6126f5565b611fcc565b9050919050565b60006130cc8261309f565b9050919050565b60006130de826130c1565b9050919050565b60008160601b9050919050565b60006130fd826130e5565b9050919050565b600061310f826130f2565b9050919050565b613127613122826130d3565b613104565b82525050565b6000819050919050565b61314861314382611f69565b61312d565b82525050565b600061315a8285613116565b60148201915061316a8284613137565b6020820191508190509392505050565b600060608201905061318f6000830186611ffe565b61319c602083018561200d565b81810360408301526131ae8184612f3f565b9050949350505050565b6131c1816120ac565b81146131cc57600080fd5b50565b6000815190506131de816131b8565b92915050565b6000602082840312156131fa576131f9611f5f565b5b6000613208848285016131cf565b91505092915050565b7f756e61626c6520746f207472616e73666572416e6443616c6c20746f206f726160008201527f636c650000000000000000000000000000000000000000000000000000000000602082015250565b600061326d602383612027565b915061327882613211565b604082019050919050565b6000602082019050818103600083015261329c81613260565b9050919050565b60006132ae82611f69565b91506132b983611f69565b9250826132c9576132c861303f565b5b82820690509291505056fea2646970667358221220cbcf4afebf2cdb461d85768247bb465c3c5f0f2230f3350405e8fbba028155f864736f6c63430008130033",
  "linkReferences": {},
  "deployedLinkReferences": {}
}