{
  "_format": "hh-sol-artifact-1",
  "contractName": "ElectionBet",
  "sourceName": "contracts/ElectionBet.sol",
  "abi": [
    {
      "inputs": [
        {
          "internalType": "address",
          "name": "_oracle",
          "type": "address"
        },
        {
          "internalType": "string",
          "name": "_jobId",
          "type": "string"
        },
        {
          "internalType": "uint256",
          "name": "_fee",
          "type": "uint256"
        },
        {
          "internalType": "uint256",
          "name": "_serviceFeePercentage",
          "type": "uint256"
        },
        {
          "internalType": "address",
          "name": "_serviceFeeWallet",
          "type": "address"
        },
        {
          "internalType": "uint256",
          "name": "_bettingEndTime",
          "type": "uint256"
        }
      ],
      "stateMutability": "nonpayable",
      "type": "constructor"
    },
    {
      "anonymous": false,
      "inputs": [
        {
          "indexed": true,
          "internalType": "address",
          "name": "bettor",
          "type": "address"
        },
        {
          "indexed": false,
          "internalType": "uint256",
          "name": "amount",
          "type": "uint256"
        },
        {
          "indexed": false,
          "internalType": "string",
          "name": "candidate",
          "type": "string"
        }
      ],
      "name": "BetMade",
      "type": "event"
    },
    {
      "anonymous": false,
      "inputs": [
        {
          "indexed": true,
          "internalType": "address",
          "name": "bettor",
          "type": "address"
        },
        {
          "indexed": false,
          "internalType": "uint256",
          "name": "amount",
          "type": "uint256"
        },
        {
          "indexed": false,
          "internalType": "string",
          "name": "candidate",
          "type": "string"
        }
      ],
      "name": "BetWithdrawn",
      "type": "event"
    },
    {
      "anonymous": false,
      "inputs": [
        {
          "indexed": true,
          "internalType": "bytes32",
          "name": "id",
          "type": "bytes32"
        }
      ],
      "name": "ChainlinkCancelled",
      "type": "event"
    },
    {
      "anonymous": false,
      "inputs": [
        {
          "indexed": true,
          "internalType": "bytes32",
          "name": "id",
          "type": "bytes32"
        }
      ],
      "name": "ChainlinkFulfilled",
      "type": "event"
    },
    {
      "anonymous": false,
      "inputs": [
        {
          "indexed": true,
          "internalType": "bytes32",
          "name": "id",
          "type": "bytes32"
        }
      ],
      "name": "ChainlinkRequested",
      "type": "event"
    },
    {
      "anonymous": false,
      "inputs": [
        {
          "indexed": false,
          "internalType": "string",
          "name": "winner",
          "type": "string"
        }
      ],
      "name": "ElectionResultReceived",
      "type": "event"
    },
    {
      "anonymous": false,
      "inputs": [
        {
          "indexed": true,
          "internalType": "address",
          "name": "previousOwner",
          "type": "address"
        },
        {
          "indexed": true,
          "internalType": "address",
          "name": "newOwner",
          "type": "address"
        }
      ],
      "name": "OwnershipTransferred",
      "type": "event"
    },
    {
      "inputs": [
        {
          "internalType": "uint256",
          "name": "",
          "type": "uint256"
        }
      ],
      "name": "bets",
      "outputs": [
        {
          "internalType": "address",
          "name": "bettor",
          "type": "address"
        },
        {
          "internalType": "uint256",
          "name": "amount",
          "type": "uint256"
        },
        {
          "internalType": "string",
          "name": "candidate",
          "type": "string"
        },
        {
          "internalType": "bool",
          "name": "withdrawn",
          "type": "bool"
        }
      ],
      "stateMutability": "view",
      "type": "function"
    },
    {
      "inputs": [
        {
          "internalType": "address",
          "name": "user",
          "type": "address"
        },
        {
          "internalType": "string",
          "name": "candidate",
          "type": "string"
        }
      ],
      "name": "calculatePossibleWin",
      "outputs": [
        {
          "internalType": "uint256",
          "name": "",
          "type": "uint256"
        }
      ],
      "stateMutability": "view",
      "type": "function"
    },
    {
      "inputs": [
        {
          "internalType": "address",
          "name": "user",
          "type": "address"
        },
        {
          "internalType": "string",
          "name": "candidate",
          "type": "string"
        }
      ],
      "name": "calculateUserBet",
      "outputs": [
        {
          "internalType": "uint256",
          "name": "",
          "type": "uint256"
        }
      ],
      "stateMutability": "view",
      "type": "function"
    },
    {
      "inputs": [],
      "name": "electionConfirmation",
      "outputs": [
        {
          "internalType": "uint256",
          "name": "count",
          "type": "uint256"
        },
        {
          "internalType": "string",
          "name": "result",
          "type": "string"
        },
        {
          "internalType": "uint256",
          "name": "lastConfirmationTimestamp",
          "type": "uint256"
        }
      ],
      "stateMutability": "view",
      "type": "function"
    },
    {
      "inputs": [
        {
          "internalType": "bytes32",
          "name": "_requestId",
          "type": "bytes32"
        },
        {
          "internalType": "string",
          "name": "_winner",
          "type": "string"
        }
      ],
      "name": "fulfill",
      "outputs": [],
      "stateMutability": "nonpayable",
      "type": "function"
    },
    {
      "inputs": [],
      "name": "getElectionResult",
      "outputs": [
        {
          "internalType": "bytes32",
          "name": "requestId",
          "type": "bytes32"
        }
      ],
      "stateMutability": "nonpayable",
      "type": "function"
    },
    {
      "inputs": [
        {
          "internalType": "string",
          "name": "candidate",
          "type": "string"
        }
      ],
      "name": "makeBet",
      "outputs": [],
      "stateMutability": "payable",
      "type": "function"
    },
    {
      "inputs": [],
      "name": "owner",
      "outputs": [
        {
          "internalType": "address",
          "name": "",
          "type": "address"
        }
      ],
      "stateMutability": "view",
      "type": "function"
    },
    {
      "inputs": [],
      "name": "renounceOwnership",
      "outputs": [],
      "stateMutability": "nonpayable",
      "type": "function"
    },
    {
      "inputs": [
        {
          "internalType": "uint256",
          "name": "_bettingEndTime",
          "type": "uint256"
        }
      ],
      "name": "setBettingEndTime",
      "outputs": [],
      "stateMutability": "nonpayable",
      "type": "function"
    },
    {
      "inputs": [
        {
          "internalType": "uint256",
          "name": "_fee",
          "type": "uint256"
        }
      ],
      "name": "setFee",
      "outputs": [],
      "stateMutability": "nonpayable",
      "type": "function"
    },
    {
      "inputs": [
        {
          "internalType": "bytes32",
          "name": "_jobId",
          "type": "bytes32"
        }
      ],
      "name": "setJobId",
      "outputs": [],
      "stateMutability": "nonpayable",
      "type": "function"
    },
    {
      "inputs": [
        {
          "internalType": "address",
          "name": "_oracle",
          "type": "address"
        }
      ],
      "name": "setOracle",
      "outputs": [],
      "stateMutability": "nonpayable",
      "type": "function"
    },
    {
      "inputs": [
        {
          "internalType": "uint256",
          "name": "_serviceFeePercentage",
          "type": "uint256"
        }
      ],
      "name": "setServiceFeePercentage",
      "outputs": [],
      "stateMutability": "nonpayable",
      "type": "function"
    },
    {
      "inputs": [
        {
          "internalType": "address",
          "name": "_serviceFeeWallet",
          "type": "address"
        }
      ],
      "name": "setServiceFeeWallet",
      "outputs": [],
      "stateMutability": "nonpayable",
      "type": "function"
    },
    {
      "inputs": [
        {
          "internalType": "string",
          "name": "source",
          "type": "string"
        }
      ],
      "name": "stringToBytes32",
      "outputs": [
        {
          "internalType": "bytes32",
          "name": "result",
          "type": "bytes32"
        }
      ],
      "stateMutability": "pure",
      "type": "function"
    },
    {
      "inputs": [
        {
          "internalType": "string",
          "name": "",
          "type": "string"
        }
      ],
      "name": "totalBets",
      "outputs": [
        {
          "internalType": "uint256",
          "name": "",
          "type": "uint256"
        }
      ],
      "stateMutability": "view",
      "type": "function"
    },
    {
      "inputs": [
        {
          "internalType": "address",
          "name": "newOwner",
          "type": "address"
        }
      ],
      "name": "transferOwnership",
      "outputs": [],
      "stateMutability": "nonpayable",
      "type": "function"
    },
    {
      "inputs": [
        {
          "internalType": "string",
          "name": "",
          "type": "string"
        }
      ],
      "name": "winnings",
      "outputs": [
        {
          "internalType": "uint256",
          "name": "",
          "type": "uint256"
        }
      ],
      "stateMutability": "view",
      "type": "function"
    },
    {
      "inputs": [],
      "name": "withdraw",
      "outputs": [],
      "stateMutability": "nonpayable",
      "type": "function"
    }
  ],
  "bytecode": "0x608060405260016004553480156200001657600080fd5b5060405162003b7f38038062003b7f83398181016040528101906200003c919062000508565b6200005c620000506200019860201b60201c565b620001a060201b60201c565b6200008173a36085f69e2889c224210f603d836748e7dc00886200026660201b60201c565b85600760006101000a81548173ffffffffffffffffffffffffffffffffffffffff021916908373ffffffffffffffffffffffffffffffffffffffff160217905550620000d385620002aa60201b60201c565b6008819055508360098190555082600a8190555081600b60006101000a81548173ffffffffffffffffffffffffffffffffffffffff021916908373ffffffffffffffffffffffffffffffffffffffff16021790555080600c81905550604051806060016040528060008152602001604051806020016040528060008152508152602001600081525060106000820151816000015560208201518160010190816200017e919062000804565b5060408201518160020155905050505050505050620008eb565b600033905090565b6000600660009054906101000a900473ffffffffffffffffffffffffffffffffffffffff16905081600660006101000a81548173ffffffffffffffffffffffffffffffffffffffff021916908373ffffffffffffffffffffffffffffffffffffffff1602179055508173ffffffffffffffffffffffffffffffffffffffff168173ffffffffffffffffffffffffffffffffffffffff167f8be0079c531659141344cd1fd0a4f28419497f9722a3daafe3b4186f6b6457e060405160405180910390a35050565b80600260006101000a81548173ffffffffffffffffffffffffffffffffffffffff021916908373ffffffffffffffffffffffffffffffffffffffff16021790555050565b6000808290506000815103620002c7576000801b915050620002d0565b60208301519150505b919050565b6000604051905090565b600080fd5b600080fd5b600073ffffffffffffffffffffffffffffffffffffffff82169050919050565b60006200031682620002e9565b9050919050565b620003288162000309565b81146200033457600080fd5b50565b60008151905062000348816200031d565b92915050565b600080fd5b600080fd5b6000601f19601f8301169050919050565b7f4e487b7100000000000000000000000000000000000000000000000000000000600052604160045260246000fd5b620003a38262000358565b810181811067ffffffffffffffff82111715620003c557620003c462000369565b5b80604052505050565b6000620003da620002d5565b9050620003e8828262000398565b919050565b600067ffffffffffffffff8211156200040b576200040a62000369565b5b620004168262000358565b9050602081019050919050565b60005b838110156200044357808201518184015260208101905062000426565b60008484015250505050565b6000620004666200046084620003ed565b620003ce565b90508281526020810184848401111562000485576200048462000353565b5b6200049284828562000423565b509392505050565b600082601f830112620004b257620004b16200034e565b5b8151620004c48482602086016200044f565b91505092915050565b6000819050919050565b620004e281620004cd565b8114620004ee57600080fd5b50565b6000815190506200050281620004d7565b92915050565b60008060008060008060c08789031215620005285762000527620002df565b5b60006200053889828a0162000337565b965050602087015167ffffffffffffffff8111156200055c576200055b620002e4565b5b6200056a89828a016200049a565b95505060406200057d89828a01620004f1565b94505060606200059089828a01620004f1565b9350506080620005a389828a0162000337565b92505060a0620005b689828a01620004f1565b9150509295509295509295565b600081519050919050565b7f4e487b7100000000000000000000000000000000000000000000000000000000600052602260045260246000fd5b600060028204905060018216806200061657607f821691505b6020821081036200062c576200062b620005ce565b5b50919050565b60008190508160005260206000209050919050565b60006020601f8301049050919050565b600082821b905092915050565b600060088302620006967fffffffffffffffffffffffffffffffffffffffffffffffffffffffffffffffff8262000657565b620006a2868362000657565b95508019841693508086168417925050509392505050565b6000819050919050565b6000620006e5620006df620006d984620004cd565b620006ba565b620004cd565b9050919050565b6000819050919050565b6200070183620006c4565b620007196200071082620006ec565b84845462000664565b825550505050565b600090565b6200073062000721565b6200073d818484620006f6565b505050565b5b8181101562000765576200075960008262000726565b60018101905062000743565b5050565b601f821115620007b4576200077e8162000632565b620007898462000647565b8101602085101562000799578190505b620007b1620007a88562000647565b83018262000742565b50505b505050565b600082821c905092915050565b6000620007d960001984600802620007b9565b1980831691505092915050565b6000620007f48383620007c6565b9150826002028217905092915050565b6200080f82620005c3565b67ffffffffffffffff8111156200082b576200082a62000369565b5b620008378254620005fd565b6200084482828562000769565b600060209050601f8311600181146200087c576000841562000867578287015190505b620008738582620007e6565b865550620008e3565b601f1984166200088c8662000632565b60005b82811015620008b6578489015182556001820191506020850194506020810190506200088f565b86831015620008d65784890151620008d2601f891682620007c6565b8355505b6001600288020188555050505b505050505050565b61328480620008fb6000396000f3fe60806040526004361061011f5760003560e01c806393c70024116100a0578063ca3eb44311610064578063ca3eb443146103b3578063cda29064146103de578063cfb519281461041b578063e1c186e314610458578063f2fde38b146104815761011f565b806393c70024146102a6578063a1192064146102d3578063a9acd41614610310578063aef0e4ac1461034d578063c38aee381461038a5761011f565b8063715018a6116100e7578063715018a6146101f6578063722813861461020d57806372375078146102365780637adbf973146102525780638da5cb5b1461027b5761011f565b806322af00fa1461012457806337441996146101645780633ccfd60b1461018d578063508954f8146101a457806369fe0e2d146101cd575b600080fd5b34801561013057600080fd5b5061014b60048036038101906101469190611f19565b6104aa565b60405161015b9493929190612041565b60405180910390f35b34801561017057600080fd5b5061018b600480360381019061018691906121f8565b61059f565b005b34801561019957600080fd5b506101a2610853565b005b3480156101b057600080fd5b506101cb60048036038101906101c69190612254565b610a5d565b005b3480156101d957600080fd5b506101f460048036038101906101ef9190611f19565b610ae3565b005b34801561020257600080fd5b5061020b610b69565b005b34801561021957600080fd5b50610234600480360381019061022f91906122ad565b610bf1565b005b610250600480360381019061024b91906122da565b610cb1565b005b34801561025e57600080fd5b50610279600480360381019061027491906122ad565b610f4a565b005b34801561028757600080fd5b5061029061100a565b60405161029d9190612323565b60405180910390f35b3480156102b257600080fd5b506102bb611034565b6040516102ca9392919061233e565b60405180910390f35b3480156102df57600080fd5b506102fa60048036038101906102f591906122da565b6110d4565b604051610307919061237c565b60405180910390f35b34801561031c57600080fd5b5061033760048036038101906103329190612397565b611102565b604051610344919061237c565b60405180910390f35b34801561035957600080fd5b50610374600480360381019061036f91906122da565b6112fd565b604051610381919061237c565b60405180910390f35b34801561039657600080fd5b506103b160048036038101906103ac9190611f19565b61132b565b005b3480156103bf57600080fd5b506103c86113b1565b6040516103d59190612402565b60405180910390f35b3480156103ea57600080fd5b5061040560048036038101906104009190612397565b61147c565b604051610412919061237c565b60405180910390f35b34801561042757600080fd5b50610442600480360381019061043d91906122da565b61161c565b60405161044f9190612402565b60405180910390f35b34801561046457600080fd5b5061047f600480360381019061047a9190611f19565b611645565b005b34801561048d57600080fd5b506104a860048036038101906104a391906122ad565b61170f565b005b600d81815481106104ba57600080fd5b90600052602060002090600402016000915090508060000160009054906101000a900473ffffffffffffffffffffffffffffffffffffffff16908060010154908060020180546105099061244c565b80601f01602080910402602001604051908101604052809291908181526020018280546105359061244c565b80156105825780601f1061055757610100808354040283529160200191610582565b820191906000526020600020905b81548152906001019060200180831161056557829003601f168201915b5050505050908060030160009054906101000a900460ff16905084565b816005600082815260200190815260200160002060009054906101000a900473ffffffffffffffffffffffffffffffffffffffff1673ffffffffffffffffffffffffffffffffffffffff163373ffffffffffffffffffffffffffffffffffffffff1614610641576040517f08c379a0000000000000000000000000000000000000000000000000000000008152600401610638906124ef565b60405180910390fd5b6005600082815260200190815260200160002060006101000a81549073ffffffffffffffffffffffffffffffffffffffff0219169055807f7cc135e0cebb02c3480ae5d74d377283180a2601f8f644edf7987b009316c63a60405160405180910390a27fc93a6fedee8cb8614762d4a2c6a6fac249f043a9d64d1c477c21f2e46b3b6140826040516106d3919061250f565b60405180910390a160106001016040516106ed91906125d4565b604051809103902082805190602001201461072f576001601060000181905550816010600101908161071f9190612797565b504260106002018190555061084e565b61012c6010600201546107429190612898565b421061084d576010600001600081548092919061075e906128cc565b91905055504260106002018190555060036010600001540361084c577fc93a6fedee8cb8614762d4a2c6a6fac249f043a9d64d1c477c21f2e46b3b614060106001016040516107ad9190612998565b60405180910390a161084b601060010180546107c89061244c565b80601f01602080910402602001604051908101604052809291908181526020018280546107f49061244c565b80156108415780601f1061081657610100808354040283529160200191610841565b820191906000526020600020905b81548152906001019060200180831161082457829003601f168201915b5050505050611806565b5b5b5b505050565b600080600090505b600d80549050811015610981576000600d828154811061087e5761087d6129ba565b5b906000526020600020906004020190503373ffffffffffffffffffffffffffffffffffffffff168160000160009054906101000a900473ffffffffffffffffffffffffffffffffffffffff1673ffffffffffffffffffffffffffffffffffffffff161480156108fc57508060030160009054906101000a900460ff16155b1561096d578060010154836109119190612898565b925060018160030160006101000a81548160ff0219169083151502179055508060010154600e826002016040516109489190612a77565b908152602001604051809103902060008282546109659190612a8e565b925050819055505b508080610979906128cc565b91505061085b565b50600081116109c5576040517f08c379a00000000000000000000000000000000000000000000000000000000081526004016109bc90612b0e565b60405180910390fd5b3373ffffffffffffffffffffffffffffffffffffffff166108fc829081150290604051600060405180830381858888f19350505050158015610a0b573d6000803e3d6000fd5b503373ffffffffffffffffffffffffffffffffffffffff167f464193b855eb16d5efcea88f1f239b57b2bb2f8877413804c05f825e9e6132c882604051610a529190612b54565b60405180910390a250565b610a656119ce565b73ffffffffffffffffffffffffffffffffffffffff16610a8361100a565b73ffffffffffffffffffffffffffffffffffffffff1614610ad9576040517f08c379a0000000000000000000000000000000000000000000000000000000008152600401610ad090612bce565b60405180910390fd5b8060088190555050565b610aeb6119ce565b73ffffffffffffffffffffffffffffffffffffffff16610b0961100a565b73ffffffffffffffffffffffffffffffffffffffff1614610b5f576040517f08c379a0000000000000000000000000000000000000000000000000000000008152600401610b5690612bce565b60405180910390fd5b8060098190555050565b610b716119ce565b73ffffffffffffffffffffffffffffffffffffffff16610b8f61100a565b73ffffffffffffffffffffffffffffffffffffffff1614610be5576040517f08c379a0000000000000000000000000000000000000000000000000000000008152600401610bdc90612bce565b60405180910390fd5b610bef60006119d6565b565b610bf96119ce565b73ffffffffffffffffffffffffffffffffffffffff16610c1761100a565b73ffffffffffffffffffffffffffffffffffffffff1614610c6d576040517f08c379a0000000000000000000000000000000000000000000000000000000008152600401610c6490612bce565b60405180910390fd5b80600b60006101000a81548173ffffffffffffffffffffffffffffffffffffffff021916908373ffffffffffffffffffffffffffffffffffffffff16021790555050565b6040518060400160405280600581526020017f4b656d616c0000000000000000000000000000000000000000000000000000008152508051906020012081805190602001201480610d4457506040518060400160405280600781526020017f4572646f67616e00000000000000000000000000000000000000000000000000815250805190602001208180519060200120145b610d83576040517f08c379a0000000000000000000000000000000000000000000000000000000008152600401610d7a90612c3a565b60405180910390fd5b600c54421115610dc8576040517f08c379a0000000000000000000000000000000000000000000000000000000008152600401610dbf90612ca6565b60405180910390fd5b6000349050600060405180608001604052803373ffffffffffffffffffffffffffffffffffffffff168152602001838152602001848152602001600015158152509050600d81908060018154018082558091505060019003906000526020600020906004020160009091909190915060008201518160000160006101000a81548173ffffffffffffffffffffffffffffffffffffffff021916908373ffffffffffffffffffffffffffffffffffffffff160217905550602082015181600101556040820151816002019081610e9d9190612797565b5060608201518160030160006101000a81548160ff021916908315150217905550505081600e84604051610ed19190612cf7565b90815260200160405180910390206000828254610eee9190612898565b925050819055503373ffffffffffffffffffffffffffffffffffffffff167fcc6833ded30742d7f7c3b02b2a9144fdd7e899726980e967a0a4d09d6aeb20998385604051610f3d929190612d0e565b60405180910390a2505050565b610f526119ce565b73ffffffffffffffffffffffffffffffffffffffff16610f7061100a565b73ffffffffffffffffffffffffffffffffffffffff1614610fc6576040517f08c379a0000000000000000000000000000000000000000000000000000000008152600401610fbd90612bce565b60405180910390fd5b80600760006101000a81548173ffffffffffffffffffffffffffffffffffffffff021916908373ffffffffffffffffffffffffffffffffffffffff16021790555050565b6000600660009054906101000a900473ffffffffffffffffffffffffffffffffffffffff16905090565b601080600001549080600101805461104b9061244c565b80601f01602080910402602001604051908101604052809291908181526020018280546110779061244c565b80156110c45780601f10611099576101008083540402835291602001916110c4565b820191906000526020600020905b8154815290600101906020018083116110a757829003601f168201915b5050505050908060020154905083565b600f818051602081018201805184825260208301602085012081835280955050505050506000915090505481565b60006040518060400160405280600581526020017f4b656d616c000000000000000000000000000000000000000000000000000000815250805190602001208280519060200120148061119757506040518060400160405280600781526020017f4572646f67616e00000000000000000000000000000000000000000000000000815250805190602001208280519060200120145b6111d6576040517f08c379a00000000000000000000000000000000000000000000000000000000081526004016111cd90612c3a565b60405180910390fd5b6000805b600d805490508110156112f2578473ffffffffffffffffffffffffffffffffffffffff16600d8281548110611212576112116129ba565b5b906000526020600020906004020160000160009054906101000a900473ffffffffffffffffffffffffffffffffffffffff1673ffffffffffffffffffffffffffffffffffffffff161480156112a657508380519060200120600d828154811061127e5761127d6129ba565b5b906000526020600020906004020160020160405161129c91906125d4565b6040518091039020145b156112df57600d81815481106112bf576112be6129ba565b5b906000526020600020906004020160010154826112dc9190612898565b91505b80806112ea906128cc565b9150506111da565b508091505092915050565b600e818051602081018201805184825260208301602085012081835280955050505050506000915090505481565b6113336119ce565b73ffffffffffffffffffffffffffffffffffffffff1661135161100a565b73ffffffffffffffffffffffffffffffffffffffff16146113a7576040517f08c379a000000000000000000000000000000000000000000000000000000000815260040161139e90612bce565b60405180910390fd5b80600c8190555050565b60006113bb6119ce565b73ffffffffffffffffffffffffffffffffffffffff166113d961100a565b73ffffffffffffffffffffffffffffffffffffffff161461142f576040517f08c379a000000000000000000000000000000000000000000000000000000000815260040161142690612bce565b60405180910390fd5b600061144560085430633744199660e01b611a9c565b9050611476600760009054906101000a900473ffffffffffffffffffffffffffffffffffffffff1682600954611acd565b91505090565b60006040518060400160405280600581526020017f4b656d616c000000000000000000000000000000000000000000000000000000815250805190602001208280519060200120148061151157506040518060400160405280600781526020017f4572646f67616e00000000000000000000000000000000000000000000000000815250805190602001208280519060200120145b611550576040517f08c379a000000000000000000000000000000000000000000000000000000000815260040161154790612c3a565b60405180910390fd5b600061155c8484611102565b90506000600e846040516115709190612cf7565b908152602001604051809103902054905060008114806115905750600082145b156115a057600092505050611616565b6000600f856040516115b29190612cf7565b908152602001604051809103902054905060008282856115d29190612d3e565b6115dc9190612daf565b905060006064600a54836115f09190612d3e565b6115fa9190612daf565b90506000818361160a9190612a8e565b90508096505050505050505b92915050565b6000808290506000815103611637576000801b915050611640565b60208301519150505b919050565b61164d6119ce565b73ffffffffffffffffffffffffffffffffffffffff1661166b61100a565b73ffffffffffffffffffffffffffffffffffffffff16146116c1576040517f08c379a00000000000000000000000000000000000000000000000000000000081526004016116b890612bce565b60405180910390fd5b6005811115611705576040517f08c379a00000000000000000000000000000000000000000000000000000000081526004016116fc90612e52565b60405180910390fd5b80600a8190555050565b6117176119ce565b73ffffffffffffffffffffffffffffffffffffffff1661173561100a565b73ffffffffffffffffffffffffffffffffffffffff161461178b576040517f08c379a000000000000000000000000000000000000000000000000000000000815260040161178290612bce565b60405180910390fd5b600073ffffffffffffffffffffffffffffffffffffffff168173ffffffffffffffffffffffffffffffffffffffff16036117fa576040517f08c379a00000000000000000000000000000000000000000000000000000000081526004016117f190612ee4565b60405180910390fd5b611803816119d6565b50565b6000600e826040516118189190612cf7565b90815260200160405180910390205490506000810361183757506119cb565b600081905080600f8460405161184d9190612cf7565b90815260200160405180910390208190555060005b600d805490508110156119c7578380519060200120600d828154811061188b5761188a6129ba565b5b90600052602060002090600402016002016040516118a991906125d4565b6040518091039020036119b45760008383600d84815481106118ce576118cd6129ba565b5b9060005260206000209060040201600101546118ea9190612d3e565b6118f49190612daf565b905060006064600a54836119089190612d3e565b6119129190612daf565b9050600081836119229190612a8e565b9050600d8481548110611938576119376129ba565b5b906000526020600020906004020160000160009054906101000a900473ffffffffffffffffffffffffffffffffffffffff1673ffffffffffffffffffffffffffffffffffffffff166108fc829081150290604051600060405180830381858888f193505050501580156119af573d6000803e3d6000fd5b505050505b80806119bf906128cc565b915050611862565b5050505b50565b600033905090565b6000600660009054906101000a900473ffffffffffffffffffffffffffffffffffffffff16905081600660006101000a81548173ffffffffffffffffffffffffffffffffffffffff021916908373ffffffffffffffffffffffffffffffffffffffff1602179055508173ffffffffffffffffffffffffffffffffffffffff168173ffffffffffffffffffffffffffffffffffffffff167f8be0079c531659141344cd1fd0a4f28419497f9722a3daafe3b4186f6b6457e060405160405180910390a35050565b611aa4611e48565b611aac611e48565b611ac385858584611b99909392919063ffffffff16565b9150509392505050565b6000806004549050600181611ae29190612898565b6004819055506000634042994660e01b60008087600001513089604001518760018c6080015160000151604051602401611b23989796959493929190612f94565b604051602081830303815290604052907bffffffffffffffffffffffffffffffffffffffffffffffffffffffff19166020820180517bffffffffffffffffffffffffffffffffffffffffffffffffffffffff83818316178352505050509050611b8e86838684611c49565b925050509392505050565b611ba1611e48565b611bb18560800151610100611dde565b508385600001818152505082856020019073ffffffffffffffffffffffffffffffffffffffff16908173ffffffffffffffffffffffffffffffffffffffff16815250508185604001907bffffffffffffffffffffffffffffffffffffffffffffffffffffffff191690817bffffffffffffffffffffffffffffffffffffffffffffffffffffffff191681525050849050949350505050565b60003084604051602001611c5e9291906130c8565b604051602081830303815290604052805190602001209050846005600083815260200190815260200160002060006101000a81548173ffffffffffffffffffffffffffffffffffffffff021916908373ffffffffffffffffffffffffffffffffffffffff160217905550807fb5e6e01e79f91267dc17b4e6314d5d4d03593d2ceee0fbb452b750bd70ea5af960405160405180910390a2600260009054906101000a900473ffffffffffffffffffffffffffffffffffffffff1673ffffffffffffffffffffffffffffffffffffffff16634000aea08685856040518463ffffffff1660e01b8152600401611d54939291906130f4565b6020604051808303816000875af1158015611d73573d6000803e3d6000fd5b505050506040513d601f19601f82011682018060405250810190611d97919061315e565b611dd6576040517f08c379a0000000000000000000000000000000000000000000000000000000008152600401611dcd906131fd565b60405180910390fd5b949350505050565b611de6611eb5565b6000602083611df5919061321d565b14611e2157602082611e07919061321d565b6020611e139190612a8e565b82611e1e9190612898565b91505b81836020018181525050604051808452600081528281016020016040525082905092915050565b6040518060a0016040528060008019168152602001600073ffffffffffffffffffffffffffffffffffffffff16815260200160007bffffffffffffffffffffffffffffffffffffffffffffffffffffffff1916815260200160008152602001611eaf611eb5565b81525090565b604051806040016040528060608152602001600081525090565b6000604051905090565b600080fd5b600080fd5b6000819050919050565b611ef681611ee3565b8114611f0157600080fd5b50565b600081359050611f1381611eed565b92915050565b600060208284031215611f2f57611f2e611ed9565b5b6000611f3d84828501611f04565b91505092915050565b600073ffffffffffffffffffffffffffffffffffffffff82169050919050565b6000611f7182611f46565b9050919050565b611f8181611f66565b82525050565b611f9081611ee3565b82525050565b600081519050919050565b600082825260208201905092915050565b60005b83811015611fd0578082015181840152602081019050611fb5565b60008484015250505050565b6000601f19601f8301169050919050565b6000611ff882611f96565b6120028185611fa1565b9350612012818560208601611fb2565b61201b81611fdc565b840191505092915050565b60008115159050919050565b61203b81612026565b82525050565b60006080820190506120566000830187611f78565b6120636020830186611f87565b81810360408301526120758185611fed565b90506120846060830184612032565b95945050505050565b6000819050919050565b6120a08161208d565b81146120ab57600080fd5b50565b6000813590506120bd81612097565b92915050565b600080fd5b600080fd5b7f4e487b7100000000000000000000000000000000000000000000000000000000600052604160045260246000fd5b61210582611fdc565b810181811067ffffffffffffffff82111715612124576121236120cd565b5b80604052505050565b6000612137611ecf565b905061214382826120fc565b919050565b600067ffffffffffffffff821115612163576121626120cd565b5b61216c82611fdc565b9050602081019050919050565b82818337600083830152505050565b600061219b61219684612148565b61212d565b9050828152602081018484840111156121b7576121b66120c8565b5b6121c2848285612179565b509392505050565b600082601f8301126121df576121de6120c3565b5b81356121ef848260208601612188565b91505092915050565b6000806040838503121561220f5761220e611ed9565b5b600061221d858286016120ae565b925050602083013567ffffffffffffffff81111561223e5761223d611ede565b5b61224a858286016121ca565b9150509250929050565b60006020828403121561226a57612269611ed9565b5b6000612278848285016120ae565b91505092915050565b61228a81611f66565b811461229557600080fd5b50565b6000813590506122a781612281565b92915050565b6000602082840312156122c3576122c2611ed9565b5b60006122d184828501612298565b91505092915050565b6000602082840312156122f0576122ef611ed9565b5b600082013567ffffffffffffffff81111561230e5761230d611ede565b5b61231a848285016121ca565b91505092915050565b60006020820190506123386000830184611f78565b92915050565b60006060820190506123536000830186611f87565b81810360208301526123658185611fed565b90506123746040830184611f87565b949350505050565b60006020820190506123916000830184611f87565b92915050565b600080604083850312156123ae576123ad611ed9565b5b60006123bc85828601612298565b925050602083013567ffffffffffffffff8111156123dd576123dc611ede565b5b6123e9858286016121ca565b9150509250929050565b6123fc8161208d565b82525050565b600060208201905061241760008301846123f3565b92915050565b7f4e487b7100000000000000000000000000000000000000000000000000000000600052602260045260246000fd5b6000600282049050600182168061246457607f821691505b6020821081036124775761247661241d565b5b50919050565b7f536f75726365206d75737420626520746865206f7261636c65206f662074686560008201527f2072657175657374000000000000000000000000000000000000000000000000602082015250565b60006124d9602883611fa1565b91506124e48261247d565b604082019050919050565b60006020820190508181036000830152612508816124cc565b9050919050565b600060208201905081810360008301526125298184611fed565b905092915050565b600081905092915050565b60008190508160005260206000209050919050565b6000815461255e8161244c565b6125688186612531565b945060018216600081146125835760018114612598576125cb565b60ff19831686528115158202860193506125cb565b6125a18561253c565b60005b838110156125c3578154818901526001820191506020810190506125a4565b838801955050505b50505092915050565b60006125e08284612551565b915081905092915050565b60008190508160005260206000209050919050565b60006020601f8301049050919050565b600082821b905092915050565b60006008830261264d7fffffffffffffffffffffffffffffffffffffffffffffffffffffffffffffffff82612610565b6126578683612610565b95508019841693508086168417925050509392505050565b6000819050919050565b600061269461268f61268a84611ee3565b61266f565b611ee3565b9050919050565b6000819050919050565b6126ae83612679565b6126c26126ba8261269b565b84845461261d565b825550505050565b600090565b6126d76126ca565b6126e28184846126a5565b505050565b5b81811015612706576126fb6000826126cf565b6001810190506126e8565b5050565b601f82111561274b5761271c816125eb565b61272584612600565b81016020851015612734578190505b61274861274085612600565b8301826126e7565b50505b505050565b600082821c905092915050565b600061276e60001984600802612750565b1980831691505092915050565b6000612787838361275d565b9150826002028217905092915050565b6127a082611f96565b67ffffffffffffffff8111156127b9576127b86120cd565b5b6127c3825461244c565b6127ce82828561270a565b600060209050601f83116001811461280157600084156127ef578287015190505b6127f9858261277b565b865550612861565b601f19841661280f866125eb565b60005b8281101561283757848901518255600182019150602085019450602081019050612812565b868310156128545784890151612850601f89168261275d565b8355505b6001600288020188555050505b505050505050565b7f4e487b7100000000000000000000000000000000000000000000000000000000600052601160045260246000fd5b60006128a382611ee3565b91506128ae83611ee3565b92508282019050808211156128c6576128c5612869565b5b92915050565b60006128d782611ee3565b91507fffffffffffffffffffffffffffffffffffffffffffffffffffffffffffffffff820361290957612908612869565b5b600182019050919050565b600081546129218161244c565b61292b8186611fa1565b94506001821660008114612946576001811461295c5761298f565b60ff19831686528115156020028601935061298f565b612965856125eb565b60005b8381101561298757815481890152600182019150602081019050612968565b808801955050505b50505092915050565b600060208201905081810360008301526129b28184612914565b905092915050565b7f4e487b7100000000000000000000000000000000000000000000000000000000600052603260045260246000fd5b600081905092915050565b60008154612a018161244c565b612a0b81866129e9565b94506001821660008114612a265760018114612a3b57612a6e565b60ff1983168652811515820286019350612a6e565b612a44856125eb565b60005b83811015612a6657815481890152600182019150602081019050612a47565b838801955050505b50505092915050565b6000612a8382846129f4565b915081905092915050565b6000612a9982611ee3565b9150612aa483611ee3565b9250828203905081811115612abc57612abb612869565b5b92915050565b7f4e6f206265747320746f20776974686472617700000000000000000000000000600082015250565b6000612af8601383611fa1565b9150612b0382612ac2565b602082019050919050565b60006020820190508181036000830152612b2781612aeb565b9050919050565b50565b6000612b3e600083611fa1565b9150612b4982612b2e565b600082019050919050565b6000604082019050612b696000830184611f87565b8181036020830152612b7a81612b31565b905092915050565b7f4f776e61626c653a2063616c6c6572206973206e6f7420746865206f776e6572600082015250565b6000612bb8602083611fa1565b9150612bc382612b82565b602082019050919050565b60006020820190508181036000830152612be781612bab565b9050919050565b7f496e76616c69642063616e646964617465000000000000000000000000000000600082015250565b6000612c24601183611fa1565b9150612c2f82612bee565b602082019050919050565b60006020820190508181036000830152612c5381612c17565b9050919050565b7f42657474696e672068617320656e646564000000000000000000000000000000600082015250565b6000612c90601183611fa1565b9150612c9b82612c5a565b602082019050919050565b60006020820190508181036000830152612cbf81612c83565b9050919050565b6000612cd182611f96565b612cdb81856129e9565b9350612ceb818560208601611fb2565b80840191505092915050565b6000612d038284612cc6565b915081905092915050565b6000604082019050612d236000830185611f87565b8181036020830152612d358184611fed565b90509392505050565b6000612d4982611ee3565b9150612d5483611ee3565b9250828202612d6281611ee3565b91508282048414831517612d7957612d78612869565b5b5092915050565b7f4e487b7100000000000000000000000000000000000000000000000000000000600052601260045260246000fd5b6000612dba82611ee3565b9150612dc583611ee3565b925082612dd557612dd4612d80565b5b828204905092915050565b7f53657276696365206665652070657263656e746167652073686f756c64206e6f60008201527f7420657863656564203500000000000000000000000000000000000000000000602082015250565b6000612e3c602a83611fa1565b9150612e4782612de0565b604082019050919050565b60006020820190508181036000830152612e6b81612e2f565b9050919050565b7f4f776e61626c653a206e6577206f776e657220697320746865207a65726f206160008201527f6464726573730000000000000000000000000000000000000000000000000000602082015250565b6000612ece602683611fa1565b9150612ed982612e72565b604082019050919050565b60006020820190508181036000830152612efd81612ec1565b9050919050565b60007fffffffff0000000000000000000000000000000000000000000000000000000082169050919050565b612f3981612f04565b82525050565b600081519050919050565b600082825260208201905092915050565b6000612f6682612f3f565b612f708185612f4a565b9350612f80818560208601611fb2565b612f8981611fdc565b840191505092915050565b600061010082019050612faa600083018b611f78565b612fb7602083018a611f87565b612fc460408301896123f3565b612fd16060830188611f78565b612fde6080830187612f30565b612feb60a0830186611f87565b612ff860c0830185611f87565b81810360e083015261300a8184612f5b565b90509998505050505050505050565b600061303461302f61302a84611f46565b61266f565b611f46565b9050919050565b600061304682613019565b9050919050565b60006130588261303b565b9050919050565b60008160601b9050919050565b60006130778261305f565b9050919050565b60006130898261306c565b9050919050565b6130a161309c8261304d565b61307e565b82525050565b6000819050919050565b6130c26130bd82611ee3565b6130a7565b82525050565b60006130d48285613090565b6014820191506130e482846130b1565b6020820191508190509392505050565b60006060820190506131096000830186611f78565b6131166020830185611f87565b81810360408301526131288184612f5b565b9050949350505050565b61313b81612026565b811461314657600080fd5b50565b60008151905061315881613132565b92915050565b60006020828403121561317457613173611ed9565b5b600061318284828501613149565b91505092915050565b7f756e61626c6520746f207472616e73666572416e6443616c6c20746f206f726160008201527f636c650000000000000000000000000000000000000000000000000000000000602082015250565b60006131e7602383611fa1565b91506131f28261318b565b604082019050919050565b60006020820190508181036000830152613216816131da565b9050919050565b600061322882611ee3565b915061323383611ee3565b92508261324357613242612d80565b5b82820690509291505056fea26469706673582212202ed1070c4b3aa6f997a537e97509a175a775c529690dfe231757ca1bd4bf3d7c64736f6c63430008130033",
  "linkReferences": {},
  "deployedLinkReferences": {}
}