{
  "_format": "hh-sol-artifact-1",
  "contractName": "ElectionBetting",
  "sourceName": "contracts/ElectionBetting.sol",
  "abi": [
    {
      "inputs": [
        {
          "internalType": "address",
          "name": "_oracle",
          "type": "address"
        },
        {
          "internalType": "string",
          "name": "_jobId",
          "type": "string"
        },
        {
          "internalType": "uint256",
          "name": "_fee",
          "type": "uint256"
        },
        {
          "internalType": "uint256",
          "name": "_serviceFeePercentage",
          "type": "uint256"
        },
        {
          "internalType": "address",
          "name": "_serviceFeeWallet",
          "type": "address"
        },
        {
          "internalType": "uint256",
          "name": "_bettingEndTime",
          "type": "uint256"
        }
      ],
      "stateMutability": "nonpayable",
      "type": "constructor"
    },
    {
      "anonymous": false,
      "inputs": [
        {
          "indexed": true,
          "internalType": "address",
          "name": "bettor",
          "type": "address"
        },
        {
          "indexed": false,
          "internalType": "uint256",
          "name": "amount",
          "type": "uint256"
        },
        {
          "indexed": false,
          "internalType": "string",
          "name": "candidate",
          "type": "string"
        }
      ],
      "name": "BetMade",
      "type": "event"
    },
    {
      "anonymous": false,
      "inputs": [
        {
          "indexed": true,
          "internalType": "address",
          "name": "bettor",
          "type": "address"
        },
        {
          "indexed": false,
          "internalType": "uint256",
          "name": "amount",
          "type": "uint256"
        },
        {
          "indexed": false,
          "internalType": "string",
          "name": "candidate",
          "type": "string"
        }
      ],
      "name": "BetWithdrawn",
      "type": "event"
    },
    {
      "anonymous": false,
      "inputs": [
        {
          "indexed": true,
          "internalType": "bytes32",
          "name": "id",
          "type": "bytes32"
        }
      ],
      "name": "ChainlinkCancelled",
      "type": "event"
    },
    {
      "anonymous": false,
      "inputs": [
        {
          "indexed": true,
          "internalType": "bytes32",
          "name": "id",
          "type": "bytes32"
        }
      ],
      "name": "ChainlinkFulfilled",
      "type": "event"
    },
    {
      "anonymous": false,
      "inputs": [
        {
          "indexed": true,
          "internalType": "bytes32",
          "name": "id",
          "type": "bytes32"
        }
      ],
      "name": "ChainlinkRequested",
      "type": "event"
    },
    {
      "anonymous": false,
      "inputs": [
        {
          "indexed": false,
          "internalType": "string",
          "name": "winner",
          "type": "string"
        }
      ],
      "name": "ElectionResultReceived",
      "type": "event"
    },
    {
      "anonymous": false,
      "inputs": [
        {
          "indexed": true,
          "internalType": "address",
          "name": "previousOwner",
          "type": "address"
        },
        {
          "indexed": true,
          "internalType": "address",
          "name": "newOwner",
          "type": "address"
        }
      ],
      "name": "OwnershipTransferred",
      "type": "event"
    },
    {
      "inputs": [
        {
          "internalType": "uint256",
          "name": "",
          "type": "uint256"
        }
      ],
      "name": "bets",
      "outputs": [
        {
          "internalType": "address",
          "name": "bettor",
          "type": "address"
        },
        {
          "internalType": "uint256",
          "name": "amount",
          "type": "uint256"
        },
        {
          "internalType": "string",
          "name": "candidate",
          "type": "string"
        },
        {
          "internalType": "bool",
          "name": "withdrawn",
          "type": "bool"
        }
      ],
      "stateMutability": "view",
      "type": "function"
    },
    {
      "inputs": [],
      "name": "bettingEndTime",
      "outputs": [
        {
          "internalType": "uint256",
          "name": "",
          "type": "uint256"
        }
      ],
      "stateMutability": "view",
      "type": "function"
    },
    {
      "inputs": [
        {
          "internalType": "address",
          "name": "user",
          "type": "address"
        },
        {
          "internalType": "string",
          "name": "candidate",
          "type": "string"
        }
      ],
      "name": "calculateUserBet",
      "outputs": [
        {
          "internalType": "uint256",
          "name": "",
          "type": "uint256"
        }
      ],
      "stateMutability": "view",
      "type": "function"
    },
    {
      "inputs": [
        {
          "internalType": "string",
          "name": "",
          "type": "string"
        }
      ],
      "name": "candidateWinnings",
      "outputs": [
        {
          "internalType": "uint256",
          "name": "",
          "type": "uint256"
        }
      ],
      "stateMutability": "view",
      "type": "function"
    },
    {
      "inputs": [],
      "name": "claimWinnings",
      "outputs": [],
      "stateMutability": "nonpayable",
      "type": "function"
    },
    {
      "inputs": [],
      "name": "electionConfirmation",
      "outputs": [
        {
          "internalType": "uint256",
          "name": "count",
          "type": "uint256"
        },
        {
          "internalType": "string",
          "name": "result",
          "type": "string"
        },
        {
          "internalType": "uint256",
          "name": "lastConfirmationTimestamp",
          "type": "uint256"
        }
      ],
      "stateMutability": "view",
      "type": "function"
    },
    {
      "inputs": [],
      "name": "fee",
      "outputs": [
        {
          "internalType": "uint256",
          "name": "",
          "type": "uint256"
        }
      ],
      "stateMutability": "view",
      "type": "function"
    },
    {
      "inputs": [
        {
          "internalType": "bytes32",
          "name": "_requestId",
          "type": "bytes32"
        },
        {
          "internalType": "string",
          "name": "_winner",
          "type": "string"
        }
      ],
      "name": "fulfill",
      "outputs": [],
      "stateMutability": "nonpayable",
      "type": "function"
    },
    {
      "inputs": [],
      "name": "getElectionResult",
      "outputs": [
        {
          "internalType": "bytes32",
          "name": "requestId",
          "type": "bytes32"
        }
      ],
      "stateMutability": "nonpayable",
      "type": "function"
    },
    {
      "inputs": [
        {
          "internalType": "string",
          "name": "candidate",
          "type": "string"
        }
      ],
      "name": "makeBet",
      "outputs": [],
      "stateMutability": "payable",
      "type": "function"
    },
    {
      "inputs": [],
      "name": "owner",
      "outputs": [
        {
          "internalType": "address",
          "name": "",
          "type": "address"
        }
      ],
      "stateMutability": "view",
      "type": "function"
    },
    {
      "inputs": [],
      "name": "renounceOwnership",
      "outputs": [],
      "stateMutability": "nonpayable",
      "type": "function"
    },
    {
      "inputs": [],
      "name": "serviceFeePercentage",
      "outputs": [
        {
          "internalType": "uint256",
          "name": "",
          "type": "uint256"
        }
      ],
      "stateMutability": "view",
      "type": "function"
    },
    {
      "inputs": [],
      "name": "serviceFeeWallet",
      "outputs": [
        {
          "internalType": "address",
          "name": "",
          "type": "address"
        }
      ],
      "stateMutability": "view",
      "type": "function"
    },
    {
      "inputs": [
        {
          "internalType": "uint256",
          "name": "_bettingEndTime",
          "type": "uint256"
        }
      ],
      "name": "setBettingEndTime",
      "outputs": [],
      "stateMutability": "nonpayable",
      "type": "function"
    },
    {
      "inputs": [
        {
          "internalType": "uint256",
          "name": "_fee",
          "type": "uint256"
        }
      ],
      "name": "setFee",
      "outputs": [],
      "stateMutability": "nonpayable",
      "type": "function"
    },
    {
      "inputs": [
        {
          "internalType": "bytes32",
          "name": "_jobId",
          "type": "bytes32"
        }
      ],
      "name": "setJobId",
      "outputs": [],
      "stateMutability": "nonpayable",
      "type": "function"
    },
    {
      "inputs": [
        {
          "internalType": "address",
          "name": "_oracle",
          "type": "address"
        }
      ],
      "name": "setOracle",
      "outputs": [],
      "stateMutability": "nonpayable",
      "type": "function"
    },
    {
      "inputs": [
        {
          "internalType": "uint256",
          "name": "_serviceFeePercentage",
          "type": "uint256"
        }
      ],
      "name": "setServiceFeePercentage",
      "outputs": [],
      "stateMutability": "nonpayable",
      "type": "function"
    },
    {
      "inputs": [
        {
          "internalType": "address",
          "name": "_serviceFeeWallet",
          "type": "address"
        }
      ],
      "name": "setServiceFeeWallet",
      "outputs": [],
      "stateMutability": "nonpayable",
      "type": "function"
    },
    {
      "inputs": [
        {
          "internalType": "string",
          "name": "source",
          "type": "string"
        }
      ],
      "name": "stringToBytes32",
      "outputs": [
        {
          "internalType": "bytes32",
          "name": "result",
          "type": "bytes32"
        }
      ],
      "stateMutability": "pure",
      "type": "function"
    },
    {
      "inputs": [
        {
          "internalType": "string",
          "name": "",
          "type": "string"
        }
      ],
      "name": "totalBets",
      "outputs": [
        {
          "internalType": "uint256",
          "name": "",
          "type": "uint256"
        }
      ],
      "stateMutability": "view",
      "type": "function"
    },
    {
      "inputs": [
        {
          "internalType": "address",
          "name": "newOwner",
          "type": "address"
        }
      ],
      "name": "transferOwnership",
      "outputs": [],
      "stateMutability": "nonpayable",
      "type": "function"
    },
    {
      "inputs": [
        {
          "internalType": "address",
          "name": "",
          "type": "address"
        }
      ],
      "name": "userBet",
      "outputs": [
        {
          "internalType": "address",
          "name": "bettor",
          "type": "address"
        },
        {
          "internalType": "uint256",
          "name": "amount",
          "type": "uint256"
        },
        {
          "internalType": "string",
          "name": "candidate",
          "type": "string"
        },
        {
          "internalType": "bool",
          "name": "withdrawn",
          "type": "bool"
        }
      ],
      "stateMutability": "view",
      "type": "function"
    },
    {
      "inputs": [
        {
          "internalType": "address",
          "name": "",
          "type": "address"
        }
      ],
      "name": "userWinnings",
      "outputs": [
        {
          "internalType": "uint256",
          "name": "",
          "type": "uint256"
        }
      ],
      "stateMutability": "view",
      "type": "function"
    },
    {
      "inputs": [],
      "name": "withdraw",
      "outputs": [],
      "stateMutability": "nonpayable",
      "type": "function"
    }
  ],
  "bytecode": "0x608060405260016004553480156200001657600080fd5b50604051620046d4380380620046d483398181016040528101906200003c919062000510565b6200005c62000050620001a060201b60201c565b620001a860201b60201c565b60016007819055506200008973a36085f69e2889c224210f603d836748e7dc00886200026e60201b60201c565b85600860006101000a81548173ffffffffffffffffffffffffffffffffffffffff021916908373ffffffffffffffffffffffffffffffffffffffff160217905550620000db85620002b260201b60201c565b60098190555083600a8190555082600b8190555081600c60006101000a81548173ffffffffffffffffffffffffffffffffffffffff021916908373ffffffffffffffffffffffffffffffffffffffff16021790555080600d81905550604051806060016040528060008152602001604051806020016040528060008152508152602001600081525060136000820151816000015560208201518160010190816200018691906200080c565b5060408201518160020155905050505050505050620008f3565b600033905090565b6000600660009054906101000a900473ffffffffffffffffffffffffffffffffffffffff16905081600660006101000a81548173ffffffffffffffffffffffffffffffffffffffff021916908373ffffffffffffffffffffffffffffffffffffffff1602179055508173ffffffffffffffffffffffffffffffffffffffff168173ffffffffffffffffffffffffffffffffffffffff167f8be0079c531659141344cd1fd0a4f28419497f9722a3daafe3b4186f6b6457e060405160405180910390a35050565b80600260006101000a81548173ffffffffffffffffffffffffffffffffffffffff021916908373ffffffffffffffffffffffffffffffffffffffff16021790555050565b6000808290506000815103620002cf576000801b915050620002d8565b60208301519150505b919050565b6000604051905090565b600080fd5b600080fd5b600073ffffffffffffffffffffffffffffffffffffffff82169050919050565b60006200031e82620002f1565b9050919050565b620003308162000311565b81146200033c57600080fd5b50565b600081519050620003508162000325565b92915050565b600080fd5b600080fd5b6000601f19601f8301169050919050565b7f4e487b7100000000000000000000000000000000000000000000000000000000600052604160045260246000fd5b620003ab8262000360565b810181811067ffffffffffffffff82111715620003cd57620003cc62000371565b5b80604052505050565b6000620003e2620002dd565b9050620003f08282620003a0565b919050565b600067ffffffffffffffff82111562000413576200041262000371565b5b6200041e8262000360565b9050602081019050919050565b60005b838110156200044b5780820151818401526020810190506200042e565b60008484015250505050565b60006200046e6200046884620003f5565b620003d6565b9050828152602081018484840111156200048d576200048c6200035b565b5b6200049a8482856200042b565b509392505050565b600082601f830112620004ba57620004b962000356565b5b8151620004cc84826020860162000457565b91505092915050565b6000819050919050565b620004ea81620004d5565b8114620004f657600080fd5b50565b6000815190506200050a81620004df565b92915050565b60008060008060008060c0878903121562000530576200052f620002e7565b5b60006200054089828a016200033f565b965050602087015167ffffffffffffffff811115620005645762000563620002ec565b5b6200057289828a01620004a2565b95505060406200058589828a01620004f9565b94505060606200059889828a01620004f9565b9350506080620005ab89828a016200033f565b92505060a0620005be89828a01620004f9565b9150509295509295509295565b600081519050919050565b7f4e487b7100000000000000000000000000000000000000000000000000000000600052602260045260246000fd5b600060028204905060018216806200061e57607f821691505b602082108103620006345762000633620005d6565b5b50919050565b60008190508160005260206000209050919050565b60006020601f8301049050919050565b600082821b905092915050565b6000600883026200069e7fffffffffffffffffffffffffffffffffffffffffffffffffffffffffffffffff826200065f565b620006aa86836200065f565b95508019841693508086168417925050509392505050565b6000819050919050565b6000620006ed620006e7620006e184620004d5565b620006c2565b620004d5565b9050919050565b6000819050919050565b6200070983620006cc565b620007216200071882620006f4565b8484546200066c565b825550505050565b600090565b6200073862000729565b62000745818484620006fe565b505050565b5b818110156200076d57620007616000826200072e565b6001810190506200074b565b5050565b601f821115620007bc5762000786816200063a565b62000791846200064f565b81016020851015620007a1578190505b620007b9620007b0856200064f565b8301826200074a565b50505b505050565b600082821c905092915050565b6000620007e160001984600802620007c1565b1980831691505092915050565b6000620007fc8383620007ce565b9150826002028217905092915050565b6200081782620005cb565b67ffffffffffffffff81111562000833576200083262000371565b5b6200083f825462000605565b6200084c82828562000771565b600060209050601f8311600181146200088457600084156200086f578287015190505b6200087b8582620007ee565b865550620008eb565b601f19841662000894866200063a565b60005b82811015620008be5784890151825560018201915060208501945060208101905062000897565b86831015620008de5784890151620008da601f891682620007ce565b8355505b6001600288020188555050505b505050505050565b613dd180620009036000396000f3fe6080604052600436106101815760003560e01c80638da5cb5b116100d1578063c38aee381161008a578063dc462a3e11610064578063dc462a3e14610555578063ddca3f4314610592578063e1c186e3146105bd578063f2fde38b146105e657610181565b8063c38aee38146104c4578063ca3eb443146104ed578063cfb519281461051857610181565b80638da5cb5b1461039e57806393c70024146103c9578063a815a4d4146103f6578063a9acd41614610433578063aef0e4ac14610470578063b401faf1146104ad57610181565b8063670750321161013e578063715018a611610118578063715018a614610319578063722813861461033057806372375078146103595780637adbf9731461037557610181565b8063670750321461028557806367ad4ec2146102b057806369fe0e2d146102f057610181565b806322af00fa14610186578063271b69c2146101c657806337441996146101f15780633ccfd60b1461021a578063508954f814610231578063603ef6491461025a575b600080fd5b34801561019257600080fd5b506101ad60048036038101906101a891906127da565b61060f565b6040516101bd9493929190612902565b60405180910390f35b3480156101d257600080fd5b506101db610704565b6040516101e8919061294e565b60405180910390f35b3480156101fd57600080fd5b5061021860048036038101906102139190612ad4565b61072a565b005b34801561022657600080fd5b5061022f6109de565b005b34801561023d57600080fd5b5061025860048036038101906102539190612b30565b610c71565b005b34801561026657600080fd5b5061026f610cf7565b60405161027c9190612b5d565b60405180910390f35b34801561029157600080fd5b5061029a610cfd565b6040516102a79190612b5d565b60405180910390f35b3480156102bc57600080fd5b506102d760048036038101906102d29190612ba4565b610d03565b6040516102e79493929190612902565b60405180910390f35b3480156102fc57600080fd5b50610317600480360381019061031291906127da565b610de8565b005b34801561032557600080fd5b5061032e610e6e565b005b34801561033c57600080fd5b5061035760048036038101906103529190612ba4565b610ef6565b005b610373600480360381019061036e9190612bd1565b610fb6565b005b34801561038157600080fd5b5061039c60048036038101906103979190612ba4565b6113bc565b005b3480156103aa57600080fd5b506103b361147c565b6040516103c0919061294e565b60405180910390f35b3480156103d557600080fd5b506103de6114a6565b6040516103ed93929190612c1a565b60405180910390f35b34801561040257600080fd5b5061041d60048036038101906104189190612ba4565b611546565b60405161042a9190612b5d565b60405180910390f35b34801561043f57600080fd5b5061045a60048036038101906104559190612c58565b61155e565b6040516104679190612b5d565b60405180910390f35b34801561047c57600080fd5b5061049760048036038101906104929190612bd1565b6117ce565b6040516104a49190612b5d565b60405180910390f35b3480156104b957600080fd5b506104c26117fc565b005b3480156104d057600080fd5b506104eb60048036038101906104e691906127da565b611967565b005b3480156104f957600080fd5b506105026119ed565b60405161050f9190612cc3565b60405180910390f35b34801561052457600080fd5b5061053f600480360381019061053a9190612bd1565b611ab8565b60405161054c9190612cc3565b60405180910390f35b34801561056157600080fd5b5061057c60048036038101906105779190612bd1565b611ae1565b6040516105899190612b5d565b60405180910390f35b34801561059e57600080fd5b506105a7611b0f565b6040516105b49190612b5d565b60405180910390f35b3480156105c957600080fd5b506105e460048036038101906105df91906127da565b611b15565b005b3480156105f257600080fd5b5061060d60048036038101906106089190612ba4565b611bdf565b005b600e818154811061061f57600080fd5b90600052602060002090600402016000915090508060000160009054906101000a900473ffffffffffffffffffffffffffffffffffffffff169080600101549080600201805461066e90612d0d565b80601f016020809104026020016040519081016040528092919081815260200182805461069a90612d0d565b80156106e75780601f106106bc576101008083540402835291602001916106e7565b820191906000526020600020905b8154815290600101906020018083116106ca57829003601f168201915b5050505050908060030160009054906101000a900460ff16905084565b600c60009054906101000a900473ffffffffffffffffffffffffffffffffffffffff1681565b816005600082815260200190815260200160002060009054906101000a900473ffffffffffffffffffffffffffffffffffffffff1673ffffffffffffffffffffffffffffffffffffffff163373ffffffffffffffffffffffffffffffffffffffff16146107cc576040517f08c379a00000000000000000000000000000000000000000000000000000000081526004016107c390612db0565b60405180910390fd5b6005600082815260200190815260200160002060006101000a81549073ffffffffffffffffffffffffffffffffffffffff0219169055807f7cc135e0cebb02c3480ae5d74d377283180a2601f8f644edf7987b009316c63a60405160405180910390a27fc93a6fedee8cb8614762d4a2c6a6fac249f043a9d64d1c477c21f2e46b3b61408260405161085e9190612dd0565b60405180910390a160136001016040516108789190612e95565b60405180910390208280519060200120146108ba57600160136000018190555081601360010190816108aa9190613058565b50426013600201819055506109d9565b61012c6013600201546108cd9190613159565b42106109d857601360000160008154809291906108e99061318d565b9190505550426013600201819055506003601360000154036109d7577fc93a6fedee8cb8614762d4a2c6a6fac249f043a9d64d1c477c21f2e46b3b614060136001016040516109389190613259565b60405180910390a16109d66013600101805461095390612d0d565b80601f016020809104026020016040519081016040528092919081815260200182805461097f90612d0d565b80156109cc5780601f106109a1576101008083540402835291602001916109cc565b820191906000526020600020905b8154815290600101906020018083116109af57829003601f168201915b5050505050611cd6565b5b5b5b505050565b600260075403610a23576040517f08c379a0000000000000000000000000000000000000000000000000000000008152600401610a1a906132c7565b60405180910390fd5b60026007819055506000601160003373ffffffffffffffffffffffffffffffffffffffff1673ffffffffffffffffffffffffffffffffffffffff16815260200190815260200160002090506000816001015411610ab5576040517f08c379a0000000000000000000000000000000000000000000000000000000008152600401610aac90613333565b60405180910390fd5b8060030160009054906101000a900460ff1615610b07576040517f08c379a0000000000000000000000000000000000000000000000000000000008152600401610afe9061339f565b60405180910390fd5b600d54421115610b4c576040517f08c379a0000000000000000000000000000000000000000000000000000000008152600401610b439061340b565b60405180910390fd5b60008160010154905060018260030160006101000a81548160ff021916908315150217905550610ba681600f84600201604051610b8991906134b9565b908152602001604051809103902054611d7690919063ffffffff16565b600f83600201604051610bb991906134b9565b9081526020016040518091039020819055503373ffffffffffffffffffffffffffffffffffffffff166108fc829081150290604051600060405180830381858888f19350505050158015610c11573d6000803e3d6000fd5b503373ffffffffffffffffffffffffffffffffffffffff167f464193b855eb16d5efcea88f1f239b57b2bb2f8877413804c05f825e9e6132c88284600201604051610c5d9291906134d0565b60405180910390a250506001600781905550565b610c79611d8c565b73ffffffffffffffffffffffffffffffffffffffff16610c9761147c565b73ffffffffffffffffffffffffffffffffffffffff1614610ced576040517f08c379a0000000000000000000000000000000000000000000000000000000008152600401610ce49061354c565b60405180910390fd5b8060098190555050565b600b5481565b600d5481565b60116020528060005260406000206000915090508060000160009054906101000a900473ffffffffffffffffffffffffffffffffffffffff1690806001015490806002018054610d5290612d0d565b80601f0160208091040260200160405190810160405280929190818152602001828054610d7e90612d0d565b8015610dcb5780601f10610da057610100808354040283529160200191610dcb565b820191906000526020600020905b815481529060010190602001808311610dae57829003601f168201915b5050505050908060030160009054906101000a900460ff16905084565b610df0611d8c565b73ffffffffffffffffffffffffffffffffffffffff16610e0e61147c565b73ffffffffffffffffffffffffffffffffffffffff1614610e64576040517f08c379a0000000000000000000000000000000000000000000000000000000008152600401610e5b9061354c565b60405180910390fd5b80600a8190555050565b610e76611d8c565b73ffffffffffffffffffffffffffffffffffffffff16610e9461147c565b73ffffffffffffffffffffffffffffffffffffffff1614610eea576040517f08c379a0000000000000000000000000000000000000000000000000000000008152600401610ee19061354c565b60405180910390fd5b610ef46000611d94565b565b610efe611d8c565b73ffffffffffffffffffffffffffffffffffffffff16610f1c61147c565b73ffffffffffffffffffffffffffffffffffffffff1614610f72576040517f08c379a0000000000000000000000000000000000000000000000000000000008152600401610f699061354c565b60405180910390fd5b80600c60006101000a81548173ffffffffffffffffffffffffffffffffffffffff021916908373ffffffffffffffffffffffffffffffffffffffff16021790555050565b6040518060400160405280600581526020017f4b656d616c000000000000000000000000000000000000000000000000000000815250805190602001208180519060200120148061104957506040518060400160405280600781526020017f4572646f67616e00000000000000000000000000000000000000000000000000815250805190602001208180519060200120145b611088576040517f08c379a000000000000000000000000000000000000000000000000000000000815260040161107f906135b8565b60405180910390fd5b600d544211156110cd576040517f08c379a00000000000000000000000000000000000000000000000000000000081526004016110c49061340b565b60405180910390fd5b6000601160003373ffffffffffffffffffffffffffffffffffffffff1673ffffffffffffffffffffffffffffffffffffffff1681526020019081526020016000206001015414611152576040517f08c379a000000000000000000000000000000000000000000000000000000000815260040161114990613624565b60405180910390fd5b6000349050600060405180608001604052803373ffffffffffffffffffffffffffffffffffffffff168152602001838152602001848152602001600015158152509050600e81908060018154018082558091505060019003906000526020600020906004020160009091909190915060008201518160000160006101000a81548173ffffffffffffffffffffffffffffffffffffffff021916908373ffffffffffffffffffffffffffffffffffffffff1602179055506020820151816001015560408201518160020190816112279190613058565b5060608201518160030160006101000a81548160ff021916908315150217905550505061127b82600f8560405161125e9190613675565b908152602001604051809103902054611e5a90919063ffffffff16565b600f8460405161128b9190613675565b90815260200160405180910390208190555080601160003373ffffffffffffffffffffffffffffffffffffffff1673ffffffffffffffffffffffffffffffffffffffff16815260200190815260200160002060008201518160000160006101000a81548173ffffffffffffffffffffffffffffffffffffffff021916908373ffffffffffffffffffffffffffffffffffffffff1602179055506020820151816001015560408201518160020190816113439190613058565b5060608201518160030160006101000a81548160ff0219169083151502179055509050503373ffffffffffffffffffffffffffffffffffffffff167fcc6833ded30742d7f7c3b02b2a9144fdd7e899726980e967a0a4d09d6aeb209983856040516113af92919061368c565b60405180910390a2505050565b6113c4611d8c565b73ffffffffffffffffffffffffffffffffffffffff166113e261147c565b73ffffffffffffffffffffffffffffffffffffffff1614611438576040517f08c379a000000000000000000000000000000000000000000000000000000000815260040161142f9061354c565b60405180910390fd5b80600860006101000a81548173ffffffffffffffffffffffffffffffffffffffff021916908373ffffffffffffffffffffffffffffffffffffffff16021790555050565b6000600660009054906101000a900473ffffffffffffffffffffffffffffffffffffffff16905090565b60138060000154908060010180546114bd90612d0d565b80601f01602080910402602001604051908101604052809291908181526020018280546114e990612d0d565b80156115365780601f1061150b57610100808354040283529160200191611536565b820191906000526020600020905b81548152906001019060200180831161151957829003601f168201915b5050505050908060020154905083565b60126020528060005260406000206000915090505481565b60006040518060400160405280600581526020017f4b656d616c00000000000000000000000000000000000000000000000000000081525080519060200120828051906020012014806115f357506040518060400160405280600781526020017f4572646f67616e00000000000000000000000000000000000000000000000000815250805190602001208280519060200120145b611632576040517f08c379a0000000000000000000000000000000000000000000000000000000008152600401611629906135b8565b60405180910390fd5b6000601160008573ffffffffffffffffffffffffffffffffffffffff1673ffffffffffffffffffffffffffffffffffffffff1681526020019081526020016000206040518060800160405290816000820160009054906101000a900473ffffffffffffffffffffffffffffffffffffffff1673ffffffffffffffffffffffffffffffffffffffff1673ffffffffffffffffffffffffffffffffffffffff168152602001600182015481526020016002820180546116ee90612d0d565b80601f016020809104026020016040519081016040528092919081815260200182805461171a90612d0d565b80156117675780601f1061173c57610100808354040283529160200191611767565b820191906000526020600020905b81548152906001019060200180831161174a57829003601f168201915b505050505081526020016003820160009054906101000a900460ff161515151581525050905082805190602001208160400151805190602001201480156117b057508060600151155b156117c25780602001519150506117c8565b60009150505b92915050565b600f818051602081018201805184825260208301602085012081835280955050505050506000915090505481565b600260075403611841576040517f08c379a0000000000000000000000000000000000000000000000000000000008152600401611838906132c7565b60405180910390fd5b60026007819055506000601260003373ffffffffffffffffffffffffffffffffffffffff1673ffffffffffffffffffffffffffffffffffffffff168152602001908152602001600020549050600081116118d0576040517f08c379a00000000000000000000000000000000000000000000000000000000081526004016118c790613708565b60405180910390fd5b6000601260003373ffffffffffffffffffffffffffffffffffffffff1673ffffffffffffffffffffffffffffffffffffffff168152602001908152602001600020819055503373ffffffffffffffffffffffffffffffffffffffff166108fc829081150290604051600060405180830381858888f1935050505015801561195b573d6000803e3d6000fd5b50506001600781905550565b61196f611d8c565b73ffffffffffffffffffffffffffffffffffffffff1661198d61147c565b73ffffffffffffffffffffffffffffffffffffffff16146119e3576040517f08c379a00000000000000000000000000000000000000000000000000000000081526004016119da9061354c565b60405180910390fd5b80600d8190555050565b60006119f7611d8c565b73ffffffffffffffffffffffffffffffffffffffff16611a1561147c565b73ffffffffffffffffffffffffffffffffffffffff1614611a6b576040517f08c379a0000000000000000000000000000000000000000000000000000000008152600401611a629061354c565b60405180910390fd5b6000611a8160095430633744199660e01b611e70565b9050611ab2600860009054906101000a900473ffffffffffffffffffffffffffffffffffffffff1682600a54611ea1565b91505090565b6000808290506000815103611ad3576000801b915050611adc565b60208301519150505b919050565b6010818051602081018201805184825260208301602085012081835280955050505050506000915090505481565b600a5481565b611b1d611d8c565b73ffffffffffffffffffffffffffffffffffffffff16611b3b61147c565b73ffffffffffffffffffffffffffffffffffffffff1614611b91576040517f08c379a0000000000000000000000000000000000000000000000000000000008152600401611b889061354c565b60405180910390fd5b6005811115611bd5576040517f08c379a0000000000000000000000000000000000000000000000000000000008152600401611bcc9061379a565b60405180910390fd5b80600b8190555050565b611be7611d8c565b73ffffffffffffffffffffffffffffffffffffffff16611c0561147c565b73ffffffffffffffffffffffffffffffffffffffff1614611c5b576040517f08c379a0000000000000000000000000000000000000000000000000000000008152600401611c529061354c565b60405180910390fd5b600073ffffffffffffffffffffffffffffffffffffffff168173ffffffffffffffffffffffffffffffffffffffff1603611cca576040517f08c379a0000000000000000000000000000000000000000000000000000000008152600401611cc19061382c565b60405180910390fd5b611cd381611d94565b50565b6000600f82604051611ce89190613675565b908152602001604051809103902054905060008103611d075750611d73565b600081905080601084604051611d1d9190613675565b908152602001604051809103902081905550600060649050600081600183600e80549050611d4b9190613159565b611d55919061384c565b611d5f91906138af565b9050611d6e8560008484611f6d565b505050505b50565b60008183611d84919061384c565b905092915050565b600033905090565b6000600660009054906101000a900473ffffffffffffffffffffffffffffffffffffffff16905081600660006101000a81548173ffffffffffffffffffffffffffffffffffffffff021916908373ffffffffffffffffffffffffffffffffffffffff1602179055508173ffffffffffffffffffffffffffffffffffffffff168173ffffffffffffffffffffffffffffffffffffffff167f8be0079c531659141344cd1fd0a4f28419497f9722a3daafe3b4186f6b6457e060405160405180910390a35050565b60008183611e689190613159565b905092915050565b611e78612709565b611e80612709565b611e978585858461242e909392919063ffffffff16565b9150509392505050565b6000806004549050600181611eb69190613159565b6004819055506000634042994660e01b60008087600001513089604001518760018c6080015160000151604051602401611ef7989796959493929190613970565b604051602081830303815290604052907bffffffffffffffffffffffffffffffffffffffffffffffffffffffff19166020820180517bffffffffffffffffffffffffffffffffffffffffffffffffffffffff83818316178352505050509050611f62868386846124de565b925050509392505050565b6000600f85604051611f7f9190613675565b90815260200160405180910390205490506000601086604051611fa29190613675565b908152602001604051809103902054905060008486611fc191906139f5565b905060008582611fd19190613159565b9050600e80549050811115611fe957600e8054905090505b60008290505b81811015612205578880519060200120600e828154811061201357612012613a37565b5b90600052602060002090600402016002016040516120319190612e95565b6040518091039020036121f257600061208a8661207c87600e868154811061205c5761205b613a37565b5b90600052602060002090600402016001015461267390919063ffffffff16565b61268990919063ffffffff16565b905060006120b660646120a8600b548561267390919063ffffffff16565b61268990919063ffffffff16565b905060006120cd8284611d7690919063ffffffff16565b90506121668160126000600e88815481106120eb576120ea613a37565b5b906000526020600020906004020160000160009054906101000a900473ffffffffffffffffffffffffffffffffffffffff1673ffffffffffffffffffffffffffffffffffffffff1673ffffffffffffffffffffffffffffffffffffffff16815260200190815260200160002054611e5a90919063ffffffff16565b60126000600e878154811061217e5761217d613a37565b5b906000526020600020906004020160000160009054906101000a900473ffffffffffffffffffffffffffffffffffffffff1673ffffffffffffffffffffffffffffffffffffffff1673ffffffffffffffffffffffffffffffffffffffff168152602001908152602001600020819055505050505b80806121fd9061318d565b915050611fef565b50846001886122149190613159565b101561238d5760006001886122299190613159565b905060006113885a61223b919061384c565b905060008a838a8a6040516024016122569493929190613a66565b6040516020818303038152906040527f7c657fb7000000000000000000000000000000000000000000000000000000007bffffffffffffffffffffffffffffffffffffffffffffffffffffffff19166020820180517bffffffffffffffffffffffffffffffffffffffffffffffffffffffff8381831617835250505050905060003073ffffffffffffffffffffffffffffffffffffffff1683836040516122fd9190613ae3565b60006040518083038160008787f1925050503d806000811461233b576040519150601f19603f3d011682016040523d82523d6000602084013e612340565b606091505b5050905080612384576040517f08c379a000000000000000000000000000000000000000000000000000000000815260040161237b90613b46565b60405180910390fd5b50505050612424565b60006123b760646123a9600b548761267390919063ffffffff16565b61268990919063ffffffff16565b9050600c60009054906101000a900473ffffffffffffffffffffffffffffffffffffffff1673ffffffffffffffffffffffffffffffffffffffff166108fc829081150290604051600060405180830381858888f19350505050158015612421573d6000803e3d6000fd5b50505b5050505050505050565b612436612709565b612446856080015161010061269f565b508385600001818152505082856020019073ffffffffffffffffffffffffffffffffffffffff16908173ffffffffffffffffffffffffffffffffffffffff16815250508185604001907bffffffffffffffffffffffffffffffffffffffffffffffffffffffff191690817bffffffffffffffffffffffffffffffffffffffffffffffffffffffff191681525050849050949350505050565b600030846040516020016124f3929190613c15565b604051602081830303815290604052805190602001209050846005600083815260200190815260200160002060006101000a81548173ffffffffffffffffffffffffffffffffffffffff021916908373ffffffffffffffffffffffffffffffffffffffff160217905550807fb5e6e01e79f91267dc17b4e6314d5d4d03593d2ceee0fbb452b750bd70ea5af960405160405180910390a2600260009054906101000a900473ffffffffffffffffffffffffffffffffffffffff1673ffffffffffffffffffffffffffffffffffffffff16634000aea08685856040518463ffffffff1660e01b81526004016125e993929190613c41565b6020604051808303816000875af1158015612608573d6000803e3d6000fd5b505050506040513d601f19601f8201168201806040525081019061262c9190613cab565b61266b576040517f08c379a000000000000000000000000000000000000000000000000000000000815260040161266290613d4a565b60405180910390fd5b949350505050565b6000818361268191906139f5565b905092915050565b6000818361269791906138af565b905092915050565b6126a7612776565b60006020836126b69190613d6a565b146126e2576020826126c89190613d6a565b60206126d4919061384c565b826126df9190613159565b91505b81836020018181525050604051808452600081528281016020016040525082905092915050565b6040518060a0016040528060008019168152602001600073ffffffffffffffffffffffffffffffffffffffff16815260200160007bffffffffffffffffffffffffffffffffffffffffffffffffffffffff1916815260200160008152602001612770612776565b81525090565b604051806040016040528060608152602001600081525090565b6000604051905090565b600080fd5b600080fd5b6000819050919050565b6127b7816127a4565b81146127c257600080fd5b50565b6000813590506127d4816127ae565b92915050565b6000602082840312156127f0576127ef61279a565b5b60006127fe848285016127c5565b91505092915050565b600073ffffffffffffffffffffffffffffffffffffffff82169050919050565b600061283282612807565b9050919050565b61284281612827565b82525050565b612851816127a4565b82525050565b600081519050919050565b600082825260208201905092915050565b60005b83811015612891578082015181840152602081019050612876565b60008484015250505050565b6000601f19601f8301169050919050565b60006128b982612857565b6128c38185612862565b93506128d3818560208601612873565b6128dc8161289d565b840191505092915050565b60008115159050919050565b6128fc816128e7565b82525050565b60006080820190506129176000830187612839565b6129246020830186612848565b818103604083015261293681856128ae565b905061294560608301846128f3565b95945050505050565b60006020820190506129636000830184612839565b92915050565b6000819050919050565b61297c81612969565b811461298757600080fd5b50565b60008135905061299981612973565b92915050565b600080fd5b600080fd5b7f4e487b7100000000000000000000000000000000000000000000000000000000600052604160045260246000fd5b6129e18261289d565b810181811067ffffffffffffffff82111715612a00576129ff6129a9565b5b80604052505050565b6000612a13612790565b9050612a1f82826129d8565b919050565b600067ffffffffffffffff821115612a3f57612a3e6129a9565b5b612a488261289d565b9050602081019050919050565b82818337600083830152505050565b6000612a77612a7284612a24565b612a09565b905082815260208101848484011115612a9357612a926129a4565b5b612a9e848285612a55565b509392505050565b600082601f830112612abb57612aba61299f565b5b8135612acb848260208601612a64565b91505092915050565b60008060408385031215612aeb57612aea61279a565b5b6000612af98582860161298a565b925050602083013567ffffffffffffffff811115612b1a57612b1961279f565b5b612b2685828601612aa6565b9150509250929050565b600060208284031215612b4657612b4561279a565b5b6000612b548482850161298a565b91505092915050565b6000602082019050612b726000830184612848565b92915050565b612b8181612827565b8114612b8c57600080fd5b50565b600081359050612b9e81612b78565b92915050565b600060208284031215612bba57612bb961279a565b5b6000612bc884828501612b8f565b91505092915050565b600060208284031215612be757612be661279a565b5b600082013567ffffffffffffffff811115612c0557612c0461279f565b5b612c1184828501612aa6565b91505092915050565b6000606082019050612c2f6000830186612848565b8181036020830152612c4181856128ae565b9050612c506040830184612848565b949350505050565b60008060408385031215612c6f57612c6e61279a565b5b6000612c7d85828601612b8f565b925050602083013567ffffffffffffffff811115612c9e57612c9d61279f565b5b612caa85828601612aa6565b9150509250929050565b612cbd81612969565b82525050565b6000602082019050612cd86000830184612cb4565b92915050565b7f4e487b7100000000000000000000000000000000000000000000000000000000600052602260045260246000fd5b60006002820490506001821680612d2557607f821691505b602082108103612d3857612d37612cde565b5b50919050565b7f536f75726365206d75737420626520746865206f7261636c65206f662074686560008201527f2072657175657374000000000000000000000000000000000000000000000000602082015250565b6000612d9a602883612862565b9150612da582612d3e565b604082019050919050565b60006020820190508181036000830152612dc981612d8d565b9050919050565b60006020820190508181036000830152612dea81846128ae565b905092915050565b600081905092915050565b60008190508160005260206000209050919050565b60008154612e1f81612d0d565b612e298186612df2565b94506001821660008114612e445760018114612e5957612e8c565b60ff1983168652811515820286019350612e8c565b612e6285612dfd565b60005b83811015612e8457815481890152600182019150602081019050612e65565b838801955050505b50505092915050565b6000612ea18284612e12565b915081905092915050565b60008190508160005260206000209050919050565b60006020601f8301049050919050565b600082821b905092915050565b600060088302612f0e7fffffffffffffffffffffffffffffffffffffffffffffffffffffffffffffffff82612ed1565b612f188683612ed1565b95508019841693508086168417925050509392505050565b6000819050919050565b6000612f55612f50612f4b846127a4565b612f30565b6127a4565b9050919050565b6000819050919050565b612f6f83612f3a565b612f83612f7b82612f5c565b848454612ede565b825550505050565b600090565b612f98612f8b565b612fa3818484612f66565b505050565b5b81811015612fc757612fbc600082612f90565b600181019050612fa9565b5050565b601f82111561300c57612fdd81612eac565b612fe684612ec1565b81016020851015612ff5578190505b61300961300185612ec1565b830182612fa8565b50505b505050565b600082821c905092915050565b600061302f60001984600802613011565b1980831691505092915050565b6000613048838361301e565b9150826002028217905092915050565b61306182612857565b67ffffffffffffffff81111561307a576130796129a9565b5b6130848254612d0d565b61308f828285612fcb565b600060209050601f8311600181146130c257600084156130b0578287015190505b6130ba858261303c565b865550613122565b601f1984166130d086612eac565b60005b828110156130f8578489015182556001820191506020850194506020810190506130d3565b868310156131155784890151613111601f89168261301e565b8355505b6001600288020188555050505b505050505050565b7f4e487b7100000000000000000000000000000000000000000000000000000000600052601160045260246000fd5b6000613164826127a4565b915061316f836127a4565b92508282019050808211156131875761318661312a565b5b92915050565b6000613198826127a4565b91507fffffffffffffffffffffffffffffffffffffffffffffffffffffffffffffffff82036131ca576131c961312a565b5b600182019050919050565b600081546131e281612d0d565b6131ec8186612862565b94506001821660008114613207576001811461321d57613250565b60ff198316865281151560200286019350613250565b61322685612eac565b60005b8381101561324857815481890152600182019150602081019050613229565b808801955050505b50505092915050565b6000602082019050818103600083015261327381846131d5565b905092915050565b7f5265656e7472616e637947756172643a207265656e7472616e742063616c6c00600082015250565b60006132b1601f83612862565b91506132bc8261327b565b602082019050919050565b600060208201905081810360008301526132e0816132a4565b9050919050565b7f4e6f2062657420746f2077697468647261770000000000000000000000000000600082015250565b600061331d601283612862565b9150613328826132e7565b602082019050919050565b6000602082019050818103600083015261334c81613310565b9050919050565b7f42657420616c72656164792077697468647261776e0000000000000000000000600082015250565b6000613389601583612862565b915061339482613353565b602082019050919050565b600060208201905081810360008301526133b88161337c565b9050919050565b7f42657474696e672068617320656e646564000000000000000000000000000000600082015250565b60006133f5601183612862565b9150613400826133bf565b602082019050919050565b60006020820190508181036000830152613424816133e8565b9050919050565b600081905092915050565b6000815461344381612d0d565b61344d818661342b565b94506001821660008114613468576001811461347d576134b0565b60ff19831686528115158202860193506134b0565b61348685612eac565b60005b838110156134a857815481890152600182019150602081019050613489565b838801955050505b50505092915050565b60006134c58284613436565b915081905092915050565b60006040820190506134e56000830185612848565b81810360208301526134f781846131d5565b90509392505050565b7f4f776e61626c653a2063616c6c6572206973206e6f7420746865206f776e6572600082015250565b6000613536602083612862565b915061354182613500565b602082019050919050565b6000602082019050818103600083015261356581613529565b9050919050565b7f496e76616c69642063616e646964617465000000000000000000000000000000600082015250565b60006135a2601183612862565b91506135ad8261356c565b602082019050919050565b600060208201905081810360008301526135d181613595565b9050919050565b7f50726576696f7573206265742065786973747300000000000000000000000000600082015250565b600061360e601383612862565b9150613619826135d8565b602082019050919050565b6000602082019050818103600083015261363d81613601565b9050919050565b600061364f82612857565b613659818561342b565b9350613669818560208601612873565b80840191505092915050565b60006136818284613644565b915081905092915050565b60006040820190506136a16000830185612848565b81810360208301526136b381846128ae565b90509392505050565b7f4e6f2077696e6e696e677320746f20636c61696d000000000000000000000000600082015250565b60006136f2601483612862565b91506136fd826136bc565b602082019050919050565b60006020820190508181036000830152613721816136e5565b9050919050565b7f53657276696365206665652070657263656e746167652073686f756c64206e6f60008201527f7420657863656564203500000000000000000000000000000000000000000000602082015250565b6000613784602a83612862565b915061378f82613728565b604082019050919050565b600060208201905081810360008301526137b381613777565b9050919050565b7f4f776e61626c653a206e6577206f776e657220697320746865207a65726f206160008201527f6464726573730000000000000000000000000000000000000000000000000000602082015250565b6000613816602683612862565b9150613821826137ba565b604082019050919050565b6000602082019050818103600083015261384581613809565b9050919050565b6000613857826127a4565b9150613862836127a4565b925082820390508181111561387a5761387961312a565b5b92915050565b7f4e487b7100000000000000000000000000000000000000000000000000000000600052601260045260246000fd5b60006138ba826127a4565b91506138c5836127a4565b9250826138d5576138d4613880565b5b828204905092915050565b60007fffffffff0000000000000000000000000000000000000000000000000000000082169050919050565b613915816138e0565b82525050565b600081519050919050565b600082825260208201905092915050565b60006139428261391b565b61394c8185613926565b935061395c818560208601612873565b6139658161289d565b840191505092915050565b600061010082019050613986600083018b612839565b613993602083018a612848565b6139a06040830189612cb4565b6139ad6060830188612839565b6139ba608083018761390c565b6139c760a0830186612848565b6139d460c0830185612848565b81810360e08301526139e68184613937565b90509998505050505050505050565b6000613a00826127a4565b9150613a0b836127a4565b9250828202613a19816127a4565b91508282048414831517613a3057613a2f61312a565b5b5092915050565b7f4e487b7100000000000000000000000000000000000000000000000000000000600052603260045260246000fd5b60006080820190508181036000830152613a8081876128ae565b9050613a8f6020830186612848565b613a9c6040830185612848565b613aa96060830184612848565b95945050505050565b6000613abd8261391b565b613ac78185612df2565b9350613ad7818560208601612873565b80840191505092915050565b6000613aef8284613ab2565b915081905092915050565b7f426174636820646973747269627574696f6e206661696c656400000000000000600082015250565b6000613b30601983612862565b9150613b3b82613afa565b602082019050919050565b60006020820190508181036000830152613b5f81613b23565b9050919050565b6000613b81613b7c613b7784612807565b612f30565b612807565b9050919050565b6000613b9382613b66565b9050919050565b6000613ba582613b88565b9050919050565b60008160601b9050919050565b6000613bc482613bac565b9050919050565b6000613bd682613bb9565b9050919050565b613bee613be982613b9a565b613bcb565b82525050565b6000819050919050565b613c0f613c0a826127a4565b613bf4565b82525050565b6000613c218285613bdd565b601482019150613c318284613bfe565b6020820191508190509392505050565b6000606082019050613c566000830186612839565b613c636020830185612848565b8181036040830152613c758184613937565b9050949350505050565b613c88816128e7565b8114613c9357600080fd5b50565b600081519050613ca581613c7f565b92915050565b600060208284031215613cc157613cc061279a565b5b6000613ccf84828501613c96565b91505092915050565b7f756e61626c6520746f207472616e73666572416e6443616c6c20746f206f726160008201527f636c650000000000000000000000000000000000000000000000000000000000602082015250565b6000613d34602383612862565b9150613d3f82613cd8565b604082019050919050565b60006020820190508181036000830152613d6381613d27565b9050919050565b6000613d75826127a4565b9150613d80836127a4565b925082613d9057613d8f613880565b5b82820690509291505056fea2646970667358221220572a7db34c98dd1d894099f9a5c13368b9d48a5991a8196642002d66bc46758e64736f6c63430008130033",
  "linkReferences": {},
  "deployedLinkReferences": {}
}