{
  "_format": "hh-sol-artifact-1",
  "contractName": "ElectionBet",
  "sourceName": "contracts/ElectionBet.sol",
  "abi": [
    {
      "inputs": [
        {
          "internalType": "address",
          "name": "_oracle",
          "type": "address"
        },
        {
          "internalType": "string",
          "name": "_jobId",
          "type": "string"
        },
        {
          "internalType": "uint256",
          "name": "_fee",
          "type": "uint256"
        },
        {
          "internalType": "uint256",
          "name": "_serviceFeePercentage",
          "type": "uint256"
        },
        {
          "internalType": "address",
          "name": "_serviceFeeWallet",
          "type": "address"
        },
        {
          "internalType": "uint256",
          "name": "_bettingEndTime",
          "type": "uint256"
        }
      ],
      "stateMutability": "nonpayable",
      "type": "constructor"
    },
    {
      "anonymous": false,
      "inputs": [
        {
          "indexed": true,
          "internalType": "address",
          "name": "bettor",
          "type": "address"
        },
        {
          "indexed": false,
          "internalType": "uint256",
          "name": "amount",
          "type": "uint256"
        },
        {
          "indexed": false,
          "internalType": "string",
          "name": "candidate",
          "type": "string"
        }
      ],
      "name": "BetMade",
      "type": "event"
    },
    {
      "anonymous": false,
      "inputs": [
        {
          "indexed": true,
          "internalType": "address",
          "name": "bettor",
          "type": "address"
        },
        {
          "indexed": false,
          "internalType": "uint256",
          "name": "amount",
          "type": "uint256"
        },
        {
          "indexed": false,
          "internalType": "string",
          "name": "candidate",
          "type": "string"
        }
      ],
      "name": "BetWithdrawn",
      "type": "event"
    },
    {
      "anonymous": false,
      "inputs": [
        {
          "indexed": true,
          "internalType": "bytes32",
          "name": "id",
          "type": "bytes32"
        }
      ],
      "name": "ChainlinkCancelled",
      "type": "event"
    },
    {
      "anonymous": false,
      "inputs": [
        {
          "indexed": true,
          "internalType": "bytes32",
          "name": "id",
          "type": "bytes32"
        }
      ],
      "name": "ChainlinkFulfilled",
      "type": "event"
    },
    {
      "anonymous": false,
      "inputs": [
        {
          "indexed": true,
          "internalType": "bytes32",
          "name": "id",
          "type": "bytes32"
        }
      ],
      "name": "ChainlinkRequested",
      "type": "event"
    },
    {
      "anonymous": false,
      "inputs": [
        {
          "indexed": false,
          "internalType": "string",
          "name": "winner",
          "type": "string"
        }
      ],
      "name": "ElectionResultReceived",
      "type": "event"
    },
    {
      "anonymous": false,
      "inputs": [
        {
          "indexed": true,
          "internalType": "address",
          "name": "previousOwner",
          "type": "address"
        },
        {
          "indexed": true,
          "internalType": "address",
          "name": "newOwner",
          "type": "address"
        }
      ],
      "name": "OwnershipTransferred",
      "type": "event"
    },
    {
      "inputs": [
        {
          "internalType": "uint256",
          "name": "",
          "type": "uint256"
        }
      ],
      "name": "bets",
      "outputs": [
        {
          "internalType": "address",
          "name": "bettor",
          "type": "address"
        },
        {
          "internalType": "uint256",
          "name": "amount",
          "type": "uint256"
        },
        {
          "internalType": "string",
          "name": "candidate",
          "type": "string"
        },
        {
          "internalType": "bool",
          "name": "withdrawn",
          "type": "bool"
        }
      ],
      "stateMutability": "view",
      "type": "function"
    },
    {
      "inputs": [],
      "name": "bettingEndTime",
      "outputs": [
        {
          "internalType": "uint256",
          "name": "",
          "type": "uint256"
        }
      ],
      "stateMutability": "view",
      "type": "function"
    },
    {
      "inputs": [
        {
          "internalType": "address",
          "name": "user",
          "type": "address"
        },
        {
          "internalType": "string",
          "name": "candidate",
          "type": "string"
        }
      ],
      "name": "calculateUserBet",
      "outputs": [
        {
          "internalType": "uint256",
          "name": "",
          "type": "uint256"
        }
      ],
      "stateMutability": "view",
      "type": "function"
    },
    {
      "inputs": [],
      "name": "claimWinnings",
      "outputs": [],
      "stateMutability": "nonpayable",
      "type": "function"
    },
    {
      "inputs": [],
      "name": "electionConfirmation",
      "outputs": [
        {
          "internalType": "uint256",
          "name": "count",
          "type": "uint256"
        },
        {
          "internalType": "string",
          "name": "result",
          "type": "string"
        },
        {
          "internalType": "uint256",
          "name": "lastConfirmationTimestamp",
          "type": "uint256"
        }
      ],
      "stateMutability": "view",
      "type": "function"
    },
    {
      "inputs": [],
      "name": "fee",
      "outputs": [
        {
          "internalType": "uint256",
          "name": "",
          "type": "uint256"
        }
      ],
      "stateMutability": "view",
      "type": "function"
    },
    {
      "inputs": [
        {
          "internalType": "bytes32",
          "name": "_requestId",
          "type": "bytes32"
        },
        {
          "internalType": "string",
          "name": "_winner",
          "type": "string"
        }
      ],
      "name": "fulfill",
      "outputs": [],
      "stateMutability": "nonpayable",
      "type": "function"
    },
    {
      "inputs": [],
      "name": "getElectionResult",
      "outputs": [
        {
          "internalType": "bytes32",
          "name": "requestId",
          "type": "bytes32"
        }
      ],
      "stateMutability": "nonpayable",
      "type": "function"
    },
    {
      "inputs": [
        {
          "internalType": "string",
          "name": "candidate",
          "type": "string"
        }
      ],
      "name": "makeBet",
      "outputs": [],
      "stateMutability": "payable",
      "type": "function"
    },
    {
      "inputs": [],
      "name": "owner",
      "outputs": [
        {
          "internalType": "address",
          "name": "",
          "type": "address"
        }
      ],
      "stateMutability": "view",
      "type": "function"
    },
    {
      "inputs": [],
      "name": "renounceOwnership",
      "outputs": [],
      "stateMutability": "nonpayable",
      "type": "function"
    },
    {
      "inputs": [],
      "name": "serviceFeePercentage",
      "outputs": [
        {
          "internalType": "uint256",
          "name": "",
          "type": "uint256"
        }
      ],
      "stateMutability": "view",
      "type": "function"
    },
    {
      "inputs": [],
      "name": "serviceFeeWallet",
      "outputs": [
        {
          "internalType": "address",
          "name": "",
          "type": "address"
        }
      ],
      "stateMutability": "view",
      "type": "function"
    },
    {
      "inputs": [
        {
          "internalType": "uint256",
          "name": "_bettingEndTime",
          "type": "uint256"
        }
      ],
      "name": "setBettingEndTime",
      "outputs": [],
      "stateMutability": "nonpayable",
      "type": "function"
    },
    {
      "inputs": [
        {
          "internalType": "uint256",
          "name": "_fee",
          "type": "uint256"
        }
      ],
      "name": "setFee",
      "outputs": [],
      "stateMutability": "nonpayable",
      "type": "function"
    },
    {
      "inputs": [
        {
          "internalType": "bytes32",
          "name": "_jobId",
          "type": "bytes32"
        }
      ],
      "name": "setJobId",
      "outputs": [],
      "stateMutability": "nonpayable",
      "type": "function"
    },
    {
      "inputs": [
        {
          "internalType": "address",
          "name": "_oracle",
          "type": "address"
        }
      ],
      "name": "setOracle",
      "outputs": [],
      "stateMutability": "nonpayable",
      "type": "function"
    },
    {
      "inputs": [
        {
          "internalType": "uint256",
          "name": "_serviceFeePercentage",
          "type": "uint256"
        }
      ],
      "name": "setServiceFeePercentage",
      "outputs": [],
      "stateMutability": "nonpayable",
      "type": "function"
    },
    {
      "inputs": [
        {
          "internalType": "address",
          "name": "_serviceFeeWallet",
          "type": "address"
        }
      ],
      "name": "setServiceFeeWallet",
      "outputs": [],
      "stateMutability": "nonpayable",
      "type": "function"
    },
    {
      "inputs": [
        {
          "internalType": "string",
          "name": "source",
          "type": "string"
        }
      ],
      "name": "stringToBytes32",
      "outputs": [
        {
          "internalType": "bytes32",
          "name": "result",
          "type": "bytes32"
        }
      ],
      "stateMutability": "pure",
      "type": "function"
    },
    {
      "inputs": [
        {
          "internalType": "string",
          "name": "",
          "type": "string"
        }
      ],
      "name": "totalBets",
      "outputs": [
        {
          "internalType": "uint256",
          "name": "",
          "type": "uint256"
        }
      ],
      "stateMutability": "view",
      "type": "function"
    },
    {
      "inputs": [
        {
          "internalType": "address",
          "name": "newOwner",
          "type": "address"
        }
      ],
      "name": "transferOwnership",
      "outputs": [],
      "stateMutability": "nonpayable",
      "type": "function"
    },
    {
      "inputs": [
        {
          "internalType": "address",
          "name": "",
          "type": "address"
        }
      ],
      "name": "userWinnings",
      "outputs": [
        {
          "internalType": "uint256",
          "name": "",
          "type": "uint256"
        }
      ],
      "stateMutability": "view",
      "type": "function"
    },
    {
      "inputs": [
        {
          "internalType": "string",
          "name": "",
          "type": "string"
        }
      ],
      "name": "winnings",
      "outputs": [
        {
          "internalType": "uint256",
          "name": "",
          "type": "uint256"
        }
      ],
      "stateMutability": "view",
      "type": "function"
    },
    {
      "inputs": [],
      "name": "withdraw",
      "outputs": [],
      "stateMutability": "nonpayable",
      "type": "function"
    }
  ],
  "bytecode": "0x608060405260016004553480156200001657600080fd5b5060405162003ef038038062003ef083398181016040528101906200003c919062000510565b6200005c62000050620001a060201b60201c565b620001a860201b60201c565b60016007819055506200008973a36085f69e2889c224210f603d836748e7dc00886200026e60201b60201c565b85600860006101000a81548173ffffffffffffffffffffffffffffffffffffffff021916908373ffffffffffffffffffffffffffffffffffffffff160217905550620000db85620002b260201b60201c565b60098190555083600a8190555082600b8190555081600c60006101000a81548173ffffffffffffffffffffffffffffffffffffffff021916908373ffffffffffffffffffffffffffffffffffffffff16021790555080600d81905550604051806060016040528060008152602001604051806020016040528060008152508152602001600081525060116000820151816000015560208201518160010190816200018691906200080c565b5060408201518160020155905050505050505050620008f3565b600033905090565b6000600660009054906101000a900473ffffffffffffffffffffffffffffffffffffffff16905081600660006101000a81548173ffffffffffffffffffffffffffffffffffffffff021916908373ffffffffffffffffffffffffffffffffffffffff1602179055508173ffffffffffffffffffffffffffffffffffffffff168173ffffffffffffffffffffffffffffffffffffffff167f8be0079c531659141344cd1fd0a4f28419497f9722a3daafe3b4186f6b6457e060405160405180910390a35050565b80600260006101000a81548173ffffffffffffffffffffffffffffffffffffffff021916908373ffffffffffffffffffffffffffffffffffffffff16021790555050565b6000808290506000815103620002cf576000801b915050620002d8565b60208301519150505b919050565b6000604051905090565b600080fd5b600080fd5b600073ffffffffffffffffffffffffffffffffffffffff82169050919050565b60006200031e82620002f1565b9050919050565b620003308162000311565b81146200033c57600080fd5b50565b600081519050620003508162000325565b92915050565b600080fd5b600080fd5b6000601f19601f8301169050919050565b7f4e487b7100000000000000000000000000000000000000000000000000000000600052604160045260246000fd5b620003ab8262000360565b810181811067ffffffffffffffff82111715620003cd57620003cc62000371565b5b80604052505050565b6000620003e2620002dd565b9050620003f08282620003a0565b919050565b600067ffffffffffffffff82111562000413576200041262000371565b5b6200041e8262000360565b9050602081019050919050565b60005b838110156200044b5780820151818401526020810190506200042e565b60008484015250505050565b60006200046e6200046884620003f5565b620003d6565b9050828152602081018484840111156200048d576200048c6200035b565b5b6200049a8482856200042b565b509392505050565b600082601f830112620004ba57620004b962000356565b5b8151620004cc84826020860162000457565b91505092915050565b6000819050919050565b620004ea81620004d5565b8114620004f657600080fd5b50565b6000815190506200050a81620004df565b92915050565b60008060008060008060c0878903121562000530576200052f620002e7565b5b60006200054089828a016200033f565b965050602087015167ffffffffffffffff811115620005645762000563620002ec565b5b6200057289828a01620004a2565b95505060406200058589828a01620004f9565b94505060606200059889828a01620004f9565b9350506080620005ab89828a016200033f565b92505060a0620005be89828a01620004f9565b9150509295509295509295565b600081519050919050565b7f4e487b7100000000000000000000000000000000000000000000000000000000600052602260045260246000fd5b600060028204905060018216806200061e57607f821691505b602082108103620006345762000633620005d6565b5b50919050565b60008190508160005260206000209050919050565b60006020601f8301049050919050565b600082821b905092915050565b6000600883026200069e7fffffffffffffffffffffffffffffffffffffffffffffffffffffffffffffffff826200065f565b620006aa86836200065f565b95508019841693508086168417925050509392505050565b6000819050919050565b6000620006ed620006e7620006e184620004d5565b620006c2565b620004d5565b9050919050565b6000819050919050565b6200070983620006cc565b620007216200071882620006f4565b8484546200066c565b825550505050565b600090565b6200073862000729565b62000745818484620006fe565b505050565b5b818110156200076d57620007616000826200072e565b6001810190506200074b565b5050565b601f821115620007bc5762000786816200063a565b62000791846200064f565b81016020851015620007a1578190505b620007b9620007b0856200064f565b8301826200074a565b50505b505050565b600082821c905092915050565b6000620007e160001984600802620007c1565b1980831691505092915050565b6000620007fc8383620007ce565b9150826002028217905092915050565b6200081782620005cb565b67ffffffffffffffff81111562000833576200083262000371565b5b6200083f825462000605565b6200084c82828562000771565b600060209050601f8311600181146200088457600084156200086f578287015190505b6200087b8582620007ee565b865550620008eb565b601f19841662000894866200063a565b60005b82811015620008be5784890151825560018201915060208501945060208101905062000897565b86831015620008de5784890151620008da601f891682620007ce565b8355505b6001600288020188555050505b505050505050565b6135ed80620009036000396000f3fe6080604052600436106101665760003560e01c80638da5cb5b116100d1578063b401faf11161008a578063cfb5192811610064578063cfb51928146104fa578063ddca3f4314610537578063e1c186e314610562578063f2fde38b1461058b57610166565b8063b401faf11461048f578063c38aee38146104a6578063ca3eb443146104cf57610166565b80638da5cb5b1461034357806393c700241461036e578063a11920641461039b578063a815a4d4146103d8578063a9acd41614610415578063aef0e4ac1461045257610166565b80636707503211610123578063670750321461026a57806369fe0e2d14610295578063715018a6146102be57806372281386146102d557806372375078146102fe5780637adbf9731461031a57610166565b806322af00fa1461016b578063271b69c2146101ab57806337441996146101d65780633ccfd60b146101ff578063508954f814610216578063603ef6491461023f575b600080fd5b34801561017757600080fd5b50610192600480360381019061018d9190612216565b6105b4565b6040516101a2949392919061233e565b60405180910390f35b3480156101b757600080fd5b506101c06106a9565b6040516101cd919061238a565b60405180910390f35b3480156101e257600080fd5b506101fd60048036038101906101f89190612510565b6106cf565b005b34801561020b57600080fd5b50610214610983565b005b34801561022257600080fd5b5061023d6004803603810190610238919061256c565b610bb5565b005b34801561024b57600080fd5b50610254610c3b565b6040516102619190612599565b60405180910390f35b34801561027657600080fd5b5061027f610c41565b60405161028c9190612599565b60405180910390f35b3480156102a157600080fd5b506102bc60048036038101906102b79190612216565b610c47565b005b3480156102ca57600080fd5b506102d3610ccd565b005b3480156102e157600080fd5b506102fc60048036038101906102f791906125e0565b610d55565b005b6103186004803603810190610313919061260d565b610e15565b005b34801561032657600080fd5b50610341600480360381019061033c91906125e0565b6110cc565b005b34801561034f57600080fd5b5061035861118c565b604051610365919061238a565b60405180910390f35b34801561037a57600080fd5b506103836111b6565b60405161039293929190612656565b60405180910390f35b3480156103a757600080fd5b506103c260048036038101906103bd919061260d565b611256565b6040516103cf9190612599565b60405180910390f35b3480156103e457600080fd5b506103ff60048036038101906103fa91906125e0565b611284565b60405161040c9190612599565b60405180910390f35b34801561042157600080fd5b5061043c60048036038101906104379190612694565b61129c565b6040516104499190612599565b60405180910390f35b34801561045e57600080fd5b506104796004803603810190610474919061260d565b6114da565b6040516104869190612599565b60405180910390f35b34801561049b57600080fd5b506104a4611508565b005b3480156104b257600080fd5b506104cd60048036038101906104c89190612216565b61161e565b005b3480156104db57600080fd5b506104e46116a4565b6040516104f191906126ff565b60405180910390f35b34801561050657600080fd5b50610521600480360381019061051c919061260d565b61176f565b60405161052e91906126ff565b60405180910390f35b34801561054357600080fd5b5061054c611798565b6040516105599190612599565b60405180910390f35b34801561056e57600080fd5b5061058960048036038101906105849190612216565b61179e565b005b34801561059757600080fd5b506105b260048036038101906105ad91906125e0565b611868565b005b600e81815481106105c457600080fd5b90600052602060002090600402016000915090508060000160009054906101000a900473ffffffffffffffffffffffffffffffffffffffff169080600101549080600201805461061390612749565b80601f016020809104026020016040519081016040528092919081815260200182805461063f90612749565b801561068c5780601f106106615761010080835404028352916020019161068c565b820191906000526020600020905b81548152906001019060200180831161066f57829003601f168201915b5050505050908060030160009054906101000a900460ff16905084565b600c60009054906101000a900473ffffffffffffffffffffffffffffffffffffffff1681565b816005600082815260200190815260200160002060009054906101000a900473ffffffffffffffffffffffffffffffffffffffff1673ffffffffffffffffffffffffffffffffffffffff163373ffffffffffffffffffffffffffffffffffffffff1614610771576040517f08c379a0000000000000000000000000000000000000000000000000000000008152600401610768906127ec565b60405180910390fd5b6005600082815260200190815260200160002060006101000a81549073ffffffffffffffffffffffffffffffffffffffff0219169055807f7cc135e0cebb02c3480ae5d74d377283180a2601f8f644edf7987b009316c63a60405160405180910390a27fc93a6fedee8cb8614762d4a2c6a6fac249f043a9d64d1c477c21f2e46b3b614082604051610803919061280c565b60405180910390a1601160010160405161081d91906128d1565b604051809103902082805190602001201461085f576001601160000181905550816011600101908161084f9190612a94565b504260116002018190555061097e565b61012c6011600201546108729190612b95565b421061097d576011600001600081548092919061088e90612bc9565b91905055504260116002018190555060036011600001540361097c577fc93a6fedee8cb8614762d4a2c6a6fac249f043a9d64d1c477c21f2e46b3b614060116001016040516108dd9190612c95565b60405180910390a161097b601160010180546108f890612749565b80601f016020809104026020016040519081016040528092919081815260200182805461092490612749565b80156109715780601f1061094657610100808354040283529160200191610971565b820191906000526020600020905b81548152906001019060200180831161095457829003601f168201915b505050505061195f565b5b5b5b505050565b600080600090505b600e80549050811015610ad9576000600e82815481106109ae576109ad612cb7565b5b906000526020600020906004020190503373ffffffffffffffffffffffffffffffffffffffff168160000160009054906101000a900473ffffffffffffffffffffffffffffffffffffffff1673ffffffffffffffffffffffffffffffffffffffff16148015610a2c57508060030160009054906101000a900460ff16155b15610ac557610a48816001015484611c7390919063ffffffff16565b925060018160030160006101000a81548160ff021916908315150217905550610a9f8160010154600f83600201604051610a829190612d74565b908152602001604051809103902054611c8990919063ffffffff16565b600f82600201604051610ab29190612d74565b9081526020016040518091039020819055505b508080610ad190612bc9565b91505061098b565b5060008111610b1d576040517f08c379a0000000000000000000000000000000000000000000000000000000008152600401610b1490612dd7565b60405180910390fd5b3373ffffffffffffffffffffffffffffffffffffffff166108fc829081150290604051600060405180830381858888f19350505050158015610b63573d6000803e3d6000fd5b503373ffffffffffffffffffffffffffffffffffffffff167f464193b855eb16d5efcea88f1f239b57b2bb2f8877413804c05f825e9e6132c882604051610baa9190612e1d565b60405180910390a250565b610bbd611c9f565b73ffffffffffffffffffffffffffffffffffffffff16610bdb61118c565b73ffffffffffffffffffffffffffffffffffffffff1614610c31576040517f08c379a0000000000000000000000000000000000000000000000000000000008152600401610c2890612e97565b60405180910390fd5b8060098190555050565b600b5481565b600d5481565b610c4f611c9f565b73ffffffffffffffffffffffffffffffffffffffff16610c6d61118c565b73ffffffffffffffffffffffffffffffffffffffff1614610cc3576040517f08c379a0000000000000000000000000000000000000000000000000000000008152600401610cba90612e97565b60405180910390fd5b80600a8190555050565b610cd5611c9f565b73ffffffffffffffffffffffffffffffffffffffff16610cf361118c565b73ffffffffffffffffffffffffffffffffffffffff1614610d49576040517f08c379a0000000000000000000000000000000000000000000000000000000008152600401610d4090612e97565b60405180910390fd5b610d536000611ca7565b565b610d5d611c9f565b73ffffffffffffffffffffffffffffffffffffffff16610d7b61118c565b73ffffffffffffffffffffffffffffffffffffffff1614610dd1576040517f08c379a0000000000000000000000000000000000000000000000000000000008152600401610dc890612e97565b60405180910390fd5b80600c60006101000a81548173ffffffffffffffffffffffffffffffffffffffff021916908373ffffffffffffffffffffffffffffffffffffffff16021790555050565b6040518060400160405280600581526020017f4b656d616c0000000000000000000000000000000000000000000000000000008152508051906020012081805190602001201480610ea857506040518060400160405280600781526020017f4572646f67616e00000000000000000000000000000000000000000000000000815250805190602001208180519060200120145b610ee7576040517f08c379a0000000000000000000000000000000000000000000000000000000008152600401610ede90612f03565b60405180910390fd5b600d54421115610f2c576040517f08c379a0000000000000000000000000000000000000000000000000000000008152600401610f2390612f6f565b60405180910390fd5b6000349050600060405180608001604052803373ffffffffffffffffffffffffffffffffffffffff168152602001838152602001848152602001600015158152509050600e81908060018154018082558091505060019003906000526020600020906004020160009091909190915060008201518160000160006101000a81548173ffffffffffffffffffffffffffffffffffffffff021916908373ffffffffffffffffffffffffffffffffffffffff1602179055506020820151816001015560408201518160020190816110019190612a94565b5060608201518160030160006101000a81548160ff021916908315150217905550505061105582600f856040516110389190612fc0565b908152602001604051809103902054611c7390919063ffffffff16565b600f846040516110659190612fc0565b9081526020016040518091039020819055503373ffffffffffffffffffffffffffffffffffffffff167fcc6833ded30742d7f7c3b02b2a9144fdd7e899726980e967a0a4d09d6aeb209983856040516110bf929190612fd7565b60405180910390a2505050565b6110d4611c9f565b73ffffffffffffffffffffffffffffffffffffffff166110f261118c565b73ffffffffffffffffffffffffffffffffffffffff1614611148576040517f08c379a000000000000000000000000000000000000000000000000000000000815260040161113f90612e97565b60405180910390fd5b80600860006101000a81548173ffffffffffffffffffffffffffffffffffffffff021916908373ffffffffffffffffffffffffffffffffffffffff16021790555050565b6000600660009054906101000a900473ffffffffffffffffffffffffffffffffffffffff16905090565b60118060000154908060010180546111cd90612749565b80601f01602080910402602001604051908101604052809291908181526020018280546111f990612749565b80156112465780601f1061121b57610100808354040283529160200191611246565b820191906000526020600020905b81548152906001019060200180831161122957829003601f168201915b5050505050908060020154905083565b6010818051602081018201805184825260208301602085012081835280955050505050506000915090505481565b60146020528060005260406000206000915090505481565b60006040518060400160405280600581526020017f4b656d616c000000000000000000000000000000000000000000000000000000815250805190602001208280519060200120148061133157506040518060400160405280600781526020017f4572646f67616e00000000000000000000000000000000000000000000000000815250805190602001208280519060200120145b611370576040517f08c379a000000000000000000000000000000000000000000000000000000000815260040161136790612f03565b60405180910390fd5b6000805b600e805490508110156114cf578473ffffffffffffffffffffffffffffffffffffffff16600e82815481106113ac576113ab612cb7565b5b906000526020600020906004020160000160009054906101000a900473ffffffffffffffffffffffffffffffffffffffff1673ffffffffffffffffffffffffffffffffffffffff1614801561144057508380519060200120600e828154811061141857611417612cb7565b5b906000526020600020906004020160020160405161143691906128d1565b6040518091039020145b801561147c5750600e818154811061145b5761145a612cb7565b5b906000526020600020906004020160030160009054906101000a900460ff16155b156114bc576114b9600e828154811061149857611497612cb7565b5b90600052602060002090600402016001015483611c7390919063ffffffff16565b91505b80806114c790612bc9565b915050611374565b508091505092915050565b600f818051602081018201805184825260208301602085012081835280955050505050506000915090505481565b6000601460003373ffffffffffffffffffffffffffffffffffffffff1673ffffffffffffffffffffffffffffffffffffffff1681526020019081526020016000205490506000811161158f576040517f08c379a000000000000000000000000000000000000000000000000000000000815260040161158690613053565b60405180910390fd5b6000601460003373ffffffffffffffffffffffffffffffffffffffff1673ffffffffffffffffffffffffffffffffffffffff168152602001908152602001600020819055503373ffffffffffffffffffffffffffffffffffffffff166108fc829081150290604051600060405180830381858888f1935050505015801561161a573d6000803e3d6000fd5b5050565b611626611c9f565b73ffffffffffffffffffffffffffffffffffffffff1661164461118c565b73ffffffffffffffffffffffffffffffffffffffff161461169a576040517f08c379a000000000000000000000000000000000000000000000000000000000815260040161169190612e97565b60405180910390fd5b80600d8190555050565b60006116ae611c9f565b73ffffffffffffffffffffffffffffffffffffffff166116cc61118c565b73ffffffffffffffffffffffffffffffffffffffff1614611722576040517f08c379a000000000000000000000000000000000000000000000000000000000815260040161171990612e97565b60405180910390fd5b600061173860095430633744199660e01b611d6d565b9050611769600860009054906101000a900473ffffffffffffffffffffffffffffffffffffffff1682600a54611d9e565b91505090565b600080829050600081510361178a576000801b915050611793565b60208301519150505b919050565b600a5481565b6117a6611c9f565b73ffffffffffffffffffffffffffffffffffffffff166117c461118c565b73ffffffffffffffffffffffffffffffffffffffff161461181a576040517f08c379a000000000000000000000000000000000000000000000000000000000815260040161181190612e97565b60405180910390fd5b600581111561185e576040517f08c379a0000000000000000000000000000000000000000000000000000000008152600401611855906130e5565b60405180910390fd5b80600b8190555050565b611870611c9f565b73ffffffffffffffffffffffffffffffffffffffff1661188e61118c565b73ffffffffffffffffffffffffffffffffffffffff16146118e4576040517f08c379a00000000000000000000000000000000000000000000000000000000081526004016118db90612e97565b60405180910390fd5b600073ffffffffffffffffffffffffffffffffffffffff168173ffffffffffffffffffffffffffffffffffffffff1603611953576040517f08c379a000000000000000000000000000000000000000000000000000000000815260040161194a90613177565b60405180910390fd5b61195c81611ca7565b50565b6000600f826040516119719190612fc0565b9081526020016040518091039020549050600081036119905750611c70565b6000819050806010846040516119a69190612fc0565b90815260200160405180910390208190555060005b600e80549050811015611bd6578380519060200120600e82815481106119e4576119e3612cb7565b5b9060005260206000209060040201600201604051611a0291906128d1565b604051809103902003611bc3576000611a5b84611a4d85600e8681548110611a2d57611a2c612cb7565b5b906000526020600020906004020160010154611e6a90919063ffffffff16565b611e8090919063ffffffff16565b90506000611a876064611a79600b5485611e6a90919063ffffffff16565b611e8090919063ffffffff16565b90506000611a9e8284611c8990919063ffffffff16565b9050611b378160146000600e8881548110611abc57611abb612cb7565b5b906000526020600020906004020160000160009054906101000a900473ffffffffffffffffffffffffffffffffffffffff1673ffffffffffffffffffffffffffffffffffffffff1673ffffffffffffffffffffffffffffffffffffffff16815260200190815260200160002054611c7390919063ffffffff16565b60146000600e8781548110611b4f57611b4e612cb7565b5b906000526020600020906004020160000160009054906101000a900473ffffffffffffffffffffffffffffffffffffffff1673ffffffffffffffffffffffffffffffffffffffff1673ffffffffffffffffffffffffffffffffffffffff168152602001908152602001600020819055505050505b8080611bce90612bc9565b9150506119bb565b506000611c016064611bf3600b5485611e6a90919063ffffffff16565b611e8090919063ffffffff16565b9050600c60009054906101000a900473ffffffffffffffffffffffffffffffffffffffff1673ffffffffffffffffffffffffffffffffffffffff166108fc829081150290604051600060405180830381858888f19350505050158015611c6b573d6000803e3d6000fd5b505050505b50565b60008183611c819190612b95565b905092915050565b60008183611c979190613197565b905092915050565b600033905090565b6000600660009054906101000a900473ffffffffffffffffffffffffffffffffffffffff16905081600660006101000a81548173ffffffffffffffffffffffffffffffffffffffff021916908373ffffffffffffffffffffffffffffffffffffffff1602179055508173ffffffffffffffffffffffffffffffffffffffff168173ffffffffffffffffffffffffffffffffffffffff167f8be0079c531659141344cd1fd0a4f28419497f9722a3daafe3b4186f6b6457e060405160405180910390a35050565b611d75612145565b611d7d612145565b611d9485858584611e96909392919063ffffffff16565b9150509392505050565b6000806004549050600181611db39190612b95565b6004819055506000634042994660e01b60008087600001513089604001518760018c6080015160000151604051602401611df498979695949392919061325b565b604051602081830303815290604052907bffffffffffffffffffffffffffffffffffffffffffffffffffffffff19166020820180517bffffffffffffffffffffffffffffffffffffffffffffffffffffffff83818316178352505050509050611e5f86838684611f46565b925050509392505050565b60008183611e7891906132e0565b905092915050565b60008183611e8e9190613351565b905092915050565b611e9e612145565b611eae85608001516101006120db565b508385600001818152505082856020019073ffffffffffffffffffffffffffffffffffffffff16908173ffffffffffffffffffffffffffffffffffffffff16815250508185604001907bffffffffffffffffffffffffffffffffffffffffffffffffffffffff191690817bffffffffffffffffffffffffffffffffffffffffffffffffffffffff191681525050849050949350505050565b60003084604051602001611f5b929190613431565b604051602081830303815290604052805190602001209050846005600083815260200190815260200160002060006101000a81548173ffffffffffffffffffffffffffffffffffffffff021916908373ffffffffffffffffffffffffffffffffffffffff160217905550807fb5e6e01e79f91267dc17b4e6314d5d4d03593d2ceee0fbb452b750bd70ea5af960405160405180910390a2600260009054906101000a900473ffffffffffffffffffffffffffffffffffffffff1673ffffffffffffffffffffffffffffffffffffffff16634000aea08685856040518463ffffffff1660e01b81526004016120519392919061345d565b6020604051808303816000875af1158015612070573d6000803e3d6000fd5b505050506040513d601f19601f8201168201806040525081019061209491906134c7565b6120d3576040517f08c379a00000000000000000000000000000000000000000000000000000000081526004016120ca90613566565b60405180910390fd5b949350505050565b6120e36121b2565b60006020836120f29190613586565b1461211e576020826121049190613586565b60206121109190613197565b8261211b9190612b95565b91505b81836020018181525050604051808452600081528281016020016040525082905092915050565b6040518060a0016040528060008019168152602001600073ffffffffffffffffffffffffffffffffffffffff16815260200160007bffffffffffffffffffffffffffffffffffffffffffffffffffffffff19168152602001600081526020016121ac6121b2565b81525090565b604051806040016040528060608152602001600081525090565b6000604051905090565b600080fd5b600080fd5b6000819050919050565b6121f3816121e0565b81146121fe57600080fd5b50565b600081359050612210816121ea565b92915050565b60006020828403121561222c5761222b6121d6565b5b600061223a84828501612201565b91505092915050565b600073ffffffffffffffffffffffffffffffffffffffff82169050919050565b600061226e82612243565b9050919050565b61227e81612263565b82525050565b61228d816121e0565b82525050565b600081519050919050565b600082825260208201905092915050565b60005b838110156122cd5780820151818401526020810190506122b2565b60008484015250505050565b6000601f19601f8301169050919050565b60006122f582612293565b6122ff818561229e565b935061230f8185602086016122af565b612318816122d9565b840191505092915050565b60008115159050919050565b61233881612323565b82525050565b60006080820190506123536000830187612275565b6123606020830186612284565b818103604083015261237281856122ea565b9050612381606083018461232f565b95945050505050565b600060208201905061239f6000830184612275565b92915050565b6000819050919050565b6123b8816123a5565b81146123c357600080fd5b50565b6000813590506123d5816123af565b92915050565b600080fd5b600080fd5b7f4e487b7100000000000000000000000000000000000000000000000000000000600052604160045260246000fd5b61241d826122d9565b810181811067ffffffffffffffff8211171561243c5761243b6123e5565b5b80604052505050565b600061244f6121cc565b905061245b8282612414565b919050565b600067ffffffffffffffff82111561247b5761247a6123e5565b5b612484826122d9565b9050602081019050919050565b82818337600083830152505050565b60006124b36124ae84612460565b612445565b9050828152602081018484840111156124cf576124ce6123e0565b5b6124da848285612491565b509392505050565b600082601f8301126124f7576124f66123db565b5b81356125078482602086016124a0565b91505092915050565b60008060408385031215612527576125266121d6565b5b6000612535858286016123c6565b925050602083013567ffffffffffffffff811115612556576125556121db565b5b612562858286016124e2565b9150509250929050565b600060208284031215612582576125816121d6565b5b6000612590848285016123c6565b91505092915050565b60006020820190506125ae6000830184612284565b92915050565b6125bd81612263565b81146125c857600080fd5b50565b6000813590506125da816125b4565b92915050565b6000602082840312156125f6576125f56121d6565b5b6000612604848285016125cb565b91505092915050565b600060208284031215612623576126226121d6565b5b600082013567ffffffffffffffff811115612641576126406121db565b5b61264d848285016124e2565b91505092915050565b600060608201905061266b6000830186612284565b818103602083015261267d81856122ea565b905061268c6040830184612284565b949350505050565b600080604083850312156126ab576126aa6121d6565b5b60006126b9858286016125cb565b925050602083013567ffffffffffffffff8111156126da576126d96121db565b5b6126e6858286016124e2565b9150509250929050565b6126f9816123a5565b82525050565b600060208201905061271460008301846126f0565b92915050565b7f4e487b7100000000000000000000000000000000000000000000000000000000600052602260045260246000fd5b6000600282049050600182168061276157607f821691505b6020821081036127745761277361271a565b5b50919050565b7f536f75726365206d75737420626520746865206f7261636c65206f662074686560008201527f2072657175657374000000000000000000000000000000000000000000000000602082015250565b60006127d660288361229e565b91506127e18261277a565b604082019050919050565b60006020820190508181036000830152612805816127c9565b9050919050565b6000602082019050818103600083015261282681846122ea565b905092915050565b600081905092915050565b60008190508160005260206000209050919050565b6000815461285b81612749565b612865818661282e565b945060018216600081146128805760018114612895576128c8565b60ff19831686528115158202860193506128c8565b61289e85612839565b60005b838110156128c0578154818901526001820191506020810190506128a1565b838801955050505b50505092915050565b60006128dd828461284e565b915081905092915050565b60008190508160005260206000209050919050565b60006020601f8301049050919050565b600082821b905092915050565b60006008830261294a7fffffffffffffffffffffffffffffffffffffffffffffffffffffffffffffffff8261290d565b612954868361290d565b95508019841693508086168417925050509392505050565b6000819050919050565b600061299161298c612987846121e0565b61296c565b6121e0565b9050919050565b6000819050919050565b6129ab83612976565b6129bf6129b782612998565b84845461291a565b825550505050565b600090565b6129d46129c7565b6129df8184846129a2565b505050565b5b81811015612a03576129f86000826129cc565b6001810190506129e5565b5050565b601f821115612a4857612a19816128e8565b612a22846128fd565b81016020851015612a31578190505b612a45612a3d856128fd565b8301826129e4565b50505b505050565b600082821c905092915050565b6000612a6b60001984600802612a4d565b1980831691505092915050565b6000612a848383612a5a565b9150826002028217905092915050565b612a9d82612293565b67ffffffffffffffff811115612ab657612ab56123e5565b5b612ac08254612749565b612acb828285612a07565b600060209050601f831160018114612afe5760008415612aec578287015190505b612af68582612a78565b865550612b5e565b601f198416612b0c866128e8565b60005b82811015612b3457848901518255600182019150602085019450602081019050612b0f565b86831015612b515784890151612b4d601f891682612a5a565b8355505b6001600288020188555050505b505050505050565b7f4e487b7100000000000000000000000000000000000000000000000000000000600052601160045260246000fd5b6000612ba0826121e0565b9150612bab836121e0565b9250828201905080821115612bc357612bc2612b66565b5b92915050565b6000612bd4826121e0565b91507fffffffffffffffffffffffffffffffffffffffffffffffffffffffffffffffff8203612c0657612c05612b66565b5b600182019050919050565b60008154612c1e81612749565b612c28818661229e565b94506001821660008114612c435760018114612c5957612c8c565b60ff198316865281151560200286019350612c8c565b612c62856128e8565b60005b83811015612c8457815481890152600182019150602081019050612c65565b808801955050505b50505092915050565b60006020820190508181036000830152612caf8184612c11565b905092915050565b7f4e487b7100000000000000000000000000000000000000000000000000000000600052603260045260246000fd5b600081905092915050565b60008154612cfe81612749565b612d088186612ce6565b94506001821660008114612d235760018114612d3857612d6b565b60ff1983168652811515820286019350612d6b565b612d41856128e8565b60005b83811015612d6357815481890152600182019150602081019050612d44565b838801955050505b50505092915050565b6000612d808284612cf1565b915081905092915050565b7f4e6f206265747320746f20776974686472617700000000000000000000000000600082015250565b6000612dc160138361229e565b9150612dcc82612d8b565b602082019050919050565b60006020820190508181036000830152612df081612db4565b9050919050565b50565b6000612e0760008361229e565b9150612e1282612df7565b600082019050919050565b6000604082019050612e326000830184612284565b8181036020830152612e4381612dfa565b905092915050565b7f4f776e61626c653a2063616c6c6572206973206e6f7420746865206f776e6572600082015250565b6000612e8160208361229e565b9150612e8c82612e4b565b602082019050919050565b60006020820190508181036000830152612eb081612e74565b9050919050565b7f496e76616c69642063616e646964617465000000000000000000000000000000600082015250565b6000612eed60118361229e565b9150612ef882612eb7565b602082019050919050565b60006020820190508181036000830152612f1c81612ee0565b9050919050565b7f42657474696e672068617320656e646564000000000000000000000000000000600082015250565b6000612f5960118361229e565b9150612f6482612f23565b602082019050919050565b60006020820190508181036000830152612f8881612f4c565b9050919050565b6000612f9a82612293565b612fa48185612ce6565b9350612fb48185602086016122af565b80840191505092915050565b6000612fcc8284612f8f565b915081905092915050565b6000604082019050612fec6000830185612284565b8181036020830152612ffe81846122ea565b90509392505050565b7f4e6f2077696e6e696e677320746f20636c61696d000000000000000000000000600082015250565b600061303d60148361229e565b915061304882613007565b602082019050919050565b6000602082019050818103600083015261306c81613030565b9050919050565b7f53657276696365206665652070657263656e746167652073686f756c64206e6f60008201527f7420657863656564203500000000000000000000000000000000000000000000602082015250565b60006130cf602a8361229e565b91506130da82613073565b604082019050919050565b600060208201905081810360008301526130fe816130c2565b9050919050565b7f4f776e61626c653a206e6577206f776e657220697320746865207a65726f206160008201527f6464726573730000000000000000000000000000000000000000000000000000602082015250565b600061316160268361229e565b915061316c82613105565b604082019050919050565b6000602082019050818103600083015261319081613154565b9050919050565b60006131a2826121e0565b91506131ad836121e0565b92508282039050818111156131c5576131c4612b66565b5b92915050565b60007fffffffff0000000000000000000000000000000000000000000000000000000082169050919050565b613200816131cb565b82525050565b600081519050919050565b600082825260208201905092915050565b600061322d82613206565b6132378185613211565b93506132478185602086016122af565b613250816122d9565b840191505092915050565b600061010082019050613271600083018b612275565b61327e602083018a612284565b61328b60408301896126f0565b6132986060830188612275565b6132a560808301876131f7565b6132b260a0830186612284565b6132bf60c0830185612284565b81810360e08301526132d18184613222565b90509998505050505050505050565b60006132eb826121e0565b91506132f6836121e0565b9250828202613304816121e0565b9150828204841483151761331b5761331a612b66565b5b5092915050565b7f4e487b7100000000000000000000000000000000000000000000000000000000600052601260045260246000fd5b600061335c826121e0565b9150613367836121e0565b92508261337757613376613322565b5b828204905092915050565b600061339d61339861339384612243565b61296c565b612243565b9050919050565b60006133af82613382565b9050919050565b60006133c1826133a4565b9050919050565b60008160601b9050919050565b60006133e0826133c8565b9050919050565b60006133f2826133d5565b9050919050565b61340a613405826133b6565b6133e7565b82525050565b6000819050919050565b61342b613426826121e0565b613410565b82525050565b600061343d82856133f9565b60148201915061344d828461341a565b6020820191508190509392505050565b60006060820190506134726000830186612275565b61347f6020830185612284565b81810360408301526134918184613222565b9050949350505050565b6134a481612323565b81146134af57600080fd5b50565b6000815190506134c18161349b565b92915050565b6000602082840312156134dd576134dc6121d6565b5b60006134eb848285016134b2565b91505092915050565b7f756e61626c6520746f207472616e73666572416e6443616c6c20746f206f726160008201527f636c650000000000000000000000000000000000000000000000000000000000602082015250565b600061355060238361229e565b915061355b826134f4565b604082019050919050565b6000602082019050818103600083015261357f81613543565b9050919050565b6000613591826121e0565b915061359c836121e0565b9250826135ac576135ab613322565b5b82820690509291505056fea2646970667358221220322be936b9b3d4896c17cb1a776ae551d52abe35fb336bf85e8595e519719ba664736f6c63430008130033",
  "linkReferences": {},
  "deployedLinkReferences": {}
}