{
  "_format": "hh-sol-artifact-1",
  "contractName": "WikiWager",
  "sourceName": "contracts/WikiWager.sol",
  "abi": [
    {
      "inputs": [
        {
          "internalType": "address",
          "name": "_oracle",
          "type": "address"
        },
        {
          "internalType": "uint256",
          "name": "_serviceFeePercentage",
          "type": "uint256"
        },
        {
          "internalType": "address",
          "name": "_serviceFeeWallet",
          "type": "address"
        },
        {
          "internalType": "uint256",
          "name": "_bettingEndTime",
          "type": "uint256"
        },
        {
          "internalType": "string[]",
          "name": "_candidateNames",
          "type": "string[]"
        }
      ],
      "stateMutability": "nonpayable",
      "type": "constructor"
    },
    {
      "inputs": [],
      "name": "EmptyArgs",
      "type": "error"
    },
    {
      "inputs": [],
      "name": "EmptySecrets",
      "type": "error"
    },
    {
      "inputs": [],
      "name": "EmptySource",
      "type": "error"
    },
    {
      "inputs": [],
      "name": "NoInlineSecrets",
      "type": "error"
    },
    {
      "inputs": [],
      "name": "RequestIsAlreadyPending",
      "type": "error"
    },
    {
      "inputs": [],
      "name": "RequestIsNotPending",
      "type": "error"
    },
    {
      "inputs": [],
      "name": "SenderIsNotRegistry",
      "type": "error"
    },
    {
      "anonymous": false,
      "inputs": [
        {
          "indexed": true,
          "internalType": "address",
          "name": "bettor",
          "type": "address"
        },
        {
          "indexed": false,
          "internalType": "uint256",
          "name": "amount",
          "type": "uint256"
        },
        {
          "indexed": false,
          "internalType": "uint256",
          "name": "candidateIndex",
          "type": "uint256"
        }
      ],
      "name": "BetMade",
      "type": "event"
    },
    {
      "anonymous": false,
      "inputs": [
        {
          "indexed": true,
          "internalType": "address",
          "name": "bettor",
          "type": "address"
        },
        {
          "indexed": false,
          "internalType": "uint256",
          "name": "amount",
          "type": "uint256"
        },
        {
          "indexed": false,
          "internalType": "uint256",
          "name": "candidateIndex",
          "type": "uint256"
        }
      ],
      "name": "BetWithdrawn",
      "type": "event"
    },
    {
      "anonymous": false,
      "inputs": [
        {
          "indexed": false,
          "internalType": "uint256",
          "name": "winnerIndex",
          "type": "uint256"
        }
      ],
      "name": "EventResultReceived",
      "type": "event"
    },
    {
      "anonymous": false,
      "inputs": [
        {
          "indexed": true,
          "internalType": "bytes32",
          "name": "requestId",
          "type": "bytes32"
        },
        {
          "indexed": false,
          "internalType": "bytes",
          "name": "result",
          "type": "bytes"
        },
        {
          "indexed": false,
          "internalType": "bytes",
          "name": "err",
          "type": "bytes"
        }
      ],
      "name": "OCRResponse",
      "type": "event"
    },
    {
      "anonymous": false,
      "inputs": [
        {
          "indexed": true,
          "internalType": "address",
          "name": "from",
          "type": "address"
        },
        {
          "indexed": true,
          "internalType": "address",
          "name": "to",
          "type": "address"
        }
      ],
      "name": "OwnershipTransferRequested",
      "type": "event"
    },
    {
      "anonymous": false,
      "inputs": [
        {
          "indexed": true,
          "internalType": "address",
          "name": "from",
          "type": "address"
        },
        {
          "indexed": true,
          "internalType": "address",
          "name": "to",
          "type": "address"
        }
      ],
      "name": "OwnershipTransferred",
      "type": "event"
    },
    {
      "anonymous": false,
      "inputs": [
        {
          "indexed": true,
          "internalType": "bytes32",
          "name": "id",
          "type": "bytes32"
        }
      ],
      "name": "RequestFulfilled",
      "type": "event"
    },
    {
      "anonymous": false,
      "inputs": [
        {
          "indexed": true,
          "internalType": "bytes32",
          "name": "id",
          "type": "bytes32"
        }
      ],
      "name": "RequestSent",
      "type": "event"
    },
    {
      "inputs": [],
      "name": "acceptOwnership",
      "outputs": [],
      "stateMutability": "nonpayable",
      "type": "function"
    },
    {
      "inputs": [
        {
          "internalType": "address",
          "name": "oracleAddress",
          "type": "address"
        },
        {
          "internalType": "bytes32",
          "name": "requestId",
          "type": "bytes32"
        }
      ],
      "name": "addSimulatedRequestId",
      "outputs": [],
      "stateMutability": "nonpayable",
      "type": "function"
    },
    {
      "inputs": [
        {
          "internalType": "uint256",
          "name": "",
          "type": "uint256"
        }
      ],
      "name": "bets",
      "outputs": [
        {
          "internalType": "address",
          "name": "bettor",
          "type": "address"
        },
        {
          "internalType": "uint256",
          "name": "amount",
          "type": "uint256"
        },
        {
          "internalType": "uint256",
          "name": "candidateIndex",
          "type": "uint256"
        },
        {
          "internalType": "bool",
          "name": "withdrawn",
          "type": "bool"
        }
      ],
      "stateMutability": "view",
      "type": "function"
    },
    {
      "inputs": [],
      "name": "bettingEndTime",
      "outputs": [
        {
          "internalType": "uint256",
          "name": "",
          "type": "uint256"
        }
      ],
      "stateMutability": "view",
      "type": "function"
    },
    {
      "inputs": [
        {
          "internalType": "address",
          "name": "user",
          "type": "address"
        },
        {
          "internalType": "uint256",
          "name": "candidateIndex",
          "type": "uint256"
        }
      ],
      "name": "calculateUserBet",
      "outputs": [
        {
          "internalType": "uint256",
          "name": "",
          "type": "uint256"
        }
      ],
      "stateMutability": "view",
      "type": "function"
    },
    {
      "inputs": [
        {
          "internalType": "uint256",
          "name": "",
          "type": "uint256"
        }
      ],
      "name": "candidateWinnings",
      "outputs": [
        {
          "internalType": "uint256",
          "name": "",
          "type": "uint256"
        }
      ],
      "stateMutability": "view",
      "type": "function"
    },
    {
      "inputs": [
        {
          "internalType": "uint256",
          "name": "",
          "type": "uint256"
        }
      ],
      "name": "candidates",
      "outputs": [
        {
          "internalType": "string",
          "name": "name",
          "type": "string"
        },
        {
          "internalType": "bool",
          "name": "exists",
          "type": "bool"
        }
      ],
      "stateMutability": "view",
      "type": "function"
    },
    {
      "inputs": [],
      "name": "claimWinnings",
      "outputs": [],
      "stateMutability": "nonpayable",
      "type": "function"
    },
    {
      "inputs": [
        {
          "components": [
            {
              "internalType": "enum Functions.Location",
              "name": "codeLocation",
              "type": "uint8"
            },
            {
              "internalType": "enum Functions.Location",
              "name": "secretsLocation",
              "type": "uint8"
            },
            {
              "internalType": "enum Functions.CodeLanguage",
              "name": "language",
              "type": "uint8"
            },
            {
              "internalType": "string",
              "name": "source",
              "type": "string"
            },
            {
              "internalType": "bytes",
              "name": "secrets",
              "type": "bytes"
            },
            {
              "internalType": "string[]",
              "name": "args",
              "type": "string[]"
            }
          ],
          "internalType": "struct Functions.Request",
          "name": "req",
          "type": "tuple"
        },
        {
          "internalType": "uint64",
          "name": "subscriptionId",
          "type": "uint64"
        },
        {
          "internalType": "uint32",
          "name": "gasLimit",
          "type": "uint32"
        },
        {
          "internalType": "uint256",
          "name": "gasPrice",
          "type": "uint256"
        }
      ],
      "name": "estimateCost",
      "outputs": [
        {
          "internalType": "uint96",
          "name": "",
          "type": "uint96"
        }
      ],
      "stateMutability": "view",
      "type": "function"
    },
    {
      "inputs": [],
      "name": "eventConfirmation",
      "outputs": [
        {
          "internalType": "uint256",
          "name": "count",
          "type": "uint256"
        },
        {
          "internalType": "uint256",
          "name": "resultIndex",
          "type": "uint256"
        },
        {
          "internalType": "uint256",
          "name": "lastConfirmationTimestamp",
          "type": "uint256"
        }
      ],
      "stateMutability": "view",
      "type": "function"
    },
    {
      "inputs": [
        {
          "internalType": "string",
          "name": "source",
          "type": "string"
        },
        {
          "internalType": "bytes",
          "name": "secrets",
          "type": "bytes"
        },
        {
          "internalType": "string[]",
          "name": "args",
          "type": "string[]"
        },
        {
          "internalType": "uint64",
          "name": "subscriptionId",
          "type": "uint64"
        },
        {
          "internalType": "uint32",
          "name": "gasLimit",
          "type": "uint32"
        }
      ],
      "name": "executeRequest",
      "outputs": [
        {
          "internalType": "bytes32",
          "name": "",
          "type": "bytes32"
        }
      ],
      "stateMutability": "nonpayable",
      "type": "function"
    },
    {
      "inputs": [],
      "name": "fulfill",
      "outputs": [],
      "stateMutability": "nonpayable",
      "type": "function"
    },
    {
      "inputs": [],
      "name": "getDONPublicKey",
      "outputs": [
        {
          "internalType": "bytes",
          "name": "",
          "type": "bytes"
        }
      ],
      "stateMutability": "view",
      "type": "function"
    },
    {
      "inputs": [],
      "name": "getLatestResponse",
      "outputs": [
        {
          "internalType": "string",
          "name": "",
          "type": "string"
        }
      ],
      "stateMutability": "view",
      "type": "function"
    },
    {
      "inputs": [],
      "name": "getTotalBetsPool",
      "outputs": [
        {
          "internalType": "uint256",
          "name": "",
          "type": "uint256"
        }
      ],
      "stateMutability": "view",
      "type": "function"
    },
    {
      "inputs": [
        {
          "internalType": "bytes32",
          "name": "requestId",
          "type": "bytes32"
        },
        {
          "internalType": "bytes",
          "name": "response",
          "type": "bytes"
        },
        {
          "internalType": "bytes",
          "name": "err",
          "type": "bytes"
        }
      ],
      "name": "handleOracleFulfillment",
      "outputs": [],
      "stateMutability": "nonpayable",
      "type": "function"
    },
    {
      "inputs": [],
      "name": "latestError",
      "outputs": [
        {
          "internalType": "bytes",
          "name": "",
          "type": "bytes"
        }
      ],
      "stateMutability": "view",
      "type": "function"
    },
    {
      "inputs": [],
      "name": "latestRequestId",
      "outputs": [
        {
          "internalType": "bytes32",
          "name": "",
          "type": "bytes32"
        }
      ],
      "stateMutability": "view",
      "type": "function"
    },
    {
      "inputs": [],
      "name": "latestResponse",
      "outputs": [
        {
          "internalType": "bytes",
          "name": "",
          "type": "bytes"
        }
      ],
      "stateMutability": "view",
      "type": "function"
    },
    {
      "inputs": [
        {
          "internalType": "uint256",
          "name": "candidateIndex",
          "type": "uint256"
        }
      ],
      "name": "makeBet",
      "outputs": [],
      "stateMutability": "payable",
      "type": "function"
    },
    {
      "inputs": [],
      "name": "owner",
      "outputs": [
        {
          "internalType": "address",
          "name": "",
          "type": "address"
        }
      ],
      "stateMutability": "view",
      "type": "function"
    },
    {
      "inputs": [],
      "name": "serviceFeePercentage",
      "outputs": [
        {
          "internalType": "uint256",
          "name": "",
          "type": "uint256"
        }
      ],
      "stateMutability": "view",
      "type": "function"
    },
    {
      "inputs": [],
      "name": "serviceFeeWallet",
      "outputs": [
        {
          "internalType": "address",
          "name": "",
          "type": "address"
        }
      ],
      "stateMutability": "view",
      "type": "function"
    },
    {
      "inputs": [
        {
          "internalType": "address",
          "name": "_serviceFeeWallet",
          "type": "address"
        }
      ],
      "name": "setServiceFeeWallet",
      "outputs": [],
      "stateMutability": "nonpayable",
      "type": "function"
    },
    {
      "inputs": [
        {
          "internalType": "uint256",
          "name": "",
          "type": "uint256"
        }
      ],
      "name": "totalBets",
      "outputs": [
        {
          "internalType": "uint256",
          "name": "",
          "type": "uint256"
        }
      ],
      "stateMutability": "view",
      "type": "function"
    },
    {
      "inputs": [
        {
          "internalType": "address",
          "name": "to",
          "type": "address"
        }
      ],
      "name": "transferOwnership",
      "outputs": [],
      "stateMutability": "nonpayable",
      "type": "function"
    },
    {
      "inputs": [
        {
          "internalType": "address",
          "name": "oracle",
          "type": "address"
        }
      ],
      "name": "updateOracleAddress",
      "outputs": [],
      "stateMutability": "nonpayable",
      "type": "function"
    },
    {
      "inputs": [
        {
          "internalType": "address",
          "name": "",
          "type": "address"
        }
      ],
      "name": "userBet",
      "outputs": [
        {
          "internalType": "address",
          "name": "bettor",
          "type": "address"
        },
        {
          "internalType": "uint256",
          "name": "amount",
          "type": "uint256"
        },
        {
          "internalType": "uint256",
          "name": "candidateIndex",
          "type": "uint256"
        },
        {
          "internalType": "bool",
          "name": "withdrawn",
          "type": "bool"
        }
      ],
      "stateMutability": "view",
      "type": "function"
    },
    {
      "inputs": [
        {
          "internalType": "address",
          "name": "",
          "type": "address"
        }
      ],
      "name": "userWinnings",
      "outputs": [
        {
          "internalType": "uint256",
          "name": "",
          "type": "uint256"
        }
      ],
      "stateMutability": "view",
      "type": "function"
    },
    {
      "inputs": [],
      "name": "withdraw",
      "outputs": [],
      "stateMutability": "nonpayable",
      "type": "function"
    }
  ],
  "bytecode": "0x604060808152346200045f576200378790813803806200001f816200048f565b93843982019160a0818403126200045f576200003b81620004b5565b90602090818101519162000051858301620004b5565b606083015160808401516001600160401b03949192918582116200045f570188601f820112156200045f57805198858a1162000479578960051b9085806200009b8185016200048f565b809d81520192840101928184116200045f57868101925b848410620003ce57505050505060018060a01b038096169560018060a01b031991600096888489541617885533156200038a5733846002541617600255600198896007558460085416176008556009551690600a541617600a55600b558451916060830196838810828911176200037657859787528484528487600019958686820152015284601255836013558460145584975b6200015b575b86516132bc9081620004cb8239f35b80518810156200037057828860051b82010151875190888201828110858211176200035c578952815283810190878252600c8054906801000000000000000082101562000334578982018082558210156200034857885285882090891b019051805190858211620003345782548a81811c9116801562000329575b8882101462000315579081601f8c95949311620002c1575b508790601f83116001146200025c578a91908362000250575b50508882851b9260031b1c19161781555b019051151560ff801983541691161790558388146200023c57968501968562000146565b634e487b7160e01b85526011600452602485fd5b01519050388062000207565b838b52888b209190601f1984168c5b8b828210620002aa575050908487959493921062000292575b505050811b01815562000218565b01518a60f88460031b161c1916905538808062000284565b8385015186558f989095019493840193016200026b565b9091928094508a52878a20601f840160051c8101918985106200030a575b90601f8d96959493920160051c01905b818110620002fe5750620001ee565b8b81558c9501620002ef565b9091508190620002df565b634e487b7160e01b8a52602260045260248afd5b90607f1690620001d6565b634e487b7160e01b89526041600452602489fd5b634e487b7160e01b89526032600452602489fd5b634e487b7160e01b88526041600452602488fd5b6200014c565b634e487b7160e01b85526041600452602485fd5b895162461bcd60e51b815260048101879052601860248201527f43616e6e6f7420736574206f776e657220746f207a65726f00000000000000006044820152606490fd5b83518981116200045f57820183603f820112156200045f57888101518a811162000464578d918562000409601f8401601f19168d016200048f565b9383855283830101116200045f57908a92918f6000905b83821062000442575050509060008380959383010152815201930192620000b2565b81839495969301015182828701015201908f918c94939262000420565b600080fd5b60246000634e487b7160e01b81526041600452fd5b634e487b7160e01b600052604160045260246000fd5b6040519190601f01601f191682016001600160401b038111838210176200047957604052565b51906001600160a01b03821682036200045f5756fe6080604052600436101561001257600080fd5b60003560e01c80630ca76175146101f25780631aa46f59146101ed57806322af00fa146101e8578063271b69c2146101e357806327714589146101de57806330bda99d146101d95780633477ee2e146101d4578063374c6e1c146101cf5780633ccfd60b146101ca578063431a4518146101c55780636032f4a6146101c0578063603ef649146101bb57806367075032146101b657806367ad4ec2146101b1578063718cc769146101ac57806372281386146101a757806375bd9f9c146101a257806379ba50971461019d5780638da5cb5b14610198578063900089de14610193578063a814e34f14610184578063a815a4d41461018e578063b401faf114610189578063bef3a2f014610184578063d328a91e1461017f578063d4b391751461017a578063f2fde38b14610175578063f7023bb614610170578063ff6343841461016b5763fffeb84e1461016657600080fd5b6113b5565b611389565b611345565b611272565b611166565b610fd1565b610df5565b610f19565b610edb565b610dca565b610da3565b610cdc565b610cb9565b610c75565b610b9f565b610b1f565b610b01565b610ae3565b6109ff565b6109d0565b6108b6565b61088a565b6107b7565b610642565b61057e565b6104d5565b610457565b6103e4565b610302565b634e487b7160e01b600052604160045260246000fd5b6080810190811067ffffffffffffffff82111761022957604052565b6101f7565b6040810190811067ffffffffffffffff82111761022957604052565b90601f8019910116810190811067ffffffffffffffff82111761022957604052565b6040519060c0820182811067ffffffffffffffff82111761022957604052565b67ffffffffffffffff811161022957601f01601f191660200190565b9291926102b48261028c565b916102c2604051938461024a565b8294818452818301116102df578281602093846000960137010152565b600080fd5b9080601f830112156102df578160206102ff933591016102a8565b90565b346102df5760603660031901126102df5767ffffffffffffffff6004356024358281116102df576103379036906004016102e4565b916044359081116102df576103509036906004016102e4565b60009282845260016020526001600160a01b0360408520541633036103ba57826103b79385526001602052604085206001600160a01b03198154169055807f85e1543bf2f84fe80c6badbce3648c8539ad1df4d2b3d822938ca0538be727e68680a2612706565b80f35b60046040517fa0c5ec63000000000000000000000000000000000000000000000000000000008152fd5b346102df5760003660031901126102df576020600454604051908152f35b634e487b7160e01b600052603260045260246000fd5b600d5481101561045257600d60005260021b7fd7b6990105719101dabeb77144f2a3385c8033acd3af97e9423a695e81ad1eb50190600090565b610402565b346102df5760203660031901126102df57600435600d548110156102df5761047e90610418565b506001600160a01b038154166104d160018301549260ff6003600283015492015416906040519485948592606092959491956001600160a01b036080860197168552602085015260408401521515910152565b0390f35b346102df5760003660031901126102df5760206001600160a01b03600a5416604051908152f35b9181601f840112156102df5782359167ffffffffffffffff83116102df57602083818601950101116102df57565b6064359067ffffffffffffffff821682036102df57565b6024359067ffffffffffffffff821682036102df57565b6084359063ffffffff821682036102df57565b6044359063ffffffff821682036102df57565b346102df5760a03660031901126102df5767ffffffffffffffff6004358181116102df576105b09036906004016104fc565b91906024358281116102df576105ca9036906004016104fc565b939092604435928184116102df57366023850112156102df5783600401359182116102df573660248360051b860101116102df576104d1956106219561060e61052a565b946024610619610558565b9701936114eb565b6040519081529081906020820190565b6001600160a01b038116036102df57565b346102df5760403660031901126102df5760043561065f81610631565b60243561066a611493565b60009181835260016020526001600160a01b036040842054166106b1576103b7918352600160205260408320906001600160a01b03166001600160a01b0319825416179055565b60046040517f8b457ad2000000000000000000000000000000000000000000000000000000008152fd5b600c5481101561045257600c60005260011b7fdf6966c971051c3d54ec59162606531493a51404a002842f56009d7e5cf4a8c70190600090565b90600182811c92168015610745575b602083101461072f57565b634e487b7160e01b600052602260045260246000fd5b91607f1691610724565b60005b8381106107625750506000910152565b8181015183820152602001610752565b9060209161078b8151809281855285808601910161074f565b601f01601f1916010190565b906107af602091949394604084526040840190610772565b931515910152565b346102df576020806003193601126102df57600435600c548110156102df576107df906106db565b5090604051906000928054916107f483610715565b80855260019380851690811561086e5750600114610837575b505061081f836108279495038561024a565b015460ff1690565b906104d160405192839283610797565b60008381528281209650905b8082106108595750840101935061081f8361080d565b86548683018401529584019590820190610843565b60ff19168387015250151560051b840101935061081f8361080d565b346102df5760203660031901126102df57600435600052600e6020526020604060002054604051908152f35b346102df576000806003193601126109cd576108d061180d565b3360009081526010602052604090206001810154908260028315926108f5841561176b565b6109316003820161091661091161090d835460ff1690565b1590565b6117b6565b610924600b5442111561162b565b805460ff19166001179055565b019182546109676109568661095084600052600e602052604060002090565b54611881565b91600052600e602052604060002090565b558382916109c3575b8280929181923390f1156109be575460408051928352602083019190915233917f4299c453876a68bb29cdb474af75da86e37965eb6469480dddf650271aabb2149190a26103b76001600755565b611801565b6108fc9150610970565b80fd5b346102df5760003660031901126102df5760606012546013546014549060405192835260208301526040820152f35b346102df5760003660031901126102df57610a1d600b54421161190d565b610a2d610a28611958565b611d9a565b610a3a600c548210611a14565b6040518181527f8011ff6cae687162ceadce3755683953b7ca3a4d40ac0d754e9d898f4d46a77a91908290602090a16013548114610a9157610a869150610a816001601255565b601355565b610a8f42601455565b005b50610a9d60145461173c565b421015610aa657005b610ab9610ab4601254611a5f565b601255565b610ac242601455565b600260125403610a8f57601354604051818152610a8f9290602090a1611a8e565b346102df5760003660031901126102df576020600954604051908152f35b346102df5760003660031901126102df576020600b54604051908152f35b346102df5760203660031901126102df57600435610b3c81610631565b6001600160a01b0380911660005260106020526040600020908154166104d160018301549260ff6003600283015492015416906040519485948592606092959491956001600160a01b036080860197168552602085015260408401521515910152565b60203660031901126102df57600435610bbb600c5482106115e0565b610bc9600b5442111561162b565b610c3e604051610bd88161020d565b33815234602082015282604082015260006060820152610bf7816116cd565b610c1534610c0f85600052600e602052604060002090565b5461175e565b610c2984600052600e602052604060002090565b55336000908152601060205260409020611676565b60408051348152602081019290925233917faef4e091ec4a3800e3135934210edcf6949b208c449c51fe586e99d1700ba2c09190a2005b346102df5760203660031901126102df576001600160a01b03600435610c9a81610631565b610ca2611493565b166001600160a01b0319600a541617600a55600080f35b346102df5760003660031901126102df576020610cd4611d5e565b604051908152f35b346102df576000806003193601126109cd576001600160a01b0380600354163303610d5f576002546001600160a01b0316600280546001600160a01b0319163317905590610d356001600160a01b031960035416600355565b3391167f8be0079c531659141344cd1fd0a4f28419497f9722a3daafe3b4186f6b6457e08380a380f35b606460405162461bcd60e51b815260206004820152601660248201527f4d7573742062652070726f706f736564206f776e6572000000000000000000006044820152fd5b346102df5760003660031901126102df5760206001600160a01b0360025416604051908152f35b346102df5760403660031901126102df576020610cd4600435610dec81610631565b6024359061188e565b346102df576000806003193601126109cd576040519080600554610e1881610715565b80855291600191808316908115610eb15750600114610e56575b6104d185610e428187038261024a565b604051918291602083526020830190610772565b9250600583527f036b6384b5eca791c62761152d0c79bb0604c104a5fb6f4eb0703f3154bb3db05b828410610e99575050508101602001610e42826104d1610e32565b80546020858701810191909152909301928101610e7e565b8695506104d196935060209250610e4294915060ff191682840152151560051b8201019293610e32565b346102df5760203660031901126102df576001600160a01b03600435610f0081610631565b1660005260116020526020604060002054604051908152f35b346102df576000806003193601126109cd57610f3361180d565b338152601160205260408120548015610f7c57818080809381610f69336001600160a01b03166000526011602052604060002090565b553382f1156109be576103b76001600755565b606460405162461bcd60e51b815260206004820152601460248201527f4e6f2077696e6e696e677320746f20636c61696d0000000000000000000000006044820152fd5b9060206102ff928181520190610772565b346102df576000806003193601126109cd576004816001600160a01b03815416604051928380927fd328a91e0000000000000000000000000000000000000000000000000000000082525afa9081156109be578291611039575b604051806104d18482610fc0565b90503d8083833e61104a818361024a565b8101906020818303126110b85780519067ffffffffffffffff82116110bc570181601f820112156110b8578051926110818461028c565b9261108f604051948561024a565b848452602085840101116109cd57506104d1926110b2916020808501910161074f565b3861102b565b8280fd5b8380fd5b359060028210156102df57565b359060018210156102df57565b90929167ffffffffffffffff808511610229578460051b60405193602080956111058285018261024a565b8098815201918101938085116102df5781925b8584106111285750505050505050565b83358581116102df57879161114084849387016102e4565b815201930192611118565b9080601f830112156102df578160206102ff933591016110da565b346102df576003196080368201126102df5760043567ffffffffffffffff918282116102df5760c09082360301126102df576111a061026c565b6111ac826004016110c0565b81526111ba602483016110c0565b60208201526111cb604483016110cd565b604082015260648201358381116102df576111ec90600436918501016102e4565b606082015260848201358381116102df5761120d90600436918501016102e4565b608082015260a48201359283116102df576112346112539260046104d1953692010161114b565b60a0820152611241610541565b61124961056b565b9060643592611f4b565b6040516bffffffffffffffffffffffff90911681529081906020820190565b346102df5760203660031901126102df576001600160a01b0360043561129781610631565b61129f611493565b1633811461130157806001600160a01b031960035416176003556112da6112ce6002546001600160a01b031690565b6001600160a01b031690565b7fed8889f560326eb138920d842192f0eb3dd22b4f139c87a2c57538e05bae1278600080a3005b606460405162461bcd60e51b815260206004820152601760248201527f43616e6e6f74207472616e7366657220746f2073656c660000000000000000006044820152fd5b346102df5760203660031901126102df576001600160a01b0360043561136a81610631565b611372611493565b166001600160a01b03196000541617600055600080f35b346102df5760203660031901126102df57600435600052600f6020526020604060002054604051908152f35b346102df576000806003193601126109cd5760405190806006546113d881610715565b80855291600191808316908115611469575060011461140e575b6104d1856114028187038261024a565b60405191829182610fc0565b9250600683527ff652222313e28459528d920b65115c16c04f3efc82aaedc97be59f3f377c0d3f5b828410611451575050508101602001611402826104d16113f2565b80546020858701810191909152909301928101611436565b8695506104d19693506020925061140294915060ff191682840152151560051b82010192936113f2565b6001600160a01b036002541633036114a757565b606460405162461bcd60e51b815260206004820152601660248201527f4f6e6c792063616c6c61626c65206279206f776e6572000000000000000000006044820152fd5b969594919093926114fa611493565b6040519460c0860186811067ffffffffffffffff82111761022957604052600086526000602087015261154d604087019960008b52606088019260608452606060808a0152606060a08a015236916102a8565b908151156115b65760006115759a81895252528061159a575b50508061157e575b5050612391565b6102ff81600455565b6115939161158d9136916110da565b82611ef0565b388061156e565b6115af916115a99136916102a8565b84611eb2565b3880611566565b60046040517f22ce3edd000000000000000000000000000000000000000000000000000000008152fd5b156115e757565b606460405162461bcd60e51b815260206004820152601760248201527f496e76616c69642063616e64696461746520696e6465780000000000000000006044820152fd5b1561163257565b606460405162461bcd60e51b815260206004820152601160248201527f42657474696e672068617320656e6465640000000000000000000000000000006044820152fd5b60036060916116a56001600160a01b0385511682906001600160a01b03166001600160a01b0319825416179055565b602084015160018201556040840151600282015501910151151560ff80198354169116179055565b600d549068010000000000000000821015610229576001820180600d558210156104525761172491600d60005260021b7fd7b6990105719101dabeb77144f2a3385c8033acd3af97e9423a695e81ad1eb501611676565b565b634e487b7160e01b600052601160045260246000fd5b9061012c820180921161174b57565b611726565b906020820180921161174b57565b9190820180921161174b57565b1561177257565b606460405162461bcd60e51b815260206004820152601260248201527f4e6f2062657420746f20776974686472617700000000000000000000000000006044820152fd5b156117bd57565b606460405162461bcd60e51b815260206004820152601560248201527f42657420616c72656164792077697468647261776e00000000000000000000006044820152fd5b6040513d6000823e3d90fd5b60026007541461181e576002600755565b606460405162461bcd60e51b815260206004820152601f60248201527f5265656e7472616e637947756172643a207265656e7472616e742063616c6c006044820152fd5b6113871981019190821161174b57565b601f1981019190821161174b57565b9190820391821161174b57565b61189b600c5483106115e0565b6001600160a01b038091166000526010602052604060002091604051916118c18361020d565b835416825260018301549283602084015260ff6003600283015492836040870152015416159260608415910152149081611905575b50156118ff5790565b50600090565b9050386118f6565b1561191457565b606460405162461bcd60e51b815260206004820152601c60248201527f42657474696e67206973207374696c6c20696e2070726f6772657373000000006044820152fd5b604051906000826005549161196c83610715565b808352926001908181169081156119f25750600114611993575b506117249250038361024a565b6005600090815291507f036b6384b5eca791c62761152d0c79bb0604c104a5fb6f4eb0703f3154bb3db05b8483106119d75750611724935050810160200138611986565b81935090816020925483858a010152019101909185926119be565b90506020925061172494915060ff191682840152151560051b82010138611986565b15611a1b57565b606460405162461bcd60e51b815260206004820152600e60248201527f496e76616c69642077696e6e65720000000000000000000000000000000000006044820152fd5b600019811461174b5760010190565b8115611a78570490565b634e487b7160e01b600052601260045260246000fd5b6000818152600e60205260408120548015611cb557600f6020526040822055600d54916064830180841161174b576063840190811161174b576064900492611ae082600052600e602052604060002090565b5490611aea611d5e565b606491808311611cad575b509084918293835b838110611be857505050508080611b22611b1b829560095490611cd0565b6064900490565b611b3a6112ce6112ce600a546001600160a01b031690565b828215611bdf575bf1156109be5782600110611b5557505050565b61172492829182611bbe611bcc611b6b5a611862565b9460405192839160208301967f9aa2d06b00000000000000000000000000000000000000000000000000000000885260248401606090939291936080810194815260016020820152606460408201520152565b03601f19810183528261024a565b51923090f1611bd9611ce3565b50611d13565b506108fc611b42565b9091929350856002611bf983610418565b50015414611c15575b611c0b90611a5f565b9086939291611afd565b93611ca5611c0b91611c55611c4085611c3b886001611c338d610418565b500154611cd0565b611a6e565b611c4f611b1b60095483611cd0565b90611881565b90611c9082610c0f611c77611c698c610418565b50546001600160a01b031690565b6001600160a01b03166000526011602052604060002090565b611c9f611c77611c698b610418565b5561175e565b949050611c02565b915038611af5565b505050565b908160011b918083046002149015171561174b57565b8181029291811591840414171561174b57565b3d15611d0e573d90611cf48261028c565b91611d02604051938461024a565b82523d6000602084013e565b606090565b15611d1a57565b606460405162461bcd60e51b815260206004820152601960248201527f426174636820646973747269627574696f6e206661696c6564000000000000006044820152fd5b600080600d545b808210611d7157505090565b90916001611d7e84610418565b500154810180911161174b57611d949092611a5f565b90611d65565b600c549060005b828110611db15750505060001990565b611dba816106db565b5060405190600091815481611dce82610715565b9485825260209586830195600194888682169182600014611e64575050600114611e24575b5050611e019250038261024a565b5190209083519084012014611e1e57611e1990611a5f565b611da1565b91505090565b87925060005281600020936000945b828610611e4b57505050611e01928201013880611df3565b8054868801850152929094019385935087928101611e33565b9250935050611e01945060ff19168652151560051b8201013880611df3565b634e487b7160e01b600052602160045260246000fd5b60021115611ea357565b611e83565b60011115611ea357565b815115611ec6576001602082015260800152565b60046040517fe889636f000000000000000000000000000000000000000000000000000000008152fd5b815115611efd5760a00152565b60046040517ffe936cb7000000000000000000000000000000000000000000000000000000008152fd5b908160209103126102df57516bffffffffffffffffffffffff811681036102df5790565b67ffffffffffffffff611fbb9492602094611f716001600160a01b0360005416946121a9565b9463ffffffff604051988997889687967fd227d245000000000000000000000000000000000000000000000000000000008852166004870152608060248701526084860190610772565b92166044840152606483015203915afa9081156109be57600091611fdd575090565b6102ff915060203d8111611ffe575b611ff6818361024a565b810190611f27565b503d611fec565b604051906120128261022e565b6000602083606081520152565b6040519061202c8261022e565b6000602083612039612005565b81520152565b6040519061204c8261022e565b600c82527f636f64654c6f636174696f6e00000000000000000000000000000000000000006020830152565b604051906120858261022e565b600882527f6c616e67756167650000000000000000000000000000000000000000000000006020830152565b604051906120be8261022e565b600682527f736f7572636500000000000000000000000000000000000000000000000000006020830152565b604051906120f78261022e565b600482527f61726773000000000000000000000000000000000000000000000000000000006020830152565b80518210156104525760209160051b010190565b604051906121448261022e565b600f82527f736563726574734c6f636174696f6e00000000000000000000000000000000006020830152565b6040519061217d8261022e565b600782527f73656372657473000000000000000000000000000000000000000000000000006020830152565b6121b161201f565b906121bc825161284f565b506121ce6121c861203f565b83612f45565b6121eb81516121dc81611e99565b6121e581611e99565b836128ce565b6121f66121c8612078565b612210604082015161220781611ea8565b6121e581611ea8565b61221b6121c86120b1565b612229606082015183612f45565b60a081018051516122e1575b50608081019081515161224a575b5050515190565b60200190815161225981611e99565b61226281611e99565b156122b7576122986122b09261227f612279612137565b86612f45565b5161228981611e99565b61229281611e99565b846128ce565b6122a96122a3612170565b84612f45565b5182612e8f565b3880612243565b60046040517fa80d31f7000000000000000000000000000000000000000000000000000000008152fd5b926122ed6122a36120ea565b6122f683612fca565b60005b84518051821015612326579061231c6123158261232194612123565b5186612f45565b611a5f565b6122f9565b5050925061233382613056565b38612235565b908160209103126102df575190565b9161237563ffffffff9167ffffffffffffffff604094979697168552606060208601526060850190610772565b9416910152565b908160209103126102df57516102ff81610631565b6123f3929160009384926123b86123b26112ce86546001600160a01b031690565b916121a9565b946040519687809481937f28242b040000000000000000000000000000000000000000000000000000000083526020998a9860048501612348565b03925af19283156109be5781936124e3575b50808261241e6112ce600494546001600160a01b031690565b604051938480927f5ab1bd530000000000000000000000000000000000000000000000000000000082525afa9283156109be5784937f1131472297a800fee664d1d89cfa8f7676ff07189ecc53f80bbb5f4969099db8936124b19284926124b6575b5050612496856000526001602052604060002090565b906001600160a01b03166001600160a01b0319825416179055565b80a290565b6124d59250803d106124dc575b6124cd818361024a565b81019061237c565b3880612480565b503d6124c3565b600491935061250790833d851161250e575b6124ff818361024a565b810190612339565b9290612405565b503d6124f5565b601f8111612521575050565b600090600582527f036b6384b5eca791c62761152d0c79bb0604c104a5fb6f4eb0703f3154bb3db0906020601f850160051c8301941061257c575b601f0160051c01915b82811061257157505050565b818155600101612565565b909250829061255c565b601f8111612592575050565b600090600682527ff652222313e28459528d920b65115c16c04f3efc82aaedc97be59f3f377c0d3f906020601f850160051c830194106125ed575b601f0160051c01915b8281106125e257505050565b8181556001016125d6565b90925082906125cd565b90815167ffffffffffffffff81116102295761261d81612618600654610715565b612586565b602080601f8311600114612659575081929360009261264e575b50508160011b916000199060031b1c191617600655565b015190503880612637565b90601f1983169461268c60066000527ff652222313e28459528d920b65115c16c04f3efc82aaedc97be59f3f377c0d3f90565b926000905b8782106126c95750508360019596106126b0575b505050811b01600655565b015160001960f88460031b161c191690553880806126a5565b80600185968294968601518155019501930190612691565b90916126f86102ff93604084526040840190610772565b916020818403910152610772565b9190805167ffffffffffffffff81116102295761272d81612728600554610715565b612515565b602080601f83116001146127a7575090807f7bab0ec163b5c132c72b8146ac4d6e067e82ed58f8b131150aa71c925891156294939260009161279c575b508160011b916000199060031b1c1916176005555b612788826125f7565b612797604051928392836126e1565b0390a2565b90508201513861276a565b600560005290601f1983167f036b6384b5eca791c62761152d0c79bb0604c104a5fb6f4eb0703f3154bb3db0926000905b8282106128375750509183917f7bab0ec163b5c132c72b8146ac4d6e067e82ed58f8b131150aa71c92589115629695946001941061281e575b5050811b0160055561277f565b84015160001960f88460031b161c191690553880612811565b80600185968294968a015181550195019301906127d8565b612857612005565b5061010060208201526040518082526000815261012081019081106102df5760405290565b90612885612005565b50601f8116806128b4575b50806020830152604051908183526000825281016020019081106102df5760405290565b6020036020811161174b57810180911161174b5738612890565b908151916128da612005565b50825151600181019081811161174b576020850151811015612933575b60c26020611724965192830101538051821161292b575b5050604051916020830152602082526129268261022e565b612e8f565b52388061290e565b8160011b948286046002148315171561174b576020816129656117249861295e60c29551918461287c565b5082612dd7565b50965050506128f7565b612977612005565b50805151600181019081811161174b5760208301518110156129b0575b605b602084519283010153805182116129ac57505090565b5290565b8160011b8281046002148315171561174b576129d9906129d28551918661287c565b5084612dd7565b50612994565b6129e7612005565b50805151600181019081811161174b576020830151811015612a1c575b605a602084519283010153805182116129ac57505090565b8160011b8281046002148315171561174b57612a3e906129d28551918661287c565b50612a04565b612a4c612005565b50805151600181019081811161174b576020830151811015612a81575b6059602084519283010153805182116129ac57505090565b8160011b8281046002148315171561174b57612aa3906129d28551918661287c565b50612a69565b612ab1612005565b50805151600181019081811161174b576020830151811015612ae6575b6058602084519283010153805182116129ac57505090565b8160011b8281046002148315171561174b57612b08906129d28551918661287c565b50612ace565b612b16612005565b50805151600181019081811161174b576020830151811015612b4b575b607b602084519283010153805182116129ac57505090565b8160011b8281046002148315171561174b57612b6d906129d28551918661287c565b50612b33565b612b7b612005565b50805151600181019081811161174b576020830151811015612bb0575b607a602084519283010153805182116129ac57505090565b8160011b8281046002148315171561174b57612bd2906129d28551918661287c565b50612b98565b612be0612005565b50805151600181019081811161174b576020830151811015612c15575b6079602084519283010153805182116129ac57505090565b8160011b8281046002148315171561174b57612c37906129d28551918661287c565b50612bfd565b612c45612005565b50805151600181019081811161174b576020830151811015612c7a575b6078602084519283010153805182116129ac57505090565b8160011b8281046002148315171561174b57612c9c906129d28551918661287c565b50612c62565b90612cab612005565b50815151600181019182821161174b576020840151821015612cde575b602084519283010153805182116129ac57505090565b8260011b8381046002148415171561174b57612d0790612d008651918761287c565b5085612dd7565b50612cc8565b90612d1a8251918361287c565b50612d23612005565b50805190612d2f612005565b50612d3d8151831115612e88565b82515192612d4b838561175e565b916020928284809401518211612dc0575b5183815197820101968211612db8575b505001915b81811015612d925760001991036101000a0190811990511690825116179052565b9192612dad612da7612db39286518152611750565b94611750565b92611872565b612d71565b523880612d6c565b612dd2612dcc83611cba565b82612d0d565b612d5c565b90612de0612005565b508051612deb612005565b50612df98251821115612e88565b82515191612e07828461175e565b6020918291828701518111612e71575b865183815197820101968211612e69575b505001915b81811015612e4f5760001991036101000a019081199051169082511617905290565b9192612dad612da7612e649286518152611750565b612e2d565b523880612e28565b612e83612e7d82611cba565b88612d0d565b612e17565b156102df57565b8151612ec792919067ffffffffffffffff81169060178211612eca57612ebf9150604060ff845192161790612ca2565b505b51612dd7565b50565b5060ff8111612eef57612ee990612ee18351612aa9565b508251613220565b50612ec1565b61ffff8111612f0e57612ee990612f068351612a44565b5082516131b9565b63ffffffff8111612f2f57612ee990612f2783516129df565b508251613150565b612ee990612f3d835161296f565b5082516130e3565b8151612ec792919067ffffffffffffffff81169060178211612f7557612ebf9150606060ff845192161790612ca2565b5060ff8111612f8c57612ee990612ee18351612c3d565b61ffff8111612fa357612ee990612f068351612bd8565b63ffffffff8111612fbc57612ee990612f278351612b73565b612ee990612f3d8351612b0e565b805190612fd5612005565b50815151600181019081811161174b576020840151811015613023575b609f602080955192830101538051821161301b575b5050018051906001820180921161174b5752565b523880613007565b8160011b938285046002148315171561174b5760208161304c829761295e609f9551918461287c565b5095505050612ff2565b805190613061612005565b50815151600181019081811161174b5760208401518110156130b0575b60ff60208095519283010153805182116130a8575b505001805160001981019190821161174b5752565b523880613093565b8160011b938285046002148315171561174b576020816130d9829761295e60ff9551918461287c565b509550505061307e565b906130ec612005565b5081515180600801918260081161174b576020840151831161312f575b60088451928301019067ffffffffffffffff19825116179052805182116129ac57505090565b8260011b8381046002148415171561174b5761314b9085612d0d565b613109565b90613159612005565b5081515180600401918260041161174b5760208401518311613198575b60048451928301019063ffffffff19825116179052805182116129ac57505090565b8260011b8381046002148415171561174b576131b49085612d0d565b613176565b906131c2612005565b5081515180600201918260021161174b57602084015183116131ff575b60028451928301019061ffff19825116179052805182116129ac57505090565b8260011b8381046002148415171561174b5761321b9085612d0d565b6131df565b90613229612005565b5081515180600101918260011161174b5760208401518311613265575b60018451928301019060ff19825116179052805182116129ac57505090565b8260011b8381046002148415171561174b576132819085612d0d565b61324656fea264697066735822122067678be1d47ccf8a9a4fb9d5aace87b1a5367738d8bb043b64f2c2f2c97810bc64736f6c63430008130033",
  "linkReferences": {},
  "deployedLinkReferences": {}
}