{
  "_format": "hh-sol-artifact-1",
  "contractName": "WikiWager",
  "sourceName": "contracts/WikiWager.sol",
  "abi": [
    {
      "inputs": [
        {
          "internalType": "address",
          "name": "_oracle",
          "type": "address"
        },
        {
          "internalType": "uint256",
          "name": "_serviceFeePercentage",
          "type": "uint256"
        },
        {
          "internalType": "address",
          "name": "_serviceFeeWallet",
          "type": "address"
        },
        {
          "internalType": "uint256",
          "name": "_bettingEndTime",
          "type": "uint256"
        },
        {
          "internalType": "string[]",
          "name": "_candidateNames",
          "type": "string[]"
        }
      ],
      "stateMutability": "nonpayable",
      "type": "constructor"
    },
    {
      "inputs": [],
      "name": "EmptyArgs",
      "type": "error"
    },
    {
      "inputs": [],
      "name": "EmptySecrets",
      "type": "error"
    },
    {
      "inputs": [],
      "name": "EmptySource",
      "type": "error"
    },
    {
      "inputs": [],
      "name": "NoInlineSecrets",
      "type": "error"
    },
    {
      "inputs": [],
      "name": "RequestIsAlreadyPending",
      "type": "error"
    },
    {
      "inputs": [],
      "name": "RequestIsNotPending",
      "type": "error"
    },
    {
      "inputs": [],
      "name": "SenderIsNotRegistry",
      "type": "error"
    },
    {
      "anonymous": false,
      "inputs": [
        {
          "indexed": true,
          "internalType": "address",
          "name": "bettor",
          "type": "address"
        },
        {
          "indexed": false,
          "internalType": "uint256",
          "name": "amount",
          "type": "uint256"
        },
        {
          "indexed": false,
          "internalType": "uint256",
          "name": "candidateIndex",
          "type": "uint256"
        }
      ],
      "name": "BetMade",
      "type": "event"
    },
    {
      "anonymous": false,
      "inputs": [
        {
          "indexed": true,
          "internalType": "address",
          "name": "bettor",
          "type": "address"
        },
        {
          "indexed": false,
          "internalType": "uint256",
          "name": "amount",
          "type": "uint256"
        },
        {
          "indexed": false,
          "internalType": "uint256",
          "name": "candidateIndex",
          "type": "uint256"
        }
      ],
      "name": "BetWithdrawn",
      "type": "event"
    },
    {
      "anonymous": false,
      "inputs": [
        {
          "indexed": false,
          "internalType": "uint256",
          "name": "winnerIndex",
          "type": "uint256"
        }
      ],
      "name": "EventResultReceived",
      "type": "event"
    },
    {
      "anonymous": false,
      "inputs": [
        {
          "indexed": true,
          "internalType": "bytes32",
          "name": "requestId",
          "type": "bytes32"
        },
        {
          "indexed": false,
          "internalType": "bytes",
          "name": "result",
          "type": "bytes"
        },
        {
          "indexed": false,
          "internalType": "bytes",
          "name": "err",
          "type": "bytes"
        }
      ],
      "name": "OCRResponse",
      "type": "event"
    },
    {
      "anonymous": false,
      "inputs": [
        {
          "indexed": true,
          "internalType": "address",
          "name": "from",
          "type": "address"
        },
        {
          "indexed": true,
          "internalType": "address",
          "name": "to",
          "type": "address"
        }
      ],
      "name": "OwnershipTransferRequested",
      "type": "event"
    },
    {
      "anonymous": false,
      "inputs": [
        {
          "indexed": true,
          "internalType": "address",
          "name": "from",
          "type": "address"
        },
        {
          "indexed": true,
          "internalType": "address",
          "name": "to",
          "type": "address"
        }
      ],
      "name": "OwnershipTransferred",
      "type": "event"
    },
    {
      "anonymous": false,
      "inputs": [
        {
          "indexed": true,
          "internalType": "bytes32",
          "name": "id",
          "type": "bytes32"
        }
      ],
      "name": "RequestFulfilled",
      "type": "event"
    },
    {
      "anonymous": false,
      "inputs": [
        {
          "indexed": true,
          "internalType": "bytes32",
          "name": "id",
          "type": "bytes32"
        }
      ],
      "name": "RequestSent",
      "type": "event"
    },
    {
      "inputs": [],
      "name": "acceptOwnership",
      "outputs": [],
      "stateMutability": "nonpayable",
      "type": "function"
    },
    {
      "inputs": [
        {
          "internalType": "address",
          "name": "oracleAddress",
          "type": "address"
        },
        {
          "internalType": "bytes32",
          "name": "requestId",
          "type": "bytes32"
        }
      ],
      "name": "addSimulatedRequestId",
      "outputs": [],
      "stateMutability": "nonpayable",
      "type": "function"
    },
    {
      "inputs": [
        {
          "internalType": "uint256",
          "name": "",
          "type": "uint256"
        }
      ],
      "name": "bets",
      "outputs": [
        {
          "internalType": "address",
          "name": "bettor",
          "type": "address"
        },
        {
          "internalType": "uint256",
          "name": "amount",
          "type": "uint256"
        },
        {
          "internalType": "uint256",
          "name": "candidateIndex",
          "type": "uint256"
        },
        {
          "internalType": "bool",
          "name": "withdrawn",
          "type": "bool"
        }
      ],
      "stateMutability": "view",
      "type": "function"
    },
    {
      "inputs": [],
      "name": "bettingEndTime",
      "outputs": [
        {
          "internalType": "uint256",
          "name": "",
          "type": "uint256"
        }
      ],
      "stateMutability": "view",
      "type": "function"
    },
    {
      "inputs": [
        {
          "internalType": "address",
          "name": "user",
          "type": "address"
        },
        {
          "internalType": "uint256",
          "name": "candidateIndex",
          "type": "uint256"
        }
      ],
      "name": "calculateUserBet",
      "outputs": [
        {
          "internalType": "uint256",
          "name": "",
          "type": "uint256"
        }
      ],
      "stateMutability": "view",
      "type": "function"
    },
    {
      "inputs": [
        {
          "internalType": "uint256",
          "name": "",
          "type": "uint256"
        }
      ],
      "name": "candidateWinnings",
      "outputs": [
        {
          "internalType": "uint256",
          "name": "",
          "type": "uint256"
        }
      ],
      "stateMutability": "view",
      "type": "function"
    },
    {
      "inputs": [
        {
          "internalType": "uint256",
          "name": "",
          "type": "uint256"
        }
      ],
      "name": "candidates",
      "outputs": [
        {
          "internalType": "string",
          "name": "name",
          "type": "string"
        },
        {
          "internalType": "bool",
          "name": "exists",
          "type": "bool"
        }
      ],
      "stateMutability": "view",
      "type": "function"
    },
    {
      "inputs": [],
      "name": "claimWinnings",
      "outputs": [],
      "stateMutability": "nonpayable",
      "type": "function"
    },
    {
      "inputs": [
        {
          "components": [
            {
              "internalType": "enum Functions.Location",
              "name": "codeLocation",
              "type": "uint8"
            },
            {
              "internalType": "enum Functions.Location",
              "name": "secretsLocation",
              "type": "uint8"
            },
            {
              "internalType": "enum Functions.CodeLanguage",
              "name": "language",
              "type": "uint8"
            },
            {
              "internalType": "string",
              "name": "source",
              "type": "string"
            },
            {
              "internalType": "bytes",
              "name": "secrets",
              "type": "bytes"
            },
            {
              "internalType": "string[]",
              "name": "args",
              "type": "string[]"
            }
          ],
          "internalType": "struct Functions.Request",
          "name": "req",
          "type": "tuple"
        },
        {
          "internalType": "uint64",
          "name": "subscriptionId",
          "type": "uint64"
        },
        {
          "internalType": "uint32",
          "name": "gasLimit",
          "type": "uint32"
        },
        {
          "internalType": "uint256",
          "name": "gasPrice",
          "type": "uint256"
        }
      ],
      "name": "estimateCost",
      "outputs": [
        {
          "internalType": "uint96",
          "name": "",
          "type": "uint96"
        }
      ],
      "stateMutability": "view",
      "type": "function"
    },
    {
      "inputs": [],
      "name": "eventConfirmation",
      "outputs": [
        {
          "internalType": "uint256",
          "name": "count",
          "type": "uint256"
        },
        {
          "internalType": "uint256",
          "name": "resultIndex",
          "type": "uint256"
        },
        {
          "internalType": "uint256",
          "name": "lastConfirmationTimestamp",
          "type": "uint256"
        }
      ],
      "stateMutability": "view",
      "type": "function"
    },
    {
      "inputs": [
        {
          "internalType": "string",
          "name": "source",
          "type": "string"
        },
        {
          "internalType": "bytes",
          "name": "secrets",
          "type": "bytes"
        },
        {
          "internalType": "string[]",
          "name": "args",
          "type": "string[]"
        },
        {
          "internalType": "uint64",
          "name": "subscriptionId",
          "type": "uint64"
        },
        {
          "internalType": "uint32",
          "name": "gasLimit",
          "type": "uint32"
        }
      ],
      "name": "executeRequest",
      "outputs": [
        {
          "internalType": "bytes32",
          "name": "",
          "type": "bytes32"
        }
      ],
      "stateMutability": "nonpayable",
      "type": "function"
    },
    {
      "inputs": [],
      "name": "fulfill",
      "outputs": [],
      "stateMutability": "nonpayable",
      "type": "function"
    },
    {
      "inputs": [],
      "name": "getDONPublicKey",
      "outputs": [
        {
          "internalType": "bytes",
          "name": "",
          "type": "bytes"
        }
      ],
      "stateMutability": "view",
      "type": "function"
    },
    {
      "inputs": [],
      "name": "getLatestResponse",
      "outputs": [
        {
          "internalType": "string",
          "name": "",
          "type": "string"
        }
      ],
      "stateMutability": "view",
      "type": "function"
    },
    {
      "inputs": [],
      "name": "getTotalBetsPool",
      "outputs": [
        {
          "internalType": "uint256",
          "name": "",
          "type": "uint256"
        }
      ],
      "stateMutability": "view",
      "type": "function"
    },
    {
      "inputs": [
        {
          "internalType": "bytes32",
          "name": "requestId",
          "type": "bytes32"
        },
        {
          "internalType": "bytes",
          "name": "response",
          "type": "bytes"
        },
        {
          "internalType": "bytes",
          "name": "err",
          "type": "bytes"
        }
      ],
      "name": "handleOracleFulfillment",
      "outputs": [],
      "stateMutability": "nonpayable",
      "type": "function"
    },
    {
      "inputs": [],
      "name": "latestError",
      "outputs": [
        {
          "internalType": "bytes",
          "name": "",
          "type": "bytes"
        }
      ],
      "stateMutability": "view",
      "type": "function"
    },
    {
      "inputs": [],
      "name": "latestRequestId",
      "outputs": [
        {
          "internalType": "bytes32",
          "name": "",
          "type": "bytes32"
        }
      ],
      "stateMutability": "view",
      "type": "function"
    },
    {
      "inputs": [],
      "name": "latestResponse",
      "outputs": [
        {
          "internalType": "bytes",
          "name": "",
          "type": "bytes"
        }
      ],
      "stateMutability": "view",
      "type": "function"
    },
    {
      "inputs": [
        {
          "internalType": "uint256",
          "name": "candidateIndex",
          "type": "uint256"
        }
      ],
      "name": "makeBet",
      "outputs": [],
      "stateMutability": "payable",
      "type": "function"
    },
    {
      "inputs": [],
      "name": "owner",
      "outputs": [
        {
          "internalType": "address",
          "name": "",
          "type": "address"
        }
      ],
      "stateMutability": "view",
      "type": "function"
    },
    {
      "inputs": [],
      "name": "serviceFeePercentage",
      "outputs": [
        {
          "internalType": "uint256",
          "name": "",
          "type": "uint256"
        }
      ],
      "stateMutability": "view",
      "type": "function"
    },
    {
      "inputs": [],
      "name": "serviceFeeWallet",
      "outputs": [
        {
          "internalType": "address",
          "name": "",
          "type": "address"
        }
      ],
      "stateMutability": "view",
      "type": "function"
    },
    {
      "inputs": [
        {
          "internalType": "address",
          "name": "_serviceFeeWallet",
          "type": "address"
        }
      ],
      "name": "setServiceFeeWallet",
      "outputs": [],
      "stateMutability": "nonpayable",
      "type": "function"
    },
    {
      "inputs": [
        {
          "internalType": "uint256",
          "name": "",
          "type": "uint256"
        }
      ],
      "name": "totalBets",
      "outputs": [
        {
          "internalType": "uint256",
          "name": "",
          "type": "uint256"
        }
      ],
      "stateMutability": "view",
      "type": "function"
    },
    {
      "inputs": [
        {
          "internalType": "address",
          "name": "to",
          "type": "address"
        }
      ],
      "name": "transferOwnership",
      "outputs": [],
      "stateMutability": "nonpayable",
      "type": "function"
    },
    {
      "inputs": [
        {
          "internalType": "address",
          "name": "oracle",
          "type": "address"
        }
      ],
      "name": "updateOracleAddress",
      "outputs": [],
      "stateMutability": "nonpayable",
      "type": "function"
    },
    {
      "inputs": [
        {
          "internalType": "address",
          "name": "",
          "type": "address"
        }
      ],
      "name": "userBet",
      "outputs": [
        {
          "internalType": "address",
          "name": "bettor",
          "type": "address"
        },
        {
          "internalType": "uint256",
          "name": "amount",
          "type": "uint256"
        },
        {
          "internalType": "uint256",
          "name": "candidateIndex",
          "type": "uint256"
        },
        {
          "internalType": "bool",
          "name": "withdrawn",
          "type": "bool"
        }
      ],
      "stateMutability": "view",
      "type": "function"
    },
    {
      "inputs": [
        {
          "internalType": "address",
          "name": "",
          "type": "address"
        }
      ],
      "name": "userWinnings",
      "outputs": [
        {
          "internalType": "uint256",
          "name": "",
          "type": "uint256"
        }
      ],
      "stateMutability": "view",
      "type": "function"
    },
    {
      "inputs": [],
      "name": "withdraw",
      "outputs": [],
      "stateMutability": "nonpayable",
      "type": "function"
    }
  ],
  "bytecode": "0x604060808152346200045f57620037b990813803806200001f816200048f565b93843982019160a0818403126200045f576200003b81620004b5565b90602090818101519162000051858301620004b5565b606083015160808401516001600160401b03949192918582116200045f570188601f820112156200045f57805198858a1162000479578960051b9085806200009b8185016200048f565b809d81520192840101928184116200045f57868101925b848410620003ce57505050505060018060a01b038096169560018060a01b031991600096888489541617885533156200038a5733846002541617600255600198896007558460085416176008556009551690600a541617600a55600b558451916060830196838810828911176200037657859787528484528487600019958686820152015284601255836013558460145584975b6200015b575b86516132ee9081620004cb8239f35b80518810156200037057828860051b82010151875190888201828110858211176200035c578952815283810190878252600c8054906801000000000000000082101562000334578982018082558210156200034857885285882090891b019051805190858211620003345782548a81811c9116801562000329575b8882101462000315579081601f8c95949311620002c1575b508790601f83116001146200025c578a91908362000250575b50508882851b9260031b1c19161781555b019051151560ff801983541691161790558388146200023c57968501968562000146565b634e487b7160e01b85526011600452602485fd5b01519050388062000207565b838b52888b209190601f1984168c5b8b828210620002aa575050908487959493921062000292575b505050811b01815562000218565b01518a60f88460031b161c1916905538808062000284565b8385015186558f989095019493840193016200026b565b9091928094508a52878a20601f840160051c8101918985106200030a575b90601f8d96959493920160051c01905b818110620002fe5750620001ee565b8b81558c9501620002ef565b9091508190620002df565b634e487b7160e01b8a52602260045260248afd5b90607f1690620001d6565b634e487b7160e01b89526041600452602489fd5b634e487b7160e01b89526032600452602489fd5b634e487b7160e01b88526041600452602488fd5b6200014c565b634e487b7160e01b85526041600452602485fd5b895162461bcd60e51b815260048101879052601860248201527f43616e6e6f7420736574206f776e657220746f207a65726f00000000000000006044820152606490fd5b83518981116200045f57820183603f820112156200045f57888101518a811162000464578d918562000409601f8401601f19168d016200048f565b9383855283830101116200045f57908a92918f6000905b83821062000442575050509060008380959383010152815201930192620000b2565b81839495969301015182828701015201908f918c94939262000420565b600080fd5b60246000634e487b7160e01b81526041600452fd5b634e487b7160e01b600052604160045260246000fd5b6040519190601f01601f191682016001600160401b038111838210176200047957604052565b51906001600160a01b03821682036200045f5756fe6080604052600436101561001257600080fd5b60003560e01c80630ca76175146101f25780631aa46f59146101ed57806322af00fa146101e8578063271b69c2146101e357806327714589146101de57806330bda99d146101d95780633477ee2e146101d4578063374c6e1c146101cf5780633ccfd60b146101ca578063431a4518146101c55780636032f4a6146101c0578063603ef649146101bb57806367075032146101b657806367ad4ec2146101b1578063718cc769146101ac57806372281386146101a757806375bd9f9c146101a257806379ba50971461019d5780638da5cb5b14610198578063900089de14610193578063a814e34f14610184578063a815a4d41461018e578063b401faf114610189578063bef3a2f014610184578063d328a91e1461017f578063d4b391751461017a578063f2fde38b14610175578063f7023bb614610170578063ff6343841461016b5763fffeb84e1461016657600080fd5b6113c1565b611395565b611351565b61127e565b611172565b610fdd565b610e01565b610f25565b610ee7565b610dd6565b610daf565b610ce8565b610cc5565b610c81565b610bab565b610b2b565b610b0d565b610aef565b6109ff565b6109d0565b6108b6565b61088a565b6107b7565b610642565b61057e565b6104d5565b610457565b6103e4565b610302565b634e487b7160e01b600052604160045260246000fd5b6080810190811067ffffffffffffffff82111761022957604052565b6101f7565b6040810190811067ffffffffffffffff82111761022957604052565b90601f8019910116810190811067ffffffffffffffff82111761022957604052565b6040519060c0820182811067ffffffffffffffff82111761022957604052565b67ffffffffffffffff811161022957601f01601f191660200190565b9291926102b48261028c565b916102c2604051938461024a565b8294818452818301116102df578281602093846000960137010152565b600080fd5b9080601f830112156102df578160206102ff933591016102a8565b90565b346102df5760603660031901126102df5767ffffffffffffffff6004356024358281116102df576103379036906004016102e4565b916044359081116102df576103509036906004016102e4565b60009282845260016020526001600160a01b0360408520541633036103ba57826103b79385526001602052604085206001600160a01b03198154169055807f85e1543bf2f84fe80c6badbce3648c8539ad1df4d2b3d822938ca0538be727e68680a2612738565b80f35b60046040517fa0c5ec63000000000000000000000000000000000000000000000000000000008152fd5b346102df5760003660031901126102df576020600454604051908152f35b634e487b7160e01b600052603260045260246000fd5b600d5481101561045257600d60005260021b7fd7b6990105719101dabeb77144f2a3385c8033acd3af97e9423a695e81ad1eb50190600090565b610402565b346102df5760203660031901126102df57600435600d548110156102df5761047e90610418565b506001600160a01b038154166104d160018301549260ff6003600283015492015416906040519485948592606092959491956001600160a01b036080860197168552602085015260408401521515910152565b0390f35b346102df5760003660031901126102df5760206001600160a01b03600a5416604051908152f35b9181601f840112156102df5782359167ffffffffffffffff83116102df57602083818601950101116102df57565b6064359067ffffffffffffffff821682036102df57565b6024359067ffffffffffffffff821682036102df57565b6084359063ffffffff821682036102df57565b6044359063ffffffff821682036102df57565b346102df5760a03660031901126102df5767ffffffffffffffff6004358181116102df576105b09036906004016104fc565b91906024358281116102df576105ca9036906004016104fc565b939092604435928184116102df57366023850112156102df5783600401359182116102df573660248360051b860101116102df576104d1956106219561060e61052a565b946024610619610558565b9701936114f7565b6040519081529081906020820190565b6001600160a01b038116036102df57565b346102df5760403660031901126102df5760043561065f81610631565b60243561066a61149f565b60009181835260016020526001600160a01b036040842054166106b1576103b7918352600160205260408320906001600160a01b03166001600160a01b0319825416179055565b60046040517f8b457ad2000000000000000000000000000000000000000000000000000000008152fd5b600c5481101561045257600c60005260011b7fdf6966c971051c3d54ec59162606531493a51404a002842f56009d7e5cf4a8c70190600090565b90600182811c92168015610745575b602083101461072f57565b634e487b7160e01b600052602260045260246000fd5b91607f1691610724565b60005b8381106107625750506000910152565b8181015183820152602001610752565b9060209161078b8151809281855285808601910161074f565b601f01601f1916010190565b906107af602091949394604084526040840190610772565b931515910152565b346102df576020806003193601126102df57600435600c548110156102df576107df906106db565b5090604051906000928054916107f483610715565b80855260019380851690811561086e5750600114610837575b505061081f836108279495038561024a565b015460ff1690565b906104d160405192839283610797565b60008381528281209650905b8082106108595750840101935061081f8361080d565b86548683018401529584019590820190610843565b60ff19168387015250151560051b840101935061081f8361080d565b346102df5760203660031901126102df57600435600052600e6020526020604060002054604051908152f35b346102df576000806003193601126109cd576108d0611819565b3360009081526010602052604090206001810154908260028315926108f58415611777565b6109316003820161091661091161090d835460ff1690565b1590565b6117c2565b610924600b54421115611637565b805460ff19166001179055565b019182546109676109568661095084600052600e602052604060002090565b5461188d565b91600052600e602052604060002090565b558382916109c3575b8280929181923390f1156109be575460408051928352602083019190915233917f4299c453876a68bb29cdb474af75da86e37965eb6469480dddf650271aabb2149190a26103b76001600755565b61180d565b6108fc9150610970565b80fd5b346102df5760003660031901126102df5760606012546013546014549060405192835260208301526040820152f35b346102df5760003660031901126102df57610a1861149f565b601254610a2760028210611919565b610a37610a3261198a565b611dcc565b610a44600c548210611a46565b6040518181527f8011ff6cae687162ceadce3755683953b7ca3a4d40ac0d754e9d898f4d46a77a92908390602090a16013548214610a9c5750610a919150610a8c6001601255565b601355565b610a9a42601455565b005b9050610aa9601454611748565b421015610ab257005b610abe610ac391611a91565b601255565b610acc42601455565b600260125414610ad857005b601354604051818152610a9a9290602090a1611ac0565b346102df5760003660031901126102df576020600954604051908152f35b346102df5760003660031901126102df576020600b54604051908152f35b346102df5760203660031901126102df57600435610b4881610631565b6001600160a01b0380911660005260106020526040600020908154166104d160018301549260ff6003600283015492015416906040519485948592606092959491956001600160a01b036080860197168552602085015260408401521515910152565b60203660031901126102df57600435610bc7600c5482106115ec565b610bd5600b54421115611637565b610c4a604051610be48161020d565b33815234602082015282604082015260006060820152610c03816116d9565b610c2134610c1b85600052600e602052604060002090565b5461176a565b610c3584600052600e602052604060002090565b55336000908152601060205260409020611682565b60408051348152602081019290925233917faef4e091ec4a3800e3135934210edcf6949b208c449c51fe586e99d1700ba2c09190a2005b346102df5760203660031901126102df576001600160a01b03600435610ca681610631565b610cae61149f565b166001600160a01b0319600a541617600a55600080f35b346102df5760003660031901126102df576020610ce0611d90565b604051908152f35b346102df576000806003193601126109cd576001600160a01b0380600354163303610d6b576002546001600160a01b0316600280546001600160a01b0319163317905590610d416001600160a01b031960035416600355565b3391167f8be0079c531659141344cd1fd0a4f28419497f9722a3daafe3b4186f6b6457e08380a380f35b606460405162461bcd60e51b815260206004820152601660248201527f4d7573742062652070726f706f736564206f776e6572000000000000000000006044820152fd5b346102df5760003660031901126102df5760206001600160a01b0360025416604051908152f35b346102df5760403660031901126102df576020610ce0600435610df881610631565b6024359061189a565b346102df576000806003193601126109cd576040519080600554610e2481610715565b80855291600191808316908115610ebd5750600114610e62575b6104d185610e4e8187038261024a565b604051918291602083526020830190610772565b9250600583527f036b6384b5eca791c62761152d0c79bb0604c104a5fb6f4eb0703f3154bb3db05b828410610ea5575050508101602001610e4e826104d1610e3e565b80546020858701810191909152909301928101610e8a565b8695506104d196935060209250610e4e94915060ff191682840152151560051b8201019293610e3e565b346102df5760203660031901126102df576001600160a01b03600435610f0c81610631565b1660005260116020526020604060002054604051908152f35b346102df576000806003193601126109cd57610f3f611819565b338152601160205260408120548015610f8857818080809381610f75336001600160a01b03166000526011602052604060002090565b553382f1156109be576103b76001600755565b606460405162461bcd60e51b815260206004820152601460248201527f4e6f2077696e6e696e677320746f20636c61696d0000000000000000000000006044820152fd5b9060206102ff928181520190610772565b346102df576000806003193601126109cd576004816001600160a01b03815416604051928380927fd328a91e0000000000000000000000000000000000000000000000000000000082525afa9081156109be578291611045575b604051806104d18482610fcc565b90503d8083833e611056818361024a565b8101906020818303126110c45780519067ffffffffffffffff82116110c8570181601f820112156110c45780519261108d8461028c565b9261109b604051948561024a565b848452602085840101116109cd57506104d1926110be916020808501910161074f565b38611037565b8280fd5b8380fd5b359060028210156102df57565b359060018210156102df57565b90929167ffffffffffffffff808511610229578460051b60405193602080956111118285018261024a565b8098815201918101938085116102df5781925b8584106111345750505050505050565b83358581116102df57879161114c84849387016102e4565b815201930192611124565b9080601f830112156102df578160206102ff933591016110e6565b346102df576003196080368201126102df5760043567ffffffffffffffff918282116102df5760c09082360301126102df576111ac61026c565b6111b8826004016110cc565b81526111c6602483016110cc565b60208201526111d7604483016110d9565b604082015260648201358381116102df576111f890600436918501016102e4565b606082015260848201358381116102df5761121990600436918501016102e4565b608082015260a48201359283116102df5761124061125f9260046104d19536920101611157565b60a082015261124d610541565b61125561056b565b9060643592611f7d565b6040516bffffffffffffffffffffffff90911681529081906020820190565b346102df5760203660031901126102df576001600160a01b036004356112a381610631565b6112ab61149f565b1633811461130d57806001600160a01b031960035416176003556112e66112da6002546001600160a01b031690565b6001600160a01b031690565b7fed8889f560326eb138920d842192f0eb3dd22b4f139c87a2c57538e05bae1278600080a3005b606460405162461bcd60e51b815260206004820152601760248201527f43616e6e6f74207472616e7366657220746f2073656c660000000000000000006044820152fd5b346102df5760203660031901126102df576001600160a01b0360043561137681610631565b61137e61149f565b166001600160a01b03196000541617600055600080f35b346102df5760203660031901126102df57600435600052600f6020526020604060002054604051908152f35b346102df576000806003193601126109cd5760405190806006546113e481610715565b80855291600191808316908115611475575060011461141a575b6104d18561140e8187038261024a565b60405191829182610fcc565b9250600683527ff652222313e28459528d920b65115c16c04f3efc82aaedc97be59f3f377c0d3f5b82841061145d57505050810160200161140e826104d16113fe565b80546020858701810191909152909301928101611442565b8695506104d19693506020925061140e94915060ff191682840152151560051b82010192936113fe565b6001600160a01b036002541633036114b357565b606460405162461bcd60e51b815260206004820152601660248201527f4f6e6c792063616c6c61626c65206279206f776e6572000000000000000000006044820152fd5b9695949190939261150661149f565b6040519460c0860186811067ffffffffffffffff821117610229576040526000865260006020870152611559604087019960008b52606088019260608452606060808a0152606060a08a015236916102a8565b908151156115c25760006115819a8189525252806115a6575b50508061158a575b50506123c3565b6102ff81600455565b61159f916115999136916110e6565b82611f22565b388061157a565b6115bb916115b59136916102a8565b84611ee4565b3880611572565b60046040517f22ce3edd000000000000000000000000000000000000000000000000000000008152fd5b156115f357565b606460405162461bcd60e51b815260206004820152601760248201527f496e76616c69642063616e64696461746520696e6465780000000000000000006044820152fd5b1561163e57565b606460405162461bcd60e51b815260206004820152601160248201527f42657474696e672068617320656e6465640000000000000000000000000000006044820152fd5b60036060916116b16001600160a01b0385511682906001600160a01b03166001600160a01b0319825416179055565b602084015160018201556040840151600282015501910151151560ff80198354169116179055565b600d549068010000000000000000821015610229576001820180600d558210156104525761173091600d60005260021b7fd7b6990105719101dabeb77144f2a3385c8033acd3af97e9423a695e81ad1eb501611682565b565b634e487b7160e01b600052601160045260246000fd5b9061012c820180921161175757565b611732565b906020820180921161175757565b9190820180921161175757565b1561177e57565b606460405162461bcd60e51b815260206004820152601260248201527f4e6f2062657420746f20776974686472617700000000000000000000000000006044820152fd5b156117c957565b606460405162461bcd60e51b815260206004820152601560248201527f42657420616c72656164792077697468647261776e00000000000000000000006044820152fd5b6040513d6000823e3d90fd5b60026007541461182a576002600755565b606460405162461bcd60e51b815260206004820152601f60248201527f5265656e7472616e637947756172643a207265656e7472616e742063616c6c006044820152fd5b6113871981019190821161175757565b601f1981019190821161175757565b9190820391821161175757565b6118a7600c5483106115ec565b6001600160a01b038091166000526010602052604060002091604051916118cd8361020d565b835416825260018301549283602084015260ff6003600283015492836040870152015416159260608415910152149081611911575b501561190b5790565b50600090565b905038611902565b1561192057565b608460405162461bcd60e51b815260206004820152602760248201527f4576656e7420726573756c742068617320616c7265616479206265656e20636f60448201527f6e6669726d6564000000000000000000000000000000000000000000000000006064820152fd5b604051906000826005549161199e83610715565b80835292600190818116908115611a2457506001146119c5575b506117309250038361024a565b6005600090815291507f036b6384b5eca791c62761152d0c79bb0604c104a5fb6f4eb0703f3154bb3db05b848310611a0957506117309350508101602001386119b8565b81935090816020925483858a010152019101909185926119f0565b90506020925061173094915060ff191682840152151560051b820101386119b8565b15611a4d57565b606460405162461bcd60e51b815260206004820152600e60248201527f496e76616c69642077696e6e65720000000000000000000000000000000000006044820152fd5b60001981146117575760010190565b8115611aaa570490565b634e487b7160e01b600052601260045260246000fd5b6000818152600e60205260408120548015611ce757600f6020526040822055600d5491606483018084116117575760638401908111611757576064900492611b1282600052600e602052604060002090565b5490611b1c611d90565b606491808311611cdf575b509084918293835b838110611c1a57505050508080611b54611b4d829560095490611d02565b6064900490565b611b6c6112da6112da600a546001600160a01b031690565b828215611c11575bf1156109be5782600110611b8757505050565b61173092829182611bf0611bfe611b9d5a61186e565b9460405192839160208301967f9aa2d06b00000000000000000000000000000000000000000000000000000000885260248401606090939291936080810194815260016020820152606460408201520152565b03601f19810183528261024a565b51923090f1611c0b611d15565b50611d45565b506108fc611b74565b9091929350856002611c2b83610418565b50015414611c47575b611c3d90611a91565b9086939291611b2f565b93611cd7611c3d91611c87611c7285611c6d886001611c658d610418565b500154611d02565b611aa0565b611c81611b4d60095483611d02565b9061188d565b90611cc282610c1b611ca9611c9b8c610418565b50546001600160a01b031690565b6001600160a01b03166000526011602052604060002090565b611cd1611ca9611c9b8b610418565b5561176a565b949050611c34565b915038611b27565b505050565b908160011b918083046002149015171561175757565b8181029291811591840414171561175757565b3d15611d40573d90611d268261028c565b91611d34604051938461024a565b82523d6000602084013e565b606090565b15611d4c57565b606460405162461bcd60e51b815260206004820152601960248201527f426174636820646973747269627574696f6e206661696c6564000000000000006044820152fd5b600080600d545b808210611da357505090565b90916001611db084610418565b500154810180911161175757611dc69092611a91565b90611d97565b600c549060005b828110611de35750505060001990565b611dec816106db565b5060405190600091815481611e0082610715565b9485825260209586830195600194888682169182600014611e96575050600114611e56575b5050611e339250038261024a565b5190209083519084012014611e5057611e4b90611a91565b611dd3565b91505090565b87925060005281600020936000945b828610611e7d57505050611e33928201013880611e25565b8054868801850152929094019385935087928101611e65565b9250935050611e33945060ff19168652151560051b8201013880611e25565b634e487b7160e01b600052602160045260246000fd5b60021115611ed557565b611eb5565b60011115611ed557565b815115611ef8576001602082015260800152565b60046040517fe889636f000000000000000000000000000000000000000000000000000000008152fd5b815115611f2f5760a00152565b60046040517ffe936cb7000000000000000000000000000000000000000000000000000000008152fd5b908160209103126102df57516bffffffffffffffffffffffff811681036102df5790565b67ffffffffffffffff611fed9492602094611fa36001600160a01b0360005416946121db565b9463ffffffff604051988997889687967fd227d245000000000000000000000000000000000000000000000000000000008852166004870152608060248701526084860190610772565b92166044840152606483015203915afa9081156109be5760009161200f575090565b6102ff915060203d8111612030575b612028818361024a565b810190611f59565b503d61201e565b604051906120448261022e565b6000602083606081520152565b6040519061205e8261022e565b600060208361206b612037565b81520152565b6040519061207e8261022e565b600c82527f636f64654c6f636174696f6e00000000000000000000000000000000000000006020830152565b604051906120b78261022e565b600882527f6c616e67756167650000000000000000000000000000000000000000000000006020830152565b604051906120f08261022e565b600682527f736f7572636500000000000000000000000000000000000000000000000000006020830152565b604051906121298261022e565b600482527f61726773000000000000000000000000000000000000000000000000000000006020830152565b80518210156104525760209160051b010190565b604051906121768261022e565b600f82527f736563726574734c6f636174696f6e00000000000000000000000000000000006020830152565b604051906121af8261022e565b600782527f73656372657473000000000000000000000000000000000000000000000000006020830152565b6121e3612051565b906121ee8251612881565b506122006121fa612071565b83612f77565b61221d815161220e81611ecb565b61221781611ecb565b83612900565b6122286121fa6120aa565b612242604082015161223981611eda565b61221781611eda565b61224d6121fa6120e3565b61225b606082015183612f77565b60a08101805151612313575b50608081019081515161227c575b5050515190565b60200190815161228b81611ecb565b61229481611ecb565b156122e9576122ca6122e2926122b16122ab612169565b86612f77565b516122bb81611ecb565b6122c481611ecb565b84612900565b6122db6122d56121a2565b84612f77565b5182612ec1565b3880612275565b60046040517fa80d31f7000000000000000000000000000000000000000000000000000000008152fd5b9261231f6122d561211c565b61232883612ffc565b60005b84518051821015612358579061234e6123478261235394612155565b5186612f77565b611a91565b61232b565b5050925061236582613088565b38612267565b908160209103126102df575190565b916123a763ffffffff9167ffffffffffffffff604094979697168552606060208601526060850190610772565b9416910152565b908160209103126102df57516102ff81610631565b612425929160009384926123ea6123e46112da86546001600160a01b031690565b916121db565b946040519687809481937f28242b040000000000000000000000000000000000000000000000000000000083526020998a986004850161237a565b03925af19283156109be578193612515575b5080826124506112da600494546001600160a01b031690565b604051938480927f5ab1bd530000000000000000000000000000000000000000000000000000000082525afa9283156109be5784937f1131472297a800fee664d1d89cfa8f7676ff07189ecc53f80bbb5f4969099db8936124e39284926124e8575b50506124c8856000526001602052604060002090565b906001600160a01b03166001600160a01b0319825416179055565b80a290565b6125079250803d1061250e575b6124ff818361024a565b8101906123ae565b38806124b2565b503d6124f5565b600491935061253990833d8511612540575b612531818361024a565b81019061236b565b9290612437565b503d612527565b601f8111612553575050565b600090600582527f036b6384b5eca791c62761152d0c79bb0604c104a5fb6f4eb0703f3154bb3db0906020601f850160051c830194106125ae575b601f0160051c01915b8281106125a357505050565b818155600101612597565b909250829061258e565b601f81116125c4575050565b600090600682527ff652222313e28459528d920b65115c16c04f3efc82aaedc97be59f3f377c0d3f906020601f850160051c8301941061261f575b601f0160051c01915b82811061261457505050565b818155600101612608565b90925082906125ff565b90815167ffffffffffffffff81116102295761264f8161264a600654610715565b6125b8565b602080601f831160011461268b5750819293600092612680575b50508160011b916000199060031b1c191617600655565b015190503880612669565b90601f198316946126be60066000527ff652222313e28459528d920b65115c16c04f3efc82aaedc97be59f3f377c0d3f90565b926000905b8782106126fb5750508360019596106126e2575b505050811b01600655565b015160001960f88460031b161c191690553880806126d7565b806001859682949686015181550195019301906126c3565b909161272a6102ff93604084526040840190610772565b916020818403910152610772565b9190805167ffffffffffffffff81116102295761275f8161275a600554610715565b612547565b602080601f83116001146127d9575090807f7bab0ec163b5c132c72b8146ac4d6e067e82ed58f8b131150aa71c92589115629493926000916127ce575b508160011b916000199060031b1c1916176005555b6127ba82612629565b6127c960405192839283612713565b0390a2565b90508201513861279c565b600560005290601f1983167f036b6384b5eca791c62761152d0c79bb0604c104a5fb6f4eb0703f3154bb3db0926000905b8282106128695750509183917f7bab0ec163b5c132c72b8146ac4d6e067e82ed58f8b131150aa71c925891156296959460019410612850575b5050811b016005556127b1565b84015160001960f88460031b161c191690553880612843565b80600185968294968a0151815501950193019061280a565b612889612037565b5061010060208201526040518082526000815261012081019081106102df5760405290565b906128b7612037565b50601f8116806128e6575b50806020830152604051908183526000825281016020019081106102df5760405290565b6020036020811161175757810180911161175757386128c2565b9081519161290c612037565b508251516001810190818111611757576020850151811015612965575b60c26020611730965192830101538051821161295d575b5050604051916020830152602082526129588261022e565b612ec1565b523880612940565b8160011b9482860460021483151715611757576020816129976117309861299060c2955191846128ae565b5082612e09565b5096505050612929565b6129a9612037565b5080515160018101908181116117575760208301518110156129e2575b605b602084519283010153805182116129de57505090565b5290565b8160011b8281046002148315171561175757612a0b90612a04855191866128ae565b5084612e09565b506129c6565b612a19612037565b508051516001810190818111611757576020830151811015612a4e575b605a602084519283010153805182116129de57505090565b8160011b8281046002148315171561175757612a7090612a04855191866128ae565b50612a36565b612a7e612037565b508051516001810190818111611757576020830151811015612ab3575b6059602084519283010153805182116129de57505090565b8160011b8281046002148315171561175757612ad590612a04855191866128ae565b50612a9b565b612ae3612037565b508051516001810190818111611757576020830151811015612b18575b6058602084519283010153805182116129de57505090565b8160011b8281046002148315171561175757612b3a90612a04855191866128ae565b50612b00565b612b48612037565b508051516001810190818111611757576020830151811015612b7d575b607b602084519283010153805182116129de57505090565b8160011b8281046002148315171561175757612b9f90612a04855191866128ae565b50612b65565b612bad612037565b508051516001810190818111611757576020830151811015612be2575b607a602084519283010153805182116129de57505090565b8160011b8281046002148315171561175757612c0490612a04855191866128ae565b50612bca565b612c12612037565b508051516001810190818111611757576020830151811015612c47575b6079602084519283010153805182116129de57505090565b8160011b8281046002148315171561175757612c6990612a04855191866128ae565b50612c2f565b612c77612037565b508051516001810190818111611757576020830151811015612cac575b6078602084519283010153805182116129de57505090565b8160011b8281046002148315171561175757612cce90612a04855191866128ae565b50612c94565b90612cdd612037565b508151516001810191828211611757576020840151821015612d10575b602084519283010153805182116129de57505090565b8260011b8381046002148415171561175757612d3990612d32865191876128ae565b5085612e09565b50612cfa565b90612d4c825191836128ae565b50612d55612037565b50805190612d61612037565b50612d6f8151831115612eba565b82515192612d7d838561176a565b916020928284809401518211612df2575b5183815197820101968211612dea575b505001915b81811015612dc45760001991036101000a0190811990511690825116179052565b9192612ddf612dd9612de5928651815261175c565b9461175c565b9261187e565b612da3565b523880612d9e565b612e04612dfe83611cec565b82612d3f565b612d8e565b90612e12612037565b508051612e1d612037565b50612e2b8251821115612eba565b82515191612e39828461176a565b6020918291828701518111612ea3575b865183815197820101968211612e9b575b505001915b81811015612e815760001991036101000a019081199051169082511617905290565b9192612ddf612dd9612e96928651815261175c565b612e5f565b523880612e5a565b612eb5612eaf82611cec565b88612d3f565b612e49565b156102df57565b8151612ef992919067ffffffffffffffff81169060178211612efc57612ef19150604060ff845192161790612cd4565b505b51612e09565b50565b5060ff8111612f2157612f1b90612f138351612adb565b508251613252565b50612ef3565b61ffff8111612f4057612f1b90612f388351612a76565b5082516131eb565b63ffffffff8111612f6157612f1b90612f598351612a11565b508251613182565b612f1b90612f6f83516129a1565b508251613115565b8151612ef992919067ffffffffffffffff81169060178211612fa757612ef19150606060ff845192161790612cd4565b5060ff8111612fbe57612f1b90612f138351612c6f565b61ffff8111612fd557612f1b90612f388351612c0a565b63ffffffff8111612fee57612f1b90612f598351612ba5565b612f1b90612f6f8351612b40565b805190613007612037565b508151516001810190818111611757576020840151811015613055575b609f602080955192830101538051821161304d575b505001805190600182018092116117575752565b523880613039565b8160011b93828504600214831517156117575760208161307e8297612990609f955191846128ae565b5095505050613024565b805190613093612037565b5081515160018101908181116117575760208401518110156130e2575b60ff60208095519283010153805182116130da575b50500180516000198101919082116117575752565b5238806130c5565b8160011b93828504600214831517156117575760208161310b829761299060ff955191846128ae565b50955050506130b0565b9061311e612037565b508151518060080191826008116117575760208401518311613161575b60088451928301019067ffffffffffffffff19825116179052805182116129de57505090565b8260011b838104600214841517156117575761317d9085612d3f565b61313b565b9061318b612037565b5081515180600401918260041161175757602084015183116131ca575b60048451928301019063ffffffff19825116179052805182116129de57505090565b8260011b83810460021484151715611757576131e69085612d3f565b6131a8565b906131f4612037565b508151518060020191826002116117575760208401518311613231575b60028451928301019061ffff19825116179052805182116129de57505090565b8260011b838104600214841517156117575761324d9085612d3f565b613211565b9061325b612037565b508151518060010191826001116117575760208401518311613297575b60018451928301019060ff19825116179052805182116129de57505090565b8260011b83810460021484151715611757576132b39085612d3f565b61327856fea2646970667358221220d66d728d12000d48b775c89c4f60ca672a75b544e8f5cf1b0de83e212abe78e464736f6c63430008130033",
  "linkReferences": {},
  "deployedLinkReferences": {}
}