{
  "_format": "hh-sol-artifact-1",
  "contractName": "WikiWager",
  "sourceName": "contracts/WikiWager.sol",
  "abi": [
    {
      "inputs": [
        {
          "internalType": "address",
          "name": "_oracle",
          "type": "address"
        },
        {
          "internalType": "uint256",
          "name": "_serviceFeePercentage",
          "type": "uint256"
        },
        {
          "internalType": "address",
          "name": "_serviceFeeWallet",
          "type": "address"
        },
        {
          "internalType": "uint256",
          "name": "_bettingEndTime",
          "type": "uint256"
        },
        {
          "internalType": "string[]",
          "name": "_candidateNames",
          "type": "string[]"
        }
      ],
      "stateMutability": "nonpayable",
      "type": "constructor"
    },
    {
      "inputs": [],
      "name": "EmptyArgs",
      "type": "error"
    },
    {
      "inputs": [],
      "name": "EmptySecrets",
      "type": "error"
    },
    {
      "inputs": [],
      "name": "EmptySource",
      "type": "error"
    },
    {
      "inputs": [],
      "name": "NoInlineSecrets",
      "type": "error"
    },
    {
      "inputs": [],
      "name": "RequestIsAlreadyPending",
      "type": "error"
    },
    {
      "inputs": [],
      "name": "RequestIsNotPending",
      "type": "error"
    },
    {
      "inputs": [],
      "name": "SenderIsNotRegistry",
      "type": "error"
    },
    {
      "anonymous": false,
      "inputs": [
        {
          "indexed": true,
          "internalType": "address",
          "name": "bettor",
          "type": "address"
        },
        {
          "indexed": false,
          "internalType": "uint256",
          "name": "amount",
          "type": "uint256"
        },
        {
          "indexed": false,
          "internalType": "uint256",
          "name": "candidateIndex",
          "type": "uint256"
        }
      ],
      "name": "BetMade",
      "type": "event"
    },
    {
      "anonymous": false,
      "inputs": [
        {
          "indexed": true,
          "internalType": "address",
          "name": "bettor",
          "type": "address"
        },
        {
          "indexed": false,
          "internalType": "uint256",
          "name": "amount",
          "type": "uint256"
        },
        {
          "indexed": false,
          "internalType": "uint256",
          "name": "candidateIndex",
          "type": "uint256"
        }
      ],
      "name": "BetWithdrawn",
      "type": "event"
    },
    {
      "anonymous": false,
      "inputs": [
        {
          "indexed": false,
          "internalType": "uint256",
          "name": "winnerIndex",
          "type": "uint256"
        }
      ],
      "name": "EventResultReceived",
      "type": "event"
    },
    {
      "anonymous": false,
      "inputs": [
        {
          "indexed": true,
          "internalType": "bytes32",
          "name": "requestId",
          "type": "bytes32"
        },
        {
          "indexed": false,
          "internalType": "bytes",
          "name": "result",
          "type": "bytes"
        },
        {
          "indexed": false,
          "internalType": "bytes",
          "name": "err",
          "type": "bytes"
        }
      ],
      "name": "OCRResponse",
      "type": "event"
    },
    {
      "anonymous": false,
      "inputs": [
        {
          "indexed": true,
          "internalType": "address",
          "name": "from",
          "type": "address"
        },
        {
          "indexed": true,
          "internalType": "address",
          "name": "to",
          "type": "address"
        }
      ],
      "name": "OwnershipTransferRequested",
      "type": "event"
    },
    {
      "anonymous": false,
      "inputs": [
        {
          "indexed": true,
          "internalType": "address",
          "name": "from",
          "type": "address"
        },
        {
          "indexed": true,
          "internalType": "address",
          "name": "to",
          "type": "address"
        }
      ],
      "name": "OwnershipTransferred",
      "type": "event"
    },
    {
      "anonymous": false,
      "inputs": [
        {
          "indexed": true,
          "internalType": "bytes32",
          "name": "id",
          "type": "bytes32"
        }
      ],
      "name": "RequestFulfilled",
      "type": "event"
    },
    {
      "anonymous": false,
      "inputs": [
        {
          "indexed": true,
          "internalType": "bytes32",
          "name": "id",
          "type": "bytes32"
        }
      ],
      "name": "RequestSent",
      "type": "event"
    },
    {
      "inputs": [],
      "name": "acceptOwnership",
      "outputs": [],
      "stateMutability": "nonpayable",
      "type": "function"
    },
    {
      "inputs": [
        {
          "internalType": "address",
          "name": "oracleAddress",
          "type": "address"
        },
        {
          "internalType": "bytes32",
          "name": "requestId",
          "type": "bytes32"
        }
      ],
      "name": "addSimulatedRequestId",
      "outputs": [],
      "stateMutability": "nonpayable",
      "type": "function"
    },
    {
      "inputs": [
        {
          "internalType": "uint256",
          "name": "",
          "type": "uint256"
        }
      ],
      "name": "bets",
      "outputs": [
        {
          "internalType": "address",
          "name": "bettor",
          "type": "address"
        },
        {
          "internalType": "uint256",
          "name": "amount",
          "type": "uint256"
        },
        {
          "internalType": "uint256",
          "name": "candidateIndex",
          "type": "uint256"
        },
        {
          "internalType": "bool",
          "name": "withdrawn",
          "type": "bool"
        }
      ],
      "stateMutability": "view",
      "type": "function"
    },
    {
      "inputs": [],
      "name": "bettingEndTime",
      "outputs": [
        {
          "internalType": "uint256",
          "name": "",
          "type": "uint256"
        }
      ],
      "stateMutability": "view",
      "type": "function"
    },
    {
      "inputs": [
        {
          "internalType": "address",
          "name": "user",
          "type": "address"
        },
        {
          "internalType": "uint256",
          "name": "candidateIndex",
          "type": "uint256"
        }
      ],
      "name": "calculateUserBet",
      "outputs": [
        {
          "internalType": "uint256",
          "name": "",
          "type": "uint256"
        }
      ],
      "stateMutability": "view",
      "type": "function"
    },
    {
      "inputs": [
        {
          "internalType": "uint256",
          "name": "",
          "type": "uint256"
        }
      ],
      "name": "candidateWinnings",
      "outputs": [
        {
          "internalType": "uint256",
          "name": "",
          "type": "uint256"
        }
      ],
      "stateMutability": "view",
      "type": "function"
    },
    {
      "inputs": [
        {
          "internalType": "uint256",
          "name": "",
          "type": "uint256"
        }
      ],
      "name": "candidates",
      "outputs": [
        {
          "internalType": "string",
          "name": "name",
          "type": "string"
        },
        {
          "internalType": "bool",
          "name": "exists",
          "type": "bool"
        }
      ],
      "stateMutability": "view",
      "type": "function"
    },
    {
      "inputs": [],
      "name": "claimWinnings",
      "outputs": [],
      "stateMutability": "nonpayable",
      "type": "function"
    },
    {
      "inputs": [
        {
          "components": [
            {
              "internalType": "enum Functions.Location",
              "name": "codeLocation",
              "type": "uint8"
            },
            {
              "internalType": "enum Functions.Location",
              "name": "secretsLocation",
              "type": "uint8"
            },
            {
              "internalType": "enum Functions.CodeLanguage",
              "name": "language",
              "type": "uint8"
            },
            {
              "internalType": "string",
              "name": "source",
              "type": "string"
            },
            {
              "internalType": "bytes",
              "name": "secrets",
              "type": "bytes"
            },
            {
              "internalType": "string[]",
              "name": "args",
              "type": "string[]"
            }
          ],
          "internalType": "struct Functions.Request",
          "name": "req",
          "type": "tuple"
        },
        {
          "internalType": "uint64",
          "name": "subscriptionId",
          "type": "uint64"
        },
        {
          "internalType": "uint32",
          "name": "gasLimit",
          "type": "uint32"
        },
        {
          "internalType": "uint256",
          "name": "gasPrice",
          "type": "uint256"
        }
      ],
      "name": "estimateCost",
      "outputs": [
        {
          "internalType": "uint96",
          "name": "",
          "type": "uint96"
        }
      ],
      "stateMutability": "view",
      "type": "function"
    },
    {
      "inputs": [],
      "name": "eventConfirmation",
      "outputs": [
        {
          "internalType": "uint256",
          "name": "count",
          "type": "uint256"
        },
        {
          "internalType": "uint256",
          "name": "resultIndex",
          "type": "uint256"
        },
        {
          "internalType": "uint256",
          "name": "lastConfirmationTimestamp",
          "type": "uint256"
        }
      ],
      "stateMutability": "view",
      "type": "function"
    },
    {
      "inputs": [
        {
          "internalType": "string",
          "name": "source",
          "type": "string"
        },
        {
          "internalType": "bytes",
          "name": "secrets",
          "type": "bytes"
        },
        {
          "internalType": "string[]",
          "name": "args",
          "type": "string[]"
        },
        {
          "internalType": "uint64",
          "name": "subscriptionId",
          "type": "uint64"
        },
        {
          "internalType": "uint32",
          "name": "gasLimit",
          "type": "uint32"
        }
      ],
      "name": "executeRequest",
      "outputs": [
        {
          "internalType": "bytes32",
          "name": "",
          "type": "bytes32"
        }
      ],
      "stateMutability": "nonpayable",
      "type": "function"
    },
    {
      "inputs": [],
      "name": "fulfill",
      "outputs": [],
      "stateMutability": "nonpayable",
      "type": "function"
    },
    {
      "inputs": [],
      "name": "getDONPublicKey",
      "outputs": [
        {
          "internalType": "bytes",
          "name": "",
          "type": "bytes"
        }
      ],
      "stateMutability": "view",
      "type": "function"
    },
    {
      "inputs": [],
      "name": "getTotalBetsPool",
      "outputs": [
        {
          "internalType": "uint256",
          "name": "",
          "type": "uint256"
        }
      ],
      "stateMutability": "view",
      "type": "function"
    },
    {
      "inputs": [
        {
          "internalType": "bytes32",
          "name": "requestId",
          "type": "bytes32"
        },
        {
          "internalType": "bytes",
          "name": "response",
          "type": "bytes"
        },
        {
          "internalType": "bytes",
          "name": "err",
          "type": "bytes"
        }
      ],
      "name": "handleOracleFulfillment",
      "outputs": [],
      "stateMutability": "nonpayable",
      "type": "function"
    },
    {
      "inputs": [],
      "name": "latestError",
      "outputs": [
        {
          "internalType": "bytes",
          "name": "",
          "type": "bytes"
        }
      ],
      "stateMutability": "view",
      "type": "function"
    },
    {
      "inputs": [],
      "name": "latestRequestId",
      "outputs": [
        {
          "internalType": "bytes32",
          "name": "",
          "type": "bytes32"
        }
      ],
      "stateMutability": "view",
      "type": "function"
    },
    {
      "inputs": [],
      "name": "latestResponse",
      "outputs": [
        {
          "internalType": "bytes",
          "name": "",
          "type": "bytes"
        }
      ],
      "stateMutability": "view",
      "type": "function"
    },
    {
      "inputs": [
        {
          "internalType": "uint256",
          "name": "candidateIndex",
          "type": "uint256"
        }
      ],
      "name": "makeBet",
      "outputs": [],
      "stateMutability": "payable",
      "type": "function"
    },
    {
      "inputs": [],
      "name": "owner",
      "outputs": [
        {
          "internalType": "address",
          "name": "",
          "type": "address"
        }
      ],
      "stateMutability": "view",
      "type": "function"
    },
    {
      "inputs": [],
      "name": "serviceFeePercentage",
      "outputs": [
        {
          "internalType": "uint256",
          "name": "",
          "type": "uint256"
        }
      ],
      "stateMutability": "view",
      "type": "function"
    },
    {
      "inputs": [],
      "name": "serviceFeeWallet",
      "outputs": [
        {
          "internalType": "address",
          "name": "",
          "type": "address"
        }
      ],
      "stateMutability": "view",
      "type": "function"
    },
    {
      "inputs": [
        {
          "internalType": "address",
          "name": "_serviceFeeWallet",
          "type": "address"
        }
      ],
      "name": "setServiceFeeWallet",
      "outputs": [],
      "stateMutability": "nonpayable",
      "type": "function"
    },
    {
      "inputs": [
        {
          "internalType": "uint256",
          "name": "",
          "type": "uint256"
        }
      ],
      "name": "totalBets",
      "outputs": [
        {
          "internalType": "uint256",
          "name": "",
          "type": "uint256"
        }
      ],
      "stateMutability": "view",
      "type": "function"
    },
    {
      "inputs": [
        {
          "internalType": "address",
          "name": "to",
          "type": "address"
        }
      ],
      "name": "transferOwnership",
      "outputs": [],
      "stateMutability": "nonpayable",
      "type": "function"
    },
    {
      "inputs": [
        {
          "internalType": "address",
          "name": "oracle",
          "type": "address"
        }
      ],
      "name": "updateOracleAddress",
      "outputs": [],
      "stateMutability": "nonpayable",
      "type": "function"
    },
    {
      "inputs": [
        {
          "internalType": "address",
          "name": "",
          "type": "address"
        }
      ],
      "name": "userBet",
      "outputs": [
        {
          "internalType": "address",
          "name": "bettor",
          "type": "address"
        },
        {
          "internalType": "uint256",
          "name": "amount",
          "type": "uint256"
        },
        {
          "internalType": "uint256",
          "name": "candidateIndex",
          "type": "uint256"
        },
        {
          "internalType": "bool",
          "name": "withdrawn",
          "type": "bool"
        }
      ],
      "stateMutability": "view",
      "type": "function"
    },
    {
      "inputs": [
        {
          "internalType": "address",
          "name": "",
          "type": "address"
        }
      ],
      "name": "userWinnings",
      "outputs": [
        {
          "internalType": "uint256",
          "name": "",
          "type": "uint256"
        }
      ],
      "stateMutability": "view",
      "type": "function"
    },
    {
      "inputs": [],
      "name": "withdraw",
      "outputs": [],
      "stateMutability": "nonpayable",
      "type": "function"
    }
  ],
  "bytecode": "0x604060808152346200045f576200373d90813803806200001f816200048f565b93843982019160a0818403126200045f576200003b81620004b5565b90602090818101519162000051858301620004b5565b606083015160808401516001600160401b03949192918582116200045f570188601f820112156200045f57805198858a1162000479578960051b9085806200009b8185016200048f565b809d81520192840101928184116200045f57868101925b848410620003ce57505050505060018060a01b038096169560018060a01b031991600096888489541617885533156200038a5733846002541617600255600198896007558460085416176008556009551690600a541617600a55600b558451916060830196838810828911176200037657859787528484528487600019958686820152015284601255836013558460145584975b6200015b575b86516132729081620004cb8239f35b80518810156200037057828860051b82010151875190888201828110858211176200035c578952815283810190878252600c8054906801000000000000000082101562000334578982018082558210156200034857885285882090891b019051805190858211620003345782548a81811c9116801562000329575b8882101462000315579081601f8c95949311620002c1575b508790601f83116001146200025c578a91908362000250575b50508882851b9260031b1c19161781555b019051151560ff801983541691161790558388146200023c57968501968562000146565b634e487b7160e01b85526011600452602485fd5b01519050388062000207565b838b52888b209190601f1984168c5b8b828210620002aa575050908487959493921062000292575b505050811b01815562000218565b01518a60f88460031b161c1916905538808062000284565b8385015186558f989095019493840193016200026b565b9091928094508a52878a20601f840160051c8101918985106200030a575b90601f8d96959493920160051c01905b818110620002fe5750620001ee565b8b81558c9501620002ef565b9091508190620002df565b634e487b7160e01b8a52602260045260248afd5b90607f1690620001d6565b634e487b7160e01b89526041600452602489fd5b634e487b7160e01b89526032600452602489fd5b634e487b7160e01b88526041600452602488fd5b6200014c565b634e487b7160e01b85526041600452602485fd5b895162461bcd60e51b815260048101879052601860248201527f43616e6e6f7420736574206f776e657220746f207a65726f00000000000000006044820152606490fd5b83518981116200045f57820183603f820112156200045f57888101518a811162000464578d918562000409601f8401601f19168d016200048f565b9383855283830101116200045f57908a92918f6000905b83821062000442575050509060008380959383010152815201930192620000b2565b81839495969301015182828701015201908f918c94939262000420565b600080fd5b60246000634e487b7160e01b81526041600452fd5b634e487b7160e01b600052604160045260246000fd5b6040519190601f01601f191682016001600160401b038111838210176200047957604052565b51906001600160a01b03821682036200045f5756fe6080604052600436101561001257600080fd5b60003560e01c80630ca76175146101e75780631aa46f59146101e257806322af00fa146101dd578063271b69c2146101d857806327714589146101d357806330bda99d146101ce5780633477ee2e146101c9578063374c6e1c146101c45780633ccfd60b146101bf578063431a4518146101ba5780636032f4a6146101b5578063603ef649146101b057806367075032146101ab57806367ad4ec2146101a6578063718cc769146101a1578063722813861461019c57806375bd9f9c1461019757806379ba5097146101925780638da5cb5b1461018d578063900089de14610188578063a815a4d414610183578063b401faf11461017e578063bef3a2f014610179578063d328a91e14610174578063d4b391751461016f578063f2fde38b1461016a578063f7023bb614610165578063ff634384146101605763fffeb84e1461015b57600080fd5b6113a2565b611376565b611332565b61125f565b611153565b610fbe565b610ee0565b610e28565b610dea565b610dbf565b610d98565b610cd1565b610cae565b610c6a565b610b94565b610b14565b610af6565b610ad8565b6109f4565b6109c5565b6108ab565b61087f565b6107ac565b610637565b610573565b6104ca565b61044c565b6103d9565b6102f7565b634e487b7160e01b600052604160045260246000fd5b6080810190811067ffffffffffffffff82111761021e57604052565b6101ec565b6040810190811067ffffffffffffffff82111761021e57604052565b90601f8019910116810190811067ffffffffffffffff82111761021e57604052565b6040519060c0820182811067ffffffffffffffff82111761021e57604052565b67ffffffffffffffff811161021e57601f01601f191660200190565b9291926102a982610281565b916102b7604051938461023f565b8294818452818301116102d4578281602093846000960137010152565b600080fd5b9080601f830112156102d4578160206102f49335910161029d565b90565b346102d45760603660031901126102d45767ffffffffffffffff6004356024358281116102d45761032c9036906004016102d9565b916044359081116102d4576103459036906004016102d9565b60009282845260016020526001600160a01b0360408520541633036103af57826103ac9385526001602052604085206001600160a01b03198154169055807f85e1543bf2f84fe80c6badbce3648c8539ad1df4d2b3d822938ca0538be727e68680a26126bc565b80f35b60046040517fa0c5ec63000000000000000000000000000000000000000000000000000000008152fd5b346102d45760003660031901126102d4576020600454604051908152f35b634e487b7160e01b600052603260045260246000fd5b600d5481101561044757600d60005260021b7fd7b6990105719101dabeb77144f2a3385c8033acd3af97e9423a695e81ad1eb50190600090565b6103f7565b346102d45760203660031901126102d457600435600d548110156102d4576104739061040d565b506001600160a01b038154166104c660018301549260ff6003600283015492015416906040519485948592606092959491956001600160a01b036080860197168552602085015260408401521515910152565b0390f35b346102d45760003660031901126102d45760206001600160a01b03600a5416604051908152f35b9181601f840112156102d45782359167ffffffffffffffff83116102d457602083818601950101116102d457565b6064359067ffffffffffffffff821682036102d457565b6024359067ffffffffffffffff821682036102d457565b6084359063ffffffff821682036102d457565b6044359063ffffffff821682036102d457565b346102d45760a03660031901126102d45767ffffffffffffffff6004358181116102d4576105a59036906004016104f1565b91906024358281116102d4576105bf9036906004016104f1565b939092604435928184116102d457366023850112156102d45783600401359182116102d4573660248360051b860101116102d4576104c6956106169561060361051f565b94602461060e61054d565b9701936114a1565b6040519081529081906020820190565b6001600160a01b038116036102d457565b346102d45760403660031901126102d45760043561065481610626565b60243561065f611449565b60009181835260016020526001600160a01b036040842054166106a6576103ac918352600160205260408320906001600160a01b03166001600160a01b0319825416179055565b60046040517f8b457ad2000000000000000000000000000000000000000000000000000000008152fd5b600c5481101561044757600c60005260011b7fdf6966c971051c3d54ec59162606531493a51404a002842f56009d7e5cf4a8c70190600090565b90600182811c9216801561073a575b602083101461072457565b634e487b7160e01b600052602260045260246000fd5b91607f1691610719565b60005b8381106107575750506000910152565b8181015183820152602001610747565b9060209161078081518092818552858086019101610744565b601f01601f1916010190565b906107a4602091949394604084526040840190610767565b931515910152565b346102d4576020806003193601126102d457600435600c548110156102d4576107d4906106d0565b5090604051906000928054916107e98361070a565b808552600193808516908115610863575060011461082c575b50506108148361081c9495038561023f565b015460ff1690565b906104c66040519283928361078c565b60008381528281209650905b80821061084e5750840101935061081483610802565b86548683018401529584019590820190610838565b60ff19168387015250151560051b840101935061081483610802565b346102d45760203660031901126102d457600435600052600e6020526020604060002054604051908152f35b346102d4576000806003193601126109c2576108c56117c3565b3360009081526010602052604090206001810154908260028315926108ea8415611721565b6109266003820161090b610906610902835460ff1690565b1590565b61176c565b610919600b544211156115e1565b805460ff19166001179055565b0191825461095c61094b8661094584600052600e602052604060002090565b54611837565b91600052600e602052604060002090565b558382916109b8575b8280929181923390f1156109b3575460408051928352602083019190915233917f4299c453876a68bb29cdb474af75da86e37965eb6469480dddf650271aabb2149190a26103ac6001600755565b6117b7565b6108fc9150610965565b80fd5b346102d45760003660031901126102d45760606012546013546014549060405192835260208301526040820152f35b346102d45760003660031901126102d457610a12600b5442116118c3565b610a22610a1d61190e565b611d50565b610a2f600c5482106119ca565b6040518181527f8011ff6cae687162ceadce3755683953b7ca3a4d40ac0d754e9d898f4d46a77a91908290602090a16013548114610a8657610a7b9150610a766001601255565b601355565b610a8442601455565b005b50610a926014546116f2565b421015610a9b57005b610aae610aa9601254611a15565b601255565b610ab742601455565b600360125403610a8457601354604051818152610a849290602090a1611a44565b346102d45760003660031901126102d4576020600954604051908152f35b346102d45760003660031901126102d4576020600b54604051908152f35b346102d45760203660031901126102d457600435610b3181610626565b6001600160a01b0380911660005260106020526040600020908154166104c660018301549260ff6003600283015492015416906040519485948592606092959491956001600160a01b036080860197168552602085015260408401521515910152565b60203660031901126102d457600435610bb0600c548210611596565b610bbe600b544211156115e1565b610c33604051610bcd81610202565b33815234602082015282604082015260006060820152610bec81611683565b610c0a34610c0485600052600e602052604060002090565b54611714565b610c1e84600052600e602052604060002090565b5533600090815260106020526040902061162c565b60408051348152602081019290925233917faef4e091ec4a3800e3135934210edcf6949b208c449c51fe586e99d1700ba2c09190a2005b346102d45760203660031901126102d4576001600160a01b03600435610c8f81610626565b610c97611449565b166001600160a01b0319600a541617600a55600080f35b346102d45760003660031901126102d4576020610cc9611d14565b604051908152f35b346102d4576000806003193601126109c2576001600160a01b0380600354163303610d54576002546001600160a01b0316600280546001600160a01b0319163317905590610d2a6001600160a01b031960035416600355565b3391167f8be0079c531659141344cd1fd0a4f28419497f9722a3daafe3b4186f6b6457e08380a380f35b606460405162461bcd60e51b815260206004820152601660248201527f4d7573742062652070726f706f736564206f776e6572000000000000000000006044820152fd5b346102d45760003660031901126102d45760206001600160a01b0360025416604051908152f35b346102d45760403660031901126102d4576020610cc9600435610de181610626565b60243590611844565b346102d45760203660031901126102d4576001600160a01b03600435610e0f81610626565b1660005260116020526020604060002054604051908152f35b346102d4576000806003193601126109c257610e426117c3565b338152601160205260408120548015610e8b57818080809381610e78336001600160a01b03166000526011602052604060002090565b553382f1156109b3576103ac6001600755565b606460405162461bcd60e51b815260206004820152601460248201527f4e6f2077696e6e696e677320746f20636c61696d0000000000000000000000006044820152fd5b9060206102f4928181520190610767565b346102d4576000806003193601126109c2576040519080600554610f038161070a565b80855291600191808316908115610f945750600114610f39575b6104c685610f2d8187038261023f565b60405191829182610ecf565b9250600583527f036b6384b5eca791c62761152d0c79bb0604c104a5fb6f4eb0703f3154bb3db05b828410610f7c575050508101602001610f2d826104c6610f1d565b80546020858701810191909152909301928101610f61565b8695506104c696935060209250610f2d94915060ff191682840152151560051b8201019293610f1d565b346102d4576000806003193601126109c2576004816001600160a01b03815416604051928380927fd328a91e0000000000000000000000000000000000000000000000000000000082525afa9081156109b3578291611026575b604051806104c68482610ecf565b90503d8083833e611037818361023f565b8101906020818303126110a55780519067ffffffffffffffff82116110a9570181601f820112156110a55780519261106e84610281565b9261107c604051948561023f565b848452602085840101116109c257506104c69261109f9160208085019101610744565b38611018565b8280fd5b8380fd5b359060028210156102d457565b359060018210156102d457565b90929167ffffffffffffffff80851161021e578460051b60405193602080956110f28285018261023f565b8098815201918101938085116102d45781925b8584106111155750505050505050565b83358581116102d457879161112d84849387016102d9565b815201930192611105565b9080601f830112156102d4578160206102f4933591016110c7565b346102d4576003196080368201126102d45760043567ffffffffffffffff918282116102d45760c09082360301126102d45761118d610261565b611199826004016110ad565b81526111a7602483016110ad565b60208201526111b8604483016110ba565b604082015260648201358381116102d4576111d990600436918501016102d9565b606082015260848201358381116102d4576111fa90600436918501016102d9565b608082015260a48201359283116102d4576112216112409260046104c69536920101611138565b60a082015261122e610536565b611236610560565b9060643592611f01565b6040516bffffffffffffffffffffffff90911681529081906020820190565b346102d45760203660031901126102d4576001600160a01b0360043561128481610626565b61128c611449565b163381146112ee57806001600160a01b031960035416176003556112c76112bb6002546001600160a01b031690565b6001600160a01b031690565b7fed8889f560326eb138920d842192f0eb3dd22b4f139c87a2c57538e05bae1278600080a3005b606460405162461bcd60e51b815260206004820152601760248201527f43616e6e6f74207472616e7366657220746f2073656c660000000000000000006044820152fd5b346102d45760203660031901126102d4576001600160a01b0360043561135781610626565b61135f611449565b166001600160a01b03196000541617600055600080f35b346102d45760203660031901126102d457600435600052600f6020526020604060002054604051908152f35b346102d4576000806003193601126109c25760405190806006546113c58161070a565b80855291600191808316908115610f9457506001146113ee576104c685610f2d8187038261023f565b9250600683527ff652222313e28459528d920b65115c16c04f3efc82aaedc97be59f3f377c0d3f5b828410611431575050508101602001610f2d826104c6610f1d565b80546020858701810191909152909301928101611416565b6001600160a01b0360025416330361145d57565b606460405162461bcd60e51b815260206004820152601660248201527f4f6e6c792063616c6c61626c65206279206f776e6572000000000000000000006044820152fd5b969594919093926114b0611449565b6040519460c0860186811067ffffffffffffffff82111761021e576040526000865260006020870152611503604087019960008b52606088019260608452606060808a0152606060a08a0152369161029d565b9081511561156c57600061152b9a818952525280611550575b505080611534575b5050612347565b6102f481600455565b611549916115439136916110c7565b82611ea6565b3880611524565b6115659161155f91369161029d565b84611e68565b388061151c565b60046040517f22ce3edd000000000000000000000000000000000000000000000000000000008152fd5b1561159d57565b606460405162461bcd60e51b815260206004820152601760248201527f496e76616c69642063616e64696461746520696e6465780000000000000000006044820152fd5b156115e857565b606460405162461bcd60e51b815260206004820152601160248201527f42657474696e672068617320656e6465640000000000000000000000000000006044820152fd5b600360609161165b6001600160a01b0385511682906001600160a01b03166001600160a01b0319825416179055565b602084015160018201556040840151600282015501910151151560ff80198354169116179055565b600d54906801000000000000000082101561021e576001820180600d55821015610447576116da91600d60005260021b7fd7b6990105719101dabeb77144f2a3385c8033acd3af97e9423a695e81ad1eb50161162c565b565b634e487b7160e01b600052601160045260246000fd5b9061012c820180921161170157565b6116dc565b906020820180921161170157565b9190820180921161170157565b1561172857565b606460405162461bcd60e51b815260206004820152601260248201527f4e6f2062657420746f20776974686472617700000000000000000000000000006044820152fd5b1561177357565b606460405162461bcd60e51b815260206004820152601560248201527f42657420616c72656164792077697468647261776e00000000000000000000006044820152fd5b6040513d6000823e3d90fd5b6002600754146117d4576002600755565b606460405162461bcd60e51b815260206004820152601f60248201527f5265656e7472616e637947756172643a207265656e7472616e742063616c6c006044820152fd5b6113871981019190821161170157565b601f1981019190821161170157565b9190820391821161170157565b611851600c548310611596565b6001600160a01b0380911660005260106020526040600020916040519161187783610202565b835416825260018301549283602084015260ff60036002830154928360408701520154161592606084159101521490816118bb575b50156118b55790565b50600090565b9050386118ac565b156118ca57565b606460405162461bcd60e51b815260206004820152601c60248201527f42657474696e67206973207374696c6c20696e2070726f6772657373000000006044820152fd5b60405190600082600554916119228361070a565b808352926001908181169081156119a85750600114611949575b506116da9250038361023f565b6005600090815291507f036b6384b5eca791c62761152d0c79bb0604c104a5fb6f4eb0703f3154bb3db05b84831061198d57506116da93505081016020013861193c565b81935090816020925483858a01015201910190918592611974565b9050602092506116da94915060ff191682840152151560051b8201013861193c565b156119d157565b606460405162461bcd60e51b815260206004820152600e60248201527f496e76616c69642077696e6e65720000000000000000000000000000000000006044820152fd5b60001981146117015760010190565b8115611a2e570490565b634e487b7160e01b600052601260045260246000fd5b6000818152600e60205260408120548015611c6b57600f6020526040822055600d5491606483018084116117015760638401908111611701576064900492611a9682600052600e602052604060002090565b5490611aa0611d14565b606491808311611c63575b509084918293835b838110611b9e57505050508080611ad8611ad1829560095490611c86565b6064900490565b611af06112bb6112bb600a546001600160a01b031690565b828215611b95575bf1156109b35782600110611b0b57505050565b6116da92829182611b74611b82611b215a611818565b9460405192839160208301967f9aa2d06b00000000000000000000000000000000000000000000000000000000885260248401606090939291936080810194815260016020820152606460408201520152565b03601f19810183528261023f565b51923090f1611b8f611c99565b50611cc9565b506108fc611af8565b9091929350856002611baf8361040d565b50015414611bcb575b611bc190611a15565b9086939291611ab3565b93611c5b611bc191611c0b611bf685611bf1886001611be98d61040d565b500154611c86565b611a24565b611c05611ad160095483611c86565b90611837565b90611c4682610c04611c2d611c1f8c61040d565b50546001600160a01b031690565b6001600160a01b03166000526011602052604060002090565b611c55611c2d611c1f8b61040d565b55611714565b949050611bb8565b915038611aab565b505050565b908160011b918083046002149015171561170157565b8181029291811591840414171561170157565b3d15611cc4573d90611caa82610281565b91611cb8604051938461023f565b82523d6000602084013e565b606090565b15611cd057565b606460405162461bcd60e51b815260206004820152601960248201527f426174636820646973747269627574696f6e206661696c6564000000000000006044820152fd5b600080600d545b808210611d2757505090565b90916001611d348461040d565b500154810180911161170157611d4a9092611a15565b90611d1b565b600c549060005b828110611d675750505060001990565b611d70816106d0565b5060405190600091815481611d848261070a565b9485825260209586830195600194888682169182600014611e1a575050600114611dda575b5050611db79250038261023f565b5190209083519084012014611dd457611dcf90611a15565b611d57565b91505090565b87925060005281600020936000945b828610611e0157505050611db7928201013880611da9565b8054868801850152929094019385935087928101611de9565b9250935050611db7945060ff19168652151560051b8201013880611da9565b634e487b7160e01b600052602160045260246000fd5b60021115611e5957565b611e39565b60011115611e5957565b815115611e7c576001602082015260800152565b60046040517fe889636f000000000000000000000000000000000000000000000000000000008152fd5b815115611eb35760a00152565b60046040517ffe936cb7000000000000000000000000000000000000000000000000000000008152fd5b908160209103126102d457516bffffffffffffffffffffffff811681036102d45790565b67ffffffffffffffff611f719492602094611f276001600160a01b03600054169461215f565b9463ffffffff604051988997889687967fd227d245000000000000000000000000000000000000000000000000000000008852166004870152608060248701526084860190610767565b92166044840152606483015203915afa9081156109b357600091611f93575090565b6102f4915060203d8111611fb4575b611fac818361023f565b810190611edd565b503d611fa2565b60405190611fc882610223565b6000602083606081520152565b60405190611fe282610223565b6000602083611fef611fbb565b81520152565b6040519061200282610223565b600c82527f636f64654c6f636174696f6e00000000000000000000000000000000000000006020830152565b6040519061203b82610223565b600882527f6c616e67756167650000000000000000000000000000000000000000000000006020830152565b6040519061207482610223565b600682527f736f7572636500000000000000000000000000000000000000000000000000006020830152565b604051906120ad82610223565b600482527f61726773000000000000000000000000000000000000000000000000000000006020830152565b80518210156104475760209160051b010190565b604051906120fa82610223565b600f82527f736563726574734c6f636174696f6e00000000000000000000000000000000006020830152565b6040519061213382610223565b600782527f73656372657473000000000000000000000000000000000000000000000000006020830152565b612167611fd5565b906121728251612805565b5061218461217e611ff5565b83612efb565b6121a1815161219281611e4f565b61219b81611e4f565b83612884565b6121ac61217e61202e565b6121c660408201516121bd81611e5e565b61219b81611e5e565b6121d161217e612067565b6121df606082015183612efb565b60a08101805151612297575b506080810190815151612200575b5050515190565b60200190815161220f81611e4f565b61221881611e4f565b1561226d5761224e6122669261223561222f6120ed565b86612efb565b5161223f81611e4f565b61224881611e4f565b84612884565b61225f612259612126565b84612efb565b5182612e45565b38806121f9565b60046040517fa80d31f7000000000000000000000000000000000000000000000000000000008152fd5b926122a36122596120a0565b6122ac83612f80565b60005b845180518210156122dc57906122d26122cb826122d7946120d9565b5186612efb565b611a15565b6122af565b505092506122e98261300c565b386121eb565b908160209103126102d4575190565b9161232b63ffffffff9167ffffffffffffffff604094979697168552606060208601526060850190610767565b9416910152565b908160209103126102d457516102f481610626565b6123a99291600093849261236e6123686112bb86546001600160a01b031690565b9161215f565b946040519687809481937f28242b040000000000000000000000000000000000000000000000000000000083526020998a98600485016122fe565b03925af19283156109b3578193612499575b5080826123d46112bb600494546001600160a01b031690565b604051938480927f5ab1bd530000000000000000000000000000000000000000000000000000000082525afa9283156109b35784937f1131472297a800fee664d1d89cfa8f7676ff07189ecc53f80bbb5f4969099db89361246792849261246c575b505061244c856000526001602052604060002090565b906001600160a01b03166001600160a01b0319825416179055565b80a290565b61248b9250803d10612492575b612483818361023f565b810190612332565b3880612436565b503d612479565b60049193506124bd90833d85116124c4575b6124b5818361023f565b8101906122ef565b92906123bb565b503d6124ab565b601f81116124d7575050565b600090600582527f036b6384b5eca791c62761152d0c79bb0604c104a5fb6f4eb0703f3154bb3db0906020601f850160051c83019410612532575b601f0160051c01915b82811061252757505050565b81815560010161251b565b9092508290612512565b601f8111612548575050565b600090600682527ff652222313e28459528d920b65115c16c04f3efc82aaedc97be59f3f377c0d3f906020601f850160051c830194106125a3575b601f0160051c01915b82811061259857505050565b81815560010161258c565b9092508290612583565b90815167ffffffffffffffff811161021e576125d3816125ce60065461070a565b61253c565b602080601f831160011461260f5750819293600092612604575b50508160011b916000199060031b1c191617600655565b0151905038806125ed565b90601f1983169461264260066000527ff652222313e28459528d920b65115c16c04f3efc82aaedc97be59f3f377c0d3f90565b926000905b87821061267f575050836001959610612666575b505050811b01600655565b015160001960f88460031b161c1916905538808061265b565b80600185968294968601518155019501930190612647565b90916126ae6102f493604084526040840190610767565b916020818403910152610767565b9190805167ffffffffffffffff811161021e576126e3816126de60055461070a565b6124cb565b602080601f831160011461275d575090807f7bab0ec163b5c132c72b8146ac4d6e067e82ed58f8b131150aa71c9258911562949392600091612752575b508160011b916000199060031b1c1916176005555b61273e826125ad565b61274d60405192839283612697565b0390a2565b905082015138612720565b600560005290601f1983167f036b6384b5eca791c62761152d0c79bb0604c104a5fb6f4eb0703f3154bb3db0926000905b8282106127ed5750509183917f7bab0ec163b5c132c72b8146ac4d6e067e82ed58f8b131150aa71c9258911562969594600194106127d4575b5050811b01600555612735565b84015160001960f88460031b161c1916905538806127c7565b80600185968294968a0151815501950193019061278e565b61280d611fbb565b5061010060208201526040518082526000815261012081019081106102d45760405290565b9061283b611fbb565b50601f81168061286a575b50806020830152604051908183526000825281016020019081106102d45760405290565b602003602081116117015781018091116117015738612846565b90815191612890611fbb565b5082515160018101908181116117015760208501518110156128e9575b60c260206116da96519283010153805182116128e1575b5050604051916020830152602082526128dc82610223565b612e45565b5238806128c4565b8160011b94828604600214831517156117015760208161291b6116da9861291460c295519184612832565b5082612d8d565b50965050506128ad565b61292d611fbb565b508051516001810190818111611701576020830151811015612966575b605b6020845192830101538051821161296257505090565b5290565b8160011b828104600214831517156117015761298f9061298885519186612832565b5084612d8d565b5061294a565b61299d611fbb565b5080515160018101908181116117015760208301518110156129d2575b605a6020845192830101538051821161296257505090565b8160011b82810460021483151715611701576129f49061298885519186612832565b506129ba565b612a02611fbb565b508051516001810190818111611701576020830151811015612a37575b60596020845192830101538051821161296257505090565b8160011b8281046002148315171561170157612a599061298885519186612832565b50612a1f565b612a67611fbb565b508051516001810190818111611701576020830151811015612a9c575b60586020845192830101538051821161296257505090565b8160011b8281046002148315171561170157612abe9061298885519186612832565b50612a84565b612acc611fbb565b508051516001810190818111611701576020830151811015612b01575b607b6020845192830101538051821161296257505090565b8160011b8281046002148315171561170157612b239061298885519186612832565b50612ae9565b612b31611fbb565b508051516001810190818111611701576020830151811015612b66575b607a6020845192830101538051821161296257505090565b8160011b8281046002148315171561170157612b889061298885519186612832565b50612b4e565b612b96611fbb565b508051516001810190818111611701576020830151811015612bcb575b60796020845192830101538051821161296257505090565b8160011b8281046002148315171561170157612bed9061298885519186612832565b50612bb3565b612bfb611fbb565b508051516001810190818111611701576020830151811015612c30575b60786020845192830101538051821161296257505090565b8160011b8281046002148315171561170157612c529061298885519186612832565b50612c18565b90612c61611fbb565b508151516001810191828211611701576020840151821015612c94575b6020845192830101538051821161296257505090565b8260011b8381046002148415171561170157612cbd90612cb686519187612832565b5085612d8d565b50612c7e565b90612cd082519183612832565b50612cd9611fbb565b50805190612ce5611fbb565b50612cf38151831115612e3e565b82515192612d018385611714565b916020928284809401518211612d76575b5183815197820101968211612d6e575b505001915b81811015612d485760001991036101000a0190811990511690825116179052565b9192612d63612d5d612d699286518152611706565b94611706565b92611828565b612d27565b523880612d22565b612d88612d8283611c70565b82612cc3565b612d12565b90612d96611fbb565b508051612da1611fbb565b50612daf8251821115612e3e565b82515191612dbd8284611714565b6020918291828701518111612e27575b865183815197820101968211612e1f575b505001915b81811015612e055760001991036101000a019081199051169082511617905290565b9192612d63612d5d612e1a9286518152611706565b612de3565b523880612dde565b612e39612e3382611c70565b88612cc3565b612dcd565b156102d457565b8151612e7d92919067ffffffffffffffff81169060178211612e8057612e759150604060ff845192161790612c58565b505b51612d8d565b50565b5060ff8111612ea557612e9f90612e978351612a5f565b5082516131d6565b50612e77565b61ffff8111612ec457612e9f90612ebc83516129fa565b50825161316f565b63ffffffff8111612ee557612e9f90612edd8351612995565b508251613106565b612e9f90612ef38351612925565b508251613099565b8151612e7d92919067ffffffffffffffff81169060178211612f2b57612e759150606060ff845192161790612c58565b5060ff8111612f4257612e9f90612e978351612bf3565b61ffff8111612f5957612e9f90612ebc8351612b8e565b63ffffffff8111612f7257612e9f90612edd8351612b29565b612e9f90612ef38351612ac4565b805190612f8b611fbb565b508151516001810190818111611701576020840151811015612fd9575b609f6020809551928301015380518211612fd1575b505001805190600182018092116117015752565b523880612fbd565b8160011b9382850460021483151715611701576020816130028297612914609f95519184612832565b5095505050612fa8565b805190613017611fbb565b508151516001810190818111611701576020840151811015613066575b60ff602080955192830101538051821161305e575b50500180516000198101919082116117015752565b523880613049565b8160011b93828504600214831517156117015760208161308f829761291460ff95519184612832565b5095505050613034565b906130a2611fbb565b5081515180600801918260081161170157602084015183116130e5575b60088451928301019067ffffffffffffffff198251161790528051821161296257505090565b8260011b83810460021484151715611701576131019085612cc3565b6130bf565b9061310f611fbb565b50815151806004019182600411611701576020840151831161314e575b60048451928301019063ffffffff198251161790528051821161296257505090565b8260011b838104600214841517156117015761316a9085612cc3565b61312c565b90613178611fbb565b5081515180600201918260021161170157602084015183116131b5575b60028451928301019061ffff198251161790528051821161296257505090565b8260011b83810460021484151715611701576131d19085612cc3565b613195565b906131df611fbb565b50815151806001019182600111611701576020840151831161321b575b60018451928301019060ff198251161790528051821161296257505090565b8260011b83810460021484151715611701576132379085612cc3565b6131fc56fea26469706673582212204e5490d802e78b7f128a7da911ac065eeea80d162024660d3120f162cae58ba864736f6c63430008130033",
  "linkReferences": {},
  "deployedLinkReferences": {}
}