{
  "_format": "hh-sol-artifact-1",
  "contractName": "WikiWager",
  "sourceName": "contracts/WikiWager.sol",
  "abi": [
    {
      "inputs": [
        {
          "internalType": "address",
          "name": "_oracle",
          "type": "address"
        },
        {
          "internalType": "uint256",
          "name": "_serviceFeePercentage",
          "type": "uint256"
        },
        {
          "internalType": "address",
          "name": "_serviceFeeWallet",
          "type": "address"
        },
        {
          "internalType": "uint256",
          "name": "_bettingEndTime",
          "type": "uint256"
        },
        {
          "internalType": "string[]",
          "name": "_candidateNames",
          "type": "string[]"
        }
      ],
      "stateMutability": "nonpayable",
      "type": "constructor"
    },
    {
      "inputs": [],
      "name": "EmptyArgs",
      "type": "error"
    },
    {
      "inputs": [],
      "name": "EmptySecrets",
      "type": "error"
    },
    {
      "inputs": [],
      "name": "EmptySource",
      "type": "error"
    },
    {
      "inputs": [],
      "name": "NoInlineSecrets",
      "type": "error"
    },
    {
      "inputs": [],
      "name": "RequestIsAlreadyPending",
      "type": "error"
    },
    {
      "inputs": [],
      "name": "RequestIsNotPending",
      "type": "error"
    },
    {
      "inputs": [],
      "name": "SenderIsNotRegistry",
      "type": "error"
    },
    {
      "anonymous": false,
      "inputs": [
        {
          "indexed": true,
          "internalType": "address",
          "name": "bettor",
          "type": "address"
        },
        {
          "indexed": false,
          "internalType": "uint256",
          "name": "amount",
          "type": "uint256"
        },
        {
          "indexed": false,
          "internalType": "uint256",
          "name": "candidateIndex",
          "type": "uint256"
        }
      ],
      "name": "BetMade",
      "type": "event"
    },
    {
      "anonymous": false,
      "inputs": [
        {
          "indexed": true,
          "internalType": "address",
          "name": "bettor",
          "type": "address"
        },
        {
          "indexed": false,
          "internalType": "uint256",
          "name": "amount",
          "type": "uint256"
        },
        {
          "indexed": false,
          "internalType": "uint256",
          "name": "candidateIndex",
          "type": "uint256"
        }
      ],
      "name": "BetWithdrawn",
      "type": "event"
    },
    {
      "anonymous": false,
      "inputs": [
        {
          "indexed": false,
          "internalType": "uint256",
          "name": "winnerIndex",
          "type": "uint256"
        }
      ],
      "name": "EventResultReceived",
      "type": "event"
    },
    {
      "anonymous": false,
      "inputs": [
        {
          "indexed": true,
          "internalType": "bytes32",
          "name": "requestId",
          "type": "bytes32"
        },
        {
          "indexed": false,
          "internalType": "bytes",
          "name": "result",
          "type": "bytes"
        },
        {
          "indexed": false,
          "internalType": "bytes",
          "name": "err",
          "type": "bytes"
        }
      ],
      "name": "OCRResponse",
      "type": "event"
    },
    {
      "anonymous": false,
      "inputs": [
        {
          "indexed": true,
          "internalType": "address",
          "name": "from",
          "type": "address"
        },
        {
          "indexed": true,
          "internalType": "address",
          "name": "to",
          "type": "address"
        }
      ],
      "name": "OwnershipTransferRequested",
      "type": "event"
    },
    {
      "anonymous": false,
      "inputs": [
        {
          "indexed": true,
          "internalType": "address",
          "name": "from",
          "type": "address"
        },
        {
          "indexed": true,
          "internalType": "address",
          "name": "to",
          "type": "address"
        }
      ],
      "name": "OwnershipTransferred",
      "type": "event"
    },
    {
      "anonymous": false,
      "inputs": [
        {
          "indexed": true,
          "internalType": "bytes32",
          "name": "id",
          "type": "bytes32"
        }
      ],
      "name": "RequestFulfilled",
      "type": "event"
    },
    {
      "anonymous": false,
      "inputs": [
        {
          "indexed": true,
          "internalType": "bytes32",
          "name": "id",
          "type": "bytes32"
        }
      ],
      "name": "RequestSent",
      "type": "event"
    },
    {
      "inputs": [],
      "name": "acceptOwnership",
      "outputs": [],
      "stateMutability": "nonpayable",
      "type": "function"
    },
    {
      "inputs": [
        {
          "internalType": "address",
          "name": "oracleAddress",
          "type": "address"
        },
        {
          "internalType": "bytes32",
          "name": "requestId",
          "type": "bytes32"
        }
      ],
      "name": "addSimulatedRequestId",
      "outputs": [],
      "stateMutability": "nonpayable",
      "type": "function"
    },
    {
      "inputs": [
        {
          "internalType": "uint256",
          "name": "",
          "type": "uint256"
        }
      ],
      "name": "bets",
      "outputs": [
        {
          "internalType": "address",
          "name": "bettor",
          "type": "address"
        },
        {
          "internalType": "uint256",
          "name": "amount",
          "type": "uint256"
        },
        {
          "internalType": "uint256",
          "name": "candidateIndex",
          "type": "uint256"
        },
        {
          "internalType": "bool",
          "name": "withdrawn",
          "type": "bool"
        }
      ],
      "stateMutability": "view",
      "type": "function"
    },
    {
      "inputs": [],
      "name": "bettingEndTime",
      "outputs": [
        {
          "internalType": "uint256",
          "name": "",
          "type": "uint256"
        }
      ],
      "stateMutability": "view",
      "type": "function"
    },
    {
      "inputs": [
        {
          "internalType": "address",
          "name": "user",
          "type": "address"
        },
        {
          "internalType": "uint256",
          "name": "candidateIndex",
          "type": "uint256"
        }
      ],
      "name": "calculateUserBet",
      "outputs": [
        {
          "internalType": "uint256",
          "name": "",
          "type": "uint256"
        }
      ],
      "stateMutability": "view",
      "type": "function"
    },
    {
      "inputs": [
        {
          "internalType": "uint256",
          "name": "",
          "type": "uint256"
        }
      ],
      "name": "candidateWinnings",
      "outputs": [
        {
          "internalType": "uint256",
          "name": "",
          "type": "uint256"
        }
      ],
      "stateMutability": "view",
      "type": "function"
    },
    {
      "inputs": [
        {
          "internalType": "uint256",
          "name": "",
          "type": "uint256"
        }
      ],
      "name": "candidates",
      "outputs": [
        {
          "internalType": "string",
          "name": "name",
          "type": "string"
        },
        {
          "internalType": "bool",
          "name": "exists",
          "type": "bool"
        }
      ],
      "stateMutability": "view",
      "type": "function"
    },
    {
      "inputs": [],
      "name": "claimWinnings",
      "outputs": [],
      "stateMutability": "nonpayable",
      "type": "function"
    },
    {
      "inputs": [
        {
          "components": [
            {
              "internalType": "enum Functions.Location",
              "name": "codeLocation",
              "type": "uint8"
            },
            {
              "internalType": "enum Functions.Location",
              "name": "secretsLocation",
              "type": "uint8"
            },
            {
              "internalType": "enum Functions.CodeLanguage",
              "name": "language",
              "type": "uint8"
            },
            {
              "internalType": "string",
              "name": "source",
              "type": "string"
            },
            {
              "internalType": "bytes",
              "name": "secrets",
              "type": "bytes"
            },
            {
              "internalType": "string[]",
              "name": "args",
              "type": "string[]"
            }
          ],
          "internalType": "struct Functions.Request",
          "name": "req",
          "type": "tuple"
        },
        {
          "internalType": "uint64",
          "name": "subscriptionId",
          "type": "uint64"
        },
        {
          "internalType": "uint32",
          "name": "gasLimit",
          "type": "uint32"
        },
        {
          "internalType": "uint256",
          "name": "gasPrice",
          "type": "uint256"
        }
      ],
      "name": "estimateCost",
      "outputs": [
        {
          "internalType": "uint96",
          "name": "",
          "type": "uint96"
        }
      ],
      "stateMutability": "view",
      "type": "function"
    },
    {
      "inputs": [],
      "name": "eventConfirmation",
      "outputs": [
        {
          "internalType": "uint256",
          "name": "count",
          "type": "uint256"
        },
        {
          "internalType": "uint256",
          "name": "resultIndex",
          "type": "uint256"
        },
        {
          "internalType": "uint256",
          "name": "lastConfirmationTimestamp",
          "type": "uint256"
        }
      ],
      "stateMutability": "view",
      "type": "function"
    },
    {
      "inputs": [
        {
          "internalType": "string",
          "name": "source",
          "type": "string"
        },
        {
          "internalType": "bytes",
          "name": "secrets",
          "type": "bytes"
        },
        {
          "internalType": "string[]",
          "name": "args",
          "type": "string[]"
        },
        {
          "internalType": "uint64",
          "name": "subscriptionId",
          "type": "uint64"
        },
        {
          "internalType": "uint32",
          "name": "gasLimit",
          "type": "uint32"
        }
      ],
      "name": "executeRequest",
      "outputs": [
        {
          "internalType": "bytes32",
          "name": "",
          "type": "bytes32"
        }
      ],
      "stateMutability": "nonpayable",
      "type": "function"
    },
    {
      "inputs": [],
      "name": "fulfill",
      "outputs": [],
      "stateMutability": "nonpayable",
      "type": "function"
    },
    {
      "inputs": [],
      "name": "getDONPublicKey",
      "outputs": [
        {
          "internalType": "bytes",
          "name": "",
          "type": "bytes"
        }
      ],
      "stateMutability": "view",
      "type": "function"
    },
    {
      "inputs": [],
      "name": "getLatestResponse",
      "outputs": [
        {
          "internalType": "string",
          "name": "",
          "type": "string"
        }
      ],
      "stateMutability": "view",
      "type": "function"
    },
    {
      "inputs": [],
      "name": "getTotalBetsPool",
      "outputs": [
        {
          "internalType": "uint256",
          "name": "",
          "type": "uint256"
        }
      ],
      "stateMutability": "view",
      "type": "function"
    },
    {
      "inputs": [
        {
          "internalType": "bytes32",
          "name": "requestId",
          "type": "bytes32"
        },
        {
          "internalType": "bytes",
          "name": "response",
          "type": "bytes"
        },
        {
          "internalType": "bytes",
          "name": "err",
          "type": "bytes"
        }
      ],
      "name": "handleOracleFulfillment",
      "outputs": [],
      "stateMutability": "nonpayable",
      "type": "function"
    },
    {
      "inputs": [],
      "name": "latestError",
      "outputs": [
        {
          "internalType": "bytes",
          "name": "",
          "type": "bytes"
        }
      ],
      "stateMutability": "view",
      "type": "function"
    },
    {
      "inputs": [],
      "name": "latestRequestId",
      "outputs": [
        {
          "internalType": "bytes32",
          "name": "",
          "type": "bytes32"
        }
      ],
      "stateMutability": "view",
      "type": "function"
    },
    {
      "inputs": [],
      "name": "latestResponse",
      "outputs": [
        {
          "internalType": "bytes",
          "name": "",
          "type": "bytes"
        }
      ],
      "stateMutability": "view",
      "type": "function"
    },
    {
      "inputs": [
        {
          "internalType": "uint256",
          "name": "candidateIndex",
          "type": "uint256"
        }
      ],
      "name": "makeBet",
      "outputs": [],
      "stateMutability": "payable",
      "type": "function"
    },
    {
      "inputs": [],
      "name": "owner",
      "outputs": [
        {
          "internalType": "address",
          "name": "",
          "type": "address"
        }
      ],
      "stateMutability": "view",
      "type": "function"
    },
    {
      "inputs": [],
      "name": "serviceFeePercentage",
      "outputs": [
        {
          "internalType": "uint256",
          "name": "",
          "type": "uint256"
        }
      ],
      "stateMutability": "view",
      "type": "function"
    },
    {
      "inputs": [],
      "name": "serviceFeeWallet",
      "outputs": [
        {
          "internalType": "address",
          "name": "",
          "type": "address"
        }
      ],
      "stateMutability": "view",
      "type": "function"
    },
    {
      "inputs": [
        {
          "internalType": "string",
          "name": "_latestResponse",
          "type": "string"
        }
      ],
      "name": "setLatestResponse",
      "outputs": [],
      "stateMutability": "nonpayable",
      "type": "function"
    },
    {
      "inputs": [
        {
          "internalType": "address",
          "name": "_serviceFeeWallet",
          "type": "address"
        }
      ],
      "name": "setServiceFeeWallet",
      "outputs": [],
      "stateMutability": "nonpayable",
      "type": "function"
    },
    {
      "inputs": [
        {
          "internalType": "uint256",
          "name": "",
          "type": "uint256"
        }
      ],
      "name": "totalBets",
      "outputs": [
        {
          "internalType": "uint256",
          "name": "",
          "type": "uint256"
        }
      ],
      "stateMutability": "view",
      "type": "function"
    },
    {
      "inputs": [
        {
          "internalType": "address",
          "name": "to",
          "type": "address"
        }
      ],
      "name": "transferOwnership",
      "outputs": [],
      "stateMutability": "nonpayable",
      "type": "function"
    },
    {
      "inputs": [
        {
          "internalType": "address",
          "name": "oracle",
          "type": "address"
        }
      ],
      "name": "updateOracleAddress",
      "outputs": [],
      "stateMutability": "nonpayable",
      "type": "function"
    },
    {
      "inputs": [
        {
          "internalType": "address",
          "name": "",
          "type": "address"
        }
      ],
      "name": "userBet",
      "outputs": [
        {
          "internalType": "address",
          "name": "bettor",
          "type": "address"
        },
        {
          "internalType": "uint256",
          "name": "amount",
          "type": "uint256"
        },
        {
          "internalType": "uint256",
          "name": "candidateIndex",
          "type": "uint256"
        },
        {
          "internalType": "bool",
          "name": "withdrawn",
          "type": "bool"
        }
      ],
      "stateMutability": "view",
      "type": "function"
    },
    {
      "inputs": [
        {
          "internalType": "address",
          "name": "",
          "type": "address"
        }
      ],
      "name": "userWinnings",
      "outputs": [
        {
          "internalType": "uint256",
          "name": "",
          "type": "uint256"
        }
      ],
      "stateMutability": "view",
      "type": "function"
    },
    {
      "inputs": [],
      "name": "withdraw",
      "outputs": [],
      "stateMutability": "nonpayable",
      "type": "function"
    }
  ],
  "bytecode": "0x604060808152346200045f576200392790813803806200001f816200048f565b93843982019160a0818403126200045f576200003b81620004b5565b90602090818101519162000051858301620004b5565b606083015160808401516001600160401b03949192918582116200045f570188601f820112156200045f57805198858a1162000479578960051b9085806200009b8185016200048f565b809d81520192840101928184116200045f57868101925b848410620003ce57505050505060018060a01b038096169560018060a01b031991600096888489541617885533156200038a5733846002541617600255600198896007558460085416176008556009551690600a541617600a55600b558451916060830196838810828911176200037657859787528484528487600019958686820152015284601255836013558460145584975b6200015b575b865161345c9081620004cb8239f35b80518810156200037057828860051b82010151875190888201828110858211176200035c578952815283810190878252600c8054906801000000000000000082101562000334578982018082558210156200034857885285882090891b019051805190858211620003345782548a81811c9116801562000329575b8882101462000315579081601f8c95949311620002c1575b508790601f83116001146200025c578a91908362000250575b50508882851b9260031b1c19161781555b019051151560ff801983541691161790558388146200023c57968501968562000146565b634e487b7160e01b85526011600452602485fd5b01519050388062000207565b838b52888b209190601f1984168c5b8b828210620002aa575050908487959493921062000292575b505050811b01815562000218565b01518a60f88460031b161c1916905538808062000284565b8385015186558f989095019493840193016200026b565b9091928094508a52878a20601f840160051c8101918985106200030a575b90601f8d96959493920160051c01905b818110620002fe5750620001ee565b8b81558c9501620002ef565b9091508190620002df565b634e487b7160e01b8a52602260045260248afd5b90607f1690620001d6565b634e487b7160e01b89526041600452602489fd5b634e487b7160e01b89526032600452602489fd5b634e487b7160e01b88526041600452602488fd5b6200014c565b634e487b7160e01b85526041600452602485fd5b895162461bcd60e51b815260048101879052601860248201527f43616e6e6f7420736574206f776e657220746f207a65726f00000000000000006044820152606490fd5b83518981116200045f57820183603f820112156200045f57888101518a811162000464578d918562000409601f8401601f19168d016200048f565b9383855283830101116200045f57908a92918f6000905b83821062000442575050509060008380959383010152815201930192620000b2565b81839495969301015182828701015201908f918c94939262000420565b600080fd5b60246000634e487b7160e01b81526041600452fd5b634e487b7160e01b600052604160045260246000fd5b6040519190601f01601f191682016001600160401b038111838210176200047957604052565b51906001600160a01b03821682036200045f5756fe6080604052600436101561001257600080fd5b60003560e01c80630ca76175146102025780631aa46f59146101fd57806322af00fa146101f8578063271b69c2146101f357806327714589146101ee57806330bda99d146101e95780633477ee2e146101e4578063374c6e1c146101df5780633ccfd60b146101da5780633dac2cf0146101d5578063431a4518146101d05780636032f4a6146101cb578063603ef649146101c657806367075032146101c157806367ad4ec2146101bc578063718cc769146101b757806372281386146101b257806375bd9f9c146101ad57806379ba5097146101a85780638da5cb5b146101a3578063900089de1461019e578063a814e34f1461018f578063a815a4d414610199578063b401faf114610194578063bef3a2f01461018f578063d328a91e1461018a578063d4b3917514610185578063f2fde38b14610180578063f7023bb61461017b578063ff634384146101765763fffeb84e1461017157600080fd5b6114ee565b6114c2565b61147e565b6113ab565b61129f565b61110a565b610f2e565b611052565b611014565b610f03565b610edc565b610e15565b610df2565b610dae565b610cd8565b610c58565b610c3a565b610c1c565b610b2a565b610afb565b6109e0565b6108c6565b61089a565b6107c7565b610652565b61058e565b6104e5565b610467565b6103f4565b610312565b634e487b7160e01b600052604160045260246000fd5b6080810190811067ffffffffffffffff82111761023957604052565b610207565b6040810190811067ffffffffffffffff82111761023957604052565b90601f8019910116810190811067ffffffffffffffff82111761023957604052565b6040519060c0820182811067ffffffffffffffff82111761023957604052565b67ffffffffffffffff811161023957601f01601f191660200190565b9291926102c48261029c565b916102d2604051938461025a565b8294818452818301116102ef578281602093846000960137010152565b600080fd5b9080601f830112156102ef5781602061030f933591016102b8565b90565b346102ef5760603660031901126102ef5767ffffffffffffffff6004356024358281116102ef576103479036906004016102f4565b916044359081116102ef576103609036906004016102f4565b60009282845260016020526001600160a01b0360408520541633036103ca57826103c79385526001602052604085206001600160a01b03198154169055807f85e1543bf2f84fe80c6badbce3648c8539ad1df4d2b3d822938ca0538be727e68680a26128ab565b80f35b60046040517fa0c5ec63000000000000000000000000000000000000000000000000000000008152fd5b346102ef5760003660031901126102ef576020600454604051908152f35b634e487b7160e01b600052603260045260246000fd5b600d5481101561046257600d60005260021b7fd7b6990105719101dabeb77144f2a3385c8033acd3af97e9423a695e81ad1eb50190600090565b610412565b346102ef5760203660031901126102ef57600435600d548110156102ef5761048e90610428565b506001600160a01b038154166104e160018301549260ff6003600283015492015416906040519485948592606092959491956001600160a01b036080860197168552602085015260408401521515910152565b0390f35b346102ef5760003660031901126102ef5760206001600160a01b03600a5416604051908152f35b9181601f840112156102ef5782359167ffffffffffffffff83116102ef57602083818601950101116102ef57565b6064359067ffffffffffffffff821682036102ef57565b6024359067ffffffffffffffff821682036102ef57565b6084359063ffffffff821682036102ef57565b6044359063ffffffff821682036102ef57565b346102ef5760a03660031901126102ef5767ffffffffffffffff6004358181116102ef576105c090369060040161050c565b91906024358281116102ef576105da90369060040161050c565b939092604435928184116102ef57366023850112156102ef5783600401359182116102ef573660248360051b860101116102ef576104e1956106319561061e61053a565b946024610629610568565b970193611624565b6040519081529081906020820190565b6001600160a01b038116036102ef57565b346102ef5760403660031901126102ef5760043561066f81610641565b60243561067a6115cc565b60009181835260016020526001600160a01b036040842054166106c1576103c7918352600160205260408320906001600160a01b03166001600160a01b0319825416179055565b60046040517f8b457ad2000000000000000000000000000000000000000000000000000000008152fd5b600c5481101561046257600c60005260011b7fdf6966c971051c3d54ec59162606531493a51404a002842f56009d7e5cf4a8c70190600090565b90600182811c92168015610755575b602083101461073f57565b634e487b7160e01b600052602260045260246000fd5b91607f1691610734565b60005b8381106107725750506000910152565b8181015183820152602001610762565b9060209161079b8151809281855285808601910161075f565b601f01601f1916010190565b906107bf602091949394604084526040840190610782565b931515910152565b346102ef576020806003193601126102ef57600435600c548110156102ef576107ef906106eb565b50906040519060009280549161080483610725565b80855260019380851690811561087e5750600114610847575b505061082f836108379495038561025a565b015460ff1690565b906104e1604051928392836107a7565b60008381528281209650905b8082106108695750840101935061082f8361081d565b86548683018401529584019590820190610853565b60ff19168387015250151560051b840101935061082f8361081d565b346102ef5760203660031901126102ef57600435600052600e6020526020604060002054604051908152f35b346102ef576000806003193601126109dd576108e0611946565b33600090815260106020526040902060018101549082600283159261090584156118a4565b6109416003820161092661092161091d835460ff1690565b1590565b6118ef565b610934600b54421115611764565b805460ff19166001179055565b019182546109776109668661096084600052600e602052604060002090565b546119ba565b91600052600e602052604060002090565b558382916109d3575b8280929181923390f1156109ce575460408051928352602083019190915233917f4299c453876a68bb29cdb474af75da86e37965eb6469480dddf650271aabb2149190a26103c76001600755565b61193a565b6108fc9150610980565b80fd5b346102ef576020806003193601126102ef5767ffffffffffffffff6004358181116102ef57610a139036906004016102f4565b91610a1c6115cc565b825191821161023957610a3982610a34600554610725565b61202d565b80601f8311600114610a7457508192600092610a69575b5050600019600383901b1c191660019190911b17600555005b015190503880610a50565b90601f19831693610aa760056000527f036b6384b5eca791c62761152d0c79bb0604c104a5fb6f4eb0703f3154bb3db090565b926000905b868210610ae35750508360019510610aca575b505050811b01600555005b015160001960f88460031b161c19169055388080610abf565b80600185968294968601518155019501930190610aac565b346102ef5760003660031901126102ef5760606012546013546014549060405192835260208301526040820152f35b346102ef5760003660031901126102ef57610b436115cc565b601254610b5260028210611a46565b610b62610b5d611ab7565b611f44565b610b6f600c548210611b73565b6040518181527f8011ff6cae687162ceadce3755683953b7ca3a4d40ac0d754e9d898f4d46a77a92908390602090a16013548214610bc75750610bbc9150610bb76001601255565b601355565b610bc542601455565b005b610bf09150610beb90610be6610bde601454611875565b421015611bbe565b611c09565b601255565b610bf942601455565b600260125414610c0557005b601354604051818152610bc59290602090a1611c38565b346102ef5760003660031901126102ef576020600954604051908152f35b346102ef5760003660031901126102ef576020600b54604051908152f35b346102ef5760203660031901126102ef57600435610c7581610641565b6001600160a01b0380911660005260106020526040600020908154166104e160018301549260ff6003600283015492015416906040519485948592606092959491956001600160a01b036080860197168552602085015260408401521515910152565b60203660031901126102ef57600435610cf4600c548210611719565b610d02600b54421115611764565b610d77604051610d118161021d565b33815234602082015282604082015260006060820152610d3081611806565b610d4e34610d4885600052600e602052604060002090565b54611897565b610d6284600052600e602052604060002090565b553360009081526010602052604090206117af565b60408051348152602081019290925233917faef4e091ec4a3800e3135934210edcf6949b208c449c51fe586e99d1700ba2c09190a2005b346102ef5760203660031901126102ef576001600160a01b03600435610dd381610641565b610ddb6115cc565b166001600160a01b0319600a541617600a55600080f35b346102ef5760003660031901126102ef576020610e0d611f08565b604051908152f35b346102ef576000806003193601126109dd576001600160a01b0380600354163303610e98576002546001600160a01b0316600280546001600160a01b0319163317905590610e6e6001600160a01b031960035416600355565b3391167f8be0079c531659141344cd1fd0a4f28419497f9722a3daafe3b4186f6b6457e08380a380f35b606460405162461bcd60e51b815260206004820152601660248201527f4d7573742062652070726f706f736564206f776e6572000000000000000000006044820152fd5b346102ef5760003660031901126102ef5760206001600160a01b0360025416604051908152f35b346102ef5760403660031901126102ef576020610e0d600435610f2581610641565b602435906119c7565b346102ef576000806003193601126109dd576040519080600554610f5181610725565b80855291600191808316908115610fea5750600114610f8f575b6104e185610f7b8187038261025a565b604051918291602083526020830190610782565b9250600583527f036b6384b5eca791c62761152d0c79bb0604c104a5fb6f4eb0703f3154bb3db05b828410610fd2575050508101602001610f7b826104e1610f6b565b80546020858701810191909152909301928101610fb7565b8695506104e196935060209250610f7b94915060ff191682840152151560051b8201019293610f6b565b346102ef5760203660031901126102ef576001600160a01b0360043561103981610641565b1660005260116020526020604060002054604051908152f35b346102ef576000806003193601126109dd5761106c611946565b3381526011602052604081205480156110b5578180808093816110a2336001600160a01b03166000526011602052604060002090565b553382f1156109ce576103c76001600755565b606460405162461bcd60e51b815260206004820152601460248201527f4e6f2077696e6e696e677320746f20636c61696d0000000000000000000000006044820152fd5b90602061030f928181520190610782565b346102ef576000806003193601126109dd576004816001600160a01b03815416604051928380927fd328a91e0000000000000000000000000000000000000000000000000000000082525afa9081156109ce578291611172575b604051806104e184826110f9565b90503d8083833e611183818361025a565b8101906020818303126111f15780519067ffffffffffffffff82116111f5570181601f820112156111f1578051926111ba8461029c565b926111c8604051948561025a565b848452602085840101116109dd57506104e1926111eb916020808501910161075f565b38611164565b8280fd5b8380fd5b359060028210156102ef57565b359060018210156102ef57565b90929167ffffffffffffffff808511610239578460051b604051936020809561123e8285018261025a565b8098815201918101938085116102ef5781925b8584106112615750505050505050565b83358581116102ef57879161127984849387016102f4565b815201930192611251565b9080601f830112156102ef5781602061030f93359101611213565b346102ef576003196080368201126102ef5760043567ffffffffffffffff918282116102ef5760c09082360301126102ef576112d961027c565b6112e5826004016111f9565b81526112f3602483016111f9565b602082015261130460448301611206565b604082015260648201358381116102ef5761132590600436918501016102f4565b606082015260848201358381116102ef5761134690600436918501016102f4565b608082015260a48201359283116102ef5761136d61138c9260046104e19536920101611284565b60a082015261137a610551565b61138261057b565b90606435926122c1565b6040516bffffffffffffffffffffffff90911681529081906020820190565b346102ef5760203660031901126102ef576001600160a01b036004356113d081610641565b6113d86115cc565b1633811461143a57806001600160a01b031960035416176003556114136114076002546001600160a01b031690565b6001600160a01b031690565b7fed8889f560326eb138920d842192f0eb3dd22b4f139c87a2c57538e05bae1278600080a3005b606460405162461bcd60e51b815260206004820152601760248201527f43616e6e6f74207472616e7366657220746f2073656c660000000000000000006044820152fd5b346102ef5760203660031901126102ef576001600160a01b036004356114a381610641565b6114ab6115cc565b166001600160a01b03196000541617600055600080f35b346102ef5760203660031901126102ef57600435600052600f6020526020604060002054604051908152f35b346102ef576000806003193601126109dd57604051908060065461151181610725565b808552916001918083169081156115a25750600114611547575b6104e18561153b8187038261025a565b604051918291826110f9565b9250600683527ff652222313e28459528d920b65115c16c04f3efc82aaedc97be59f3f377c0d3f5b82841061158a57505050810160200161153b826104e161152b565b8054602085870181019190915290930192810161156f565b8695506104e19693506020925061153b94915060ff191682840152151560051b820101929361152b565b6001600160a01b036002541633036115e057565b606460405162461bcd60e51b815260206004820152601660248201527f4f6e6c792063616c6c61626c65206279206f776e6572000000000000000000006044820152fd5b969594919093926116336115cc565b6040519460c0860186811067ffffffffffffffff821117610239576040526000865260006020870152611686604087019960008b52606088019260608452606060808a0152606060a08a015236916102b8565b908151156116ef5760006116ae9a8189525252806116d3575b5050806116b7575b5050612702565b61030f81600455565b6116cc916116c6913691611213565b82612266565b38806116a7565b6116e8916116e29136916102b8565b84612228565b388061169f565b60046040517f22ce3edd000000000000000000000000000000000000000000000000000000008152fd5b1561172057565b606460405162461bcd60e51b815260206004820152601760248201527f496e76616c69642063616e64696461746520696e6465780000000000000000006044820152fd5b1561176b57565b606460405162461bcd60e51b815260206004820152601160248201527f42657474696e672068617320656e6465640000000000000000000000000000006044820152fd5b60036060916117de6001600160a01b0385511682906001600160a01b03166001600160a01b0319825416179055565b602084015160018201556040840151600282015501910151151560ff80198354169116179055565b600d549068010000000000000000821015610239576001820180600d558210156104625761185d91600d60005260021b7fd7b6990105719101dabeb77144f2a3385c8033acd3af97e9423a695e81ad1eb5016117af565b565b634e487b7160e01b600052601160045260246000fd5b9061012c820180921161188457565b61185f565b906020820180921161188457565b9190820180921161188457565b156118ab57565b606460405162461bcd60e51b815260206004820152601260248201527f4e6f2062657420746f20776974686472617700000000000000000000000000006044820152fd5b156118f657565b606460405162461bcd60e51b815260206004820152601560248201527f42657420616c72656164792077697468647261776e00000000000000000000006044820152fd5b6040513d6000823e3d90fd5b600260075414611957576002600755565b606460405162461bcd60e51b815260206004820152601f60248201527f5265656e7472616e637947756172643a207265656e7472616e742063616c6c006044820152fd5b6113871981019190821161188457565b601f1981019190821161188457565b9190820391821161188457565b6119d4600c548310611719565b6001600160a01b038091166000526010602052604060002091604051916119fa8361021d565b835416825260018301549283602084015260ff6003600283015492836040870152015416159260608415910152149081611a3e575b5015611a385790565b50600090565b905038611a2f565b15611a4d57565b608460405162461bcd60e51b815260206004820152602760248201527f4576656e7420726573756c742068617320616c7265616479206265656e20636f60448201527f6e6669726d6564000000000000000000000000000000000000000000000000006064820152fd5b6040519060008260055491611acb83610725565b80835292600190818116908115611b515750600114611af2575b5061185d9250038361025a565b6005600090815291507f036b6384b5eca791c62761152d0c79bb0604c104a5fb6f4eb0703f3154bb3db05b848310611b36575061185d935050810160200138611ae5565b81935090816020925483858a01015201910190918592611b1d565b90506020925061185d94915060ff191682840152151560051b82010138611ae5565b15611b7a57565b606460405162461bcd60e51b815260206004820152600e60248201527f496e76616c69642077696e6e65720000000000000000000000000000000000006044820152fd5b15611bc557565b606460405162461bcd60e51b815260206004820152601d60248201527f436f6e6669726d6174696f6e20696e74657276616c206e6f74206d65740000006044820152fd5b60001981146118845760010190565b8115611c22570490565b634e487b7160e01b600052601260045260246000fd5b6000818152600e60205260408120548015611e5f57600f6020526040822055600d5491606483018084116118845760638401908111611884576064900492611c8a82600052600e602052604060002090565b5490611c94611f08565b606491808311611e57575b509084918293835b838110611d9257505050508080611ccc611cc5829560095490611e7a565b6064900490565b611ce4611407611407600a546001600160a01b031690565b828215611d89575bf1156109ce5782600110611cff57505050565b61185d92829182611d68611d76611d155a61199b565b9460405192839160208301967f9aa2d06b00000000000000000000000000000000000000000000000000000000885260248401606090939291936080810194815260016020820152606460408201520152565b03601f19810183528261025a565b51923090f1611d83611e8d565b50611ebd565b506108fc611cec565b9091929350856002611da383610428565b50015414611dbf575b611db590611c09565b9086939291611ca7565b93611e4f611db591611dff611dea85611de5886001611ddd8d610428565b500154611e7a565b611c18565b611df9611cc560095483611e7a565b906119ba565b90611e3a82610d48611e21611e138c610428565b50546001600160a01b031690565b6001600160a01b03166000526011602052604060002090565b611e49611e21611e138b610428565b55611897565b949050611dac565b915038611c9f565b505050565b908160011b918083046002149015171561188457565b8181029291811591840414171561188457565b3d15611eb8573d90611e9e8261029c565b91611eac604051938461025a565b82523d6000602084013e565b606090565b15611ec457565b606460405162461bcd60e51b815260206004820152601960248201527f426174636820646973747269627574696f6e206661696c6564000000000000006044820152fd5b600080600d545b808210611f1b57505090565b90916001611f2884610428565b500154810180911161188457611f3e9092611c09565b90611f0f565b600c549060005b828110611f5b5750505060001990565b611f64816106eb565b5060405190600091815481611f7882610725565b948582526020958683019560019488868216918260001461200e575050600114611fce575b5050611fab9250038261025a565b5190209083519084012014611fc857611fc390611c09565b611f4b565b91505090565b87925060005281600020936000945b828610611ff557505050611fab928201013880611f9d565b8054868801850152929094019385935087928101611fdd565b9250935050611fab945060ff19168652151560051b8201013880611f9d565b601f8111612039575050565b600090600582527f036b6384b5eca791c62761152d0c79bb0604c104a5fb6f4eb0703f3154bb3db0906020601f850160051c83019410612094575b601f0160051c01915b82811061208957505050565b81815560010161207d565b9092508290612074565b601f81116120aa575050565b600090600682527ff652222313e28459528d920b65115c16c04f3efc82aaedc97be59f3f377c0d3f906020601f850160051c83019410612105575b601f0160051c01915b8281106120fa57505050565b8181556001016120ee565b90925082906120e5565b90815167ffffffffffffffff81116102395761213581612130600654610725565b61209e565b602080601f83116001146121715750819293600092612166575b50508160011b916000199060031b1c191617600655565b01519050388061214f565b90601f198316946121a460066000527ff652222313e28459528d920b65115c16c04f3efc82aaedc97be59f3f377c0d3f90565b926000905b8782106121e15750508360019596106121c8575b505050811b01600655565b015160001960f88460031b161c191690553880806121bd565b806001859682949686015181550195019301906121a9565b634e487b7160e01b600052602160045260246000fd5b6002111561221957565b6121f9565b6001111561221957565b81511561223c576001602082015260800152565b60046040517fe889636f000000000000000000000000000000000000000000000000000000008152fd5b8151156122735760a00152565b60046040517ffe936cb7000000000000000000000000000000000000000000000000000000008152fd5b908160209103126102ef57516bffffffffffffffffffffffff811681036102ef5790565b67ffffffffffffffff61233194926020946122e76001600160a01b03600054169461251f565b9463ffffffff604051988997889687967fd227d245000000000000000000000000000000000000000000000000000000008852166004870152608060248701526084860190610782565b92166044840152606483015203915afa9081156109ce57600091612353575090565b61030f915060203d8111612374575b61236c818361025a565b81019061229d565b503d612362565b604051906123888261023e565b6000602083606081520152565b604051906123a28261023e565b60006020836123af61237b565b81520152565b604051906123c28261023e565b600c82527f636f64654c6f636174696f6e00000000000000000000000000000000000000006020830152565b604051906123fb8261023e565b600882527f6c616e67756167650000000000000000000000000000000000000000000000006020830152565b604051906124348261023e565b600682527f736f7572636500000000000000000000000000000000000000000000000000006020830152565b6040519061246d8261023e565b600482527f61726773000000000000000000000000000000000000000000000000000000006020830152565b80518210156104625760209160051b010190565b604051906124ba8261023e565b600f82527f736563726574734c6f636174696f6e00000000000000000000000000000000006020830152565b604051906124f38261023e565b600782527f73656372657473000000000000000000000000000000000000000000000000006020830152565b612527612395565b9061253282516129ef565b5061254461253e6123b5565b836130e5565b61256181516125528161220f565b61255b8161220f565b83612a6e565b61256c61253e6123ee565b612586604082015161257d8161221e565b61255b8161221e565b61259161253e612427565b61259f6060820151836130e5565b60a08101805151612657575b5060808101908151516125c0575b5050515190565b6020019081516125cf8161220f565b6125d88161220f565b1561262d5761260e612626926125f56125ef6124ad565b866130e5565b516125ff8161220f565b6126088161220f565b84612a6e565b61261f6126196124e6565b846130e5565b518261302f565b38806125b9565b60046040517fa80d31f7000000000000000000000000000000000000000000000000000000008152fd5b92612663612619612460565b61266c8361316a565b60005b845180518210156126975790610be661268b8261269294612499565b51866130e5565b61266f565b505092506126a4826131f6565b386125ab565b908160209103126102ef575190565b916126e663ffffffff9167ffffffffffffffff604094979697168552606060208601526060850190610782565b9416910152565b908160209103126102ef575161030f81610641565b6127649291600093849261272961272361140786546001600160a01b031690565b9161251f565b946040519687809481937f28242b040000000000000000000000000000000000000000000000000000000083526020998a98600485016126b9565b03925af19283156109ce578193612854575b50808261278f611407600494546001600160a01b031690565b604051938480927f5ab1bd530000000000000000000000000000000000000000000000000000000082525afa9283156109ce5784937f1131472297a800fee664d1d89cfa8f7676ff07189ecc53f80bbb5f4969099db893612822928492612827575b5050612807856000526001602052604060002090565b906001600160a01b03166001600160a01b0319825416179055565b80a290565b6128469250803d1061284d575b61283e818361025a565b8101906126ed565b38806127f1565b503d612834565b600491935061287890833d851161287f575b612870818361025a565b8101906126aa565b9290612776565b503d612866565b909161289d61030f93604084526040840190610782565b916020818403910152610782565b9190805167ffffffffffffffff8111610239576128cd81610a34600554610725565b602080601f8311600114612947575090807f7bab0ec163b5c132c72b8146ac4d6e067e82ed58f8b131150aa71c925891156294939260009161293c575b508160011b916000199060031b1c1916176005555b6129288261210f565b61293760405192839283612886565b0390a2565b90508201513861290a565b600560005290601f1983167f036b6384b5eca791c62761152d0c79bb0604c104a5fb6f4eb0703f3154bb3db0926000905b8282106129d75750509183917f7bab0ec163b5c132c72b8146ac4d6e067e82ed58f8b131150aa71c9258911562969594600194106129be575b5050811b0160055561291f565b84015160001960f88460031b161c1916905538806129b1565b80600185968294968a01518155019501930190612978565b6129f761237b565b5061010060208201526040518082526000815261012081019081106102ef5760405290565b90612a2561237b565b50601f811680612a54575b50806020830152604051908183526000825281016020019081106102ef5760405290565b602003602081116118845781018091116118845738612a30565b90815191612a7a61237b565b508251516001810190818111611884576020850151811015612ad3575b60c2602061185d9651928301015380518211612acb575b505060405191602083015260208252612ac68261023e565b61302f565b523880612aae565b8160011b948286046002148315171561188457602081612b0561185d98612afe60c295519184612a1c565b5082612f77565b5096505050612a97565b612b1761237b565b508051516001810190818111611884576020830151811015612b50575b605b60208451928301015380518211612b4c57505090565b5290565b8160011b8281046002148315171561188457612b7990612b7285519186612a1c565b5084612f77565b50612b34565b612b8761237b565b508051516001810190818111611884576020830151811015612bbc575b605a60208451928301015380518211612b4c57505090565b8160011b8281046002148315171561188457612bde90612b7285519186612a1c565b50612ba4565b612bec61237b565b508051516001810190818111611884576020830151811015612c21575b605960208451928301015380518211612b4c57505090565b8160011b8281046002148315171561188457612c4390612b7285519186612a1c565b50612c09565b612c5161237b565b508051516001810190818111611884576020830151811015612c86575b605860208451928301015380518211612b4c57505090565b8160011b8281046002148315171561188457612ca890612b7285519186612a1c565b50612c6e565b612cb661237b565b508051516001810190818111611884576020830151811015612ceb575b607b60208451928301015380518211612b4c57505090565b8160011b8281046002148315171561188457612d0d90612b7285519186612a1c565b50612cd3565b612d1b61237b565b508051516001810190818111611884576020830151811015612d50575b607a60208451928301015380518211612b4c57505090565b8160011b8281046002148315171561188457612d7290612b7285519186612a1c565b50612d38565b612d8061237b565b508051516001810190818111611884576020830151811015612db5575b607960208451928301015380518211612b4c57505090565b8160011b8281046002148315171561188457612dd790612b7285519186612a1c565b50612d9d565b612de561237b565b508051516001810190818111611884576020830151811015612e1a575b607860208451928301015380518211612b4c57505090565b8160011b8281046002148315171561188457612e3c90612b7285519186612a1c565b50612e02565b90612e4b61237b565b508151516001810191828211611884576020840151821015612e7e575b60208451928301015380518211612b4c57505090565b8260011b8381046002148415171561188457612ea790612ea086519187612a1c565b5085612f77565b50612e68565b90612eba82519183612a1c565b50612ec361237b565b50805190612ecf61237b565b50612edd8151831115613028565b82515192612eeb8385611897565b916020928284809401518211612f60575b5183815197820101968211612f58575b505001915b81811015612f325760001991036101000a0190811990511690825116179052565b9192612f4d612f47612f539286518152611889565b94611889565b926119ab565b612f11565b523880612f0c565b612f72612f6c83611e64565b82612ead565b612efc565b90612f8061237b565b508051612f8b61237b565b50612f998251821115613028565b82515191612fa78284611897565b6020918291828701518111613011575b865183815197820101968211613009575b505001915b81811015612fef5760001991036101000a019081199051169082511617905290565b9192612f4d612f476130049286518152611889565b612fcd565b523880612fc8565b61302361301d82611e64565b88612ead565b612fb7565b156102ef57565b815161306792919067ffffffffffffffff8116906017821161306a5761305f9150604060ff845192161790612e42565b505b51612f77565b50565b5060ff811161308f57613089906130818351612c49565b5082516133c0565b50613061565b61ffff81116130ae57613089906130a68351612be4565b508251613359565b63ffffffff81116130cf57613089906130c78351612b7f565b5082516132f0565b613089906130dd8351612b0f565b508251613283565b815161306792919067ffffffffffffffff811690601782116131155761305f9150606060ff845192161790612e42565b5060ff811161312c57613089906130818351612ddd565b61ffff811161314357613089906130a68351612d78565b63ffffffff811161315c57613089906130c78351612d13565b613089906130dd8351612cae565b80519061317561237b565b5081515160018101908181116118845760208401518110156131c3575b609f60208095519283010153805182116131bb575b505001805190600182018092116118845752565b5238806131a7565b8160011b9382850460021483151715611884576020816131ec8297612afe609f95519184612a1c565b5095505050613192565b80519061320161237b565b508151516001810190818111611884576020840151811015613250575b60ff6020809551928301015380518211613248575b50500180516000198101919082116118845752565b523880613233565b8160011b9382850460021483151715611884576020816132798297612afe60ff95519184612a1c565b509550505061321e565b9061328c61237b565b5081515180600801918260081161188457602084015183116132cf575b60088451928301019067ffffffffffffffff1982511617905280518211612b4c57505090565b8260011b83810460021484151715611884576132eb9085612ead565b6132a9565b906132f961237b565b508151518060040191826004116118845760208401518311613338575b60048451928301019063ffffffff1982511617905280518211612b4c57505090565b8260011b83810460021484151715611884576133549085612ead565b613316565b9061336261237b565b50815151806002019182600211611884576020840151831161339f575b60028451928301019061ffff1982511617905280518211612b4c57505090565b8260011b83810460021484151715611884576133bb9085612ead565b61337f565b906133c961237b565b508151518060010191826001116118845760208401518311613405575b60018451928301019060ff1982511617905280518211612b4c57505090565b8260011b83810460021484151715611884576134219085612ead565b6133e656fea264697066735822122083384029ef959e2c059045315480945ac27039036cc55c9931db6205b842c9b864736f6c63430008130033",
  "linkReferences": {},
  "deployedLinkReferences": {}
}